{
	"contracts/Register.sol": {
		"Register": {
			"abi": [
				{
					"inputs": [],
					"stateMutability": "nonpayable",
					"type": "constructor"
				},
				{
					"anonymous": false,
					"inputs": [
						{
							"indexed": true,
							"internalType": "address",
							"name": "walletAddress",
							"type": "address"
						},
						{
							"indexed": false,
							"internalType": "string",
							"name": "name",
							"type": "string"
						}
					],
					"name": "EntityRegistered",
					"type": "event"
				},
				{
					"anonymous": false,
					"inputs": [
						{
							"indexed": true,
							"internalType": "address",
							"name": "walletAddress",
							"type": "address"
						}
					],
					"name": "EntityVerified",
					"type": "event"
				},
				{
					"anonymous": false,
					"inputs": [
						{
							"indexed": true,
							"internalType": "address",
							"name": "grantedTo",
							"type": "address"
						}
					],
					"name": "PermissionGranted",
					"type": "event"
				},
				{
					"anonymous": false,
					"inputs": [
						{
							"indexed": true,
							"internalType": "address",
							"name": "walletAddress",
							"type": "address"
						},
						{
							"indexed": false,
							"internalType": "string",
							"name": "name",
							"type": "string"
						}
					],
					"name": "PersonRegistered",
					"type": "event"
				},
				{
					"anonymous": false,
					"inputs": [
						{
							"indexed": true,
							"internalType": "address",
							"name": "walletAddress",
							"type": "address"
						}
					],
					"name": "PersonVerified",
					"type": "event"
				},
				{
					"inputs": [
						{
							"internalType": "address",
							"name": "_user",
							"type": "address"
						}
					],
					"name": "grantPermission",
					"outputs": [],
					"stateMutability": "nonpayable",
					"type": "function"
				},
				{
					"inputs": [
						{
							"internalType": "address",
							"name": "_walletAddress",
							"type": "address"
						}
					],
					"name": "isEntityRegistered",
					"outputs": [
						{
							"internalType": "bool",
							"name": "",
							"type": "bool"
						},
						{
							"internalType": "bool",
							"name": "",
							"type": "bool"
						}
					],
					"stateMutability": "view",
					"type": "function"
				},
				{
					"inputs": [
						{
							"internalType": "address",
							"name": "_walletAddress",
							"type": "address"
						}
					],
					"name": "isPersonRegistered",
					"outputs": [
						{
							"internalType": "bool",
							"name": "",
							"type": "bool"
						},
						{
							"internalType": "bool",
							"name": "",
							"type": "bool"
						}
					],
					"stateMutability": "view",
					"type": "function"
				},
				{
					"inputs": [
						{
							"internalType": "string",
							"name": "_name",
							"type": "string"
						},
						{
							"internalType": "string",
							"name": "_addressPhysical",
							"type": "string"
						},
						{
							"internalType": "string",
							"name": "_responsiblePerson",
							"type": "string"
						},
						{
							"internalType": "string",
							"name": "_phone",
							"type": "string"
						},
						{
							"internalType": "string",
							"name": "_ciResponsible",
							"type": "string"
						},
						{
							"internalType": "string",
							"name": "_photo",
							"type": "string"
						},
						{
							"internalType": "string",
							"name": "_idCardPhoto",
							"type": "string"
						},
						{
							"internalType": "string",
							"name": "_placePhoto",
							"type": "string"
						}
					],
					"name": "registerEntity",
					"outputs": [],
					"stateMutability": "nonpayable",
					"type": "function"
				},
				{
					"inputs": [
						{
							"internalType": "string",
							"name": "_name",
							"type": "string"
						},
						{
							"internalType": "uint256",
							"name": "_age",
							"type": "uint256"
						},
						{
							"internalType": "string",
							"name": "_addressPhysical",
							"type": "string"
						},
						{
							"internalType": "string",
							"name": "_phone",
							"type": "string"
						},
						{
							"internalType": "string",
							"name": "_ci",
							"type": "string"
						},
						{
							"internalType": "string",
							"name": "_photo",
							"type": "string"
						},
						{
							"internalType": "string",
							"name": "_idCardPhoto",
							"type": "string"
						}
					],
					"name": "registerPerson",
					"outputs": [],
					"stateMutability": "nonpayable",
					"type": "function"
				},
				{
					"inputs": [
						{
							"internalType": "address",
							"name": "_walletAddress",
							"type": "address"
						}
					],
					"name": "revokeEntityVerification",
					"outputs": [],
					"stateMutability": "nonpayable",
					"type": "function"
				},
				{
					"inputs": [
						{
							"internalType": "address",
							"name": "_user",
							"type": "address"
						}
					],
					"name": "revokePermission",
					"outputs": [],
					"stateMutability": "nonpayable",
					"type": "function"
				},
				{
					"inputs": [
						{
							"internalType": "address",
							"name": "_walletAddress",
							"type": "address"
						}
					],
					"name": "revokePersonVerification",
					"outputs": [],
					"stateMutability": "nonpayable",
					"type": "function"
				},
				{
					"inputs": [
						{
							"internalType": "address",
							"name": "_walletAddress",
							"type": "address"
						}
					],
					"name": "verifyEntity",
					"outputs": [],
					"stateMutability": "nonpayable",
					"type": "function"
				},
				{
					"inputs": [
						{
							"internalType": "address",
							"name": "_walletAddress",
							"type": "address"
						}
					],
					"name": "verifyPerson",
					"outputs": [],
					"stateMutability": "nonpayable",
					"type": "function"
				}
			],
			"devdoc": {
				"kind": "dev",
				"methods": {},
				"version": 1
			},
			"evm": {
				"assembly": "    /* \"contracts/Register.sol\":57:4453  contract Register {... */\n  mstore(0x40, 0x80)\n    /* \"contracts/Register.sol\":1313:1362  constructor() {... */\n  callvalue\n  dup1\n  iszero\n  tag_1\n  jumpi\n  0x00\n  dup1\n  revert\ntag_1:\n  pop\n    /* \"contracts/Register.sol\":1345:1355  msg.sender */\n  caller\n    /* \"contracts/Register.sol\":1337:1342  owner */\n  0x00\n  dup1\n    /* \"contracts/Register.sol\":1337:1355  owner = msg.sender */\n  0x0100\n  exp\n  dup2\n  sload\n  dup2\n  0xffffffffffffffffffffffffffffffffffffffff\n  mul\n  not\n  and\n  swap1\n  dup4\n  0xffffffffffffffffffffffffffffffffffffffff\n  and\n  mul\n  or\n  swap1\n  sstore\n  pop\n    /* \"contracts/Register.sol\":57:4453  contract Register {... */\n  dataSize(sub_0)\n  dup1\n  dataOffset(sub_0)\n  0x00\n  codecopy\n  0x00\n  return\nstop\n\nsub_0: assembly {\n        /* \"contracts/Register.sol\":57:4453  contract Register {... */\n      mstore(0x40, 0x80)\n      callvalue\n      dup1\n      iszero\n      tag_1\n      jumpi\n      0x00\n      dup1\n      revert\n    tag_1:\n      pop\n      jumpi(tag_2, lt(calldatasize, 0x04))\n      shr(0xe0, calldataload(0x00))\n      dup1\n      0x9e8f4aec\n      gt\n      tag_13\n      jumpi\n      dup1\n      0x9e8f4aec\n      eq\n      tag_8\n      jumpi\n      dup1\n      0xa3bf5b9a\n      eq\n      tag_9\n      jumpi\n      dup1\n      0xb39a7c4e\n      eq\n      tag_10\n      jumpi\n      dup1\n      0xcfd6c606\n      eq\n      tag_11\n      jumpi\n      dup1\n      0xf7bde1da\n      eq\n      tag_12\n      jumpi\n      jump(tag_2)\n    tag_13:\n      dup1\n      0x22bed8d7\n      eq\n      tag_3\n      jumpi\n      dup1\n      0x2d8e3278\n      eq\n      tag_4\n      jumpi\n      dup1\n      0x2faeb9fc\n      eq\n      tag_5\n      jumpi\n      dup1\n      0x59bf32d5\n      eq\n      tag_6\n      jumpi\n      dup1\n      0x828057ef\n      eq\n      tag_7\n      jumpi\n    tag_2:\n      0x00\n      dup1\n      revert\n        /* \"contracts/Register.sol\":1368:1967  function registerPerson(... */\n    tag_3:\n      tag_14\n      0x04\n      dup1\n      calldatasize\n      sub\n      dup2\n      add\n      swap1\n      tag_15\n      swap2\n      swap1\n      tag_16\n      jump\t// in\n    tag_15:\n      tag_17\n      jump\t// in\n    tag_14:\n      stop\n        /* \"contracts/Register.sol\":4193:4338  function grantPermission(address _user) public onlyOwner {... */\n    tag_4:\n      tag_18\n      0x04\n      dup1\n      calldatasize\n      sub\n      dup2\n      add\n      swap1\n      tag_19\n      swap2\n      swap1\n      tag_20\n      jump\t// in\n    tag_19:\n      tag_21\n      jump\t// in\n    tag_18:\n      stop\n        /* \"contracts/Register.sol\":3175:3439  function verifyPerson(address _walletAddress) public onlyPermissioned {... */\n    tag_5:\n      tag_22\n      0x04\n      dup1\n      calldatasize\n      sub\n      dup2\n      add\n      swap1\n      tag_23\n      swap2\n      swap1\n      tag_20\n      jump\t// in\n    tag_23:\n      tag_24\n      jump\t// in\n    tag_22:\n      stop\n        /* \"contracts/Register.sol\":1973:2726  function registerEntity(... */\n    tag_6:\n      tag_25\n      0x04\n      dup1\n      calldatasize\n      sub\n      dup2\n      add\n      swap1\n      tag_26\n      swap2\n      swap1\n      tag_27\n      jump\t// in\n    tag_26:\n      tag_28\n      jump\t// in\n    tag_25:\n      stop\n        /* \"contracts/Register.sol\":3445:3711  function verifyEntity(address _walletAddress) public onlyPermissioned {... */\n    tag_7:\n      tag_29\n      0x04\n      dup1\n      calldatasize\n      sub\n      dup2\n      add\n      swap1\n      tag_30\n      swap2\n      swap1\n      tag_20\n      jump\t// in\n    tag_30:\n      tag_31\n      jump\t// in\n    tag_29:\n      stop\n        /* \"contracts/Register.sol\":3717:3948  function revokePersonVerification(address _walletAddress) public onlyPermissioned {... */\n    tag_8:\n      tag_32\n      0x04\n      dup1\n      calldatasize\n      sub\n      dup2\n      add\n      swap1\n      tag_33\n      swap2\n      swap1\n      tag_20\n      jump\t// in\n    tag_33:\n      tag_34\n      jump\t// in\n    tag_32:\n      stop\n        /* \"contracts/Register.sol\":4344:4451  function revokePermission(address _user) public onlyOwner {... */\n    tag_9:\n      tag_35\n      0x04\n      dup1\n      calldatasize\n      sub\n      dup2\n      add\n      swap1\n      tag_36\n      swap2\n      swap1\n      tag_20\n      jump\t// in\n    tag_36:\n      tag_37\n      jump\t// in\n    tag_35:\n      stop\n        /* \"contracts/Register.sol\":3954:4187  function revokeEntityVerification(address _walletAddress) public onlyPermissioned {... */\n    tag_10:\n      tag_38\n      0x04\n      dup1\n      calldatasize\n      sub\n      dup2\n      add\n      swap1\n      tag_39\n      swap2\n      swap1\n      tag_20\n      jump\t// in\n    tag_39:\n      tag_40\n      jump\t// in\n    tag_38:\n      stop\n        /* \"contracts/Register.sol\":2732:2947  function isPersonRegistered(address _walletAddress) public view returns (bool, bool) {... */\n    tag_11:\n      tag_41\n      0x04\n      dup1\n      calldatasize\n      sub\n      dup2\n      add\n      swap1\n      tag_42\n      swap2\n      swap1\n      tag_20\n      jump\t// in\n    tag_42:\n      tag_43\n      jump\t// in\n    tag_41:\n      mload(0x40)\n      tag_44\n      swap3\n      swap2\n      swap1\n      tag_45\n      jump\t// in\n    tag_44:\n      mload(0x40)\n      dup1\n      swap2\n      sub\n      swap1\n      return\n        /* \"contracts/Register.sol\":2953:3169  function isEntityRegistered(address _walletAddress) public view returns (bool, bool) {... */\n    tag_12:\n      tag_46\n      0x04\n      dup1\n      calldatasize\n      sub\n      dup2\n      add\n      swap1\n      tag_47\n      swap2\n      swap1\n      tag_20\n      jump\t// in\n    tag_47:\n      tag_48\n      jump\t// in\n    tag_46:\n      mload(0x40)\n      tag_49\n      swap3\n      swap2\n      swap1\n      tag_45\n      jump\t// in\n    tag_49:\n      mload(0x40)\n      dup1\n      swap2\n      sub\n      swap1\n      return\n        /* \"contracts/Register.sol\":1368:1967  function registerPerson(... */\n    tag_17:\n        /* \"contracts/Register.sol\":1651:1909  Person({... */\n      mload(0x40)\n      dup1\n      0x0100\n      add\n      0x40\n      mstore\n      dup1\n        /* \"contracts/Register.sol\":1678:1683  _name */\n      dup9\n        /* \"contracts/Register.sol\":1651:1909  Person({... */\n      dup2\n      mstore\n      0x20\n      add\n        /* \"contracts/Register.sol\":1702:1706  _age */\n      dup8\n        /* \"contracts/Register.sol\":1651:1909  Person({... */\n      dup2\n      mstore\n      0x20\n      add\n        /* \"contracts/Register.sol\":1737:1753  _addressPhysical */\n      dup7\n        /* \"contracts/Register.sol\":1651:1909  Person({... */\n      dup2\n      mstore\n      0x20\n      add\n        /* \"contracts/Register.sol\":1774:1780  _phone */\n      dup6\n        /* \"contracts/Register.sol\":1651:1909  Person({... */\n      dup2\n      mstore\n      0x20\n      add\n        /* \"contracts/Register.sol\":1798:1801  _ci */\n      dup5\n        /* \"contracts/Register.sol\":1651:1909  Person({... */\n      dup2\n      mstore\n      0x20\n      add\n        /* \"contracts/Register.sol\":1822:1828  _photo */\n      dup4\n        /* \"contracts/Register.sol\":1651:1909  Person({... */\n      dup2\n      mstore\n      0x20\n      add\n        /* \"contracts/Register.sol\":1855:1867  _idCardPhoto */\n      dup3\n        /* \"contracts/Register.sol\":1651:1909  Person({... */\n      dup2\n      mstore\n      0x20\n      add\n        /* \"contracts/Register.sol\":1893:1898  false */\n      0x00\n        /* \"contracts/Register.sol\":1651:1909  Person({... */\n      iszero\n      iszero\n      dup2\n      mstore\n      pop\n        /* \"contracts/Register.sol\":1629:1636  persons */\n      0x01\n        /* \"contracts/Register.sol\":1629:1648  persons[msg.sender] */\n      0x00\n        /* \"contracts/Register.sol\":1637:1647  msg.sender */\n      caller\n        /* \"contracts/Register.sol\":1629:1648  persons[msg.sender] */\n      0xffffffffffffffffffffffffffffffffffffffff\n      and\n      0xffffffffffffffffffffffffffffffffffffffff\n      and\n      dup2\n      mstore\n      0x20\n      add\n      swap1\n      dup2\n      mstore\n      0x20\n      add\n      0x00\n      keccak256\n        /* \"contracts/Register.sol\":1629:1909  persons[msg.sender] = Person({... */\n      0x00\n      dup3\n      add\n      mload\n      dup2\n      0x00\n      add\n      swap1\n      dup2\n      tag_51\n      swap2\n      swap1\n      tag_52\n      jump\t// in\n    tag_51:\n      pop\n      0x20\n      dup3\n      add\n      mload\n      dup2\n      0x01\n      add\n      sstore\n      0x40\n      dup3\n      add\n      mload\n      dup2\n      0x02\n      add\n      swap1\n      dup2\n      tag_53\n      swap2\n      swap1\n      tag_52\n      jump\t// in\n    tag_53:\n      pop\n      0x60\n      dup3\n      add\n      mload\n      dup2\n      0x03\n      add\n      swap1\n      dup2\n      tag_54\n      swap2\n      swap1\n      tag_52\n      jump\t// in\n    tag_54:\n      pop\n      0x80\n      dup3\n      add\n      mload\n      dup2\n      0x04\n      add\n      swap1\n      dup2\n      tag_55\n      swap2\n      swap1\n      tag_52\n      jump\t// in\n    tag_55:\n      pop\n      0xa0\n      dup3\n      add\n      mload\n      dup2\n      0x05\n      add\n      swap1\n      dup2\n      tag_56\n      swap2\n      swap1\n      tag_52\n      jump\t// in\n    tag_56:\n      pop\n      0xc0\n      dup3\n      add\n      mload\n      dup2\n      0x06\n      add\n      swap1\n      dup2\n      tag_57\n      swap2\n      swap1\n      tag_52\n      jump\t// in\n    tag_57:\n      pop\n      0xe0\n      dup3\n      add\n      mload\n      dup2\n      0x07\n      add\n      exp(0x0100, 0x00)\n      dup2\n      sload\n      dup2\n      0xff\n      mul\n      not\n      and\n      swap1\n      dup4\n      iszero\n      iszero\n      mul\n      or\n      swap1\n      sstore\n      pop\n      swap1\n      pop\n      pop\n        /* \"contracts/Register.sol\":1942:1952  msg.sender */\n      caller\n        /* \"contracts/Register.sol\":1925:1960  PersonRegistered(msg.sender, _name) */\n      0xffffffffffffffffffffffffffffffffffffffff\n      and\n      0x02cb9fdbcf0ed6dd2a532201c5303abb7895ea11e88096a88ba1bdc3aed68eef\n        /* \"contracts/Register.sol\":1954:1959  _name */\n      dup9\n        /* \"contracts/Register.sol\":1925:1960  PersonRegistered(msg.sender, _name) */\n      mload(0x40)\n      tag_58\n      swap2\n      swap1\n      tag_59\n      jump\t// in\n    tag_58:\n      mload(0x40)\n      dup1\n      swap2\n      sub\n      swap1\n      log2\n        /* \"contracts/Register.sol\":1368:1967  function registerPerson(... */\n      pop\n      pop\n      pop\n      pop\n      pop\n      pop\n      pop\n      jump\t// out\n        /* \"contracts/Register.sol\":4193:4338  function grantPermission(address _user) public onlyOwner {... */\n    tag_21:\n        /* \"contracts/Register.sol\":1116:1121  owner */\n      0x00\n      dup1\n      sload\n      swap1\n      0x0100\n      exp\n      swap1\n      div\n      0xffffffffffffffffffffffffffffffffffffffff\n      and\n        /* \"contracts/Register.sol\":1102:1121  msg.sender == owner */\n      0xffffffffffffffffffffffffffffffffffffffff\n      and\n        /* \"contracts/Register.sol\":1102:1112  msg.sender */\n      caller\n        /* \"contracts/Register.sol\":1102:1121  msg.sender == owner */\n      0xffffffffffffffffffffffffffffffffffffffff\n      and\n      eq\n        /* \"contracts/Register.sol\":1094:1148  require(msg.sender == owner, \"Not the contract owner\") */\n      tag_61\n      jumpi\n      mload(0x40)\n      0x08c379a000000000000000000000000000000000000000000000000000000000\n      dup2\n      mstore\n      0x04\n      add\n      tag_62\n      swap1\n      tag_63\n      jump\t// in\n    tag_62:\n      mload(0x40)\n      dup1\n      swap2\n      sub\n      swap1\n      revert\n    tag_61:\n        /* \"contracts/Register.sol\":4287:4291  true */\n      0x01\n        /* \"contracts/Register.sol\":4260:4277  permissionedUsers */\n      0x03\n        /* \"contracts/Register.sol\":4260:4284  permissionedUsers[_user] */\n      0x00\n        /* \"contracts/Register.sol\":4278:4283  _user */\n      dup4\n        /* \"contracts/Register.sol\":4260:4284  permissionedUsers[_user] */\n      0xffffffffffffffffffffffffffffffffffffffff\n      and\n      0xffffffffffffffffffffffffffffffffffffffff\n      and\n      dup2\n      mstore\n      0x20\n      add\n      swap1\n      dup2\n      mstore\n      0x20\n      add\n      0x00\n      keccak256\n      0x00\n        /* \"contracts/Register.sol\":4260:4291  permissionedUsers[_user] = true */\n      0x0100\n      exp\n      dup2\n      sload\n      dup2\n      0xff\n      mul\n      not\n      and\n      swap1\n      dup4\n      iszero\n      iszero\n      mul\n      or\n      swap1\n      sstore\n      pop\n        /* \"contracts/Register.sol\":4325:4330  _user */\n      dup1\n        /* \"contracts/Register.sol\":4307:4331  PermissionGranted(_user) */\n      0xffffffffffffffffffffffffffffffffffffffff\n      and\n      0xc1f0ea3cc21b72d778e7e9d433c419eabb16edce0afe4468769e055b2e6d49c6\n      mload(0x40)\n      mload(0x40)\n      dup1\n      swap2\n      sub\n      swap1\n      log2\n        /* \"contracts/Register.sol\":4193:4338  function grantPermission(address _user) public onlyOwner {... */\n      pop\n      jump\t// out\n        /* \"contracts/Register.sol\":3175:3439  function verifyPerson(address _walletAddress) public onlyPermissioned {... */\n    tag_24:\n        /* \"contracts/Register.sol\":1218:1235  permissionedUsers */\n      0x03\n        /* \"contracts/Register.sol\":1218:1247  permissionedUsers[msg.sender] */\n      0x00\n        /* \"contracts/Register.sol\":1236:1246  msg.sender */\n      caller\n        /* \"contracts/Register.sol\":1218:1247  permissionedUsers[msg.sender] */\n      0xffffffffffffffffffffffffffffffffffffffff\n      and\n      0xffffffffffffffffffffffffffffffffffffffff\n      and\n      dup2\n      mstore\n      0x20\n      add\n      swap1\n      dup2\n      mstore\n      0x20\n      add\n      0x00\n      keccak256\n      0x00\n      swap1\n      sload\n      swap1\n      0x0100\n      exp\n      swap1\n      div\n      0xff\n      and\n        /* \"contracts/Register.sol\":1218:1270  permissionedUsers[msg.sender] || msg.sender == owner */\n      dup1\n      tag_66\n      jumpi\n      pop\n        /* \"contracts/Register.sol\":1265:1270  owner */\n      0x00\n      dup1\n      sload\n      swap1\n      0x0100\n      exp\n      swap1\n      div\n      0xffffffffffffffffffffffffffffffffffffffff\n      and\n        /* \"contracts/Register.sol\":1251:1270  msg.sender == owner */\n      0xffffffffffffffffffffffffffffffffffffffff\n      and\n        /* \"contracts/Register.sol\":1251:1261  msg.sender */\n      caller\n        /* \"contracts/Register.sol\":1251:1270  msg.sender == owner */\n      0xffffffffffffffffffffffffffffffffffffffff\n      and\n      eq\n        /* \"contracts/Register.sol\":1218:1270  permissionedUsers[msg.sender] || msg.sender == owner */\n    tag_66:\n        /* \"contracts/Register.sol\":1210:1289  require(permissionedUsers[msg.sender] || msg.sender == owner, \"Not authorized\") */\n      tag_67\n      jumpi\n      mload(0x40)\n      0x08c379a000000000000000000000000000000000000000000000000000000000\n      dup2\n      mstore\n      0x04\n      add\n      tag_68\n      swap1\n      tag_69\n      jump\t// in\n    tag_68:\n      mload(0x40)\n      dup1\n      swap2\n      sub\n      swap1\n      revert\n    tag_67:\n        /* \"contracts/Register.sol\":3308:3309  0 */\n      0x00\n        /* \"contracts/Register.sol\":3269:3276  persons */\n      0x01\n        /* \"contracts/Register.sol\":3269:3292  persons[_walletAddress] */\n      0x00\n        /* \"contracts/Register.sol\":3277:3291  _walletAddress */\n      dup4\n        /* \"contracts/Register.sol\":3269:3292  persons[_walletAddress] */\n      0xffffffffffffffffffffffffffffffffffffffff\n      and\n      0xffffffffffffffffffffffffffffffffffffffff\n      and\n      dup2\n      mstore\n      0x20\n      add\n      swap1\n      dup2\n      mstore\n      0x20\n      add\n      0x00\n      keccak256\n        /* \"contracts/Register.sol\":3269:3297  persons[_walletAddress].name */\n      0x00\n      add\n        /* \"contracts/Register.sol\":3263:3305  bytes(persons[_walletAddress].name).length */\n      dup1\n      sload\n      tag_71\n      swap1\n      tag_72\n      jump\t// in\n    tag_71:\n      swap1\n      pop\n        /* \"contracts/Register.sol\":3263:3309  bytes(persons[_walletAddress].name).length > 0 */\n      gt\n        /* \"contracts/Register.sol\":3255:3335  require(bytes(persons[_walletAddress].name).length > 0, \"Person not registered\") */\n      tag_73\n      jumpi\n      mload(0x40)\n      0x08c379a000000000000000000000000000000000000000000000000000000000\n      dup2\n      mstore\n      0x04\n      add\n      tag_74\n      swap1\n      tag_75\n      jump\t// in\n    tag_74:\n      mload(0x40)\n      dup1\n      swap2\n      sub\n      swap1\n      revert\n    tag_73:\n        /* \"contracts/Register.sol\":3382:3386  true */\n      0x01\n        /* \"contracts/Register.sol\":3345:3352  persons */\n      dup1\n        /* \"contracts/Register.sol\":3345:3368  persons[_walletAddress] */\n      0x00\n        /* \"contracts/Register.sol\":3353:3367  _walletAddress */\n      dup4\n        /* \"contracts/Register.sol\":3345:3368  persons[_walletAddress] */\n      0xffffffffffffffffffffffffffffffffffffffff\n      and\n      0xffffffffffffffffffffffffffffffffffffffff\n      and\n      dup2\n      mstore\n      0x20\n      add\n      swap1\n      dup2\n      mstore\n      0x20\n      add\n      0x00\n      keccak256\n        /* \"contracts/Register.sol\":3345:3379  persons[_walletAddress].isVerified */\n      0x07\n      add\n      0x00\n        /* \"contracts/Register.sol\":3345:3386  persons[_walletAddress].isVerified = true */\n      0x0100\n      exp\n      dup2\n      sload\n      dup2\n      0xff\n      mul\n      not\n      and\n      swap1\n      dup4\n      iszero\n      iszero\n      mul\n      or\n      swap1\n      sstore\n      pop\n        /* \"contracts/Register.sol\":3417:3431  _walletAddress */\n      dup1\n        /* \"contracts/Register.sol\":3402:3432  PersonVerified(_walletAddress) */\n      0xffffffffffffffffffffffffffffffffffffffff\n      and\n      0x82c3345332648e818f3e82cbe863ba2fd31381fcb3e63d8bda4dea2e4daa2ea4\n      mload(0x40)\n      mload(0x40)\n      dup1\n      swap2\n      sub\n      swap1\n      log2\n        /* \"contracts/Register.sol\":3175:3439  function verifyPerson(address _walletAddress) public onlyPermissioned {... */\n      pop\n      jump\t// out\n        /* \"contracts/Register.sol\":1973:2726  function registerEntity(... */\n    tag_28:\n        /* \"contracts/Register.sol\":2323:2668  Entity({... */\n      mload(0x40)\n      dup1\n      0x0120\n      add\n      0x40\n      mstore\n      dup1\n        /* \"contracts/Register.sol\":2350:2355  _name */\n      dup10\n        /* \"contracts/Register.sol\":2323:2668  Entity({... */\n      dup2\n      mstore\n      0x20\n      add\n        /* \"contracts/Register.sol\":2386:2402  _addressPhysical */\n      dup9\n        /* \"contracts/Register.sol\":2323:2668  Entity({... */\n      dup2\n      mstore\n      0x20\n      add\n        /* \"contracts/Register.sol\":2435:2453  _responsiblePerson */\n      dup8\n        /* \"contracts/Register.sol\":2323:2668  Entity({... */\n      dup2\n      mstore\n      0x20\n      add\n        /* \"contracts/Register.sol\":2474:2480  _phone */\n      dup7\n        /* \"contracts/Register.sol\":2323:2668  Entity({... */\n      dup2\n      mstore\n      0x20\n      add\n        /* \"contracts/Register.sol\":2509:2523  _ciResponsible */\n      dup6\n        /* \"contracts/Register.sol\":2323:2668  Entity({... */\n      dup2\n      mstore\n      0x20\n      add\n        /* \"contracts/Register.sol\":2544:2550  _photo */\n      dup5\n        /* \"contracts/Register.sol\":2323:2668  Entity({... */\n      dup2\n      mstore\n      0x20\n      add\n        /* \"contracts/Register.sol\":2577:2589  _idCardPhoto */\n      dup4\n        /* \"contracts/Register.sol\":2323:2668  Entity({... */\n      dup2\n      mstore\n      0x20\n      add\n        /* \"contracts/Register.sol\":2615:2626  _placePhoto */\n      dup3\n        /* \"contracts/Register.sol\":2323:2668  Entity({... */\n      dup2\n      mstore\n      0x20\n      add\n        /* \"contracts/Register.sol\":2652:2657  false */\n      0x00\n        /* \"contracts/Register.sol\":2323:2668  Entity({... */\n      iszero\n      iszero\n      dup2\n      mstore\n      pop\n        /* \"contracts/Register.sol\":2300:2308  entities */\n      0x02\n        /* \"contracts/Register.sol\":2300:2320  entities[msg.sender] */\n      0x00\n        /* \"contracts/Register.sol\":2309:2319  msg.sender */\n      caller\n        /* \"contracts/Register.sol\":2300:2320  entities[msg.sender] */\n      0xffffffffffffffffffffffffffffffffffffffff\n      and\n      0xffffffffffffffffffffffffffffffffffffffff\n      and\n      dup2\n      mstore\n      0x20\n      add\n      swap1\n      dup2\n      mstore\n      0x20\n      add\n      0x00\n      keccak256\n        /* \"contracts/Register.sol\":2300:2668  entities[msg.sender] = Entity({... */\n      0x00\n      dup3\n      add\n      mload\n      dup2\n      0x00\n      add\n      swap1\n      dup2\n      tag_77\n      swap2\n      swap1\n      tag_52\n      jump\t// in\n    tag_77:\n      pop\n      0x20\n      dup3\n      add\n      mload\n      dup2\n      0x01\n      add\n      swap1\n      dup2\n      tag_78\n      swap2\n      swap1\n      tag_52\n      jump\t// in\n    tag_78:\n      pop\n      0x40\n      dup3\n      add\n      mload\n      dup2\n      0x02\n      add\n      swap1\n      dup2\n      tag_79\n      swap2\n      swap1\n      tag_52\n      jump\t// in\n    tag_79:\n      pop\n      0x60\n      dup3\n      add\n      mload\n      dup2\n      0x03\n      add\n      swap1\n      dup2\n      tag_80\n      swap2\n      swap1\n      tag_52\n      jump\t// in\n    tag_80:\n      pop\n      0x80\n      dup3\n      add\n      mload\n      dup2\n      0x04\n      add\n      swap1\n      dup2\n      tag_81\n      swap2\n      swap1\n      tag_52\n      jump\t// in\n    tag_81:\n      pop\n      0xa0\n      dup3\n      add\n      mload\n      dup2\n      0x05\n      add\n      swap1\n      dup2\n      tag_82\n      swap2\n      swap1\n      tag_52\n      jump\t// in\n    tag_82:\n      pop\n      0xc0\n      dup3\n      add\n      mload\n      dup2\n      0x06\n      add\n      swap1\n      dup2\n      tag_83\n      swap2\n      swap1\n      tag_52\n      jump\t// in\n    tag_83:\n      pop\n      0xe0\n      dup3\n      add\n      mload\n      dup2\n      0x07\n      add\n      swap1\n      dup2\n      tag_84\n      swap2\n      swap1\n      tag_52\n      jump\t// in\n    tag_84:\n      pop\n      0x0100\n      dup3\n      add\n      mload\n      dup2\n      0x08\n      add\n      exp(0x0100, 0x00)\n      dup2\n      sload\n      dup2\n      0xff\n      mul\n      not\n      and\n      swap1\n      dup4\n      iszero\n      iszero\n      mul\n      or\n      swap1\n      sstore\n      pop\n      swap1\n      pop\n      pop\n        /* \"contracts/Register.sol\":2701:2711  msg.sender */\n      caller\n        /* \"contracts/Register.sol\":2684:2719  EntityRegistered(msg.sender, _name) */\n      0xffffffffffffffffffffffffffffffffffffffff\n      and\n      0x1b7e3d9f922be54960ce9bea1d47b9b6ea18bbafb4e0fdeedc5e2a668e8fdaf8\n        /* \"contracts/Register.sol\":2713:2718  _name */\n      dup10\n        /* \"contracts/Register.sol\":2684:2719  EntityRegistered(msg.sender, _name) */\n      mload(0x40)\n      tag_85\n      swap2\n      swap1\n      tag_59\n      jump\t// in\n    tag_85:\n      mload(0x40)\n      dup1\n      swap2\n      sub\n      swap1\n      log2\n        /* \"contracts/Register.sol\":1973:2726  function registerEntity(... */\n      pop\n      pop\n      pop\n      pop\n      pop\n      pop\n      pop\n      pop\n      jump\t// out\n        /* \"contracts/Register.sol\":3445:3711  function verifyEntity(address _walletAddress) public onlyPermissioned {... */\n    tag_31:\n        /* \"contracts/Register.sol\":1218:1235  permissionedUsers */\n      0x03\n        /* \"contracts/Register.sol\":1218:1247  permissionedUsers[msg.sender] */\n      0x00\n        /* \"contracts/Register.sol\":1236:1246  msg.sender */\n      caller\n        /* \"contracts/Register.sol\":1218:1247  permissionedUsers[msg.sender] */\n      0xffffffffffffffffffffffffffffffffffffffff\n      and\n      0xffffffffffffffffffffffffffffffffffffffff\n      and\n      dup2\n      mstore\n      0x20\n      add\n      swap1\n      dup2\n      mstore\n      0x20\n      add\n      0x00\n      keccak256\n      0x00\n      swap1\n      sload\n      swap1\n      0x0100\n      exp\n      swap1\n      div\n      0xff\n      and\n        /* \"contracts/Register.sol\":1218:1270  permissionedUsers[msg.sender] || msg.sender == owner */\n      dup1\n      tag_87\n      jumpi\n      pop\n        /* \"contracts/Register.sol\":1265:1270  owner */\n      0x00\n      dup1\n      sload\n      swap1\n      0x0100\n      exp\n      swap1\n      div\n      0xffffffffffffffffffffffffffffffffffffffff\n      and\n        /* \"contracts/Register.sol\":1251:1270  msg.sender == owner */\n      0xffffffffffffffffffffffffffffffffffffffff\n      and\n        /* \"contracts/Register.sol\":1251:1261  msg.sender */\n      caller\n        /* \"contracts/Register.sol\":1251:1270  msg.sender == owner */\n      0xffffffffffffffffffffffffffffffffffffffff\n      and\n      eq\n        /* \"contracts/Register.sol\":1218:1270  permissionedUsers[msg.sender] || msg.sender == owner */\n    tag_87:\n        /* \"contracts/Register.sol\":1210:1289  require(permissionedUsers[msg.sender] || msg.sender == owner, \"Not authorized\") */\n      tag_88\n      jumpi\n      mload(0x40)\n      0x08c379a000000000000000000000000000000000000000000000000000000000\n      dup2\n      mstore\n      0x04\n      add\n      tag_89\n      swap1\n      tag_69\n      jump\t// in\n    tag_89:\n      mload(0x40)\n      dup1\n      swap2\n      sub\n      swap1\n      revert\n    tag_88:\n        /* \"contracts/Register.sol\":3579:3580  0 */\n      0x00\n        /* \"contracts/Register.sol\":3539:3547  entities */\n      0x02\n        /* \"contracts/Register.sol\":3539:3563  entities[_walletAddress] */\n      0x00\n        /* \"contracts/Register.sol\":3548:3562  _walletAddress */\n      dup4\n        /* \"contracts/Register.sol\":3539:3563  entities[_walletAddress] */\n      0xffffffffffffffffffffffffffffffffffffffff\n      and\n      0xffffffffffffffffffffffffffffffffffffffff\n      and\n      dup2\n      mstore\n      0x20\n      add\n      swap1\n      dup2\n      mstore\n      0x20\n      add\n      0x00\n      keccak256\n        /* \"contracts/Register.sol\":3539:3568  entities[_walletAddress].name */\n      0x00\n      add\n        /* \"contracts/Register.sol\":3533:3576  bytes(entities[_walletAddress].name).length */\n      dup1\n      sload\n      tag_91\n      swap1\n      tag_72\n      jump\t// in\n    tag_91:\n      swap1\n      pop\n        /* \"contracts/Register.sol\":3533:3580  bytes(entities[_walletAddress].name).length > 0 */\n      gt\n        /* \"contracts/Register.sol\":3525:3606  require(bytes(entities[_walletAddress].name).length > 0, \"Entity not registered\") */\n      tag_92\n      jumpi\n      mload(0x40)\n      0x08c379a000000000000000000000000000000000000000000000000000000000\n      dup2\n      mstore\n      0x04\n      add\n      tag_93\n      swap1\n      tag_94\n      jump\t// in\n    tag_93:\n      mload(0x40)\n      dup1\n      swap2\n      sub\n      swap1\n      revert\n    tag_92:\n        /* \"contracts/Register.sol\":3654:3658  true */\n      0x01\n        /* \"contracts/Register.sol\":3616:3624  entities */\n      0x02\n        /* \"contracts/Register.sol\":3616:3640  entities[_walletAddress] */\n      0x00\n        /* \"contracts/Register.sol\":3625:3639  _walletAddress */\n      dup4\n        /* \"contracts/Register.sol\":3616:3640  entities[_walletAddress] */\n      0xffffffffffffffffffffffffffffffffffffffff\n      and\n      0xffffffffffffffffffffffffffffffffffffffff\n      and\n      dup2\n      mstore\n      0x20\n      add\n      swap1\n      dup2\n      mstore\n      0x20\n      add\n      0x00\n      keccak256\n        /* \"contracts/Register.sol\":3616:3651  entities[_walletAddress].isVerified */\n      0x08\n      add\n      0x00\n        /* \"contracts/Register.sol\":3616:3658  entities[_walletAddress].isVerified = true */\n      0x0100\n      exp\n      dup2\n      sload\n      dup2\n      0xff\n      mul\n      not\n      and\n      swap1\n      dup4\n      iszero\n      iszero\n      mul\n      or\n      swap1\n      sstore\n      pop\n        /* \"contracts/Register.sol\":3689:3703  _walletAddress */\n      dup1\n        /* \"contracts/Register.sol\":3674:3704  EntityVerified(_walletAddress) */\n      0xffffffffffffffffffffffffffffffffffffffff\n      and\n      0xa3710f2b2505ddd76d00993c1fad93af4104d857fa3e237c9548c028c44935cc\n      mload(0x40)\n      mload(0x40)\n      dup1\n      swap2\n      sub\n      swap1\n      log2\n        /* \"contracts/Register.sol\":3445:3711  function verifyEntity(address _walletAddress) public onlyPermissioned {... */\n      pop\n      jump\t// out\n        /* \"contracts/Register.sol\":3717:3948  function revokePersonVerification(address _walletAddress) public onlyPermissioned {... */\n    tag_34:\n        /* \"contracts/Register.sol\":1218:1235  permissionedUsers */\n      0x03\n        /* \"contracts/Register.sol\":1218:1247  permissionedUsers[msg.sender] */\n      0x00\n        /* \"contracts/Register.sol\":1236:1246  msg.sender */\n      caller\n        /* \"contracts/Register.sol\":1218:1247  permissionedUsers[msg.sender] */\n      0xffffffffffffffffffffffffffffffffffffffff\n      and\n      0xffffffffffffffffffffffffffffffffffffffff\n      and\n      dup2\n      mstore\n      0x20\n      add\n      swap1\n      dup2\n      mstore\n      0x20\n      add\n      0x00\n      keccak256\n      0x00\n      swap1\n      sload\n      swap1\n      0x0100\n      exp\n      swap1\n      div\n      0xff\n      and\n        /* \"contracts/Register.sol\":1218:1270  permissionedUsers[msg.sender] || msg.sender == owner */\n      dup1\n      tag_96\n      jumpi\n      pop\n        /* \"contracts/Register.sol\":1265:1270  owner */\n      0x00\n      dup1\n      sload\n      swap1\n      0x0100\n      exp\n      swap1\n      div\n      0xffffffffffffffffffffffffffffffffffffffff\n      and\n        /* \"contracts/Register.sol\":1251:1270  msg.sender == owner */\n      0xffffffffffffffffffffffffffffffffffffffff\n      and\n        /* \"contracts/Register.sol\":1251:1261  msg.sender */\n      caller\n        /* \"contracts/Register.sol\":1251:1270  msg.sender == owner */\n      0xffffffffffffffffffffffffffffffffffffffff\n      and\n      eq\n        /* \"contracts/Register.sol\":1218:1270  permissionedUsers[msg.sender] || msg.sender == owner */\n    tag_96:\n        /* \"contracts/Register.sol\":1210:1289  require(permissionedUsers[msg.sender] || msg.sender == owner, \"Not authorized\") */\n      tag_97\n      jumpi\n      mload(0x40)\n      0x08c379a000000000000000000000000000000000000000000000000000000000\n      dup2\n      mstore\n      0x04\n      add\n      tag_98\n      swap1\n      tag_69\n      jump\t// in\n    tag_98:\n      mload(0x40)\n      dup1\n      swap2\n      sub\n      swap1\n      revert\n    tag_97:\n        /* \"contracts/Register.sol\":3862:3863  0 */\n      0x00\n        /* \"contracts/Register.sol\":3823:3830  persons */\n      0x01\n        /* \"contracts/Register.sol\":3823:3846  persons[_walletAddress] */\n      0x00\n        /* \"contracts/Register.sol\":3831:3845  _walletAddress */\n      dup4\n        /* \"contracts/Register.sol\":3823:3846  persons[_walletAddress] */\n      0xffffffffffffffffffffffffffffffffffffffff\n      and\n      0xffffffffffffffffffffffffffffffffffffffff\n      and\n      dup2\n      mstore\n      0x20\n      add\n      swap1\n      dup2\n      mstore\n      0x20\n      add\n      0x00\n      keccak256\n        /* \"contracts/Register.sol\":3823:3851  persons[_walletAddress].name */\n      0x00\n      add\n        /* \"contracts/Register.sol\":3817:3859  bytes(persons[_walletAddress].name).length */\n      dup1\n      sload\n      tag_100\n      swap1\n      tag_72\n      jump\t// in\n    tag_100:\n      swap1\n      pop\n        /* \"contracts/Register.sol\":3817:3863  bytes(persons[_walletAddress].name).length > 0 */\n      gt\n        /* \"contracts/Register.sol\":3809:3889  require(bytes(persons[_walletAddress].name).length > 0, \"Person not registered\") */\n      tag_101\n      jumpi\n      mload(0x40)\n      0x08c379a000000000000000000000000000000000000000000000000000000000\n      dup2\n      mstore\n      0x04\n      add\n      tag_102\n      swap1\n      tag_75\n      jump\t// in\n    tag_102:\n      mload(0x40)\n      dup1\n      swap2\n      sub\n      swap1\n      revert\n    tag_101:\n        /* \"contracts/Register.sol\":3936:3941  false */\n      0x00\n        /* \"contracts/Register.sol\":3899:3906  persons */\n      0x01\n        /* \"contracts/Register.sol\":3899:3922  persons[_walletAddress] */\n      0x00\n        /* \"contracts/Register.sol\":3907:3921  _walletAddress */\n      dup4\n        /* \"contracts/Register.sol\":3899:3922  persons[_walletAddress] */\n      0xffffffffffffffffffffffffffffffffffffffff\n      and\n      0xffffffffffffffffffffffffffffffffffffffff\n      and\n      dup2\n      mstore\n      0x20\n      add\n      swap1\n      dup2\n      mstore\n      0x20\n      add\n      0x00\n      keccak256\n        /* \"contracts/Register.sol\":3899:3933  persons[_walletAddress].isVerified */\n      0x07\n      add\n      0x00\n        /* \"contracts/Register.sol\":3899:3941  persons[_walletAddress].isVerified = false */\n      0x0100\n      exp\n      dup2\n      sload\n      dup2\n      0xff\n      mul\n      not\n      and\n      swap1\n      dup4\n      iszero\n      iszero\n      mul\n      or\n      swap1\n      sstore\n      pop\n        /* \"contracts/Register.sol\":3717:3948  function revokePersonVerification(address _walletAddress) public onlyPermissioned {... */\n      pop\n      jump\t// out\n        /* \"contracts/Register.sol\":4344:4451  function revokePermission(address _user) public onlyOwner {... */\n    tag_37:\n        /* \"contracts/Register.sol\":1116:1121  owner */\n      0x00\n      dup1\n      sload\n      swap1\n      0x0100\n      exp\n      swap1\n      div\n      0xffffffffffffffffffffffffffffffffffffffff\n      and\n        /* \"contracts/Register.sol\":1102:1121  msg.sender == owner */\n      0xffffffffffffffffffffffffffffffffffffffff\n      and\n        /* \"contracts/Register.sol\":1102:1112  msg.sender */\n      caller\n        /* \"contracts/Register.sol\":1102:1121  msg.sender == owner */\n      0xffffffffffffffffffffffffffffffffffffffff\n      and\n      eq\n        /* \"contracts/Register.sol\":1094:1148  require(msg.sender == owner, \"Not the contract owner\") */\n      tag_104\n      jumpi\n      mload(0x40)\n      0x08c379a000000000000000000000000000000000000000000000000000000000\n      dup2\n      mstore\n      0x04\n      add\n      tag_105\n      swap1\n      tag_63\n      jump\t// in\n    tag_105:\n      mload(0x40)\n      dup1\n      swap2\n      sub\n      swap1\n      revert\n    tag_104:\n        /* \"contracts/Register.sol\":4439:4444  false */\n      0x00\n        /* \"contracts/Register.sol\":4412:4429  permissionedUsers */\n      0x03\n        /* \"contracts/Register.sol\":4412:4436  permissionedUsers[_user] */\n      0x00\n        /* \"contracts/Register.sol\":4430:4435  _user */\n      dup4\n        /* \"contracts/Register.sol\":4412:4436  permissionedUsers[_user] */\n      0xffffffffffffffffffffffffffffffffffffffff\n      and\n      0xffffffffffffffffffffffffffffffffffffffff\n      and\n      dup2\n      mstore\n      0x20\n      add\n      swap1\n      dup2\n      mstore\n      0x20\n      add\n      0x00\n      keccak256\n      0x00\n        /* \"contracts/Register.sol\":4412:4444  permissionedUsers[_user] = false */\n      0x0100\n      exp\n      dup2\n      sload\n      dup2\n      0xff\n      mul\n      not\n      and\n      swap1\n      dup4\n      iszero\n      iszero\n      mul\n      or\n      swap1\n      sstore\n      pop\n        /* \"contracts/Register.sol\":4344:4451  function revokePermission(address _user) public onlyOwner {... */\n      pop\n      jump\t// out\n        /* \"contracts/Register.sol\":3954:4187  function revokeEntityVerification(address _walletAddress) public onlyPermissioned {... */\n    tag_40:\n        /* \"contracts/Register.sol\":1218:1235  permissionedUsers */\n      0x03\n        /* \"contracts/Register.sol\":1218:1247  permissionedUsers[msg.sender] */\n      0x00\n        /* \"contracts/Register.sol\":1236:1246  msg.sender */\n      caller\n        /* \"contracts/Register.sol\":1218:1247  permissionedUsers[msg.sender] */\n      0xffffffffffffffffffffffffffffffffffffffff\n      and\n      0xffffffffffffffffffffffffffffffffffffffff\n      and\n      dup2\n      mstore\n      0x20\n      add\n      swap1\n      dup2\n      mstore\n      0x20\n      add\n      0x00\n      keccak256\n      0x00\n      swap1\n      sload\n      swap1\n      0x0100\n      exp\n      swap1\n      div\n      0xff\n      and\n        /* \"contracts/Register.sol\":1218:1270  permissionedUsers[msg.sender] || msg.sender == owner */\n      dup1\n      tag_108\n      jumpi\n      pop\n        /* \"contracts/Register.sol\":1265:1270  owner */\n      0x00\n      dup1\n      sload\n      swap1\n      0x0100\n      exp\n      swap1\n      div\n      0xffffffffffffffffffffffffffffffffffffffff\n      and\n        /* \"contracts/Register.sol\":1251:1270  msg.sender == owner */\n      0xffffffffffffffffffffffffffffffffffffffff\n      and\n        /* \"contracts/Register.sol\":1251:1261  msg.sender */\n      caller\n        /* \"contracts/Register.sol\":1251:1270  msg.sender == owner */\n      0xffffffffffffffffffffffffffffffffffffffff\n      and\n      eq\n        /* \"contracts/Register.sol\":1218:1270  permissionedUsers[msg.sender] || msg.sender == owner */\n    tag_108:\n        /* \"contracts/Register.sol\":1210:1289  require(permissionedUsers[msg.sender] || msg.sender == owner, \"Not authorized\") */\n      tag_109\n      jumpi\n      mload(0x40)\n      0x08c379a000000000000000000000000000000000000000000000000000000000\n      dup2\n      mstore\n      0x04\n      add\n      tag_110\n      swap1\n      tag_69\n      jump\t// in\n    tag_110:\n      mload(0x40)\n      dup1\n      swap2\n      sub\n      swap1\n      revert\n    tag_109:\n        /* \"contracts/Register.sol\":4100:4101  0 */\n      0x00\n        /* \"contracts/Register.sol\":4060:4068  entities */\n      0x02\n        /* \"contracts/Register.sol\":4060:4084  entities[_walletAddress] */\n      0x00\n        /* \"contracts/Register.sol\":4069:4083  _walletAddress */\n      dup4\n        /* \"contracts/Register.sol\":4060:4084  entities[_walletAddress] */\n      0xffffffffffffffffffffffffffffffffffffffff\n      and\n      0xffffffffffffffffffffffffffffffffffffffff\n      and\n      dup2\n      mstore\n      0x20\n      add\n      swap1\n      dup2\n      mstore\n      0x20\n      add\n      0x00\n      keccak256\n        /* \"contracts/Register.sol\":4060:4089  entities[_walletAddress].name */\n      0x00\n      add\n        /* \"contracts/Register.sol\":4054:4097  bytes(entities[_walletAddress].name).length */\n      dup1\n      sload\n      tag_112\n      swap1\n      tag_72\n      jump\t// in\n    tag_112:\n      swap1\n      pop\n        /* \"contracts/Register.sol\":4054:4101  bytes(entities[_walletAddress].name).length > 0 */\n      gt\n        /* \"contracts/Register.sol\":4046:4127  require(bytes(entities[_walletAddress].name).length > 0, \"Entity not registered\") */\n      tag_113\n      jumpi\n      mload(0x40)\n      0x08c379a000000000000000000000000000000000000000000000000000000000\n      dup2\n      mstore\n      0x04\n      add\n      tag_114\n      swap1\n      tag_94\n      jump\t// in\n    tag_114:\n      mload(0x40)\n      dup1\n      swap2\n      sub\n      swap1\n      revert\n    tag_113:\n        /* \"contracts/Register.sol\":4175:4180  false */\n      0x00\n        /* \"contracts/Register.sol\":4137:4145  entities */\n      0x02\n        /* \"contracts/Register.sol\":4137:4161  entities[_walletAddress] */\n      0x00\n        /* \"contracts/Register.sol\":4146:4160  _walletAddress */\n      dup4\n        /* \"contracts/Register.sol\":4137:4161  entities[_walletAddress] */\n      0xffffffffffffffffffffffffffffffffffffffff\n      and\n      0xffffffffffffffffffffffffffffffffffffffff\n      and\n      dup2\n      mstore\n      0x20\n      add\n      swap1\n      dup2\n      mstore\n      0x20\n      add\n      0x00\n      keccak256\n        /* \"contracts/Register.sol\":4137:4172  entities[_walletAddress].isVerified */\n      0x08\n      add\n      0x00\n        /* \"contracts/Register.sol\":4137:4180  entities[_walletAddress].isVerified = false */\n      0x0100\n      exp\n      dup2\n      sload\n      dup2\n      0xff\n      mul\n      not\n      and\n      swap1\n      dup4\n      iszero\n      iszero\n      mul\n      or\n      swap1\n      sstore\n      pop\n        /* \"contracts/Register.sol\":3954:4187  function revokeEntityVerification(address _walletAddress) public onlyPermissioned {... */\n      pop\n      jump\t// out\n        /* \"contracts/Register.sol\":2732:2947  function isPersonRegistered(address _walletAddress) public view returns (bool, bool) {... */\n    tag_43:\n        /* \"contracts/Register.sol\":2805:2809  bool */\n      0x00\n        /* \"contracts/Register.sol\":2811:2815  bool */\n      dup1\n        /* \"contracts/Register.sol\":2827:2847  Person memory person */\n      0x00\n        /* \"contracts/Register.sol\":2850:2857  persons */\n      0x01\n        /* \"contracts/Register.sol\":2850:2873  persons[_walletAddress] */\n      0x00\n        /* \"contracts/Register.sol\":2858:2872  _walletAddress */\n      dup6\n        /* \"contracts/Register.sol\":2850:2873  persons[_walletAddress] */\n      0xffffffffffffffffffffffffffffffffffffffff\n      and\n      0xffffffffffffffffffffffffffffffffffffffff\n      and\n      dup2\n      mstore\n      0x20\n      add\n      swap1\n      dup2\n      mstore\n      0x20\n      add\n      0x00\n      keccak256\n        /* \"contracts/Register.sol\":2827:2873  Person memory person = persons[_walletAddress] */\n      mload(0x40)\n      dup1\n      0x0100\n      add\n      0x40\n      mstore\n      swap1\n      dup2\n      0x00\n      dup3\n      add\n      dup1\n      sload\n      tag_116\n      swap1\n      tag_72\n      jump\t// in\n    tag_116:\n      dup1\n      0x1f\n      add\n      0x20\n      dup1\n      swap2\n      div\n      mul\n      0x20\n      add\n      mload(0x40)\n      swap1\n      dup2\n      add\n      0x40\n      mstore\n      dup1\n      swap3\n      swap2\n      swap1\n      dup2\n      dup2\n      mstore\n      0x20\n      add\n      dup3\n      dup1\n      sload\n      tag_117\n      swap1\n      tag_72\n      jump\t// in\n    tag_117:\n      dup1\n      iszero\n      tag_118\n      jumpi\n      dup1\n      0x1f\n      lt\n      tag_119\n      jumpi\n      0x0100\n      dup1\n      dup4\n      sload\n      div\n      mul\n      dup4\n      mstore\n      swap2\n      0x20\n      add\n      swap2\n      jump(tag_118)\n    tag_119:\n      dup3\n      add\n      swap2\n      swap1\n      0x00\n      mstore\n      keccak256(0x00, 0x20)\n      swap1\n    tag_120:\n      dup2\n      sload\n      dup2\n      mstore\n      swap1\n      0x01\n      add\n      swap1\n      0x20\n      add\n      dup1\n      dup4\n      gt\n      tag_120\n      jumpi\n      dup3\n      swap1\n      sub\n      0x1f\n      and\n      dup3\n      add\n      swap2\n    tag_118:\n      pop\n      pop\n      pop\n      pop\n      pop\n      dup2\n      mstore\n      0x20\n      add\n      0x01\n      dup3\n      add\n      sload\n      dup2\n      mstore\n      0x20\n      add\n      0x02\n      dup3\n      add\n      dup1\n      sload\n      tag_121\n      swap1\n      tag_72\n      jump\t// in\n    tag_121:\n      dup1\n      0x1f\n      add\n      0x20\n      dup1\n      swap2\n      div\n      mul\n      0x20\n      add\n      mload(0x40)\n      swap1\n      dup2\n      add\n      0x40\n      mstore\n      dup1\n      swap3\n      swap2\n      swap1\n      dup2\n      dup2\n      mstore\n      0x20\n      add\n      dup3\n      dup1\n      sload\n      tag_122\n      swap1\n      tag_72\n      jump\t// in\n    tag_122:\n      dup1\n      iszero\n      tag_123\n      jumpi\n      dup1\n      0x1f\n      lt\n      tag_124\n      jumpi\n      0x0100\n      dup1\n      dup4\n      sload\n      div\n      mul\n      dup4\n      mstore\n      swap2\n      0x20\n      add\n      swap2\n      jump(tag_123)\n    tag_124:\n      dup3\n      add\n      swap2\n      swap1\n      0x00\n      mstore\n      keccak256(0x00, 0x20)\n      swap1\n    tag_125:\n      dup2\n      sload\n      dup2\n      mstore\n      swap1\n      0x01\n      add\n      swap1\n      0x20\n      add\n      dup1\n      dup4\n      gt\n      tag_125\n      jumpi\n      dup3\n      swap1\n      sub\n      0x1f\n      and\n      dup3\n      add\n      swap2\n    tag_123:\n      pop\n      pop\n      pop\n      pop\n      pop\n      dup2\n      mstore\n      0x20\n      add\n      0x03\n      dup3\n      add\n      dup1\n      sload\n      tag_126\n      swap1\n      tag_72\n      jump\t// in\n    tag_126:\n      dup1\n      0x1f\n      add\n      0x20\n      dup1\n      swap2\n      div\n      mul\n      0x20\n      add\n      mload(0x40)\n      swap1\n      dup2\n      add\n      0x40\n      mstore\n      dup1\n      swap3\n      swap2\n      swap1\n      dup2\n      dup2\n      mstore\n      0x20\n      add\n      dup3\n      dup1\n      sload\n      tag_127\n      swap1\n      tag_72\n      jump\t// in\n    tag_127:\n      dup1\n      iszero\n      tag_128\n      jumpi\n      dup1\n      0x1f\n      lt\n      tag_129\n      jumpi\n      0x0100\n      dup1\n      dup4\n      sload\n      div\n      mul\n      dup4\n      mstore\n      swap2\n      0x20\n      add\n      swap2\n      jump(tag_128)\n    tag_129:\n      dup3\n      add\n      swap2\n      swap1\n      0x00\n      mstore\n      keccak256(0x00, 0x20)\n      swap1\n    tag_130:\n      dup2\n      sload\n      dup2\n      mstore\n      swap1\n      0x01\n      add\n      swap1\n      0x20\n      add\n      dup1\n      dup4\n      gt\n      tag_130\n      jumpi\n      dup3\n      swap1\n      sub\n      0x1f\n      and\n      dup3\n      add\n      swap2\n    tag_128:\n      pop\n      pop\n      pop\n      pop\n      pop\n      dup2\n      mstore\n      0x20\n      add\n      0x04\n      dup3\n      add\n      dup1\n      sload\n      tag_131\n      swap1\n      tag_72\n      jump\t// in\n    tag_131:\n      dup1\n      0x1f\n      add\n      0x20\n      dup1\n      swap2\n      div\n      mul\n      0x20\n      add\n      mload(0x40)\n      swap1\n      dup2\n      add\n      0x40\n      mstore\n      dup1\n      swap3\n      swap2\n      swap1\n      dup2\n      dup2\n      mstore\n      0x20\n      add\n      dup3\n      dup1\n      sload\n      tag_132\n      swap1\n      tag_72\n      jump\t// in\n    tag_132:\n      dup1\n      iszero\n      tag_133\n      jumpi\n      dup1\n      0x1f\n      lt\n      tag_134\n      jumpi\n      0x0100\n      dup1\n      dup4\n      sload\n      div\n      mul\n      dup4\n      mstore\n      swap2\n      0x20\n      add\n      swap2\n      jump(tag_133)\n    tag_134:\n      dup3\n      add\n      swap2\n      swap1\n      0x00\n      mstore\n      keccak256(0x00, 0x20)\n      swap1\n    tag_135:\n      dup2\n      sload\n      dup2\n      mstore\n      swap1\n      0x01\n      add\n      swap1\n      0x20\n      add\n      dup1\n      dup4\n      gt\n      tag_135\n      jumpi\n      dup3\n      swap1\n      sub\n      0x1f\n      and\n      dup3\n      add\n      swap2\n    tag_133:\n      pop\n      pop\n      pop\n      pop\n      pop\n      dup2\n      mstore\n      0x20\n      add\n      0x05\n      dup3\n      add\n      dup1\n      sload\n      tag_136\n      swap1\n      tag_72\n      jump\t// in\n    tag_136:\n      dup1\n      0x1f\n      add\n      0x20\n      dup1\n      swap2\n      div\n      mul\n      0x20\n      add\n      mload(0x40)\n      swap1\n      dup2\n      add\n      0x40\n      mstore\n      dup1\n      swap3\n      swap2\n      swap1\n      dup2\n      dup2\n      mstore\n      0x20\n      add\n      dup3\n      dup1\n      sload\n      tag_137\n      swap1\n      tag_72\n      jump\t// in\n    tag_137:\n      dup1\n      iszero\n      tag_138\n      jumpi\n      dup1\n      0x1f\n      lt\n      tag_139\n      jumpi\n      0x0100\n      dup1\n      dup4\n      sload\n      div\n      mul\n      dup4\n      mstore\n      swap2\n      0x20\n      add\n      swap2\n      jump(tag_138)\n    tag_139:\n      dup3\n      add\n      swap2\n      swap1\n      0x00\n      mstore\n      keccak256(0x00, 0x20)\n      swap1\n    tag_140:\n      dup2\n      sload\n      dup2\n      mstore\n      swap1\n      0x01\n      add\n      swap1\n      0x20\n      add\n      dup1\n      dup4\n      gt\n      tag_140\n      jumpi\n      dup3\n      swap1\n      sub\n      0x1f\n      and\n      dup3\n      add\n      swap2\n    tag_138:\n      pop\n      pop\n      pop\n      pop\n      pop\n      dup2\n      mstore\n      0x20\n      add\n      0x06\n      dup3\n      add\n      dup1\n      sload\n      tag_141\n      swap1\n      tag_72\n      jump\t// in\n    tag_141:\n      dup1\n      0x1f\n      add\n      0x20\n      dup1\n      swap2\n      div\n      mul\n      0x20\n      add\n      mload(0x40)\n      swap1\n      dup2\n      add\n      0x40\n      mstore\n      dup1\n      swap3\n      swap2\n      swap1\n      dup2\n      dup2\n      mstore\n      0x20\n      add\n      dup3\n      dup1\n      sload\n      tag_142\n      swap1\n      tag_72\n      jump\t// in\n    tag_142:\n      dup1\n      iszero\n      tag_143\n      jumpi\n      dup1\n      0x1f\n      lt\n      tag_144\n      jumpi\n      0x0100\n      dup1\n      dup4\n      sload\n      div\n      mul\n      dup4\n      mstore\n      swap2\n      0x20\n      add\n      swap2\n      jump(tag_143)\n    tag_144:\n      dup3\n      add\n      swap2\n      swap1\n      0x00\n      mstore\n      keccak256(0x00, 0x20)\n      swap1\n    tag_145:\n      dup2\n      sload\n      dup2\n      mstore\n      swap1\n      0x01\n      add\n      swap1\n      0x20\n      add\n      dup1\n      dup4\n      gt\n      tag_145\n      jumpi\n      dup3\n      swap1\n      sub\n      0x1f\n      and\n      dup3\n      add\n      swap2\n    tag_143:\n      pop\n      pop\n      pop\n      pop\n      pop\n      dup2\n      mstore\n      0x20\n      add\n      0x07\n      dup3\n      add\n      0x00\n      swap1\n      sload\n      swap1\n      0x0100\n      exp\n      swap1\n      div\n      0xff\n      and\n      iszero\n      iszero\n      iszero\n      iszero\n      dup2\n      mstore\n      pop\n      pop\n      swap1\n      pop\n        /* \"contracts/Register.sol\":2919:2920  0 */\n      0x00\n        /* \"contracts/Register.sol\":2897:2903  person */\n      dup2\n        /* \"contracts/Register.sol\":2897:2908  person.name */\n      0x00\n      add\n      mload\n        /* \"contracts/Register.sol\":2891:2916  bytes(person.name).length */\n      mload\n        /* \"contracts/Register.sol\":2891:2920  bytes(person.name).length > 0 */\n      gt\n        /* \"contracts/Register.sol\":2922:2928  person */\n      dup2\n        /* \"contracts/Register.sol\":2922:2939  person.isVerified */\n      0xe0\n      add\n      mload\n        /* \"contracts/Register.sol\":2883:2940  return (bytes(person.name).length > 0, person.isVerified) */\n      swap3\n      pop\n      swap3\n      pop\n      pop\n        /* \"contracts/Register.sol\":2732:2947  function isPersonRegistered(address _walletAddress) public view returns (bool, bool) {... */\n      swap2\n      pop\n      swap2\n      jump\t// out\n        /* \"contracts/Register.sol\":2953:3169  function isEntityRegistered(address _walletAddress) public view returns (bool, bool) {... */\n    tag_48:\n        /* \"contracts/Register.sol\":3026:3030  bool */\n      0x00\n        /* \"contracts/Register.sol\":3032:3036  bool */\n      dup1\n        /* \"contracts/Register.sol\":3048:3068  Entity memory entity */\n      0x00\n        /* \"contracts/Register.sol\":3071:3079  entities */\n      0x02\n        /* \"contracts/Register.sol\":3071:3095  entities[_walletAddress] */\n      0x00\n        /* \"contracts/Register.sol\":3080:3094  _walletAddress */\n      dup6\n        /* \"contracts/Register.sol\":3071:3095  entities[_walletAddress] */\n      0xffffffffffffffffffffffffffffffffffffffff\n      and\n      0xffffffffffffffffffffffffffffffffffffffff\n      and\n      dup2\n      mstore\n      0x20\n      add\n      swap1\n      dup2\n      mstore\n      0x20\n      add\n      0x00\n      keccak256\n        /* \"contracts/Register.sol\":3048:3095  Entity memory entity = entities[_walletAddress] */\n      mload(0x40)\n      dup1\n      0x0120\n      add\n      0x40\n      mstore\n      swap1\n      dup2\n      0x00\n      dup3\n      add\n      dup1\n      sload\n      tag_147\n      swap1\n      tag_72\n      jump\t// in\n    tag_147:\n      dup1\n      0x1f\n      add\n      0x20\n      dup1\n      swap2\n      div\n      mul\n      0x20\n      add\n      mload(0x40)\n      swap1\n      dup2\n      add\n      0x40\n      mstore\n      dup1\n      swap3\n      swap2\n      swap1\n      dup2\n      dup2\n      mstore\n      0x20\n      add\n      dup3\n      dup1\n      sload\n      tag_148\n      swap1\n      tag_72\n      jump\t// in\n    tag_148:\n      dup1\n      iszero\n      tag_149\n      jumpi\n      dup1\n      0x1f\n      lt\n      tag_150\n      jumpi\n      0x0100\n      dup1\n      dup4\n      sload\n      div\n      mul\n      dup4\n      mstore\n      swap2\n      0x20\n      add\n      swap2\n      jump(tag_149)\n    tag_150:\n      dup3\n      add\n      swap2\n      swap1\n      0x00\n      mstore\n      keccak256(0x00, 0x20)\n      swap1\n    tag_151:\n      dup2\n      sload\n      dup2\n      mstore\n      swap1\n      0x01\n      add\n      swap1\n      0x20\n      add\n      dup1\n      dup4\n      gt\n      tag_151\n      jumpi\n      dup3\n      swap1\n      sub\n      0x1f\n      and\n      dup3\n      add\n      swap2\n    tag_149:\n      pop\n      pop\n      pop\n      pop\n      pop\n      dup2\n      mstore\n      0x20\n      add\n      0x01\n      dup3\n      add\n      dup1\n      sload\n      tag_152\n      swap1\n      tag_72\n      jump\t// in\n    tag_152:\n      dup1\n      0x1f\n      add\n      0x20\n      dup1\n      swap2\n      div\n      mul\n      0x20\n      add\n      mload(0x40)\n      swap1\n      dup2\n      add\n      0x40\n      mstore\n      dup1\n      swap3\n      swap2\n      swap1\n      dup2\n      dup2\n      mstore\n      0x20\n      add\n      dup3\n      dup1\n      sload\n      tag_153\n      swap1\n      tag_72\n      jump\t// in\n    tag_153:\n      dup1\n      iszero\n      tag_154\n      jumpi\n      dup1\n      0x1f\n      lt\n      tag_155\n      jumpi\n      0x0100\n      dup1\n      dup4\n      sload\n      div\n      mul\n      dup4\n      mstore\n      swap2\n      0x20\n      add\n      swap2\n      jump(tag_154)\n    tag_155:\n      dup3\n      add\n      swap2\n      swap1\n      0x00\n      mstore\n      keccak256(0x00, 0x20)\n      swap1\n    tag_156:\n      dup2\n      sload\n      dup2\n      mstore\n      swap1\n      0x01\n      add\n      swap1\n      0x20\n      add\n      dup1\n      dup4\n      gt\n      tag_156\n      jumpi\n      dup3\n      swap1\n      sub\n      0x1f\n      and\n      dup3\n      add\n      swap2\n    tag_154:\n      pop\n      pop\n      pop\n      pop\n      pop\n      dup2\n      mstore\n      0x20\n      add\n      0x02\n      dup3\n      add\n      dup1\n      sload\n      tag_157\n      swap1\n      tag_72\n      jump\t// in\n    tag_157:\n      dup1\n      0x1f\n      add\n      0x20\n      dup1\n      swap2\n      div\n      mul\n      0x20\n      add\n      mload(0x40)\n      swap1\n      dup2\n      add\n      0x40\n      mstore\n      dup1\n      swap3\n      swap2\n      swap1\n      dup2\n      dup2\n      mstore\n      0x20\n      add\n      dup3\n      dup1\n      sload\n      tag_158\n      swap1\n      tag_72\n      jump\t// in\n    tag_158:\n      dup1\n      iszero\n      tag_159\n      jumpi\n      dup1\n      0x1f\n      lt\n      tag_160\n      jumpi\n      0x0100\n      dup1\n      dup4\n      sload\n      div\n      mul\n      dup4\n      mstore\n      swap2\n      0x20\n      add\n      swap2\n      jump(tag_159)\n    tag_160:\n      dup3\n      add\n      swap2\n      swap1\n      0x00\n      mstore\n      keccak256(0x00, 0x20)\n      swap1\n    tag_161:\n      dup2\n      sload\n      dup2\n      mstore\n      swap1\n      0x01\n      add\n      swap1\n      0x20\n      add\n      dup1\n      dup4\n      gt\n      tag_161\n      jumpi\n      dup3\n      swap1\n      sub\n      0x1f\n      and\n      dup3\n      add\n      swap2\n    tag_159:\n      pop\n      pop\n      pop\n      pop\n      pop\n      dup2\n      mstore\n      0x20\n      add\n      0x03\n      dup3\n      add\n      dup1\n      sload\n      tag_162\n      swap1\n      tag_72\n      jump\t// in\n    tag_162:\n      dup1\n      0x1f\n      add\n      0x20\n      dup1\n      swap2\n      div\n      mul\n      0x20\n      add\n      mload(0x40)\n      swap1\n      dup2\n      add\n      0x40\n      mstore\n      dup1\n      swap3\n      swap2\n      swap1\n      dup2\n      dup2\n      mstore\n      0x20\n      add\n      dup3\n      dup1\n      sload\n      tag_163\n      swap1\n      tag_72\n      jump\t// in\n    tag_163:\n      dup1\n      iszero\n      tag_164\n      jumpi\n      dup1\n      0x1f\n      lt\n      tag_165\n      jumpi\n      0x0100\n      dup1\n      dup4\n      sload\n      div\n      mul\n      dup4\n      mstore\n      swap2\n      0x20\n      add\n      swap2\n      jump(tag_164)\n    tag_165:\n      dup3\n      add\n      swap2\n      swap1\n      0x00\n      mstore\n      keccak256(0x00, 0x20)\n      swap1\n    tag_166:\n      dup2\n      sload\n      dup2\n      mstore\n      swap1\n      0x01\n      add\n      swap1\n      0x20\n      add\n      dup1\n      dup4\n      gt\n      tag_166\n      jumpi\n      dup3\n      swap1\n      sub\n      0x1f\n      and\n      dup3\n      add\n      swap2\n    tag_164:\n      pop\n      pop\n      pop\n      pop\n      pop\n      dup2\n      mstore\n      0x20\n      add\n      0x04\n      dup3\n      add\n      dup1\n      sload\n      tag_167\n      swap1\n      tag_72\n      jump\t// in\n    tag_167:\n      dup1\n      0x1f\n      add\n      0x20\n      dup1\n      swap2\n      div\n      mul\n      0x20\n      add\n      mload(0x40)\n      swap1\n      dup2\n      add\n      0x40\n      mstore\n      dup1\n      swap3\n      swap2\n      swap1\n      dup2\n      dup2\n      mstore\n      0x20\n      add\n      dup3\n      dup1\n      sload\n      tag_168\n      swap1\n      tag_72\n      jump\t// in\n    tag_168:\n      dup1\n      iszero\n      tag_169\n      jumpi\n      dup1\n      0x1f\n      lt\n      tag_170\n      jumpi\n      0x0100\n      dup1\n      dup4\n      sload\n      div\n      mul\n      dup4\n      mstore\n      swap2\n      0x20\n      add\n      swap2\n      jump(tag_169)\n    tag_170:\n      dup3\n      add\n      swap2\n      swap1\n      0x00\n      mstore\n      keccak256(0x00, 0x20)\n      swap1\n    tag_171:\n      dup2\n      sload\n      dup2\n      mstore\n      swap1\n      0x01\n      add\n      swap1\n      0x20\n      add\n      dup1\n      dup4\n      gt\n      tag_171\n      jumpi\n      dup3\n      swap1\n      sub\n      0x1f\n      and\n      dup3\n      add\n      swap2\n    tag_169:\n      pop\n      pop\n      pop\n      pop\n      pop\n      dup2\n      mstore\n      0x20\n      add\n      0x05\n      dup3\n      add\n      dup1\n      sload\n      tag_172\n      swap1\n      tag_72\n      jump\t// in\n    tag_172:\n      dup1\n      0x1f\n      add\n      0x20\n      dup1\n      swap2\n      div\n      mul\n      0x20\n      add\n      mload(0x40)\n      swap1\n      dup2\n      add\n      0x40\n      mstore\n      dup1\n      swap3\n      swap2\n      swap1\n      dup2\n      dup2\n      mstore\n      0x20\n      add\n      dup3\n      dup1\n      sload\n      tag_173\n      swap1\n      tag_72\n      jump\t// in\n    tag_173:\n      dup1\n      iszero\n      tag_174\n      jumpi\n      dup1\n      0x1f\n      lt\n      tag_175\n      jumpi\n      0x0100\n      dup1\n      dup4\n      sload\n      div\n      mul\n      dup4\n      mstore\n      swap2\n      0x20\n      add\n      swap2\n      jump(tag_174)\n    tag_175:\n      dup3\n      add\n      swap2\n      swap1\n      0x00\n      mstore\n      keccak256(0x00, 0x20)\n      swap1\n    tag_176:\n      dup2\n      sload\n      dup2\n      mstore\n      swap1\n      0x01\n      add\n      swap1\n      0x20\n      add\n      dup1\n      dup4\n      gt\n      tag_176\n      jumpi\n      dup3\n      swap1\n      sub\n      0x1f\n      and\n      dup3\n      add\n      swap2\n    tag_174:\n      pop\n      pop\n      pop\n      pop\n      pop\n      dup2\n      mstore\n      0x20\n      add\n      0x06\n      dup3\n      add\n      dup1\n      sload\n      tag_177\n      swap1\n      tag_72\n      jump\t// in\n    tag_177:\n      dup1\n      0x1f\n      add\n      0x20\n      dup1\n      swap2\n      div\n      mul\n      0x20\n      add\n      mload(0x40)\n      swap1\n      dup2\n      add\n      0x40\n      mstore\n      dup1\n      swap3\n      swap2\n      swap1\n      dup2\n      dup2\n      mstore\n      0x20\n      add\n      dup3\n      dup1\n      sload\n      tag_178\n      swap1\n      tag_72\n      jump\t// in\n    tag_178:\n      dup1\n      iszero\n      tag_179\n      jumpi\n      dup1\n      0x1f\n      lt\n      tag_180\n      jumpi\n      0x0100\n      dup1\n      dup4\n      sload\n      div\n      mul\n      dup4\n      mstore\n      swap2\n      0x20\n      add\n      swap2\n      jump(tag_179)\n    tag_180:\n      dup3\n      add\n      swap2\n      swap1\n      0x00\n      mstore\n      keccak256(0x00, 0x20)\n      swap1\n    tag_181:\n      dup2\n      sload\n      dup2\n      mstore\n      swap1\n      0x01\n      add\n      swap1\n      0x20\n      add\n      dup1\n      dup4\n      gt\n      tag_181\n      jumpi\n      dup3\n      swap1\n      sub\n      0x1f\n      and\n      dup3\n      add\n      swap2\n    tag_179:\n      pop\n      pop\n      pop\n      pop\n      pop\n      dup2\n      mstore\n      0x20\n      add\n      0x07\n      dup3\n      add\n      dup1\n      sload\n      tag_182\n      swap1\n      tag_72\n      jump\t// in\n    tag_182:\n      dup1\n      0x1f\n      add\n      0x20\n      dup1\n      swap2\n      div\n      mul\n      0x20\n      add\n      mload(0x40)\n      swap1\n      dup2\n      add\n      0x40\n      mstore\n      dup1\n      swap3\n      swap2\n      swap1\n      dup2\n      dup2\n      mstore\n      0x20\n      add\n      dup3\n      dup1\n      sload\n      tag_183\n      swap1\n      tag_72\n      jump\t// in\n    tag_183:\n      dup1\n      iszero\n      tag_184\n      jumpi\n      dup1\n      0x1f\n      lt\n      tag_185\n      jumpi\n      0x0100\n      dup1\n      dup4\n      sload\n      div\n      mul\n      dup4\n      mstore\n      swap2\n      0x20\n      add\n      swap2\n      jump(tag_184)\n    tag_185:\n      dup3\n      add\n      swap2\n      swap1\n      0x00\n      mstore\n      keccak256(0x00, 0x20)\n      swap1\n    tag_186:\n      dup2\n      sload\n      dup2\n      mstore\n      swap1\n      0x01\n      add\n      swap1\n      0x20\n      add\n      dup1\n      dup4\n      gt\n      tag_186\n      jumpi\n      dup3\n      swap1\n      sub\n      0x1f\n      and\n      dup3\n      add\n      swap2\n    tag_184:\n      pop\n      pop\n      pop\n      pop\n      pop\n      dup2\n      mstore\n      0x20\n      add\n      0x08\n      dup3\n      add\n      0x00\n      swap1\n      sload\n      swap1\n      0x0100\n      exp\n      swap1\n      div\n      0xff\n      and\n      iszero\n      iszero\n      iszero\n      iszero\n      dup2\n      mstore\n      pop\n      pop\n      swap1\n      pop\n        /* \"contracts/Register.sol\":3141:3142  0 */\n      0x00\n        /* \"contracts/Register.sol\":3119:3125  entity */\n      dup2\n        /* \"contracts/Register.sol\":3119:3130  entity.name */\n      0x00\n      add\n      mload\n        /* \"contracts/Register.sol\":3113:3138  bytes(entity.name).length */\n      mload\n        /* \"contracts/Register.sol\":3113:3142  bytes(entity.name).length > 0 */\n      gt\n        /* \"contracts/Register.sol\":3144:3150  entity */\n      dup2\n        /* \"contracts/Register.sol\":3144:3161  entity.isVerified */\n      0x0100\n      add\n      mload\n        /* \"contracts/Register.sol\":3105:3162  return (bytes(entity.name).length > 0, entity.isVerified) */\n      swap3\n      pop\n      swap3\n      pop\n      pop\n        /* \"contracts/Register.sol\":2953:3169  function isEntityRegistered(address _walletAddress) public view returns (bool, bool) {... */\n      swap2\n      pop\n      swap2\n      jump\t// out\n        /* \"#utility.yul\":7:82   */\n    tag_187:\n        /* \"#utility.yul\":40:46   */\n      0x00\n        /* \"#utility.yul\":73:75   */\n      0x40\n        /* \"#utility.yul\":67:76   */\n      mload\n        /* \"#utility.yul\":57:76   */\n      swap1\n      pop\n        /* \"#utility.yul\":7:82   */\n      swap1\n      jump\t// out\n        /* \"#utility.yul\":88:205   */\n    tag_188:\n        /* \"#utility.yul\":197:198   */\n      0x00\n        /* \"#utility.yul\":194:195   */\n      dup1\n        /* \"#utility.yul\":187:199   */\n      revert\n        /* \"#utility.yul\":211:328   */\n    tag_189:\n        /* \"#utility.yul\":320:321   */\n      0x00\n        /* \"#utility.yul\":317:318   */\n      dup1\n        /* \"#utility.yul\":310:322   */\n      revert\n        /* \"#utility.yul\":334:451   */\n    tag_190:\n        /* \"#utility.yul\":443:444   */\n      0x00\n        /* \"#utility.yul\":440:441   */\n      dup1\n        /* \"#utility.yul\":433:445   */\n      revert\n        /* \"#utility.yul\":457:574   */\n    tag_191:\n        /* \"#utility.yul\":566:567   */\n      0x00\n        /* \"#utility.yul\":563:564   */\n      dup1\n        /* \"#utility.yul\":556:568   */\n      revert\n        /* \"#utility.yul\":580:682   */\n    tag_192:\n        /* \"#utility.yul\":621:627   */\n      0x00\n        /* \"#utility.yul\":672:674   */\n      0x1f\n        /* \"#utility.yul\":668:675   */\n      not\n        /* \"#utility.yul\":663:665   */\n      0x1f\n        /* \"#utility.yul\":656:661   */\n      dup4\n        /* \"#utility.yul\":652:666   */\n      add\n        /* \"#utility.yul\":648:676   */\n      and\n        /* \"#utility.yul\":638:676   */\n      swap1\n      pop\n        /* \"#utility.yul\":580:682   */\n      swap2\n      swap1\n      pop\n      jump\t// out\n        /* \"#utility.yul\":688:868   */\n    tag_193:\n        /* \"#utility.yul\":736:813   */\n      0x4e487b7100000000000000000000000000000000000000000000000000000000\n        /* \"#utility.yul\":733:734   */\n      0x00\n        /* \"#utility.yul\":726:814   */\n      mstore\n        /* \"#utility.yul\":833:837   */\n      0x41\n        /* \"#utility.yul\":830:831   */\n      0x04\n        /* \"#utility.yul\":823:838   */\n      mstore\n        /* \"#utility.yul\":857:861   */\n      0x24\n        /* \"#utility.yul\":854:855   */\n      0x00\n        /* \"#utility.yul\":847:862   */\n      revert\n        /* \"#utility.yul\":874:1155   */\n    tag_194:\n        /* \"#utility.yul\":957:984   */\n      tag_246\n        /* \"#utility.yul\":979:983   */\n      dup3\n        /* \"#utility.yul\":957:984   */\n      tag_192\n      jump\t// in\n    tag_246:\n        /* \"#utility.yul\":949:955   */\n      dup2\n        /* \"#utility.yul\":945:985   */\n      add\n        /* \"#utility.yul\":1087:1093   */\n      dup2\n        /* \"#utility.yul\":1075:1085   */\n      dup2\n        /* \"#utility.yul\":1072:1094   */\n      lt\n        /* \"#utility.yul\":1051:1069   */\n      0xffffffffffffffff\n        /* \"#utility.yul\":1039:1049   */\n      dup3\n        /* \"#utility.yul\":1036:1070   */\n      gt\n        /* \"#utility.yul\":1033:1095   */\n      or\n        /* \"#utility.yul\":1030:1118   */\n      iszero\n      tag_247\n      jumpi\n        /* \"#utility.yul\":1098:1116   */\n      tag_248\n      tag_193\n      jump\t// in\n    tag_248:\n        /* \"#utility.yul\":1030:1118   */\n    tag_247:\n        /* \"#utility.yul\":1138:1148   */\n      dup1\n        /* \"#utility.yul\":1134:1136   */\n      0x40\n        /* \"#utility.yul\":1127:1149   */\n      mstore\n        /* \"#utility.yul\":917:1155   */\n      pop\n        /* \"#utility.yul\":874:1155   */\n      pop\n      pop\n      jump\t// out\n        /* \"#utility.yul\":1161:1290   */\n    tag_195:\n        /* \"#utility.yul\":1195:1201   */\n      0x00\n        /* \"#utility.yul\":1222:1242   */\n      tag_250\n      tag_187\n      jump\t// in\n    tag_250:\n        /* \"#utility.yul\":1212:1242   */\n      swap1\n      pop\n        /* \"#utility.yul\":1251:1284   */\n      tag_251\n        /* \"#utility.yul\":1279:1283   */\n      dup3\n        /* \"#utility.yul\":1271:1277   */\n      dup3\n        /* \"#utility.yul\":1251:1284   */\n      tag_194\n      jump\t// in\n    tag_251:\n        /* \"#utility.yul\":1161:1290   */\n      swap2\n      swap1\n      pop\n      jump\t// out\n        /* \"#utility.yul\":1296:1604   */\n    tag_196:\n        /* \"#utility.yul\":1358:1362   */\n      0x00\n        /* \"#utility.yul\":1448:1466   */\n      0xffffffffffffffff\n        /* \"#utility.yul\":1440:1446   */\n      dup3\n        /* \"#utility.yul\":1437:1467   */\n      gt\n        /* \"#utility.yul\":1434:1490   */\n      iszero\n      tag_253\n      jumpi\n        /* \"#utility.yul\":1470:1488   */\n      tag_254\n      tag_193\n      jump\t// in\n    tag_254:\n        /* \"#utility.yul\":1434:1490   */\n    tag_253:\n        /* \"#utility.yul\":1508:1537   */\n      tag_255\n        /* \"#utility.yul\":1530:1536   */\n      dup3\n        /* \"#utility.yul\":1508:1537   */\n      tag_192\n      jump\t// in\n    tag_255:\n        /* \"#utility.yul\":1500:1537   */\n      swap1\n      pop\n        /* \"#utility.yul\":1592:1596   */\n      0x20\n        /* \"#utility.yul\":1586:1590   */\n      dup2\n        /* \"#utility.yul\":1582:1597   */\n      add\n        /* \"#utility.yul\":1574:1597   */\n      swap1\n      pop\n        /* \"#utility.yul\":1296:1604   */\n      swap2\n      swap1\n      pop\n      jump\t// out\n        /* \"#utility.yul\":1610:1758   */\n    tag_197:\n        /* \"#utility.yul\":1708:1714   */\n      dup3\n        /* \"#utility.yul\":1703:1706   */\n      dup2\n        /* \"#utility.yul\":1698:1701   */\n      dup4\n        /* \"#utility.yul\":1685:1715   */\n      calldatacopy\n        /* \"#utility.yul\":1749:1750   */\n      0x00\n        /* \"#utility.yul\":1740:1746   */\n      dup4\n        /* \"#utility.yul\":1735:1738   */\n      dup4\n        /* \"#utility.yul\":1731:1747   */\n      add\n        /* \"#utility.yul\":1724:1751   */\n      mstore\n        /* \"#utility.yul\":1610:1758   */\n      pop\n      pop\n      pop\n      jump\t// out\n        /* \"#utility.yul\":1764:2189   */\n    tag_198:\n        /* \"#utility.yul\":1842:1847   */\n      0x00\n        /* \"#utility.yul\":1867:1933   */\n      tag_258\n        /* \"#utility.yul\":1883:1932   */\n      tag_259\n        /* \"#utility.yul\":1925:1931   */\n      dup5\n        /* \"#utility.yul\":1883:1932   */\n      tag_196\n      jump\t// in\n    tag_259:\n        /* \"#utility.yul\":1867:1933   */\n      tag_195\n      jump\t// in\n    tag_258:\n        /* \"#utility.yul\":1858:1933   */\n      swap1\n      pop\n        /* \"#utility.yul\":1956:1962   */\n      dup3\n        /* \"#utility.yul\":1949:1954   */\n      dup2\n        /* \"#utility.yul\":1942:1963   */\n      mstore\n        /* \"#utility.yul\":1994:1998   */\n      0x20\n        /* \"#utility.yul\":1987:1992   */\n      dup2\n        /* \"#utility.yul\":1983:1999   */\n      add\n        /* \"#utility.yul\":2032:2035   */\n      dup5\n        /* \"#utility.yul\":2023:2029   */\n      dup5\n        /* \"#utility.yul\":2018:2021   */\n      dup5\n        /* \"#utility.yul\":2014:2030   */\n      add\n        /* \"#utility.yul\":2011:2036   */\n      gt\n        /* \"#utility.yul\":2008:2120   */\n      iszero\n      tag_260\n      jumpi\n        /* \"#utility.yul\":2039:2118   */\n      tag_261\n      tag_191\n      jump\t// in\n    tag_261:\n        /* \"#utility.yul\":2008:2120   */\n    tag_260:\n        /* \"#utility.yul\":2129:2183   */\n      tag_262\n        /* \"#utility.yul\":2176:2182   */\n      dup5\n        /* \"#utility.yul\":2171:2174   */\n      dup3\n        /* \"#utility.yul\":2166:2169   */\n      dup6\n        /* \"#utility.yul\":2129:2183   */\n      tag_197\n      jump\t// in\n    tag_262:\n        /* \"#utility.yul\":1848:2189   */\n      pop\n        /* \"#utility.yul\":1764:2189   */\n      swap4\n      swap3\n      pop\n      pop\n      pop\n      jump\t// out\n        /* \"#utility.yul\":2209:2549   */\n    tag_199:\n        /* \"#utility.yul\":2265:2270   */\n      0x00\n        /* \"#utility.yul\":2314:2317   */\n      dup3\n        /* \"#utility.yul\":2307:2311   */\n      0x1f\n        /* \"#utility.yul\":2299:2305   */\n      dup4\n        /* \"#utility.yul\":2295:2312   */\n      add\n        /* \"#utility.yul\":2291:2318   */\n      slt\n        /* \"#utility.yul\":2281:2403   */\n      tag_264\n      jumpi\n        /* \"#utility.yul\":2322:2401   */\n      tag_265\n      tag_190\n      jump\t// in\n    tag_265:\n        /* \"#utility.yul\":2281:2403   */\n    tag_264:\n        /* \"#utility.yul\":2439:2445   */\n      dup2\n        /* \"#utility.yul\":2426:2446   */\n      calldataload\n        /* \"#utility.yul\":2464:2543   */\n      tag_266\n        /* \"#utility.yul\":2539:2542   */\n      dup5\n        /* \"#utility.yul\":2531:2537   */\n      dup3\n        /* \"#utility.yul\":2524:2528   */\n      0x20\n        /* \"#utility.yul\":2516:2522   */\n      dup7\n        /* \"#utility.yul\":2512:2529   */\n      add\n        /* \"#utility.yul\":2464:2543   */\n      tag_198\n      jump\t// in\n    tag_266:\n        /* \"#utility.yul\":2455:2543   */\n      swap2\n      pop\n        /* \"#utility.yul\":2271:2549   */\n      pop\n        /* \"#utility.yul\":2209:2549   */\n      swap3\n      swap2\n      pop\n      pop\n      jump\t// out\n        /* \"#utility.yul\":2555:2632   */\n    tag_200:\n        /* \"#utility.yul\":2592:2599   */\n      0x00\n        /* \"#utility.yul\":2621:2626   */\n      dup2\n        /* \"#utility.yul\":2610:2626   */\n      swap1\n      pop\n        /* \"#utility.yul\":2555:2632   */\n      swap2\n      swap1\n      pop\n      jump\t// out\n        /* \"#utility.yul\":2638:2760   */\n    tag_201:\n        /* \"#utility.yul\":2711:2735   */\n      tag_269\n        /* \"#utility.yul\":2729:2734   */\n      dup2\n        /* \"#utility.yul\":2711:2735   */\n      tag_200\n      jump\t// in\n    tag_269:\n        /* \"#utility.yul\":2704:2709   */\n      dup2\n        /* \"#utility.yul\":2701:2736   */\n      eq\n        /* \"#utility.yul\":2691:2754   */\n      tag_270\n      jumpi\n        /* \"#utility.yul\":2750:2751   */\n      0x00\n        /* \"#utility.yul\":2747:2748   */\n      dup1\n        /* \"#utility.yul\":2740:2752   */\n      revert\n        /* \"#utility.yul\":2691:2754   */\n    tag_270:\n        /* \"#utility.yul\":2638:2760   */\n      pop\n      jump\t// out\n        /* \"#utility.yul\":2766:2905   */\n    tag_202:\n        /* \"#utility.yul\":2812:2817   */\n      0x00\n        /* \"#utility.yul\":2850:2856   */\n      dup2\n        /* \"#utility.yul\":2837:2857   */\n      calldataload\n        /* \"#utility.yul\":2828:2857   */\n      swap1\n      pop\n        /* \"#utility.yul\":2866:2899   */\n      tag_272\n        /* \"#utility.yul\":2893:2898   */\n      dup2\n        /* \"#utility.yul\":2866:2899   */\n      tag_201\n      jump\t// in\n    tag_272:\n        /* \"#utility.yul\":2766:2905   */\n      swap3\n      swap2\n      pop\n      pop\n      jump\t// out\n        /* \"#utility.yul\":2911:5194   */\n    tag_16:\n        /* \"#utility.yul\":3084:3090   */\n      0x00\n        /* \"#utility.yul\":3092:3098   */\n      dup1\n        /* \"#utility.yul\":3100:3106   */\n      0x00\n        /* \"#utility.yul\":3108:3114   */\n      dup1\n        /* \"#utility.yul\":3116:3122   */\n      0x00\n        /* \"#utility.yul\":3124:3130   */\n      dup1\n        /* \"#utility.yul\":3132:3138   */\n      0x00\n        /* \"#utility.yul\":3181:3184   */\n      0xe0\n        /* \"#utility.yul\":3169:3178   */\n      dup9\n        /* \"#utility.yul\":3160:3167   */\n      dup11\n        /* \"#utility.yul\":3156:3179   */\n      sub\n        /* \"#utility.yul\":3152:3185   */\n      slt\n        /* \"#utility.yul\":3149:3269   */\n      iszero\n      tag_274\n      jumpi\n        /* \"#utility.yul\":3188:3267   */\n      tag_275\n      tag_188\n      jump\t// in\n    tag_275:\n        /* \"#utility.yul\":3149:3269   */\n    tag_274:\n        /* \"#utility.yul\":3336:3337   */\n      0x00\n        /* \"#utility.yul\":3325:3334   */\n      dup9\n        /* \"#utility.yul\":3321:3338   */\n      add\n        /* \"#utility.yul\":3308:3339   */\n      calldataload\n        /* \"#utility.yul\":3366:3384   */\n      0xffffffffffffffff\n        /* \"#utility.yul\":3358:3364   */\n      dup2\n        /* \"#utility.yul\":3355:3385   */\n      gt\n        /* \"#utility.yul\":3352:3469   */\n      iszero\n      tag_276\n      jumpi\n        /* \"#utility.yul\":3388:3467   */\n      tag_277\n      tag_189\n      jump\t// in\n    tag_277:\n        /* \"#utility.yul\":3352:3469   */\n    tag_276:\n        /* \"#utility.yul\":3493:3556   */\n      tag_278\n        /* \"#utility.yul\":3548:3555   */\n      dup11\n        /* \"#utility.yul\":3539:3545   */\n      dup3\n        /* \"#utility.yul\":3528:3537   */\n      dup12\n        /* \"#utility.yul\":3524:3546   */\n      add\n        /* \"#utility.yul\":3493:3556   */\n      tag_199\n      jump\t// in\n    tag_278:\n        /* \"#utility.yul\":3483:3556   */\n      swap8\n      pop\n        /* \"#utility.yul\":3279:3566   */\n      pop\n        /* \"#utility.yul\":3605:3607   */\n      0x20\n        /* \"#utility.yul\":3631:3684   */\n      tag_279\n        /* \"#utility.yul\":3676:3683   */\n      dup11\n        /* \"#utility.yul\":3667:3673   */\n      dup3\n        /* \"#utility.yul\":3656:3665   */\n      dup12\n        /* \"#utility.yul\":3652:3674   */\n      add\n        /* \"#utility.yul\":3631:3684   */\n      tag_202\n      jump\t// in\n    tag_279:\n        /* \"#utility.yul\":3621:3684   */\n      swap7\n      pop\n        /* \"#utility.yul\":3576:3694   */\n      pop\n        /* \"#utility.yul\":3761:3763   */\n      0x40\n        /* \"#utility.yul\":3750:3759   */\n      dup9\n        /* \"#utility.yul\":3746:3764   */\n      add\n        /* \"#utility.yul\":3733:3765   */\n      calldataload\n        /* \"#utility.yul\":3792:3810   */\n      0xffffffffffffffff\n        /* \"#utility.yul\":3784:3790   */\n      dup2\n        /* \"#utility.yul\":3781:3811   */\n      gt\n        /* \"#utility.yul\":3778:3895   */\n      iszero\n      tag_280\n      jumpi\n        /* \"#utility.yul\":3814:3893   */\n      tag_281\n      tag_189\n      jump\t// in\n    tag_281:\n        /* \"#utility.yul\":3778:3895   */\n    tag_280:\n        /* \"#utility.yul\":3919:3982   */\n      tag_282\n        /* \"#utility.yul\":3974:3981   */\n      dup11\n        /* \"#utility.yul\":3965:3971   */\n      dup3\n        /* \"#utility.yul\":3954:3963   */\n      dup12\n        /* \"#utility.yul\":3950:3972   */\n      add\n        /* \"#utility.yul\":3919:3982   */\n      tag_199\n      jump\t// in\n    tag_282:\n        /* \"#utility.yul\":3909:3982   */\n      swap6\n      pop\n        /* \"#utility.yul\":3704:3992   */\n      pop\n        /* \"#utility.yul\":4059:4061   */\n      0x60\n        /* \"#utility.yul\":4048:4057   */\n      dup9\n        /* \"#utility.yul\":4044:4062   */\n      add\n        /* \"#utility.yul\":4031:4063   */\n      calldataload\n        /* \"#utility.yul\":4090:4108   */\n      0xffffffffffffffff\n        /* \"#utility.yul\":4082:4088   */\n      dup2\n        /* \"#utility.yul\":4079:4109   */\n      gt\n        /* \"#utility.yul\":4076:4193   */\n      iszero\n      tag_283\n      jumpi\n        /* \"#utility.yul\":4112:4191   */\n      tag_284\n      tag_189\n      jump\t// in\n    tag_284:\n        /* \"#utility.yul\":4076:4193   */\n    tag_283:\n        /* \"#utility.yul\":4217:4280   */\n      tag_285\n        /* \"#utility.yul\":4272:4279   */\n      dup11\n        /* \"#utility.yul\":4263:4269   */\n      dup3\n        /* \"#utility.yul\":4252:4261   */\n      dup12\n        /* \"#utility.yul\":4248:4270   */\n      add\n        /* \"#utility.yul\":4217:4280   */\n      tag_199\n      jump\t// in\n    tag_285:\n        /* \"#utility.yul\":4207:4280   */\n      swap5\n      pop\n        /* \"#utility.yul\":4002:4290   */\n      pop\n        /* \"#utility.yul\":4357:4360   */\n      0x80\n        /* \"#utility.yul\":4346:4355   */\n      dup9\n        /* \"#utility.yul\":4342:4361   */\n      add\n        /* \"#utility.yul\":4329:4362   */\n      calldataload\n        /* \"#utility.yul\":4389:4407   */\n      0xffffffffffffffff\n        /* \"#utility.yul\":4381:4387   */\n      dup2\n        /* \"#utility.yul\":4378:4408   */\n      gt\n        /* \"#utility.yul\":4375:4492   */\n      iszero\n      tag_286\n      jumpi\n        /* \"#utility.yul\":4411:4490   */\n      tag_287\n      tag_189\n      jump\t// in\n    tag_287:\n        /* \"#utility.yul\":4375:4492   */\n    tag_286:\n        /* \"#utility.yul\":4516:4579   */\n      tag_288\n        /* \"#utility.yul\":4571:4578   */\n      dup11\n        /* \"#utility.yul\":4562:4568   */\n      dup3\n        /* \"#utility.yul\":4551:4560   */\n      dup12\n        /* \"#utility.yul\":4547:4569   */\n      add\n        /* \"#utility.yul\":4516:4579   */\n      tag_199\n      jump\t// in\n    tag_288:\n        /* \"#utility.yul\":4506:4579   */\n      swap4\n      pop\n        /* \"#utility.yul\":4300:4589   */\n      pop\n        /* \"#utility.yul\":4656:4659   */\n      0xa0\n        /* \"#utility.yul\":4645:4654   */\n      dup9\n        /* \"#utility.yul\":4641:4660   */\n      add\n        /* \"#utility.yul\":4628:4661   */\n      calldataload\n        /* \"#utility.yul\":4688:4706   */\n      0xffffffffffffffff\n        /* \"#utility.yul\":4680:4686   */\n      dup2\n        /* \"#utility.yul\":4677:4707   */\n      gt\n        /* \"#utility.yul\":4674:4791   */\n      iszero\n      tag_289\n      jumpi\n        /* \"#utility.yul\":4710:4789   */\n      tag_290\n      tag_189\n      jump\t// in\n    tag_290:\n        /* \"#utility.yul\":4674:4791   */\n    tag_289:\n        /* \"#utility.yul\":4815:4878   */\n      tag_291\n        /* \"#utility.yul\":4870:4877   */\n      dup11\n        /* \"#utility.yul\":4861:4867   */\n      dup3\n        /* \"#utility.yul\":4850:4859   */\n      dup12\n        /* \"#utility.yul\":4846:4868   */\n      add\n        /* \"#utility.yul\":4815:4878   */\n      tag_199\n      jump\t// in\n    tag_291:\n        /* \"#utility.yul\":4805:4878   */\n      swap3\n      pop\n        /* \"#utility.yul\":4599:4888   */\n      pop\n        /* \"#utility.yul\":4955:4958   */\n      0xc0\n        /* \"#utility.yul\":4944:4953   */\n      dup9\n        /* \"#utility.yul\":4940:4959   */\n      add\n        /* \"#utility.yul\":4927:4960   */\n      calldataload\n        /* \"#utility.yul\":4987:5005   */\n      0xffffffffffffffff\n        /* \"#utility.yul\":4979:4985   */\n      dup2\n        /* \"#utility.yul\":4976:5006   */\n      gt\n        /* \"#utility.yul\":4973:5090   */\n      iszero\n      tag_292\n      jumpi\n        /* \"#utility.yul\":5009:5088   */\n      tag_293\n      tag_189\n      jump\t// in\n    tag_293:\n        /* \"#utility.yul\":4973:5090   */\n    tag_292:\n        /* \"#utility.yul\":5114:5177   */\n      tag_294\n        /* \"#utility.yul\":5169:5176   */\n      dup11\n        /* \"#utility.yul\":5160:5166   */\n      dup3\n        /* \"#utility.yul\":5149:5158   */\n      dup12\n        /* \"#utility.yul\":5145:5167   */\n      add\n        /* \"#utility.yul\":5114:5177   */\n      tag_199\n      jump\t// in\n    tag_294:\n        /* \"#utility.yul\":5104:5177   */\n      swap2\n      pop\n        /* \"#utility.yul\":4898:5187   */\n      pop\n        /* \"#utility.yul\":2911:5194   */\n      swap3\n      swap6\n      swap9\n      swap2\n      swap5\n      swap8\n      pop\n      swap3\n      swap6\n      pop\n      jump\t// out\n        /* \"#utility.yul\":5200:5326   */\n    tag_203:\n        /* \"#utility.yul\":5237:5244   */\n      0x00\n        /* \"#utility.yul\":5277:5319   */\n      0xffffffffffffffffffffffffffffffffffffffff\n        /* \"#utility.yul\":5270:5275   */\n      dup3\n        /* \"#utility.yul\":5266:5320   */\n      and\n        /* \"#utility.yul\":5255:5320   */\n      swap1\n      pop\n        /* \"#utility.yul\":5200:5326   */\n      swap2\n      swap1\n      pop\n      jump\t// out\n        /* \"#utility.yul\":5332:5428   */\n    tag_204:\n        /* \"#utility.yul\":5369:5376   */\n      0x00\n        /* \"#utility.yul\":5398:5422   */\n      tag_297\n        /* \"#utility.yul\":5416:5421   */\n      dup3\n        /* \"#utility.yul\":5398:5422   */\n      tag_203\n      jump\t// in\n    tag_297:\n        /* \"#utility.yul\":5387:5422   */\n      swap1\n      pop\n        /* \"#utility.yul\":5332:5428   */\n      swap2\n      swap1\n      pop\n      jump\t// out\n        /* \"#utility.yul\":5434:5556   */\n    tag_205:\n        /* \"#utility.yul\":5507:5531   */\n      tag_299\n        /* \"#utility.yul\":5525:5530   */\n      dup2\n        /* \"#utility.yul\":5507:5531   */\n      tag_204\n      jump\t// in\n    tag_299:\n        /* \"#utility.yul\":5500:5505   */\n      dup2\n        /* \"#utility.yul\":5497:5532   */\n      eq\n        /* \"#utility.yul\":5487:5550   */\n      tag_300\n      jumpi\n        /* \"#utility.yul\":5546:5547   */\n      0x00\n        /* \"#utility.yul\":5543:5544   */\n      dup1\n        /* \"#utility.yul\":5536:5548   */\n      revert\n        /* \"#utility.yul\":5487:5550   */\n    tag_300:\n        /* \"#utility.yul\":5434:5556   */\n      pop\n      jump\t// out\n        /* \"#utility.yul\":5562:5701   */\n    tag_206:\n        /* \"#utility.yul\":5608:5613   */\n      0x00\n        /* \"#utility.yul\":5646:5652   */\n      dup2\n        /* \"#utility.yul\":5633:5653   */\n      calldataload\n        /* \"#utility.yul\":5624:5653   */\n      swap1\n      pop\n        /* \"#utility.yul\":5662:5695   */\n      tag_302\n        /* \"#utility.yul\":5689:5694   */\n      dup2\n        /* \"#utility.yul\":5662:5695   */\n      tag_205\n      jump\t// in\n    tag_302:\n        /* \"#utility.yul\":5562:5701   */\n      swap3\n      swap2\n      pop\n      pop\n      jump\t// out\n        /* \"#utility.yul\":5707:6036   */\n    tag_20:\n        /* \"#utility.yul\":5766:5772   */\n      0x00\n        /* \"#utility.yul\":5815:5817   */\n      0x20\n        /* \"#utility.yul\":5803:5812   */\n      dup3\n        /* \"#utility.yul\":5794:5801   */\n      dup5\n        /* \"#utility.yul\":5790:5813   */\n      sub\n        /* \"#utility.yul\":5786:5818   */\n      slt\n        /* \"#utility.yul\":5783:5902   */\n      iszero\n      tag_304\n      jumpi\n        /* \"#utility.yul\":5821:5900   */\n      tag_305\n      tag_188\n      jump\t// in\n    tag_305:\n        /* \"#utility.yul\":5783:5902   */\n    tag_304:\n        /* \"#utility.yul\":5941:5942   */\n      0x00\n        /* \"#utility.yul\":5966:6019   */\n      tag_306\n        /* \"#utility.yul\":6011:6018   */\n      dup5\n        /* \"#utility.yul\":6002:6008   */\n      dup3\n        /* \"#utility.yul\":5991:6000   */\n      dup6\n        /* \"#utility.yul\":5987:6009   */\n      add\n        /* \"#utility.yul\":5966:6019   */\n      tag_206\n      jump\t// in\n    tag_306:\n        /* \"#utility.yul\":5956:6019   */\n      swap2\n      pop\n        /* \"#utility.yul\":5912:6029   */\n      pop\n        /* \"#utility.yul\":5707:6036   */\n      swap3\n      swap2\n      pop\n      pop\n      jump\t// out\n        /* \"#utility.yul\":6042:8831   */\n    tag_27:\n        /* \"#utility.yul\":6244:6250   */\n      0x00\n        /* \"#utility.yul\":6252:6258   */\n      dup1\n        /* \"#utility.yul\":6260:6266   */\n      0x00\n        /* \"#utility.yul\":6268:6274   */\n      dup1\n        /* \"#utility.yul\":6276:6282   */\n      0x00\n        /* \"#utility.yul\":6284:6290   */\n      dup1\n        /* \"#utility.yul\":6292:6298   */\n      0x00\n        /* \"#utility.yul\":6300:6306   */\n      dup1\n        /* \"#utility.yul\":6349:6352   */\n      0x0100\n        /* \"#utility.yul\":6337:6346   */\n      dup10\n        /* \"#utility.yul\":6328:6335   */\n      dup12\n        /* \"#utility.yul\":6324:6347   */\n      sub\n        /* \"#utility.yul\":6320:6353   */\n      slt\n        /* \"#utility.yul\":6317:6437   */\n      iszero\n      tag_308\n      jumpi\n        /* \"#utility.yul\":6356:6435   */\n      tag_309\n      tag_188\n      jump\t// in\n    tag_309:\n        /* \"#utility.yul\":6317:6437   */\n    tag_308:\n        /* \"#utility.yul\":6504:6505   */\n      0x00\n        /* \"#utility.yul\":6493:6502   */\n      dup10\n        /* \"#utility.yul\":6489:6506   */\n      add\n        /* \"#utility.yul\":6476:6507   */\n      calldataload\n        /* \"#utility.yul\":6534:6552   */\n      0xffffffffffffffff\n        /* \"#utility.yul\":6526:6532   */\n      dup2\n        /* \"#utility.yul\":6523:6553   */\n      gt\n        /* \"#utility.yul\":6520:6637   */\n      iszero\n      tag_310\n      jumpi\n        /* \"#utility.yul\":6556:6635   */\n      tag_311\n      tag_189\n      jump\t// in\n    tag_311:\n        /* \"#utility.yul\":6520:6637   */\n    tag_310:\n        /* \"#utility.yul\":6661:6724   */\n      tag_312\n        /* \"#utility.yul\":6716:6723   */\n      dup12\n        /* \"#utility.yul\":6707:6713   */\n      dup3\n        /* \"#utility.yul\":6696:6705   */\n      dup13\n        /* \"#utility.yul\":6692:6714   */\n      add\n        /* \"#utility.yul\":6661:6724   */\n      tag_199\n      jump\t// in\n    tag_312:\n        /* \"#utility.yul\":6651:6724   */\n      swap9\n      pop\n        /* \"#utility.yul\":6447:6734   */\n      pop\n        /* \"#utility.yul\":6801:6803   */\n      0x20\n        /* \"#utility.yul\":6790:6799   */\n      dup10\n        /* \"#utility.yul\":6786:6804   */\n      add\n        /* \"#utility.yul\":6773:6805   */\n      calldataload\n        /* \"#utility.yul\":6832:6850   */\n      0xffffffffffffffff\n        /* \"#utility.yul\":6824:6830   */\n      dup2\n        /* \"#utility.yul\":6821:6851   */\n      gt\n        /* \"#utility.yul\":6818:6935   */\n      iszero\n      tag_313\n      jumpi\n        /* \"#utility.yul\":6854:6933   */\n      tag_314\n      tag_189\n      jump\t// in\n    tag_314:\n        /* \"#utility.yul\":6818:6935   */\n    tag_313:\n        /* \"#utility.yul\":6959:7022   */\n      tag_315\n        /* \"#utility.yul\":7014:7021   */\n      dup12\n        /* \"#utility.yul\":7005:7011   */\n      dup3\n        /* \"#utility.yul\":6994:7003   */\n      dup13\n        /* \"#utility.yul\":6990:7012   */\n      add\n        /* \"#utility.yul\":6959:7022   */\n      tag_199\n      jump\t// in\n    tag_315:\n        /* \"#utility.yul\":6949:7022   */\n      swap8\n      pop\n        /* \"#utility.yul\":6744:7032   */\n      pop\n        /* \"#utility.yul\":7099:7101   */\n      0x40\n        /* \"#utility.yul\":7088:7097   */\n      dup10\n        /* \"#utility.yul\":7084:7102   */\n      add\n        /* \"#utility.yul\":7071:7103   */\n      calldataload\n        /* \"#utility.yul\":7130:7148   */\n      0xffffffffffffffff\n        /* \"#utility.yul\":7122:7128   */\n      dup2\n        /* \"#utility.yul\":7119:7149   */\n      gt\n        /* \"#utility.yul\":7116:7233   */\n      iszero\n      tag_316\n      jumpi\n        /* \"#utility.yul\":7152:7231   */\n      tag_317\n      tag_189\n      jump\t// in\n    tag_317:\n        /* \"#utility.yul\":7116:7233   */\n    tag_316:\n        /* \"#utility.yul\":7257:7320   */\n      tag_318\n        /* \"#utility.yul\":7312:7319   */\n      dup12\n        /* \"#utility.yul\":7303:7309   */\n      dup3\n        /* \"#utility.yul\":7292:7301   */\n      dup13\n        /* \"#utility.yul\":7288:7310   */\n      add\n        /* \"#utility.yul\":7257:7320   */\n      tag_199\n      jump\t// in\n    tag_318:\n        /* \"#utility.yul\":7247:7320   */\n      swap7\n      pop\n        /* \"#utility.yul\":7042:7330   */\n      pop\n        /* \"#utility.yul\":7397:7399   */\n      0x60\n        /* \"#utility.yul\":7386:7395   */\n      dup10\n        /* \"#utility.yul\":7382:7400   */\n      add\n        /* \"#utility.yul\":7369:7401   */\n      calldataload\n        /* \"#utility.yul\":7428:7446   */\n      0xffffffffffffffff\n        /* \"#utility.yul\":7420:7426   */\n      dup2\n        /* \"#utility.yul\":7417:7447   */\n      gt\n        /* \"#utility.yul\":7414:7531   */\n      iszero\n      tag_319\n      jumpi\n        /* \"#utility.yul\":7450:7529   */\n      tag_320\n      tag_189\n      jump\t// in\n    tag_320:\n        /* \"#utility.yul\":7414:7531   */\n    tag_319:\n        /* \"#utility.yul\":7555:7618   */\n      tag_321\n        /* \"#utility.yul\":7610:7617   */\n      dup12\n        /* \"#utility.yul\":7601:7607   */\n      dup3\n        /* \"#utility.yul\":7590:7599   */\n      dup13\n        /* \"#utility.yul\":7586:7608   */\n      add\n        /* \"#utility.yul\":7555:7618   */\n      tag_199\n      jump\t// in\n    tag_321:\n        /* \"#utility.yul\":7545:7618   */\n      swap6\n      pop\n        /* \"#utility.yul\":7340:7628   */\n      pop\n        /* \"#utility.yul\":7695:7698   */\n      0x80\n        /* \"#utility.yul\":7684:7693   */\n      dup10\n        /* \"#utility.yul\":7680:7699   */\n      add\n        /* \"#utility.yul\":7667:7700   */\n      calldataload\n        /* \"#utility.yul\":7727:7745   */\n      0xffffffffffffffff\n        /* \"#utility.yul\":7719:7725   */\n      dup2\n        /* \"#utility.yul\":7716:7746   */\n      gt\n        /* \"#utility.yul\":7713:7830   */\n      iszero\n      tag_322\n      jumpi\n        /* \"#utility.yul\":7749:7828   */\n      tag_323\n      tag_189\n      jump\t// in\n    tag_323:\n        /* \"#utility.yul\":7713:7830   */\n    tag_322:\n        /* \"#utility.yul\":7854:7917   */\n      tag_324\n        /* \"#utility.yul\":7909:7916   */\n      dup12\n        /* \"#utility.yul\":7900:7906   */\n      dup3\n        /* \"#utility.yul\":7889:7898   */\n      dup13\n        /* \"#utility.yul\":7885:7907   */\n      add\n        /* \"#utility.yul\":7854:7917   */\n      tag_199\n      jump\t// in\n    tag_324:\n        /* \"#utility.yul\":7844:7917   */\n      swap5\n      pop\n        /* \"#utility.yul\":7638:7927   */\n      pop\n        /* \"#utility.yul\":7994:7997   */\n      0xa0\n        /* \"#utility.yul\":7983:7992   */\n      dup10\n        /* \"#utility.yul\":7979:7998   */\n      add\n        /* \"#utility.yul\":7966:7999   */\n      calldataload\n        /* \"#utility.yul\":8026:8044   */\n      0xffffffffffffffff\n        /* \"#utility.yul\":8018:8024   */\n      dup2\n        /* \"#utility.yul\":8015:8045   */\n      gt\n        /* \"#utility.yul\":8012:8129   */\n      iszero\n      tag_325\n      jumpi\n        /* \"#utility.yul\":8048:8127   */\n      tag_326\n      tag_189\n      jump\t// in\n    tag_326:\n        /* \"#utility.yul\":8012:8129   */\n    tag_325:\n        /* \"#utility.yul\":8153:8216   */\n      tag_327\n        /* \"#utility.yul\":8208:8215   */\n      dup12\n        /* \"#utility.yul\":8199:8205   */\n      dup3\n        /* \"#utility.yul\":8188:8197   */\n      dup13\n        /* \"#utility.yul\":8184:8206   */\n      add\n        /* \"#utility.yul\":8153:8216   */\n      tag_199\n      jump\t// in\n    tag_327:\n        /* \"#utility.yul\":8143:8216   */\n      swap4\n      pop\n        /* \"#utility.yul\":7937:8226   */\n      pop\n        /* \"#utility.yul\":8293:8296   */\n      0xc0\n        /* \"#utility.yul\":8282:8291   */\n      dup10\n        /* \"#utility.yul\":8278:8297   */\n      add\n        /* \"#utility.yul\":8265:8298   */\n      calldataload\n        /* \"#utility.yul\":8325:8343   */\n      0xffffffffffffffff\n        /* \"#utility.yul\":8317:8323   */\n      dup2\n        /* \"#utility.yul\":8314:8344   */\n      gt\n        /* \"#utility.yul\":8311:8428   */\n      iszero\n      tag_328\n      jumpi\n        /* \"#utility.yul\":8347:8426   */\n      tag_329\n      tag_189\n      jump\t// in\n    tag_329:\n        /* \"#utility.yul\":8311:8428   */\n    tag_328:\n        /* \"#utility.yul\":8452:8515   */\n      tag_330\n        /* \"#utility.yul\":8507:8514   */\n      dup12\n        /* \"#utility.yul\":8498:8504   */\n      dup3\n        /* \"#utility.yul\":8487:8496   */\n      dup13\n        /* \"#utility.yul\":8483:8505   */\n      add\n        /* \"#utility.yul\":8452:8515   */\n      tag_199\n      jump\t// in\n    tag_330:\n        /* \"#utility.yul\":8442:8515   */\n      swap3\n      pop\n        /* \"#utility.yul\":8236:8525   */\n      pop\n        /* \"#utility.yul\":8592:8595   */\n      0xe0\n        /* \"#utility.yul\":8581:8590   */\n      dup10\n        /* \"#utility.yul\":8577:8596   */\n      add\n        /* \"#utility.yul\":8564:8597   */\n      calldataload\n        /* \"#utility.yul\":8624:8642   */\n      0xffffffffffffffff\n        /* \"#utility.yul\":8616:8622   */\n      dup2\n        /* \"#utility.yul\":8613:8643   */\n      gt\n        /* \"#utility.yul\":8610:8727   */\n      iszero\n      tag_331\n      jumpi\n        /* \"#utility.yul\":8646:8725   */\n      tag_332\n      tag_189\n      jump\t// in\n    tag_332:\n        /* \"#utility.yul\":8610:8727   */\n    tag_331:\n        /* \"#utility.yul\":8751:8814   */\n      tag_333\n        /* \"#utility.yul\":8806:8813   */\n      dup12\n        /* \"#utility.yul\":8797:8803   */\n      dup3\n        /* \"#utility.yul\":8786:8795   */\n      dup13\n        /* \"#utility.yul\":8782:8804   */\n      add\n        /* \"#utility.yul\":8751:8814   */\n      tag_199\n      jump\t// in\n    tag_333:\n        /* \"#utility.yul\":8741:8814   */\n      swap2\n      pop\n        /* \"#utility.yul\":8535:8824   */\n      pop\n        /* \"#utility.yul\":6042:8831   */\n      swap3\n      swap6\n      swap9\n      pop\n      swap3\n      swap6\n      swap9\n      swap1\n      swap4\n      swap7\n      pop\n      jump\t// out\n        /* \"#utility.yul\":8837:8927   */\n    tag_207:\n        /* \"#utility.yul\":8871:8878   */\n      0x00\n        /* \"#utility.yul\":8914:8919   */\n      dup2\n        /* \"#utility.yul\":8907:8920   */\n      iszero\n        /* \"#utility.yul\":8900:8921   */\n      iszero\n        /* \"#utility.yul\":8889:8921   */\n      swap1\n      pop\n        /* \"#utility.yul\":8837:8927   */\n      swap2\n      swap1\n      pop\n      jump\t// out\n        /* \"#utility.yul\":8933:9042   */\n    tag_208:\n        /* \"#utility.yul\":9014:9035   */\n      tag_336\n        /* \"#utility.yul\":9029:9034   */\n      dup2\n        /* \"#utility.yul\":9014:9035   */\n      tag_207\n      jump\t// in\n    tag_336:\n        /* \"#utility.yul\":9009:9012   */\n      dup3\n        /* \"#utility.yul\":9002:9036   */\n      mstore\n        /* \"#utility.yul\":8933:9042   */\n      pop\n      pop\n      jump\t// out\n        /* \"#utility.yul\":9048:9356   */\n    tag_45:\n        /* \"#utility.yul\":9157:9161   */\n      0x00\n        /* \"#utility.yul\":9195:9197   */\n      0x40\n        /* \"#utility.yul\":9184:9193   */\n      dup3\n        /* \"#utility.yul\":9180:9198   */\n      add\n        /* \"#utility.yul\":9172:9198   */\n      swap1\n      pop\n        /* \"#utility.yul\":9208:9273   */\n      tag_338\n        /* \"#utility.yul\":9270:9271   */\n      0x00\n        /* \"#utility.yul\":9259:9268   */\n      dup4\n        /* \"#utility.yul\":9255:9272   */\n      add\n        /* \"#utility.yul\":9246:9252   */\n      dup6\n        /* \"#utility.yul\":9208:9273   */\n      tag_208\n      jump\t// in\n    tag_338:\n        /* \"#utility.yul\":9283:9349   */\n      tag_339\n        /* \"#utility.yul\":9345:9347   */\n      0x20\n        /* \"#utility.yul\":9334:9343   */\n      dup4\n        /* \"#utility.yul\":9330:9348   */\n      add\n        /* \"#utility.yul\":9321:9327   */\n      dup5\n        /* \"#utility.yul\":9283:9349   */\n      tag_208\n      jump\t// in\n    tag_339:\n        /* \"#utility.yul\":9048:9356   */\n      swap4\n      swap3\n      pop\n      pop\n      pop\n      jump\t// out\n        /* \"#utility.yul\":9362:9461   */\n    tag_209:\n        /* \"#utility.yul\":9414:9420   */\n      0x00\n        /* \"#utility.yul\":9448:9453   */\n      dup2\n        /* \"#utility.yul\":9442:9454   */\n      mload\n        /* \"#utility.yul\":9432:9454   */\n      swap1\n      pop\n        /* \"#utility.yul\":9362:9461   */\n      swap2\n      swap1\n      pop\n      jump\t// out\n        /* \"#utility.yul\":9467:9647   */\n    tag_210:\n        /* \"#utility.yul\":9515:9592   */\n      0x4e487b7100000000000000000000000000000000000000000000000000000000\n        /* \"#utility.yul\":9512:9513   */\n      0x00\n        /* \"#utility.yul\":9505:9593   */\n      mstore\n        /* \"#utility.yul\":9612:9616   */\n      0x22\n        /* \"#utility.yul\":9609:9610   */\n      0x04\n        /* \"#utility.yul\":9602:9617   */\n      mstore\n        /* \"#utility.yul\":9636:9640   */\n      0x24\n        /* \"#utility.yul\":9633:9634   */\n      0x00\n        /* \"#utility.yul\":9626:9641   */\n      revert\n        /* \"#utility.yul\":9653:9973   */\n    tag_72:\n        /* \"#utility.yul\":9697:9703   */\n      0x00\n        /* \"#utility.yul\":9734:9735   */\n      0x02\n        /* \"#utility.yul\":9728:9732   */\n      dup3\n        /* \"#utility.yul\":9724:9736   */\n      div\n        /* \"#utility.yul\":9714:9736   */\n      swap1\n      pop\n        /* \"#utility.yul\":9781:9782   */\n      0x01\n        /* \"#utility.yul\":9775:9779   */\n      dup3\n        /* \"#utility.yul\":9771:9783   */\n      and\n        /* \"#utility.yul\":9802:9820   */\n      dup1\n        /* \"#utility.yul\":9792:9873   */\n      tag_343\n      jumpi\n        /* \"#utility.yul\":9858:9862   */\n      0x7f\n        /* \"#utility.yul\":9850:9856   */\n      dup3\n        /* \"#utility.yul\":9846:9863   */\n      and\n        /* \"#utility.yul\":9836:9863   */\n      swap2\n      pop\n        /* \"#utility.yul\":9792:9873   */\n    tag_343:\n        /* \"#utility.yul\":9920:9922   */\n      0x20\n        /* \"#utility.yul\":9912:9918   */\n      dup3\n        /* \"#utility.yul\":9909:9923   */\n      lt\n        /* \"#utility.yul\":9889:9907   */\n      dup2\n        /* \"#utility.yul\":9886:9924   */\n      sub\n        /* \"#utility.yul\":9883:9967   */\n      tag_344\n      jumpi\n        /* \"#utility.yul\":9939:9957   */\n      tag_345\n      tag_210\n      jump\t// in\n    tag_345:\n        /* \"#utility.yul\":9883:9967   */\n    tag_344:\n        /* \"#utility.yul\":9704:9973   */\n      pop\n        /* \"#utility.yul\":9653:9973   */\n      swap2\n      swap1\n      pop\n      jump\t// out\n        /* \"#utility.yul\":9979:10120   */\n    tag_211:\n        /* \"#utility.yul\":10028:10032   */\n      0x00\n        /* \"#utility.yul\":10051:10054   */\n      dup2\n        /* \"#utility.yul\":10043:10054   */\n      swap1\n      pop\n        /* \"#utility.yul\":10074:10077   */\n      dup2\n        /* \"#utility.yul\":10071:10072   */\n      0x00\n        /* \"#utility.yul\":10064:10078   */\n      mstore\n        /* \"#utility.yul\":10108:10112   */\n      0x20\n        /* \"#utility.yul\":10105:10106   */\n      0x00\n        /* \"#utility.yul\":10095:10113   */\n      keccak256\n        /* \"#utility.yul\":10087:10113   */\n      swap1\n      pop\n        /* \"#utility.yul\":9979:10120   */\n      swap2\n      swap1\n      pop\n      jump\t// out\n        /* \"#utility.yul\":10126:10219   */\n    tag_212:\n        /* \"#utility.yul\":10163:10169   */\n      0x00\n        /* \"#utility.yul\":10210:10212   */\n      0x20\n        /* \"#utility.yul\":10205:10207   */\n      0x1f\n        /* \"#utility.yul\":10198:10203   */\n      dup4\n        /* \"#utility.yul\":10194:10208   */\n      add\n        /* \"#utility.yul\":10190:10213   */\n      div\n        /* \"#utility.yul\":10180:10213   */\n      swap1\n      pop\n        /* \"#utility.yul\":10126:10219   */\n      swap2\n      swap1\n      pop\n      jump\t// out\n        /* \"#utility.yul\":10225:10332   */\n    tag_213:\n        /* \"#utility.yul\":10269:10277   */\n      0x00\n        /* \"#utility.yul\":10319:10324   */\n      dup3\n        /* \"#utility.yul\":10313:10317   */\n      dup3\n        /* \"#utility.yul\":10309:10325   */\n      shl\n        /* \"#utility.yul\":10288:10325   */\n      swap1\n      pop\n        /* \"#utility.yul\":10225:10332   */\n      swap3\n      swap2\n      pop\n      pop\n      jump\t// out\n        /* \"#utility.yul\":10338:10731   */\n    tag_214:\n        /* \"#utility.yul\":10407:10413   */\n      0x00\n        /* \"#utility.yul\":10457:10458   */\n      0x08\n        /* \"#utility.yul\":10445:10455   */\n      dup4\n        /* \"#utility.yul\":10441:10459   */\n      mul\n        /* \"#utility.yul\":10480:10577   */\n      tag_350\n        /* \"#utility.yul\":10510:10576   */\n      0xffffffffffffffffffffffffffffffffffffffffffffffffffffffffffffffff\n        /* \"#utility.yul\":10499:10508   */\n      dup3\n        /* \"#utility.yul\":10480:10577   */\n      tag_213\n      jump\t// in\n    tag_350:\n        /* \"#utility.yul\":10598:10637   */\n      tag_351\n        /* \"#utility.yul\":10628:10636   */\n      dup7\n        /* \"#utility.yul\":10617:10626   */\n      dup4\n        /* \"#utility.yul\":10598:10637   */\n      tag_213\n      jump\t// in\n    tag_351:\n        /* \"#utility.yul\":10586:10637   */\n      swap6\n      pop\n        /* \"#utility.yul\":10670:10674   */\n      dup1\n        /* \"#utility.yul\":10666:10675   */\n      not\n        /* \"#utility.yul\":10659:10664   */\n      dup5\n        /* \"#utility.yul\":10655:10676   */\n      and\n        /* \"#utility.yul\":10646:10676   */\n      swap4\n      pop\n        /* \"#utility.yul\":10719:10723   */\n      dup1\n        /* \"#utility.yul\":10709:10717   */\n      dup7\n        /* \"#utility.yul\":10705:10724   */\n      and\n        /* \"#utility.yul\":10698:10703   */\n      dup5\n        /* \"#utility.yul\":10695:10725   */\n      or\n        /* \"#utility.yul\":10685:10725   */\n      swap3\n      pop\n        /* \"#utility.yul\":10414:10731   */\n      pop\n      pop\n        /* \"#utility.yul\":10338:10731   */\n      swap4\n      swap3\n      pop\n      pop\n      pop\n      jump\t// out\n        /* \"#utility.yul\":10737:10797   */\n    tag_215:\n        /* \"#utility.yul\":10765:10768   */\n      0x00\n        /* \"#utility.yul\":10786:10791   */\n      dup2\n        /* \"#utility.yul\":10779:10791   */\n      swap1\n      pop\n        /* \"#utility.yul\":10737:10797   */\n      swap2\n      swap1\n      pop\n      jump\t// out\n        /* \"#utility.yul\":10803:10945   */\n    tag_216:\n        /* \"#utility.yul\":10853:10862   */\n      0x00\n        /* \"#utility.yul\":10886:10939   */\n      tag_354\n        /* \"#utility.yul\":10904:10938   */\n      tag_355\n        /* \"#utility.yul\":10913:10937   */\n      tag_356\n        /* \"#utility.yul\":10931:10936   */\n      dup5\n        /* \"#utility.yul\":10913:10937   */\n      tag_200\n      jump\t// in\n    tag_356:\n        /* \"#utility.yul\":10904:10938   */\n      tag_215\n      jump\t// in\n    tag_355:\n        /* \"#utility.yul\":10886:10939   */\n      tag_200\n      jump\t// in\n    tag_354:\n        /* \"#utility.yul\":10873:10939   */\n      swap1\n      pop\n        /* \"#utility.yul\":10803:10945   */\n      swap2\n      swap1\n      pop\n      jump\t// out\n        /* \"#utility.yul\":10951:11026   */\n    tag_217:\n        /* \"#utility.yul\":10994:10997   */\n      0x00\n        /* \"#utility.yul\":11015:11020   */\n      dup2\n        /* \"#utility.yul\":11008:11020   */\n      swap1\n      pop\n        /* \"#utility.yul\":10951:11026   */\n      swap2\n      swap1\n      pop\n      jump\t// out\n        /* \"#utility.yul\":11032:11301   */\n    tag_218:\n        /* \"#utility.yul\":11142:11181   */\n      tag_359\n        /* \"#utility.yul\":11173:11180   */\n      dup4\n        /* \"#utility.yul\":11142:11181   */\n      tag_216\n      jump\t// in\n    tag_359:\n        /* \"#utility.yul\":11203:11294   */\n      tag_360\n        /* \"#utility.yul\":11252:11293   */\n      tag_361\n        /* \"#utility.yul\":11276:11292   */\n      dup3\n        /* \"#utility.yul\":11252:11293   */\n      tag_217\n      jump\t// in\n    tag_361:\n        /* \"#utility.yul\":11244:11250   */\n      dup5\n        /* \"#utility.yul\":11237:11241   */\n      dup5\n        /* \"#utility.yul\":11231:11242   */\n      sload\n        /* \"#utility.yul\":11203:11294   */\n      tag_214\n      jump\t// in\n    tag_360:\n        /* \"#utility.yul\":11197:11201   */\n      dup3\n        /* \"#utility.yul\":11190:11295   */\n      sstore\n        /* \"#utility.yul\":11108:11301   */\n      pop\n        /* \"#utility.yul\":11032:11301   */\n      pop\n      pop\n      pop\n      jump\t// out\n        /* \"#utility.yul\":11307:11380   */\n    tag_219:\n        /* \"#utility.yul\":11352:11355   */\n      0x00\n        /* \"#utility.yul\":11307:11380   */\n      swap1\n      jump\t// out\n        /* \"#utility.yul\":11386:11575   */\n    tag_220:\n        /* \"#utility.yul\":11463:11495   */\n      tag_364\n      tag_219\n      jump\t// in\n    tag_364:\n        /* \"#utility.yul\":11504:11569   */\n      tag_365\n        /* \"#utility.yul\":11562:11568   */\n      dup2\n        /* \"#utility.yul\":11554:11560   */\n      dup5\n        /* \"#utility.yul\":11548:11552   */\n      dup5\n        /* \"#utility.yul\":11504:11569   */\n      tag_218\n      jump\t// in\n    tag_365:\n        /* \"#utility.yul\":11439:11575   */\n      pop\n        /* \"#utility.yul\":11386:11575   */\n      pop\n      pop\n      jump\t// out\n        /* \"#utility.yul\":11581:11767   */\n    tag_221:\n        /* \"#utility.yul\":11641:11761   */\n    tag_367:\n        /* \"#utility.yul\":11658:11661   */\n      dup2\n        /* \"#utility.yul\":11651:11656   */\n      dup2\n        /* \"#utility.yul\":11648:11662   */\n      lt\n        /* \"#utility.yul\":11641:11761   */\n      iszero\n      tag_369\n      jumpi\n        /* \"#utility.yul\":11712:11751   */\n      tag_370\n        /* \"#utility.yul\":11749:11750   */\n      0x00\n        /* \"#utility.yul\":11742:11747   */\n      dup3\n        /* \"#utility.yul\":11712:11751   */\n      tag_220\n      jump\t// in\n    tag_370:\n        /* \"#utility.yul\":11685:11686   */\n      0x01\n        /* \"#utility.yul\":11678:11683   */\n      dup2\n        /* \"#utility.yul\":11674:11687   */\n      add\n        /* \"#utility.yul\":11665:11687   */\n      swap1\n      pop\n        /* \"#utility.yul\":11641:11761   */\n      jump(tag_367)\n    tag_369:\n        /* \"#utility.yul\":11581:11767   */\n      pop\n      pop\n      jump\t// out\n        /* \"#utility.yul\":11773:12316   */\n    tag_222:\n        /* \"#utility.yul\":11874:11876   */\n      0x1f\n        /* \"#utility.yul\":11869:11872   */\n      dup3\n        /* \"#utility.yul\":11866:11877   */\n      gt\n        /* \"#utility.yul\":11863:12309   */\n      iszero\n      tag_372\n      jumpi\n        /* \"#utility.yul\":11908:11946   */\n      tag_373\n        /* \"#utility.yul\":11940:11945   */\n      dup2\n        /* \"#utility.yul\":11908:11946   */\n      tag_211\n      jump\t// in\n    tag_373:\n        /* \"#utility.yul\":11992:12021   */\n      tag_374\n        /* \"#utility.yul\":12010:12020   */\n      dup5\n        /* \"#utility.yul\":11992:12021   */\n      tag_212\n      jump\t// in\n    tag_374:\n        /* \"#utility.yul\":11982:11990   */\n      dup2\n        /* \"#utility.yul\":11978:12022   */\n      add\n        /* \"#utility.yul\":12175:12177   */\n      0x20\n        /* \"#utility.yul\":12163:12173   */\n      dup6\n        /* \"#utility.yul\":12160:12178   */\n      lt\n        /* \"#utility.yul\":12157:12206   */\n      iszero\n      tag_375\n      jumpi\n        /* \"#utility.yul\":12196:12204   */\n      dup2\n        /* \"#utility.yul\":12181:12204   */\n      swap1\n      pop\n        /* \"#utility.yul\":12157:12206   */\n    tag_375:\n        /* \"#utility.yul\":12219:12299   */\n      tag_376\n        /* \"#utility.yul\":12275:12297   */\n      tag_377\n        /* \"#utility.yul\":12293:12296   */\n      dup6\n        /* \"#utility.yul\":12275:12297   */\n      tag_212\n      jump\t// in\n    tag_377:\n        /* \"#utility.yul\":12265:12273   */\n      dup4\n        /* \"#utility.yul\":12261:12298   */\n      add\n        /* \"#utility.yul\":12248:12259   */\n      dup3\n        /* \"#utility.yul\":12219:12299   */\n      tag_221\n      jump\t// in\n    tag_376:\n        /* \"#utility.yul\":11878:12309   */\n      pop\n      pop\n        /* \"#utility.yul\":11863:12309   */\n    tag_372:\n        /* \"#utility.yul\":11773:12316   */\n      pop\n      pop\n      pop\n      jump\t// out\n        /* \"#utility.yul\":12322:12439   */\n    tag_223:\n        /* \"#utility.yul\":12376:12384   */\n      0x00\n        /* \"#utility.yul\":12426:12431   */\n      dup3\n        /* \"#utility.yul\":12420:12424   */\n      dup3\n        /* \"#utility.yul\":12416:12432   */\n      shr\n        /* \"#utility.yul\":12395:12432   */\n      swap1\n      pop\n        /* \"#utility.yul\":12322:12439   */\n      swap3\n      swap2\n      pop\n      pop\n      jump\t// out\n        /* \"#utility.yul\":12445:12614   */\n    tag_224:\n        /* \"#utility.yul\":12489:12495   */\n      0x00\n        /* \"#utility.yul\":12522:12573   */\n      tag_380\n        /* \"#utility.yul\":12570:12571   */\n      0x00\n        /* \"#utility.yul\":12566:12572   */\n      not\n        /* \"#utility.yul\":12558:12563   */\n      dup5\n        /* \"#utility.yul\":12555:12556   */\n      0x08\n        /* \"#utility.yul\":12551:12564   */\n      mul\n        /* \"#utility.yul\":12522:12573   */\n      tag_223\n      jump\t// in\n    tag_380:\n        /* \"#utility.yul\":12518:12574   */\n      not\n        /* \"#utility.yul\":12603:12607   */\n      dup1\n        /* \"#utility.yul\":12597:12601   */\n      dup4\n        /* \"#utility.yul\":12593:12608   */\n      and\n        /* \"#utility.yul\":12583:12608   */\n      swap2\n      pop\n        /* \"#utility.yul\":12496:12614   */\n      pop\n        /* \"#utility.yul\":12445:12614   */\n      swap3\n      swap2\n      pop\n      pop\n      jump\t// out\n        /* \"#utility.yul\":12619:12914   */\n    tag_225:\n        /* \"#utility.yul\":12695:12699   */\n      0x00\n        /* \"#utility.yul\":12841:12870   */\n      tag_382\n        /* \"#utility.yul\":12866:12869   */\n      dup4\n        /* \"#utility.yul\":12860:12864   */\n      dup4\n        /* \"#utility.yul\":12841:12870   */\n      tag_224\n      jump\t// in\n    tag_382:\n        /* \"#utility.yul\":12833:12870   */\n      swap2\n      pop\n        /* \"#utility.yul\":12903:12906   */\n      dup3\n        /* \"#utility.yul\":12900:12901   */\n      0x02\n        /* \"#utility.yul\":12896:12907   */\n      mul\n        /* \"#utility.yul\":12890:12894   */\n      dup3\n        /* \"#utility.yul\":12887:12908   */\n      or\n        /* \"#utility.yul\":12879:12908   */\n      swap1\n      pop\n        /* \"#utility.yul\":12619:12914   */\n      swap3\n      swap2\n      pop\n      pop\n      jump\t// out\n        /* \"#utility.yul\":12919:14314   */\n    tag_52:\n        /* \"#utility.yul\":13036:13073   */\n      tag_384\n        /* \"#utility.yul\":13069:13072   */\n      dup3\n        /* \"#utility.yul\":13036:13073   */\n      tag_209\n      jump\t// in\n    tag_384:\n        /* \"#utility.yul\":13138:13156   */\n      0xffffffffffffffff\n        /* \"#utility.yul\":13130:13136   */\n      dup2\n        /* \"#utility.yul\":13127:13157   */\n      gt\n        /* \"#utility.yul\":13124:13180   */\n      iszero\n      tag_385\n      jumpi\n        /* \"#utility.yul\":13160:13178   */\n      tag_386\n      tag_193\n      jump\t// in\n    tag_386:\n        /* \"#utility.yul\":13124:13180   */\n    tag_385:\n        /* \"#utility.yul\":13204:13242   */\n      tag_387\n        /* \"#utility.yul\":13236:13240   */\n      dup3\n        /* \"#utility.yul\":13230:13241   */\n      sload\n        /* \"#utility.yul\":13204:13242   */\n      tag_72\n      jump\t// in\n    tag_387:\n        /* \"#utility.yul\":13289:13356   */\n      tag_388\n        /* \"#utility.yul\":13349:13355   */\n      dup3\n        /* \"#utility.yul\":13341:13347   */\n      dup3\n        /* \"#utility.yul\":13335:13339   */\n      dup6\n        /* \"#utility.yul\":13289:13356   */\n      tag_222\n      jump\t// in\n    tag_388:\n        /* \"#utility.yul\":13383:13384   */\n      0x00\n        /* \"#utility.yul\":13407:13411   */\n      0x20\n        /* \"#utility.yul\":13394:13411   */\n      swap1\n      pop\n        /* \"#utility.yul\":13439:13441   */\n      0x1f\n        /* \"#utility.yul\":13431:13437   */\n      dup4\n        /* \"#utility.yul\":13428:13442   */\n      gt\n        /* \"#utility.yul\":13456:13457   */\n      0x01\n        /* \"#utility.yul\":13451:14069   */\n      dup2\n      eq\n      tag_390\n      jumpi\n        /* \"#utility.yul\":14113:14114   */\n      0x00\n        /* \"#utility.yul\":14130:14136   */\n      dup5\n        /* \"#utility.yul\":14127:14204   */\n      iszero\n      tag_391\n      jumpi\n        /* \"#utility.yul\":14179:14188   */\n      dup3\n        /* \"#utility.yul\":14174:14177   */\n      dup8\n        /* \"#utility.yul\":14170:14189   */\n      add\n        /* \"#utility.yul\":14164:14190   */\n      mload\n        /* \"#utility.yul\":14155:14190   */\n      swap1\n      pop\n        /* \"#utility.yul\":14127:14204   */\n    tag_391:\n        /* \"#utility.yul\":14230:14297   */\n      tag_392\n        /* \"#utility.yul\":14290:14296   */\n      dup6\n        /* \"#utility.yul\":14283:14288   */\n      dup3\n        /* \"#utility.yul\":14230:14297   */\n      tag_225\n      jump\t// in\n    tag_392:\n        /* \"#utility.yul\":14224:14228   */\n      dup7\n        /* \"#utility.yul\":14217:14298   */\n      sstore\n        /* \"#utility.yul\":14086:14308   */\n      pop\n        /* \"#utility.yul\":13421:14308   */\n      jump(tag_389)\n        /* \"#utility.yul\":13451:14069   */\n    tag_390:\n        /* \"#utility.yul\":13503:13507   */\n      0x1f\n        /* \"#utility.yul\":13499:13508   */\n      not\n        /* \"#utility.yul\":13491:13497   */\n      dup5\n        /* \"#utility.yul\":13487:13509   */\n      and\n        /* \"#utility.yul\":13537:13574   */\n      tag_393\n        /* \"#utility.yul\":13569:13573   */\n      dup7\n        /* \"#utility.yul\":13537:13574   */\n      tag_211\n      jump\t// in\n    tag_393:\n        /* \"#utility.yul\":13596:13597   */\n      0x00\n        /* \"#utility.yul\":13610:13818   */\n    tag_394:\n        /* \"#utility.yul\":13624:13631   */\n      dup3\n        /* \"#utility.yul\":13621:13622   */\n      dup2\n        /* \"#utility.yul\":13618:13632   */\n      lt\n        /* \"#utility.yul\":13610:13818   */\n      iszero\n      tag_396\n      jumpi\n        /* \"#utility.yul\":13703:13712   */\n      dup5\n        /* \"#utility.yul\":13698:13701   */\n      dup10\n        /* \"#utility.yul\":13694:13713   */\n      add\n        /* \"#utility.yul\":13688:13714   */\n      mload\n        /* \"#utility.yul\":13680:13686   */\n      dup3\n        /* \"#utility.yul\":13673:13715   */\n      sstore\n        /* \"#utility.yul\":13754:13755   */\n      0x01\n        /* \"#utility.yul\":13746:13752   */\n      dup3\n        /* \"#utility.yul\":13742:13756   */\n      add\n        /* \"#utility.yul\":13732:13756   */\n      swap2\n      pop\n        /* \"#utility.yul\":13801:13803   */\n      0x20\n        /* \"#utility.yul\":13790:13799   */\n      dup6\n        /* \"#utility.yul\":13786:13804   */\n      add\n        /* \"#utility.yul\":13773:13804   */\n      swap5\n      pop\n        /* \"#utility.yul\":13647:13651   */\n      0x20\n        /* \"#utility.yul\":13644:13645   */\n      dup2\n        /* \"#utility.yul\":13640:13652   */\n      add\n        /* \"#utility.yul\":13635:13652   */\n      swap1\n      pop\n        /* \"#utility.yul\":13610:13818   */\n      jump(tag_394)\n    tag_396:\n        /* \"#utility.yul\":13846:13852   */\n      dup7\n        /* \"#utility.yul\":13837:13844   */\n      dup4\n        /* \"#utility.yul\":13834:13853   */\n      lt\n        /* \"#utility.yul\":13831:14010   */\n      iszero\n      tag_397\n      jumpi\n        /* \"#utility.yul\":13904:13913   */\n      dup5\n        /* \"#utility.yul\":13899:13902   */\n      dup10\n        /* \"#utility.yul\":13895:13914   */\n      add\n        /* \"#utility.yul\":13889:13915   */\n      mload\n        /* \"#utility.yul\":13947:13995   */\n      tag_398\n        /* \"#utility.yul\":13989:13993   */\n      0x1f\n        /* \"#utility.yul\":13981:13987   */\n      dup10\n        /* \"#utility.yul\":13977:13994   */\n      and\n        /* \"#utility.yul\":13966:13975   */\n      dup3\n        /* \"#utility.yul\":13947:13995   */\n      tag_224\n      jump\t// in\n    tag_398:\n        /* \"#utility.yul\":13939:13945   */\n      dup4\n        /* \"#utility.yul\":13932:13996   */\n      sstore\n        /* \"#utility.yul\":13854:14010   */\n      pop\n        /* \"#utility.yul\":13831:14010   */\n    tag_397:\n        /* \"#utility.yul\":14056:14057   */\n      0x01\n        /* \"#utility.yul\":14052:14053   */\n      0x02\n        /* \"#utility.yul\":14044:14050   */\n      dup9\n        /* \"#utility.yul\":14040:14054   */\n      mul\n        /* \"#utility.yul\":14036:14058   */\n      add\n        /* \"#utility.yul\":14030:14034   */\n      dup9\n        /* \"#utility.yul\":14023:14059   */\n      sstore\n        /* \"#utility.yul\":13458:14069   */\n      pop\n      pop\n      pop\n        /* \"#utility.yul\":13421:14308   */\n    tag_389:\n      pop\n        /* \"#utility.yul\":13011:14314   */\n      pop\n      pop\n      pop\n        /* \"#utility.yul\":12919:14314   */\n      pop\n      pop\n      jump\t// out\n        /* \"#utility.yul\":14320:14489   */\n    tag_226:\n        /* \"#utility.yul\":14404:14415   */\n      0x00\n        /* \"#utility.yul\":14438:14444   */\n      dup3\n        /* \"#utility.yul\":14433:14436   */\n      dup3\n        /* \"#utility.yul\":14426:14445   */\n      mstore\n        /* \"#utility.yul\":14478:14482   */\n      0x20\n        /* \"#utility.yul\":14473:14476   */\n      dup3\n        /* \"#utility.yul\":14469:14483   */\n      add\n        /* \"#utility.yul\":14454:14483   */\n      swap1\n      pop\n        /* \"#utility.yul\":14320:14489   */\n      swap3\n      swap2\n      pop\n      pop\n      jump\t// out\n        /* \"#utility.yul\":14495:14634   */\n    tag_227:\n        /* \"#utility.yul\":14584:14590   */\n      dup3\n        /* \"#utility.yul\":14579:14582   */\n      dup2\n        /* \"#utility.yul\":14574:14577   */\n      dup4\n        /* \"#utility.yul\":14568:14591   */\n      mcopy\n        /* \"#utility.yul\":14625:14626   */\n      0x00\n        /* \"#utility.yul\":14616:14622   */\n      dup4\n        /* \"#utility.yul\":14611:14614   */\n      dup4\n        /* \"#utility.yul\":14607:14623   */\n      add\n        /* \"#utility.yul\":14600:14627   */\n      mstore\n        /* \"#utility.yul\":14495:14634   */\n      pop\n      pop\n      pop\n      jump\t// out\n        /* \"#utility.yul\":14640:15017   */\n    tag_228:\n        /* \"#utility.yul\":14728:14731   */\n      0x00\n        /* \"#utility.yul\":14756:14795   */\n      tag_402\n        /* \"#utility.yul\":14789:14794   */\n      dup3\n        /* \"#utility.yul\":14756:14795   */\n      tag_209\n      jump\t// in\n    tag_402:\n        /* \"#utility.yul\":14811:14882   */\n      tag_403\n        /* \"#utility.yul\":14875:14881   */\n      dup2\n        /* \"#utility.yul\":14870:14873   */\n      dup6\n        /* \"#utility.yul\":14811:14882   */\n      tag_226\n      jump\t// in\n    tag_403:\n        /* \"#utility.yul\":14804:14882   */\n      swap4\n      pop\n        /* \"#utility.yul\":14891:14956   */\n      tag_404\n        /* \"#utility.yul\":14949:14955   */\n      dup2\n        /* \"#utility.yul\":14944:14947   */\n      dup6\n        /* \"#utility.yul\":14937:14941   */\n      0x20\n        /* \"#utility.yul\":14930:14935   */\n      dup7\n        /* \"#utility.yul\":14926:14942   */\n      add\n        /* \"#utility.yul\":14891:14956   */\n      tag_227\n      jump\t// in\n    tag_404:\n        /* \"#utility.yul\":14981:15010   */\n      tag_405\n        /* \"#utility.yul\":15003:15009   */\n      dup2\n        /* \"#utility.yul\":14981:15010   */\n      tag_192\n      jump\t// in\n    tag_405:\n        /* \"#utility.yul\":14976:14979   */\n      dup5\n        /* \"#utility.yul\":14972:15011   */\n      add\n        /* \"#utility.yul\":14965:15011   */\n      swap2\n      pop\n        /* \"#utility.yul\":14732:15017   */\n      pop\n        /* \"#utility.yul\":14640:15017   */\n      swap3\n      swap2\n      pop\n      pop\n      jump\t// out\n        /* \"#utility.yul\":15023:15336   */\n    tag_59:\n        /* \"#utility.yul\":15136:15140   */\n      0x00\n        /* \"#utility.yul\":15174:15176   */\n      0x20\n        /* \"#utility.yul\":15163:15172   */\n      dup3\n        /* \"#utility.yul\":15159:15177   */\n      add\n        /* \"#utility.yul\":15151:15177   */\n      swap1\n      pop\n        /* \"#utility.yul\":15223:15232   */\n      dup2\n        /* \"#utility.yul\":15217:15221   */\n      dup2\n        /* \"#utility.yul\":15213:15233   */\n      sub\n        /* \"#utility.yul\":15209:15210   */\n      0x00\n        /* \"#utility.yul\":15198:15207   */\n      dup4\n        /* \"#utility.yul\":15194:15211   */\n      add\n        /* \"#utility.yul\":15187:15234   */\n      mstore\n        /* \"#utility.yul\":15251:15329   */\n      tag_407\n        /* \"#utility.yul\":15324:15328   */\n      dup2\n        /* \"#utility.yul\":15315:15321   */\n      dup5\n        /* \"#utility.yul\":15251:15329   */\n      tag_228\n      jump\t// in\n    tag_407:\n        /* \"#utility.yul\":15243:15329   */\n      swap1\n      pop\n        /* \"#utility.yul\":15023:15336   */\n      swap3\n      swap2\n      pop\n      pop\n      jump\t// out\n        /* \"#utility.yul\":15342:15514   */\n    tag_229:\n        /* \"#utility.yul\":15482:15506   */\n      0x4e6f742074686520636f6e7472616374206f776e657200000000000000000000\n        /* \"#utility.yul\":15478:15479   */\n      0x00\n        /* \"#utility.yul\":15470:15476   */\n      dup3\n        /* \"#utility.yul\":15466:15480   */\n      add\n        /* \"#utility.yul\":15459:15507   */\n      mstore\n        /* \"#utility.yul\":15342:15514   */\n      pop\n      jump\t// out\n        /* \"#utility.yul\":15520:15886   */\n    tag_230:\n        /* \"#utility.yul\":15662:15665   */\n      0x00\n        /* \"#utility.yul\":15683:15750   */\n      tag_410\n        /* \"#utility.yul\":15747:15749   */\n      0x16\n        /* \"#utility.yul\":15742:15745   */\n      dup4\n        /* \"#utility.yul\":15683:15750   */\n      tag_226\n      jump\t// in\n    tag_410:\n        /* \"#utility.yul\":15676:15750   */\n      swap2\n      pop\n        /* \"#utility.yul\":15759:15852   */\n      tag_411\n        /* \"#utility.yul\":15848:15851   */\n      dup3\n        /* \"#utility.yul\":15759:15852   */\n      tag_229\n      jump\t// in\n    tag_411:\n        /* \"#utility.yul\":15877:15879   */\n      0x20\n        /* \"#utility.yul\":15872:15875   */\n      dup3\n        /* \"#utility.yul\":15868:15880   */\n      add\n        /* \"#utility.yul\":15861:15880   */\n      swap1\n      pop\n        /* \"#utility.yul\":15520:15886   */\n      swap2\n      swap1\n      pop\n      jump\t// out\n        /* \"#utility.yul\":15892:16311   */\n    tag_63:\n        /* \"#utility.yul\":16058:16062   */\n      0x00\n        /* \"#utility.yul\":16096:16098   */\n      0x20\n        /* \"#utility.yul\":16085:16094   */\n      dup3\n        /* \"#utility.yul\":16081:16099   */\n      add\n        /* \"#utility.yul\":16073:16099   */\n      swap1\n      pop\n        /* \"#utility.yul\":16145:16154   */\n      dup2\n        /* \"#utility.yul\":16139:16143   */\n      dup2\n        /* \"#utility.yul\":16135:16155   */\n      sub\n        /* \"#utility.yul\":16131:16132   */\n      0x00\n        /* \"#utility.yul\":16120:16129   */\n      dup4\n        /* \"#utility.yul\":16116:16133   */\n      add\n        /* \"#utility.yul\":16109:16156   */\n      mstore\n        /* \"#utility.yul\":16173:16304   */\n      tag_413\n        /* \"#utility.yul\":16299:16303   */\n      dup2\n        /* \"#utility.yul\":16173:16304   */\n      tag_230\n      jump\t// in\n    tag_413:\n        /* \"#utility.yul\":16165:16304   */\n      swap1\n      pop\n        /* \"#utility.yul\":15892:16311   */\n      swap2\n      swap1\n      pop\n      jump\t// out\n        /* \"#utility.yul\":16317:16481   */\n    tag_231:\n        /* \"#utility.yul\":16457:16473   */\n      0x4e6f7420617574686f72697a6564000000000000000000000000000000000000\n        /* \"#utility.yul\":16453:16454   */\n      0x00\n        /* \"#utility.yul\":16445:16451   */\n      dup3\n        /* \"#utility.yul\":16441:16455   */\n      add\n        /* \"#utility.yul\":16434:16474   */\n      mstore\n        /* \"#utility.yul\":16317:16481   */\n      pop\n      jump\t// out\n        /* \"#utility.yul\":16487:16853   */\n    tag_232:\n        /* \"#utility.yul\":16629:16632   */\n      0x00\n        /* \"#utility.yul\":16650:16717   */\n      tag_416\n        /* \"#utility.yul\":16714:16716   */\n      0x0e\n        /* \"#utility.yul\":16709:16712   */\n      dup4\n        /* \"#utility.yul\":16650:16717   */\n      tag_226\n      jump\t// in\n    tag_416:\n        /* \"#utility.yul\":16643:16717   */\n      swap2\n      pop\n        /* \"#utility.yul\":16726:16819   */\n      tag_417\n        /* \"#utility.yul\":16815:16818   */\n      dup3\n        /* \"#utility.yul\":16726:16819   */\n      tag_231\n      jump\t// in\n    tag_417:\n        /* \"#utility.yul\":16844:16846   */\n      0x20\n        /* \"#utility.yul\":16839:16842   */\n      dup3\n        /* \"#utility.yul\":16835:16847   */\n      add\n        /* \"#utility.yul\":16828:16847   */\n      swap1\n      pop\n        /* \"#utility.yul\":16487:16853   */\n      swap2\n      swap1\n      pop\n      jump\t// out\n        /* \"#utility.yul\":16859:17278   */\n    tag_69:\n        /* \"#utility.yul\":17025:17029   */\n      0x00\n        /* \"#utility.yul\":17063:17065   */\n      0x20\n        /* \"#utility.yul\":17052:17061   */\n      dup3\n        /* \"#utility.yul\":17048:17066   */\n      add\n        /* \"#utility.yul\":17040:17066   */\n      swap1\n      pop\n        /* \"#utility.yul\":17112:17121   */\n      dup2\n        /* \"#utility.yul\":17106:17110   */\n      dup2\n        /* \"#utility.yul\":17102:17122   */\n      sub\n        /* \"#utility.yul\":17098:17099   */\n      0x00\n        /* \"#utility.yul\":17087:17096   */\n      dup4\n        /* \"#utility.yul\":17083:17100   */\n      add\n        /* \"#utility.yul\":17076:17123   */\n      mstore\n        /* \"#utility.yul\":17140:17271   */\n      tag_419\n        /* \"#utility.yul\":17266:17270   */\n      dup2\n        /* \"#utility.yul\":17140:17271   */\n      tag_232\n      jump\t// in\n    tag_419:\n        /* \"#utility.yul\":17132:17271   */\n      swap1\n      pop\n        /* \"#utility.yul\":16859:17278   */\n      swap2\n      swap1\n      pop\n      jump\t// out\n        /* \"#utility.yul\":17284:17455   */\n    tag_233:\n        /* \"#utility.yul\":17424:17447   */\n      0x506572736f6e206e6f7420726567697374657265640000000000000000000000\n        /* \"#utility.yul\":17420:17421   */\n      0x00\n        /* \"#utility.yul\":17412:17418   */\n      dup3\n        /* \"#utility.yul\":17408:17422   */\n      add\n        /* \"#utility.yul\":17401:17448   */\n      mstore\n        /* \"#utility.yul\":17284:17455   */\n      pop\n      jump\t// out\n        /* \"#utility.yul\":17461:17827   */\n    tag_234:\n        /* \"#utility.yul\":17603:17606   */\n      0x00\n        /* \"#utility.yul\":17624:17691   */\n      tag_422\n        /* \"#utility.yul\":17688:17690   */\n      0x15\n        /* \"#utility.yul\":17683:17686   */\n      dup4\n        /* \"#utility.yul\":17624:17691   */\n      tag_226\n      jump\t// in\n    tag_422:\n        /* \"#utility.yul\":17617:17691   */\n      swap2\n      pop\n        /* \"#utility.yul\":17700:17793   */\n      tag_423\n        /* \"#utility.yul\":17789:17792   */\n      dup3\n        /* \"#utility.yul\":17700:17793   */\n      tag_233\n      jump\t// in\n    tag_423:\n        /* \"#utility.yul\":17818:17820   */\n      0x20\n        /* \"#utility.yul\":17813:17816   */\n      dup3\n        /* \"#utility.yul\":17809:17821   */\n      add\n        /* \"#utility.yul\":17802:17821   */\n      swap1\n      pop\n        /* \"#utility.yul\":17461:17827   */\n      swap2\n      swap1\n      pop\n      jump\t// out\n        /* \"#utility.yul\":17833:18252   */\n    tag_75:\n        /* \"#utility.yul\":17999:18003   */\n      0x00\n        /* \"#utility.yul\":18037:18039   */\n      0x20\n        /* \"#utility.yul\":18026:18035   */\n      dup3\n        /* \"#utility.yul\":18022:18040   */\n      add\n        /* \"#utility.yul\":18014:18040   */\n      swap1\n      pop\n        /* \"#utility.yul\":18086:18095   */\n      dup2\n        /* \"#utility.yul\":18080:18084   */\n      dup2\n        /* \"#utility.yul\":18076:18096   */\n      sub\n        /* \"#utility.yul\":18072:18073   */\n      0x00\n        /* \"#utility.yul\":18061:18070   */\n      dup4\n        /* \"#utility.yul\":18057:18074   */\n      add\n        /* \"#utility.yul\":18050:18097   */\n      mstore\n        /* \"#utility.yul\":18114:18245   */\n      tag_425\n        /* \"#utility.yul\":18240:18244   */\n      dup2\n        /* \"#utility.yul\":18114:18245   */\n      tag_234\n      jump\t// in\n    tag_425:\n        /* \"#utility.yul\":18106:18245   */\n      swap1\n      pop\n        /* \"#utility.yul\":17833:18252   */\n      swap2\n      swap1\n      pop\n      jump\t// out\n        /* \"#utility.yul\":18258:18429   */\n    tag_235:\n        /* \"#utility.yul\":18398:18421   */\n      0x456e74697479206e6f7420726567697374657265640000000000000000000000\n        /* \"#utility.yul\":18394:18395   */\n      0x00\n        /* \"#utility.yul\":18386:18392   */\n      dup3\n        /* \"#utility.yul\":18382:18396   */\n      add\n        /* \"#utility.yul\":18375:18422   */\n      mstore\n        /* \"#utility.yul\":18258:18429   */\n      pop\n      jump\t// out\n        /* \"#utility.yul\":18435:18801   */\n    tag_236:\n        /* \"#utility.yul\":18577:18580   */\n      0x00\n        /* \"#utility.yul\":18598:18665   */\n      tag_428\n        /* \"#utility.yul\":18662:18664   */\n      0x15\n        /* \"#utility.yul\":18657:18660   */\n      dup4\n        /* \"#utility.yul\":18598:18665   */\n      tag_226\n      jump\t// in\n    tag_428:\n        /* \"#utility.yul\":18591:18665   */\n      swap2\n      pop\n        /* \"#utility.yul\":18674:18767   */\n      tag_429\n        /* \"#utility.yul\":18763:18766   */\n      dup3\n        /* \"#utility.yul\":18674:18767   */\n      tag_235\n      jump\t// in\n    tag_429:\n        /* \"#utility.yul\":18792:18794   */\n      0x20\n        /* \"#utility.yul\":18787:18790   */\n      dup3\n        /* \"#utility.yul\":18783:18795   */\n      add\n        /* \"#utility.yul\":18776:18795   */\n      swap1\n      pop\n        /* \"#utility.yul\":18435:18801   */\n      swap2\n      swap1\n      pop\n      jump\t// out\n        /* \"#utility.yul\":18807:19226   */\n    tag_94:\n        /* \"#utility.yul\":18973:18977   */\n      0x00\n        /* \"#utility.yul\":19011:19013   */\n      0x20\n        /* \"#utility.yul\":19000:19009   */\n      dup3\n        /* \"#utility.yul\":18996:19014   */\n      add\n        /* \"#utility.yul\":18988:19014   */\n      swap1\n      pop\n        /* \"#utility.yul\":19060:19069   */\n      dup2\n        /* \"#utility.yul\":19054:19058   */\n      dup2\n        /* \"#utility.yul\":19050:19070   */\n      sub\n        /* \"#utility.yul\":19046:19047   */\n      0x00\n        /* \"#utility.yul\":19035:19044   */\n      dup4\n        /* \"#utility.yul\":19031:19048   */\n      add\n        /* \"#utility.yul\":19024:19071   */\n      mstore\n        /* \"#utility.yul\":19088:19219   */\n      tag_431\n        /* \"#utility.yul\":19214:19218   */\n      dup2\n        /* \"#utility.yul\":19088:19219   */\n      tag_236\n      jump\t// in\n    tag_431:\n        /* \"#utility.yul\":19080:19219   */\n      swap1\n      pop\n        /* \"#utility.yul\":18807:19226   */\n      swap2\n      swap1\n      pop\n      jump\t// out\n\n    auxdata: 0xa26469706673582212204e6c017b67bf8d793c66e702ad0a4e479e8aaa89567d749a5507e9308c46ab6364736f6c634300081a0033\n}\n",
				"bytecode": {
					"linkReferences": {},
					"object": "6080604052348015600e575f80fd5b50335f806101000a81548173ffffffffffffffffffffffffffffffffffffffff021916908373ffffffffffffffffffffffffffffffffffffffff1602179055506121cf8061005b5f395ff3fe608060405234801561000f575f80fd5b506004361061009c575f3560e01c80639e8f4aec116100645780639e8f4aec1461012c578063a3bf5b9a14610148578063b39a7c4e14610164578063cfd6c60614610180578063f7bde1da146101b15761009c565b806322bed8d7146100a05780632d8e3278146100bc5780632faeb9fc146100d857806359bf32d5146100f4578063828057ef14610110575b5f80fd5b6100ba60048036038101906100b59190611914565b6101e2565b005b6100d660048036038101906100d19190611ab3565b610360565b005b6100f260048036038101906100ed9190611ab3565b610488565b005b61010e60048036038101906101099190611ade565b610690565b005b61012a60048036038101906101259190611ab3565b610838565b005b61014660048036038101906101419190611ab3565b610a41565b005b610162600480360381019061015d9190611ab3565b610c06565b005b61017e60048036038101906101799190611ab3565b610cea565b005b61019a60048036038101906101959190611ab3565b610eaf565b6040516101a8929190611c89565b60405180910390f35b6101cb60048036038101906101c69190611ab3565b611296565b6040516101d9929190611c89565b60405180910390f35b6040518061010001604052808881526020018781526020018681526020018581526020018481526020018381526020018281526020015f151581525060015f3373ffffffffffffffffffffffffffffffffffffffff1673ffffffffffffffffffffffffffffffffffffffff1681526020019081526020015f205f820151815f01908161026e9190611eb4565b5060208201518160010155604082015181600201908161028e9190611eb4565b5060608201518160030190816102a49190611eb4565b5060808201518160040190816102ba9190611eb4565b5060a08201518160050190816102d09190611eb4565b5060c08201518160060190816102e69190611eb4565b5060e0820151816007015f6101000a81548160ff0219169083151502179055509050503373ffffffffffffffffffffffffffffffffffffffff167f02cb9fdbcf0ed6dd2a532201c5303abb7895ea11e88096a88ba1bdc3aed68eef8860405161034f9190611fd9565b60405180910390a250505050505050565b5f8054906101000a900473ffffffffffffffffffffffffffffffffffffffff1673ffffffffffffffffffffffffffffffffffffffff163373ffffffffffffffffffffffffffffffffffffffff16146103ed576040517f08c379a00000000000000000000000000000000000000000000000000000000081526004016103e490612043565b60405180910390fd5b600160035f8373ffffffffffffffffffffffffffffffffffffffff1673ffffffffffffffffffffffffffffffffffffffff1681526020019081526020015f205f6101000a81548160ff0219169083151502179055508073ffffffffffffffffffffffffffffffffffffffff167fc1f0ea3cc21b72d778e7e9d433c419eabb16edce0afe4468769e055b2e6d49c660405160405180910390a250565b60035f3373ffffffffffffffffffffffffffffffffffffffff1673ffffffffffffffffffffffffffffffffffffffff1681526020019081526020015f205f9054906101000a900460ff168061052757505f8054906101000a900473ffffffffffffffffffffffffffffffffffffffff1673ffffffffffffffffffffffffffffffffffffffff163373ffffffffffffffffffffffffffffffffffffffff16145b610566576040517f08c379a000000000000000000000000000000000000000000000000000000000815260040161055d906120ab565b60405180910390fd5b5f60015f8373ffffffffffffffffffffffffffffffffffffffff1673ffffffffffffffffffffffffffffffffffffffff1681526020019081526020015f205f0180546105b190611ce7565b9050116105f3576040517f08c379a00000000000000000000000000000000000000000000000000000000081526004016105ea90612113565b60405180910390fd5b6001805f8373ffffffffffffffffffffffffffffffffffffffff1673ffffffffffffffffffffffffffffffffffffffff1681526020019081526020015f206007015f6101000a81548160ff0219169083151502179055508073ffffffffffffffffffffffffffffffffffffffff167f82c3345332648e818f3e82cbe863ba2fd31381fcb3e63d8bda4dea2e4daa2ea460405160405180910390a250565b6040518061012001604052808981526020018881526020018781526020018681526020018581526020018481526020018381526020018281526020015f151581525060025f3373ffffffffffffffffffffffffffffffffffffffff1673ffffffffffffffffffffffffffffffffffffffff1681526020019081526020015f205f820151815f0190816107229190611eb4565b5060208201518160010190816107389190611eb4565b50604082015181600201908161074e9190611eb4565b5060608201518160030190816107649190611eb4565b50608082015181600401908161077a9190611eb4565b5060a08201518160050190816107909190611eb4565b5060c08201518160060190816107a69190611eb4565b5060e08201518160070190816107bc9190611eb4565b50610100820151816008015f6101000a81548160ff0219169083151502179055509050503373ffffffffffffffffffffffffffffffffffffffff167f1b7e3d9f922be54960ce9bea1d47b9b6ea18bbafb4e0fdeedc5e2a668e8fdaf8896040516108269190611fd9565b60405180910390a25050505050505050565b60035f3373ffffffffffffffffffffffffffffffffffffffff1673ffffffffffffffffffffffffffffffffffffffff1681526020019081526020015f205f9054906101000a900460ff16806108d757505f8054906101000a900473ffffffffffffffffffffffffffffffffffffffff1673ffffffffffffffffffffffffffffffffffffffff163373ffffffffffffffffffffffffffffffffffffffff16145b610916576040517f08c379a000000000000000000000000000000000000000000000000000000000815260040161090d906120ab565b60405180910390fd5b5f60025f8373ffffffffffffffffffffffffffffffffffffffff1673ffffffffffffffffffffffffffffffffffffffff1681526020019081526020015f205f01805461096190611ce7565b9050116109a3576040517f08c379a000000000000000000000000000000000000000000000000000000000815260040161099a9061217b565b60405180910390fd5b600160025f8373ffffffffffffffffffffffffffffffffffffffff1673ffffffffffffffffffffffffffffffffffffffff1681526020019081526020015f206008015f6101000a81548160ff0219169083151502179055508073ffffffffffffffffffffffffffffffffffffffff167fa3710f2b2505ddd76d00993c1fad93af4104d857fa3e237c9548c028c44935cc60405160405180910390a250565b60035f3373ffffffffffffffffffffffffffffffffffffffff1673ffffffffffffffffffffffffffffffffffffffff1681526020019081526020015f205f9054906101000a900460ff1680610ae057505f8054906101000a900473ffffffffffffffffffffffffffffffffffffffff1673ffffffffffffffffffffffffffffffffffffffff163373ffffffffffffffffffffffffffffffffffffffff16145b610b1f576040517f08c379a0000000000000000000000000000000000000000000000000000000008152600401610b16906120ab565b60405180910390fd5b5f60015f8373ffffffffffffffffffffffffffffffffffffffff1673ffffffffffffffffffffffffffffffffffffffff1681526020019081526020015f205f018054610b6a90611ce7565b905011610bac576040517f08c379a0000000000000000000000000000000000000000000000000000000008152600401610ba390612113565b60405180910390fd5b5f60015f8373ffffffffffffffffffffffffffffffffffffffff1673ffffffffffffffffffffffffffffffffffffffff1681526020019081526020015f206007015f6101000a81548160ff02191690831515021790555050565b5f8054906101000a900473ffffffffffffffffffffffffffffffffffffffff1673ffffffffffffffffffffffffffffffffffffffff163373ffffffffffffffffffffffffffffffffffffffff1614610c93576040517f08c379a0000000000000000000000000000000000000000000000000000000008152600401610c8a90612043565b60405180910390fd5b5f60035f8373ffffffffffffffffffffffffffffffffffffffff1673ffffffffffffffffffffffffffffffffffffffff1681526020019081526020015f205f6101000a81548160ff02191690831515021790555050565b60035f3373ffffffffffffffffffffffffffffffffffffffff1673ffffffffffffffffffffffffffffffffffffffff1681526020019081526020015f205f9054906101000a900460ff1680610d8957505f8054906101000a900473ffffffffffffffffffffffffffffffffffffffff1673ffffffffffffffffffffffffffffffffffffffff163373ffffffffffffffffffffffffffffffffffffffff16145b610dc8576040517f08c379a0000000000000000000000000000000000000000000000000000000008152600401610dbf906120ab565b60405180910390fd5b5f60025f8373ffffffffffffffffffffffffffffffffffffffff1673ffffffffffffffffffffffffffffffffffffffff1681526020019081526020015f205f018054610e1390611ce7565b905011610e55576040517f08c379a0000000000000000000000000000000000000000000000000000000008152600401610e4c9061217b565b60405180910390fd5b5f60025f8373ffffffffffffffffffffffffffffffffffffffff1673ffffffffffffffffffffffffffffffffffffffff1681526020019081526020015f206008015f6101000a81548160ff02191690831515021790555050565b5f805f60015f8573ffffffffffffffffffffffffffffffffffffffff1673ffffffffffffffffffffffffffffffffffffffff1681526020019081526020015f20604051806101000160405290815f82018054610f0a90611ce7565b80601f0160208091040260200160405190810160405280929190818152602001828054610f3690611ce7565b8015610f815780601f10610f5857610100808354040283529160200191610f81565b820191905f5260205f20905b815481529060010190602001808311610f6457829003601f168201915b5050505050815260200160018201548152602001600282018054610fa490611ce7565b80601f0160208091040260200160405190810160405280929190818152602001828054610fd090611ce7565b801561101b5780601f10610ff25761010080835404028352916020019161101b565b820191905f5260205f20905b815481529060010190602001808311610ffe57829003601f168201915b5050505050815260200160038201805461103490611ce7565b80601f016020809104026020016040519081016040528092919081815260200182805461106090611ce7565b80156110ab5780601f10611082576101008083540402835291602001916110ab565b820191905f5260205f20905b81548152906001019060200180831161108e57829003601f168201915b505050505081526020016004820180546110c490611ce7565b80601f01602080910402602001604051908101604052809291908181526020018280546110f090611ce7565b801561113b5780601f106111125761010080835404028352916020019161113b565b820191905f5260205f20905b81548152906001019060200180831161111e57829003601f168201915b5050505050815260200160058201805461115490611ce7565b80601f016020809104026020016040519081016040528092919081815260200182805461118090611ce7565b80156111cb5780601f106111a2576101008083540402835291602001916111cb565b820191905f5260205f20905b8154815290600101906020018083116111ae57829003601f168201915b505050505081526020016006820180546111e490611ce7565b80601f016020809104026020016040519081016040528092919081815260200182805461121090611ce7565b801561125b5780601f106112325761010080835404028352916020019161125b565b820191905f5260205f20905b81548152906001019060200180831161123e57829003601f168201915b50505050508152602001600782015f9054906101000a900460ff16151515158152505090505f815f015151118160e001519250925050915091565b5f805f60025f8573ffffffffffffffffffffffffffffffffffffffff1673ffffffffffffffffffffffffffffffffffffffff1681526020019081526020015f20604051806101200160405290815f820180546112f190611ce7565b80601f016020809104026020016040519081016040528092919081815260200182805461131d90611ce7565b80156113685780601f1061133f57610100808354040283529160200191611368565b820191905f5260205f20905b81548152906001019060200180831161134b57829003601f168201915b5050505050815260200160018201805461138190611ce7565b80601f01602080910402602001604051908101604052809291908181526020018280546113ad90611ce7565b80156113f85780601f106113cf576101008083540402835291602001916113f8565b820191905f5260205f20905b8154815290600101906020018083116113db57829003601f168201915b5050505050815260200160028201805461141190611ce7565b80601f016020809104026020016040519081016040528092919081815260200182805461143d90611ce7565b80156114885780601f1061145f57610100808354040283529160200191611488565b820191905f5260205f20905b81548152906001019060200180831161146b57829003601f168201915b505050505081526020016003820180546114a190611ce7565b80601f01602080910402602001604051908101604052809291908181526020018280546114cd90611ce7565b80156115185780601f106114ef57610100808354040283529160200191611518565b820191905f5260205f20905b8154815290600101906020018083116114fb57829003601f168201915b5050505050815260200160048201805461153190611ce7565b80601f016020809104026020016040519081016040528092919081815260200182805461155d90611ce7565b80156115a85780601f1061157f576101008083540402835291602001916115a8565b820191905f5260205f20905b81548152906001019060200180831161158b57829003601f168201915b505050505081526020016005820180546115c190611ce7565b80601f01602080910402602001604051908101604052809291908181526020018280546115ed90611ce7565b80156116385780601f1061160f57610100808354040283529160200191611638565b820191905f5260205f20905b81548152906001019060200180831161161b57829003601f168201915b5050505050815260200160068201805461165190611ce7565b80601f016020809104026020016040519081016040528092919081815260200182805461167d90611ce7565b80156116c85780601f1061169f576101008083540402835291602001916116c8565b820191905f5260205f20905b8154815290600101906020018083116116ab57829003601f168201915b505050505081526020016007820180546116e190611ce7565b80601f016020809104026020016040519081016040528092919081815260200182805461170d90611ce7565b80156117585780601f1061172f57610100808354040283529160200191611758565b820191905f5260205f20905b81548152906001019060200180831161173b57829003601f168201915b50505050508152602001600882015f9054906101000a900460ff16151515158152505090505f815f015151118161010001519250925050915091565b5f604051905090565b5f80fd5b5f80fd5b5f80fd5b5f80fd5b5f601f19601f8301169050919050565b7f4e487b71000000000000000000000000000000000000000000000000000000005f52604160045260245ffd5b6117f3826117ad565b810181811067ffffffffffffffff82111715611812576118116117bd565b5b80604052505050565b5f611824611794565b905061183082826117ea565b919050565b5f67ffffffffffffffff82111561184f5761184e6117bd565b5b611858826117ad565b9050602081019050919050565b828183375f83830152505050565b5f61188561188084611835565b61181b565b9050828152602081018484840111156118a1576118a06117a9565b5b6118ac848285611865565b509392505050565b5f82601f8301126118c8576118c76117a5565b5b81356118d8848260208601611873565b91505092915050565b5f819050919050565b6118f3816118e1565b81146118fd575f80fd5b50565b5f8135905061190e816118ea565b92915050565b5f805f805f805f60e0888a03121561192f5761192e61179d565b5b5f88013567ffffffffffffffff81111561194c5761194b6117a1565b5b6119588a828b016118b4565b97505060206119698a828b01611900565b965050604088013567ffffffffffffffff81111561198a576119896117a1565b5b6119968a828b016118b4565b955050606088013567ffffffffffffffff8111156119b7576119b66117a1565b5b6119c38a828b016118b4565b945050608088013567ffffffffffffffff8111156119e4576119e36117a1565b5b6119f08a828b016118b4565b93505060a088013567ffffffffffffffff811115611a1157611a106117a1565b5b611a1d8a828b016118b4565b92505060c088013567ffffffffffffffff811115611a3e57611a3d6117a1565b5b611a4a8a828b016118b4565b91505092959891949750929550565b5f73ffffffffffffffffffffffffffffffffffffffff82169050919050565b5f611a8282611a59565b9050919050565b611a9281611a78565b8114611a9c575f80fd5b50565b5f81359050611aad81611a89565b92915050565b5f60208284031215611ac857611ac761179d565b5b5f611ad584828501611a9f565b91505092915050565b5f805f805f805f80610100898b031215611afb57611afa61179d565b5b5f89013567ffffffffffffffff811115611b1857611b176117a1565b5b611b248b828c016118b4565b985050602089013567ffffffffffffffff811115611b4557611b446117a1565b5b611b518b828c016118b4565b975050604089013567ffffffffffffffff811115611b7257611b716117a1565b5b611b7e8b828c016118b4565b965050606089013567ffffffffffffffff811115611b9f57611b9e6117a1565b5b611bab8b828c016118b4565b955050608089013567ffffffffffffffff811115611bcc57611bcb6117a1565b5b611bd88b828c016118b4565b94505060a089013567ffffffffffffffff811115611bf957611bf86117a1565b5b611c058b828c016118b4565b93505060c089013567ffffffffffffffff811115611c2657611c256117a1565b5b611c328b828c016118b4565b92505060e089013567ffffffffffffffff811115611c5357611c526117a1565b5b611c5f8b828c016118b4565b9150509295985092959890939650565b5f8115159050919050565b611c8381611c6f565b82525050565b5f604082019050611c9c5f830185611c7a565b611ca96020830184611c7a565b9392505050565b5f81519050919050565b7f4e487b71000000000000000000000000000000000000000000000000000000005f52602260045260245ffd5b5f6002820490506001821680611cfe57607f821691505b602082108103611d1157611d10611cba565b5b50919050565b5f819050815f5260205f209050919050565b5f6020601f8301049050919050565b5f82821b905092915050565b5f60088302611d737fffffffffffffffffffffffffffffffffffffffffffffffffffffffffffffffff82611d38565b611d7d8683611d38565b95508019841693508086168417925050509392505050565b5f819050919050565b5f611db8611db3611dae846118e1565b611d95565b6118e1565b9050919050565b5f819050919050565b611dd183611d9e565b611de5611ddd82611dbf565b848454611d44565b825550505050565b5f90565b611df9611ded565b611e04818484611dc8565b505050565b5b81811015611e2757611e1c5f82611df1565b600181019050611e0a565b5050565b601f821115611e6c57611e3d81611d17565b611e4684611d29565b81016020851015611e55578190505b611e69611e6185611d29565b830182611e09565b50505b505050565b5f82821c905092915050565b5f611e8c5f1984600802611e71565b1980831691505092915050565b5f611ea48383611e7d565b9150826002028217905092915050565b611ebd82611cb0565b67ffffffffffffffff811115611ed657611ed56117bd565b5b611ee08254611ce7565b611eeb828285611e2b565b5f60209050601f831160018114611f1c575f8415611f0a578287015190505b611f148582611e99565b865550611f7b565b601f198416611f2a86611d17565b5f5b82811015611f5157848901518255600182019150602085019450602081019050611f2c565b86831015611f6e5784890151611f6a601f891682611e7d565b8355505b6001600288020188555050505b505050505050565b5f82825260208201905092915050565b8281835e5f83830152505050565b5f611fab82611cb0565b611fb58185611f83565b9350611fc5818560208601611f93565b611fce816117ad565b840191505092915050565b5f6020820190508181035f830152611ff18184611fa1565b905092915050565b7f4e6f742074686520636f6e7472616374206f776e6572000000000000000000005f82015250565b5f61202d601683611f83565b915061203882611ff9565b602082019050919050565b5f6020820190508181035f83015261205a81612021565b9050919050565b7f4e6f7420617574686f72697a65640000000000000000000000000000000000005f82015250565b5f612095600e83611f83565b91506120a082612061565b602082019050919050565b5f6020820190508181035f8301526120c281612089565b9050919050565b7f506572736f6e206e6f74207265676973746572656400000000000000000000005f82015250565b5f6120fd601583611f83565b9150612108826120c9565b602082019050919050565b5f6020820190508181035f83015261212a816120f1565b9050919050565b7f456e74697479206e6f74207265676973746572656400000000000000000000005f82015250565b5f612165601583611f83565b915061217082612131565b602082019050919050565b5f6020820190508181035f83015261219281612159565b905091905056fea26469706673582212204e6c017b67bf8d793c66e702ad0a4e479e8aaa89567d749a5507e9308c46ab6364736f6c634300081a0033",
					"opcodes": "PUSH1 0x80 PUSH1 0x40 MSTORE CALLVALUE DUP1 ISZERO PUSH1 0xE JUMPI PUSH0 DUP1 REVERT JUMPDEST POP CALLER PUSH0 DUP1 PUSH2 0x100 EXP DUP2 SLOAD DUP2 PUSH20 0xFFFFFFFFFFFFFFFFFFFFFFFFFFFFFFFFFFFFFFFF MUL NOT AND SWAP1 DUP4 PUSH20 0xFFFFFFFFFFFFFFFFFFFFFFFFFFFFFFFFFFFFFFFF AND MUL OR SWAP1 SSTORE POP PUSH2 0x21CF DUP1 PUSH2 0x5B PUSH0 CODECOPY PUSH0 RETURN INVALID PUSH1 0x80 PUSH1 0x40 MSTORE CALLVALUE DUP1 ISZERO PUSH2 0xF JUMPI PUSH0 DUP1 REVERT JUMPDEST POP PUSH1 0x4 CALLDATASIZE LT PUSH2 0x9C JUMPI PUSH0 CALLDATALOAD PUSH1 0xE0 SHR DUP1 PUSH4 0x9E8F4AEC GT PUSH2 0x64 JUMPI DUP1 PUSH4 0x9E8F4AEC EQ PUSH2 0x12C JUMPI DUP1 PUSH4 0xA3BF5B9A EQ PUSH2 0x148 JUMPI DUP1 PUSH4 0xB39A7C4E EQ PUSH2 0x164 JUMPI DUP1 PUSH4 0xCFD6C606 EQ PUSH2 0x180 JUMPI DUP1 PUSH4 0xF7BDE1DA EQ PUSH2 0x1B1 JUMPI PUSH2 0x9C JUMP JUMPDEST DUP1 PUSH4 0x22BED8D7 EQ PUSH2 0xA0 JUMPI DUP1 PUSH4 0x2D8E3278 EQ PUSH2 0xBC JUMPI DUP1 PUSH4 0x2FAEB9FC EQ PUSH2 0xD8 JUMPI DUP1 PUSH4 0x59BF32D5 EQ PUSH2 0xF4 JUMPI DUP1 PUSH4 0x828057EF EQ PUSH2 0x110 JUMPI JUMPDEST PUSH0 DUP1 REVERT JUMPDEST PUSH2 0xBA PUSH1 0x4 DUP1 CALLDATASIZE SUB DUP2 ADD SWAP1 PUSH2 0xB5 SWAP2 SWAP1 PUSH2 0x1914 JUMP JUMPDEST PUSH2 0x1E2 JUMP JUMPDEST STOP JUMPDEST PUSH2 0xD6 PUSH1 0x4 DUP1 CALLDATASIZE SUB DUP2 ADD SWAP1 PUSH2 0xD1 SWAP2 SWAP1 PUSH2 0x1AB3 JUMP JUMPDEST PUSH2 0x360 JUMP JUMPDEST STOP JUMPDEST PUSH2 0xF2 PUSH1 0x4 DUP1 CALLDATASIZE SUB DUP2 ADD SWAP1 PUSH2 0xED SWAP2 SWAP1 PUSH2 0x1AB3 JUMP JUMPDEST PUSH2 0x488 JUMP JUMPDEST STOP JUMPDEST PUSH2 0x10E PUSH1 0x4 DUP1 CALLDATASIZE SUB DUP2 ADD SWAP1 PUSH2 0x109 SWAP2 SWAP1 PUSH2 0x1ADE JUMP JUMPDEST PUSH2 0x690 JUMP JUMPDEST STOP JUMPDEST PUSH2 0x12A PUSH1 0x4 DUP1 CALLDATASIZE SUB DUP2 ADD SWAP1 PUSH2 0x125 SWAP2 SWAP1 PUSH2 0x1AB3 JUMP JUMPDEST PUSH2 0x838 JUMP JUMPDEST STOP JUMPDEST PUSH2 0x146 PUSH1 0x4 DUP1 CALLDATASIZE SUB DUP2 ADD SWAP1 PUSH2 0x141 SWAP2 SWAP1 PUSH2 0x1AB3 JUMP JUMPDEST PUSH2 0xA41 JUMP JUMPDEST STOP JUMPDEST PUSH2 0x162 PUSH1 0x4 DUP1 CALLDATASIZE SUB DUP2 ADD SWAP1 PUSH2 0x15D SWAP2 SWAP1 PUSH2 0x1AB3 JUMP JUMPDEST PUSH2 0xC06 JUMP JUMPDEST STOP JUMPDEST PUSH2 0x17E PUSH1 0x4 DUP1 CALLDATASIZE SUB DUP2 ADD SWAP1 PUSH2 0x179 SWAP2 SWAP1 PUSH2 0x1AB3 JUMP JUMPDEST PUSH2 0xCEA JUMP JUMPDEST STOP JUMPDEST PUSH2 0x19A PUSH1 0x4 DUP1 CALLDATASIZE SUB DUP2 ADD SWAP1 PUSH2 0x195 SWAP2 SWAP1 PUSH2 0x1AB3 JUMP JUMPDEST PUSH2 0xEAF JUMP JUMPDEST PUSH1 0x40 MLOAD PUSH2 0x1A8 SWAP3 SWAP2 SWAP1 PUSH2 0x1C89 JUMP JUMPDEST PUSH1 0x40 MLOAD DUP1 SWAP2 SUB SWAP1 RETURN JUMPDEST PUSH2 0x1CB PUSH1 0x4 DUP1 CALLDATASIZE SUB DUP2 ADD SWAP1 PUSH2 0x1C6 SWAP2 SWAP1 PUSH2 0x1AB3 JUMP JUMPDEST PUSH2 0x1296 JUMP JUMPDEST PUSH1 0x40 MLOAD PUSH2 0x1D9 SWAP3 SWAP2 SWAP1 PUSH2 0x1C89 JUMP JUMPDEST PUSH1 0x40 MLOAD DUP1 SWAP2 SUB SWAP1 RETURN JUMPDEST PUSH1 0x40 MLOAD DUP1 PUSH2 0x100 ADD PUSH1 0x40 MSTORE DUP1 DUP9 DUP2 MSTORE PUSH1 0x20 ADD DUP8 DUP2 MSTORE PUSH1 0x20 ADD DUP7 DUP2 MSTORE PUSH1 0x20 ADD DUP6 DUP2 MSTORE PUSH1 0x20 ADD DUP5 DUP2 MSTORE PUSH1 0x20 ADD DUP4 DUP2 MSTORE PUSH1 0x20 ADD DUP3 DUP2 MSTORE PUSH1 0x20 ADD PUSH0 ISZERO ISZERO DUP2 MSTORE POP PUSH1 0x1 PUSH0 CALLER PUSH20 0xFFFFFFFFFFFFFFFFFFFFFFFFFFFFFFFFFFFFFFFF AND PUSH20 0xFFFFFFFFFFFFFFFFFFFFFFFFFFFFFFFFFFFFFFFF AND DUP2 MSTORE PUSH1 0x20 ADD SWAP1 DUP2 MSTORE PUSH1 0x20 ADD PUSH0 KECCAK256 PUSH0 DUP3 ADD MLOAD DUP2 PUSH0 ADD SWAP1 DUP2 PUSH2 0x26E SWAP2 SWAP1 PUSH2 0x1EB4 JUMP JUMPDEST POP PUSH1 0x20 DUP3 ADD MLOAD DUP2 PUSH1 0x1 ADD SSTORE PUSH1 0x40 DUP3 ADD MLOAD DUP2 PUSH1 0x2 ADD SWAP1 DUP2 PUSH2 0x28E SWAP2 SWAP1 PUSH2 0x1EB4 JUMP JUMPDEST POP PUSH1 0x60 DUP3 ADD MLOAD DUP2 PUSH1 0x3 ADD SWAP1 DUP2 PUSH2 0x2A4 SWAP2 SWAP1 PUSH2 0x1EB4 JUMP JUMPDEST POP PUSH1 0x80 DUP3 ADD MLOAD DUP2 PUSH1 0x4 ADD SWAP1 DUP2 PUSH2 0x2BA SWAP2 SWAP1 PUSH2 0x1EB4 JUMP JUMPDEST POP PUSH1 0xA0 DUP3 ADD MLOAD DUP2 PUSH1 0x5 ADD SWAP1 DUP2 PUSH2 0x2D0 SWAP2 SWAP1 PUSH2 0x1EB4 JUMP JUMPDEST POP PUSH1 0xC0 DUP3 ADD MLOAD DUP2 PUSH1 0x6 ADD SWAP1 DUP2 PUSH2 0x2E6 SWAP2 SWAP1 PUSH2 0x1EB4 JUMP JUMPDEST POP PUSH1 0xE0 DUP3 ADD MLOAD DUP2 PUSH1 0x7 ADD PUSH0 PUSH2 0x100 EXP DUP2 SLOAD DUP2 PUSH1 0xFF MUL NOT AND SWAP1 DUP4 ISZERO ISZERO MUL OR SWAP1 SSTORE POP SWAP1 POP POP CALLER PUSH20 0xFFFFFFFFFFFFFFFFFFFFFFFFFFFFFFFFFFFFFFFF AND PUSH32 0x2CB9FDBCF0ED6DD2A532201C5303ABB7895EA11E88096A88BA1BDC3AED68EEF DUP9 PUSH1 0x40 MLOAD PUSH2 0x34F SWAP2 SWAP1 PUSH2 0x1FD9 JUMP JUMPDEST PUSH1 0x40 MLOAD DUP1 SWAP2 SUB SWAP1 LOG2 POP POP POP POP POP POP POP JUMP JUMPDEST PUSH0 DUP1 SLOAD SWAP1 PUSH2 0x100 EXP SWAP1 DIV PUSH20 0xFFFFFFFFFFFFFFFFFFFFFFFFFFFFFFFFFFFFFFFF AND PUSH20 0xFFFFFFFFFFFFFFFFFFFFFFFFFFFFFFFFFFFFFFFF AND CALLER PUSH20 0xFFFFFFFFFFFFFFFFFFFFFFFFFFFFFFFFFFFFFFFF AND EQ PUSH2 0x3ED JUMPI PUSH1 0x40 MLOAD PUSH32 0x8C379A000000000000000000000000000000000000000000000000000000000 DUP2 MSTORE PUSH1 0x4 ADD PUSH2 0x3E4 SWAP1 PUSH2 0x2043 JUMP JUMPDEST PUSH1 0x40 MLOAD DUP1 SWAP2 SUB SWAP1 REVERT JUMPDEST PUSH1 0x1 PUSH1 0x3 PUSH0 DUP4 PUSH20 0xFFFFFFFFFFFFFFFFFFFFFFFFFFFFFFFFFFFFFFFF AND PUSH20 0xFFFFFFFFFFFFFFFFFFFFFFFFFFFFFFFFFFFFFFFF AND DUP2 MSTORE PUSH1 0x20 ADD SWAP1 DUP2 MSTORE PUSH1 0x20 ADD PUSH0 KECCAK256 PUSH0 PUSH2 0x100 EXP DUP2 SLOAD DUP2 PUSH1 0xFF MUL NOT AND SWAP1 DUP4 ISZERO ISZERO MUL OR SWAP1 SSTORE POP DUP1 PUSH20 0xFFFFFFFFFFFFFFFFFFFFFFFFFFFFFFFFFFFFFFFF AND PUSH32 0xC1F0EA3CC21B72D778E7E9D433C419EABB16EDCE0AFE4468769E055B2E6D49C6 PUSH1 0x40 MLOAD PUSH1 0x40 MLOAD DUP1 SWAP2 SUB SWAP1 LOG2 POP JUMP JUMPDEST PUSH1 0x3 PUSH0 CALLER PUSH20 0xFFFFFFFFFFFFFFFFFFFFFFFFFFFFFFFFFFFFFFFF AND PUSH20 0xFFFFFFFFFFFFFFFFFFFFFFFFFFFFFFFFFFFFFFFF AND DUP2 MSTORE PUSH1 0x20 ADD SWAP1 DUP2 MSTORE PUSH1 0x20 ADD PUSH0 KECCAK256 PUSH0 SWAP1 SLOAD SWAP1 PUSH2 0x100 EXP SWAP1 DIV PUSH1 0xFF AND DUP1 PUSH2 0x527 JUMPI POP PUSH0 DUP1 SLOAD SWAP1 PUSH2 0x100 EXP SWAP1 DIV PUSH20 0xFFFFFFFFFFFFFFFFFFFFFFFFFFFFFFFFFFFFFFFF AND PUSH20 0xFFFFFFFFFFFFFFFFFFFFFFFFFFFFFFFFFFFFFFFF AND CALLER PUSH20 0xFFFFFFFFFFFFFFFFFFFFFFFFFFFFFFFFFFFFFFFF AND EQ JUMPDEST PUSH2 0x566 JUMPI PUSH1 0x40 MLOAD PUSH32 0x8C379A000000000000000000000000000000000000000000000000000000000 DUP2 MSTORE PUSH1 0x4 ADD PUSH2 0x55D SWAP1 PUSH2 0x20AB JUMP JUMPDEST PUSH1 0x40 MLOAD DUP1 SWAP2 SUB SWAP1 REVERT JUMPDEST PUSH0 PUSH1 0x1 PUSH0 DUP4 PUSH20 0xFFFFFFFFFFFFFFFFFFFFFFFFFFFFFFFFFFFFFFFF AND PUSH20 0xFFFFFFFFFFFFFFFFFFFFFFFFFFFFFFFFFFFFFFFF AND DUP2 MSTORE PUSH1 0x20 ADD SWAP1 DUP2 MSTORE PUSH1 0x20 ADD PUSH0 KECCAK256 PUSH0 ADD DUP1 SLOAD PUSH2 0x5B1 SWAP1 PUSH2 0x1CE7 JUMP JUMPDEST SWAP1 POP GT PUSH2 0x5F3 JUMPI PUSH1 0x40 MLOAD PUSH32 0x8C379A000000000000000000000000000000000000000000000000000000000 DUP2 MSTORE PUSH1 0x4 ADD PUSH2 0x5EA SWAP1 PUSH2 0x2113 JUMP JUMPDEST PUSH1 0x40 MLOAD DUP1 SWAP2 SUB SWAP1 REVERT JUMPDEST PUSH1 0x1 DUP1 PUSH0 DUP4 PUSH20 0xFFFFFFFFFFFFFFFFFFFFFFFFFFFFFFFFFFFFFFFF AND PUSH20 0xFFFFFFFFFFFFFFFFFFFFFFFFFFFFFFFFFFFFFFFF AND DUP2 MSTORE PUSH1 0x20 ADD SWAP1 DUP2 MSTORE PUSH1 0x20 ADD PUSH0 KECCAK256 PUSH1 0x7 ADD PUSH0 PUSH2 0x100 EXP DUP2 SLOAD DUP2 PUSH1 0xFF MUL NOT AND SWAP1 DUP4 ISZERO ISZERO MUL OR SWAP1 SSTORE POP DUP1 PUSH20 0xFFFFFFFFFFFFFFFFFFFFFFFFFFFFFFFFFFFFFFFF AND PUSH32 0x82C3345332648E818F3E82CBE863BA2FD31381FCB3E63D8BDA4DEA2E4DAA2EA4 PUSH1 0x40 MLOAD PUSH1 0x40 MLOAD DUP1 SWAP2 SUB SWAP1 LOG2 POP JUMP JUMPDEST PUSH1 0x40 MLOAD DUP1 PUSH2 0x120 ADD PUSH1 0x40 MSTORE DUP1 DUP10 DUP2 MSTORE PUSH1 0x20 ADD DUP9 DUP2 MSTORE PUSH1 0x20 ADD DUP8 DUP2 MSTORE PUSH1 0x20 ADD DUP7 DUP2 MSTORE PUSH1 0x20 ADD DUP6 DUP2 MSTORE PUSH1 0x20 ADD DUP5 DUP2 MSTORE PUSH1 0x20 ADD DUP4 DUP2 MSTORE PUSH1 0x20 ADD DUP3 DUP2 MSTORE PUSH1 0x20 ADD PUSH0 ISZERO ISZERO DUP2 MSTORE POP PUSH1 0x2 PUSH0 CALLER PUSH20 0xFFFFFFFFFFFFFFFFFFFFFFFFFFFFFFFFFFFFFFFF AND PUSH20 0xFFFFFFFFFFFFFFFFFFFFFFFFFFFFFFFFFFFFFFFF AND DUP2 MSTORE PUSH1 0x20 ADD SWAP1 DUP2 MSTORE PUSH1 0x20 ADD PUSH0 KECCAK256 PUSH0 DUP3 ADD MLOAD DUP2 PUSH0 ADD SWAP1 DUP2 PUSH2 0x722 SWAP2 SWAP1 PUSH2 0x1EB4 JUMP JUMPDEST POP PUSH1 0x20 DUP3 ADD MLOAD DUP2 PUSH1 0x1 ADD SWAP1 DUP2 PUSH2 0x738 SWAP2 SWAP1 PUSH2 0x1EB4 JUMP JUMPDEST POP PUSH1 0x40 DUP3 ADD MLOAD DUP2 PUSH1 0x2 ADD SWAP1 DUP2 PUSH2 0x74E SWAP2 SWAP1 PUSH2 0x1EB4 JUMP JUMPDEST POP PUSH1 0x60 DUP3 ADD MLOAD DUP2 PUSH1 0x3 ADD SWAP1 DUP2 PUSH2 0x764 SWAP2 SWAP1 PUSH2 0x1EB4 JUMP JUMPDEST POP PUSH1 0x80 DUP3 ADD MLOAD DUP2 PUSH1 0x4 ADD SWAP1 DUP2 PUSH2 0x77A SWAP2 SWAP1 PUSH2 0x1EB4 JUMP JUMPDEST POP PUSH1 0xA0 DUP3 ADD MLOAD DUP2 PUSH1 0x5 ADD SWAP1 DUP2 PUSH2 0x790 SWAP2 SWAP1 PUSH2 0x1EB4 JUMP JUMPDEST POP PUSH1 0xC0 DUP3 ADD MLOAD DUP2 PUSH1 0x6 ADD SWAP1 DUP2 PUSH2 0x7A6 SWAP2 SWAP1 PUSH2 0x1EB4 JUMP JUMPDEST POP PUSH1 0xE0 DUP3 ADD MLOAD DUP2 PUSH1 0x7 ADD SWAP1 DUP2 PUSH2 0x7BC SWAP2 SWAP1 PUSH2 0x1EB4 JUMP JUMPDEST POP PUSH2 0x100 DUP3 ADD MLOAD DUP2 PUSH1 0x8 ADD PUSH0 PUSH2 0x100 EXP DUP2 SLOAD DUP2 PUSH1 0xFF MUL NOT AND SWAP1 DUP4 ISZERO ISZERO MUL OR SWAP1 SSTORE POP SWAP1 POP POP CALLER PUSH20 0xFFFFFFFFFFFFFFFFFFFFFFFFFFFFFFFFFFFFFFFF AND PUSH32 0x1B7E3D9F922BE54960CE9BEA1D47B9B6EA18BBAFB4E0FDEEDC5E2A668E8FDAF8 DUP10 PUSH1 0x40 MLOAD PUSH2 0x826 SWAP2 SWAP1 PUSH2 0x1FD9 JUMP JUMPDEST PUSH1 0x40 MLOAD DUP1 SWAP2 SUB SWAP1 LOG2 POP POP POP POP POP POP POP POP JUMP JUMPDEST PUSH1 0x3 PUSH0 CALLER PUSH20 0xFFFFFFFFFFFFFFFFFFFFFFFFFFFFFFFFFFFFFFFF AND PUSH20 0xFFFFFFFFFFFFFFFFFFFFFFFFFFFFFFFFFFFFFFFF AND DUP2 MSTORE PUSH1 0x20 ADD SWAP1 DUP2 MSTORE PUSH1 0x20 ADD PUSH0 KECCAK256 PUSH0 SWAP1 SLOAD SWAP1 PUSH2 0x100 EXP SWAP1 DIV PUSH1 0xFF AND DUP1 PUSH2 0x8D7 JUMPI POP PUSH0 DUP1 SLOAD SWAP1 PUSH2 0x100 EXP SWAP1 DIV PUSH20 0xFFFFFFFFFFFFFFFFFFFFFFFFFFFFFFFFFFFFFFFF AND PUSH20 0xFFFFFFFFFFFFFFFFFFFFFFFFFFFFFFFFFFFFFFFF AND CALLER PUSH20 0xFFFFFFFFFFFFFFFFFFFFFFFFFFFFFFFFFFFFFFFF AND EQ JUMPDEST PUSH2 0x916 JUMPI PUSH1 0x40 MLOAD PUSH32 0x8C379A000000000000000000000000000000000000000000000000000000000 DUP2 MSTORE PUSH1 0x4 ADD PUSH2 0x90D SWAP1 PUSH2 0x20AB JUMP JUMPDEST PUSH1 0x40 MLOAD DUP1 SWAP2 SUB SWAP1 REVERT JUMPDEST PUSH0 PUSH1 0x2 PUSH0 DUP4 PUSH20 0xFFFFFFFFFFFFFFFFFFFFFFFFFFFFFFFFFFFFFFFF AND PUSH20 0xFFFFFFFFFFFFFFFFFFFFFFFFFFFFFFFFFFFFFFFF AND DUP2 MSTORE PUSH1 0x20 ADD SWAP1 DUP2 MSTORE PUSH1 0x20 ADD PUSH0 KECCAK256 PUSH0 ADD DUP1 SLOAD PUSH2 0x961 SWAP1 PUSH2 0x1CE7 JUMP JUMPDEST SWAP1 POP GT PUSH2 0x9A3 JUMPI PUSH1 0x40 MLOAD PUSH32 0x8C379A000000000000000000000000000000000000000000000000000000000 DUP2 MSTORE PUSH1 0x4 ADD PUSH2 0x99A SWAP1 PUSH2 0x217B JUMP JUMPDEST PUSH1 0x40 MLOAD DUP1 SWAP2 SUB SWAP1 REVERT JUMPDEST PUSH1 0x1 PUSH1 0x2 PUSH0 DUP4 PUSH20 0xFFFFFFFFFFFFFFFFFFFFFFFFFFFFFFFFFFFFFFFF AND PUSH20 0xFFFFFFFFFFFFFFFFFFFFFFFFFFFFFFFFFFFFFFFF AND DUP2 MSTORE PUSH1 0x20 ADD SWAP1 DUP2 MSTORE PUSH1 0x20 ADD PUSH0 KECCAK256 PUSH1 0x8 ADD PUSH0 PUSH2 0x100 EXP DUP2 SLOAD DUP2 PUSH1 0xFF MUL NOT AND SWAP1 DUP4 ISZERO ISZERO MUL OR SWAP1 SSTORE POP DUP1 PUSH20 0xFFFFFFFFFFFFFFFFFFFFFFFFFFFFFFFFFFFFFFFF AND PUSH32 0xA3710F2B2505DDD76D00993C1FAD93AF4104D857FA3E237C9548C028C44935CC PUSH1 0x40 MLOAD PUSH1 0x40 MLOAD DUP1 SWAP2 SUB SWAP1 LOG2 POP JUMP JUMPDEST PUSH1 0x3 PUSH0 CALLER PUSH20 0xFFFFFFFFFFFFFFFFFFFFFFFFFFFFFFFFFFFFFFFF AND PUSH20 0xFFFFFFFFFFFFFFFFFFFFFFFFFFFFFFFFFFFFFFFF AND DUP2 MSTORE PUSH1 0x20 ADD SWAP1 DUP2 MSTORE PUSH1 0x20 ADD PUSH0 KECCAK256 PUSH0 SWAP1 SLOAD SWAP1 PUSH2 0x100 EXP SWAP1 DIV PUSH1 0xFF AND DUP1 PUSH2 0xAE0 JUMPI POP PUSH0 DUP1 SLOAD SWAP1 PUSH2 0x100 EXP SWAP1 DIV PUSH20 0xFFFFFFFFFFFFFFFFFFFFFFFFFFFFFFFFFFFFFFFF AND PUSH20 0xFFFFFFFFFFFFFFFFFFFFFFFFFFFFFFFFFFFFFFFF AND CALLER PUSH20 0xFFFFFFFFFFFFFFFFFFFFFFFFFFFFFFFFFFFFFFFF AND EQ JUMPDEST PUSH2 0xB1F JUMPI PUSH1 0x40 MLOAD PUSH32 0x8C379A000000000000000000000000000000000000000000000000000000000 DUP2 MSTORE PUSH1 0x4 ADD PUSH2 0xB16 SWAP1 PUSH2 0x20AB JUMP JUMPDEST PUSH1 0x40 MLOAD DUP1 SWAP2 SUB SWAP1 REVERT JUMPDEST PUSH0 PUSH1 0x1 PUSH0 DUP4 PUSH20 0xFFFFFFFFFFFFFFFFFFFFFFFFFFFFFFFFFFFFFFFF AND PUSH20 0xFFFFFFFFFFFFFFFFFFFFFFFFFFFFFFFFFFFFFFFF AND DUP2 MSTORE PUSH1 0x20 ADD SWAP1 DUP2 MSTORE PUSH1 0x20 ADD PUSH0 KECCAK256 PUSH0 ADD DUP1 SLOAD PUSH2 0xB6A SWAP1 PUSH2 0x1CE7 JUMP JUMPDEST SWAP1 POP GT PUSH2 0xBAC JUMPI PUSH1 0x40 MLOAD PUSH32 0x8C379A000000000000000000000000000000000000000000000000000000000 DUP2 MSTORE PUSH1 0x4 ADD PUSH2 0xBA3 SWAP1 PUSH2 0x2113 JUMP JUMPDEST PUSH1 0x40 MLOAD DUP1 SWAP2 SUB SWAP1 REVERT JUMPDEST PUSH0 PUSH1 0x1 PUSH0 DUP4 PUSH20 0xFFFFFFFFFFFFFFFFFFFFFFFFFFFFFFFFFFFFFFFF AND PUSH20 0xFFFFFFFFFFFFFFFFFFFFFFFFFFFFFFFFFFFFFFFF AND DUP2 MSTORE PUSH1 0x20 ADD SWAP1 DUP2 MSTORE PUSH1 0x20 ADD PUSH0 KECCAK256 PUSH1 0x7 ADD PUSH0 PUSH2 0x100 EXP DUP2 SLOAD DUP2 PUSH1 0xFF MUL NOT AND SWAP1 DUP4 ISZERO ISZERO MUL OR SWAP1 SSTORE POP POP JUMP JUMPDEST PUSH0 DUP1 SLOAD SWAP1 PUSH2 0x100 EXP SWAP1 DIV PUSH20 0xFFFFFFFFFFFFFFFFFFFFFFFFFFFFFFFFFFFFFFFF AND PUSH20 0xFFFFFFFFFFFFFFFFFFFFFFFFFFFFFFFFFFFFFFFF AND CALLER PUSH20 0xFFFFFFFFFFFFFFFFFFFFFFFFFFFFFFFFFFFFFFFF AND EQ PUSH2 0xC93 JUMPI PUSH1 0x40 MLOAD PUSH32 0x8C379A000000000000000000000000000000000000000000000000000000000 DUP2 MSTORE PUSH1 0x4 ADD PUSH2 0xC8A SWAP1 PUSH2 0x2043 JUMP JUMPDEST PUSH1 0x40 MLOAD DUP1 SWAP2 SUB SWAP1 REVERT JUMPDEST PUSH0 PUSH1 0x3 PUSH0 DUP4 PUSH20 0xFFFFFFFFFFFFFFFFFFFFFFFFFFFFFFFFFFFFFFFF AND PUSH20 0xFFFFFFFFFFFFFFFFFFFFFFFFFFFFFFFFFFFFFFFF AND DUP2 MSTORE PUSH1 0x20 ADD SWAP1 DUP2 MSTORE PUSH1 0x20 ADD PUSH0 KECCAK256 PUSH0 PUSH2 0x100 EXP DUP2 SLOAD DUP2 PUSH1 0xFF MUL NOT AND SWAP1 DUP4 ISZERO ISZERO MUL OR SWAP1 SSTORE POP POP JUMP JUMPDEST PUSH1 0x3 PUSH0 CALLER PUSH20 0xFFFFFFFFFFFFFFFFFFFFFFFFFFFFFFFFFFFFFFFF AND PUSH20 0xFFFFFFFFFFFFFFFFFFFFFFFFFFFFFFFFFFFFFFFF AND DUP2 MSTORE PUSH1 0x20 ADD SWAP1 DUP2 MSTORE PUSH1 0x20 ADD PUSH0 KECCAK256 PUSH0 SWAP1 SLOAD SWAP1 PUSH2 0x100 EXP SWAP1 DIV PUSH1 0xFF AND DUP1 PUSH2 0xD89 JUMPI POP PUSH0 DUP1 SLOAD SWAP1 PUSH2 0x100 EXP SWAP1 DIV PUSH20 0xFFFFFFFFFFFFFFFFFFFFFFFFFFFFFFFFFFFFFFFF AND PUSH20 0xFFFFFFFFFFFFFFFFFFFFFFFFFFFFFFFFFFFFFFFF AND CALLER PUSH20 0xFFFFFFFFFFFFFFFFFFFFFFFFFFFFFFFFFFFFFFFF AND EQ JUMPDEST PUSH2 0xDC8 JUMPI PUSH1 0x40 MLOAD PUSH32 0x8C379A000000000000000000000000000000000000000000000000000000000 DUP2 MSTORE PUSH1 0x4 ADD PUSH2 0xDBF SWAP1 PUSH2 0x20AB JUMP JUMPDEST PUSH1 0x40 MLOAD DUP1 SWAP2 SUB SWAP1 REVERT JUMPDEST PUSH0 PUSH1 0x2 PUSH0 DUP4 PUSH20 0xFFFFFFFFFFFFFFFFFFFFFFFFFFFFFFFFFFFFFFFF AND PUSH20 0xFFFFFFFFFFFFFFFFFFFFFFFFFFFFFFFFFFFFFFFF AND DUP2 MSTORE PUSH1 0x20 ADD SWAP1 DUP2 MSTORE PUSH1 0x20 ADD PUSH0 KECCAK256 PUSH0 ADD DUP1 SLOAD PUSH2 0xE13 SWAP1 PUSH2 0x1CE7 JUMP JUMPDEST SWAP1 POP GT PUSH2 0xE55 JUMPI PUSH1 0x40 MLOAD PUSH32 0x8C379A000000000000000000000000000000000000000000000000000000000 DUP2 MSTORE PUSH1 0x4 ADD PUSH2 0xE4C SWAP1 PUSH2 0x217B JUMP JUMPDEST PUSH1 0x40 MLOAD DUP1 SWAP2 SUB SWAP1 REVERT JUMPDEST PUSH0 PUSH1 0x2 PUSH0 DUP4 PUSH20 0xFFFFFFFFFFFFFFFFFFFFFFFFFFFFFFFFFFFFFFFF AND PUSH20 0xFFFFFFFFFFFFFFFFFFFFFFFFFFFFFFFFFFFFFFFF AND DUP2 MSTORE PUSH1 0x20 ADD SWAP1 DUP2 MSTORE PUSH1 0x20 ADD PUSH0 KECCAK256 PUSH1 0x8 ADD PUSH0 PUSH2 0x100 EXP DUP2 SLOAD DUP2 PUSH1 0xFF MUL NOT AND SWAP1 DUP4 ISZERO ISZERO MUL OR SWAP1 SSTORE POP POP JUMP JUMPDEST PUSH0 DUP1 PUSH0 PUSH1 0x1 PUSH0 DUP6 PUSH20 0xFFFFFFFFFFFFFFFFFFFFFFFFFFFFFFFFFFFFFFFF AND PUSH20 0xFFFFFFFFFFFFFFFFFFFFFFFFFFFFFFFFFFFFFFFF AND DUP2 MSTORE PUSH1 0x20 ADD SWAP1 DUP2 MSTORE PUSH1 0x20 ADD PUSH0 KECCAK256 PUSH1 0x40 MLOAD DUP1 PUSH2 0x100 ADD PUSH1 0x40 MSTORE SWAP1 DUP2 PUSH0 DUP3 ADD DUP1 SLOAD PUSH2 0xF0A SWAP1 PUSH2 0x1CE7 JUMP JUMPDEST DUP1 PUSH1 0x1F ADD PUSH1 0x20 DUP1 SWAP2 DIV MUL PUSH1 0x20 ADD PUSH1 0x40 MLOAD SWAP1 DUP2 ADD PUSH1 0x40 MSTORE DUP1 SWAP3 SWAP2 SWAP1 DUP2 DUP2 MSTORE PUSH1 0x20 ADD DUP3 DUP1 SLOAD PUSH2 0xF36 SWAP1 PUSH2 0x1CE7 JUMP JUMPDEST DUP1 ISZERO PUSH2 0xF81 JUMPI DUP1 PUSH1 0x1F LT PUSH2 0xF58 JUMPI PUSH2 0x100 DUP1 DUP4 SLOAD DIV MUL DUP4 MSTORE SWAP2 PUSH1 0x20 ADD SWAP2 PUSH2 0xF81 JUMP JUMPDEST DUP3 ADD SWAP2 SWAP1 PUSH0 MSTORE PUSH1 0x20 PUSH0 KECCAK256 SWAP1 JUMPDEST DUP2 SLOAD DUP2 MSTORE SWAP1 PUSH1 0x1 ADD SWAP1 PUSH1 0x20 ADD DUP1 DUP4 GT PUSH2 0xF64 JUMPI DUP3 SWAP1 SUB PUSH1 0x1F AND DUP3 ADD SWAP2 JUMPDEST POP POP POP POP POP DUP2 MSTORE PUSH1 0x20 ADD PUSH1 0x1 DUP3 ADD SLOAD DUP2 MSTORE PUSH1 0x20 ADD PUSH1 0x2 DUP3 ADD DUP1 SLOAD PUSH2 0xFA4 SWAP1 PUSH2 0x1CE7 JUMP JUMPDEST DUP1 PUSH1 0x1F ADD PUSH1 0x20 DUP1 SWAP2 DIV MUL PUSH1 0x20 ADD PUSH1 0x40 MLOAD SWAP1 DUP2 ADD PUSH1 0x40 MSTORE DUP1 SWAP3 SWAP2 SWAP1 DUP2 DUP2 MSTORE PUSH1 0x20 ADD DUP3 DUP1 SLOAD PUSH2 0xFD0 SWAP1 PUSH2 0x1CE7 JUMP JUMPDEST DUP1 ISZERO PUSH2 0x101B JUMPI DUP1 PUSH1 0x1F LT PUSH2 0xFF2 JUMPI PUSH2 0x100 DUP1 DUP4 SLOAD DIV MUL DUP4 MSTORE SWAP2 PUSH1 0x20 ADD SWAP2 PUSH2 0x101B JUMP JUMPDEST DUP3 ADD SWAP2 SWAP1 PUSH0 MSTORE PUSH1 0x20 PUSH0 KECCAK256 SWAP1 JUMPDEST DUP2 SLOAD DUP2 MSTORE SWAP1 PUSH1 0x1 ADD SWAP1 PUSH1 0x20 ADD DUP1 DUP4 GT PUSH2 0xFFE JUMPI DUP3 SWAP1 SUB PUSH1 0x1F AND DUP3 ADD SWAP2 JUMPDEST POP POP POP POP POP DUP2 MSTORE PUSH1 0x20 ADD PUSH1 0x3 DUP3 ADD DUP1 SLOAD PUSH2 0x1034 SWAP1 PUSH2 0x1CE7 JUMP JUMPDEST DUP1 PUSH1 0x1F ADD PUSH1 0x20 DUP1 SWAP2 DIV MUL PUSH1 0x20 ADD PUSH1 0x40 MLOAD SWAP1 DUP2 ADD PUSH1 0x40 MSTORE DUP1 SWAP3 SWAP2 SWAP1 DUP2 DUP2 MSTORE PUSH1 0x20 ADD DUP3 DUP1 SLOAD PUSH2 0x1060 SWAP1 PUSH2 0x1CE7 JUMP JUMPDEST DUP1 ISZERO PUSH2 0x10AB JUMPI DUP1 PUSH1 0x1F LT PUSH2 0x1082 JUMPI PUSH2 0x100 DUP1 DUP4 SLOAD DIV MUL DUP4 MSTORE SWAP2 PUSH1 0x20 ADD SWAP2 PUSH2 0x10AB JUMP JUMPDEST DUP3 ADD SWAP2 SWAP1 PUSH0 MSTORE PUSH1 0x20 PUSH0 KECCAK256 SWAP1 JUMPDEST DUP2 SLOAD DUP2 MSTORE SWAP1 PUSH1 0x1 ADD SWAP1 PUSH1 0x20 ADD DUP1 DUP4 GT PUSH2 0x108E JUMPI DUP3 SWAP1 SUB PUSH1 0x1F AND DUP3 ADD SWAP2 JUMPDEST POP POP POP POP POP DUP2 MSTORE PUSH1 0x20 ADD PUSH1 0x4 DUP3 ADD DUP1 SLOAD PUSH2 0x10C4 SWAP1 PUSH2 0x1CE7 JUMP JUMPDEST DUP1 PUSH1 0x1F ADD PUSH1 0x20 DUP1 SWAP2 DIV MUL PUSH1 0x20 ADD PUSH1 0x40 MLOAD SWAP1 DUP2 ADD PUSH1 0x40 MSTORE DUP1 SWAP3 SWAP2 SWAP1 DUP2 DUP2 MSTORE PUSH1 0x20 ADD DUP3 DUP1 SLOAD PUSH2 0x10F0 SWAP1 PUSH2 0x1CE7 JUMP JUMPDEST DUP1 ISZERO PUSH2 0x113B JUMPI DUP1 PUSH1 0x1F LT PUSH2 0x1112 JUMPI PUSH2 0x100 DUP1 DUP4 SLOAD DIV MUL DUP4 MSTORE SWAP2 PUSH1 0x20 ADD SWAP2 PUSH2 0x113B JUMP JUMPDEST DUP3 ADD SWAP2 SWAP1 PUSH0 MSTORE PUSH1 0x20 PUSH0 KECCAK256 SWAP1 JUMPDEST DUP2 SLOAD DUP2 MSTORE SWAP1 PUSH1 0x1 ADD SWAP1 PUSH1 0x20 ADD DUP1 DUP4 GT PUSH2 0x111E JUMPI DUP3 SWAP1 SUB PUSH1 0x1F AND DUP3 ADD SWAP2 JUMPDEST POP POP POP POP POP DUP2 MSTORE PUSH1 0x20 ADD PUSH1 0x5 DUP3 ADD DUP1 SLOAD PUSH2 0x1154 SWAP1 PUSH2 0x1CE7 JUMP JUMPDEST DUP1 PUSH1 0x1F ADD PUSH1 0x20 DUP1 SWAP2 DIV MUL PUSH1 0x20 ADD PUSH1 0x40 MLOAD SWAP1 DUP2 ADD PUSH1 0x40 MSTORE DUP1 SWAP3 SWAP2 SWAP1 DUP2 DUP2 MSTORE PUSH1 0x20 ADD DUP3 DUP1 SLOAD PUSH2 0x1180 SWAP1 PUSH2 0x1CE7 JUMP JUMPDEST DUP1 ISZERO PUSH2 0x11CB JUMPI DUP1 PUSH1 0x1F LT PUSH2 0x11A2 JUMPI PUSH2 0x100 DUP1 DUP4 SLOAD DIV MUL DUP4 MSTORE SWAP2 PUSH1 0x20 ADD SWAP2 PUSH2 0x11CB JUMP JUMPDEST DUP3 ADD SWAP2 SWAP1 PUSH0 MSTORE PUSH1 0x20 PUSH0 KECCAK256 SWAP1 JUMPDEST DUP2 SLOAD DUP2 MSTORE SWAP1 PUSH1 0x1 ADD SWAP1 PUSH1 0x20 ADD DUP1 DUP4 GT PUSH2 0x11AE JUMPI DUP3 SWAP1 SUB PUSH1 0x1F AND DUP3 ADD SWAP2 JUMPDEST POP POP POP POP POP DUP2 MSTORE PUSH1 0x20 ADD PUSH1 0x6 DUP3 ADD DUP1 SLOAD PUSH2 0x11E4 SWAP1 PUSH2 0x1CE7 JUMP JUMPDEST DUP1 PUSH1 0x1F ADD PUSH1 0x20 DUP1 SWAP2 DIV MUL PUSH1 0x20 ADD PUSH1 0x40 MLOAD SWAP1 DUP2 ADD PUSH1 0x40 MSTORE DUP1 SWAP3 SWAP2 SWAP1 DUP2 DUP2 MSTORE PUSH1 0x20 ADD DUP3 DUP1 SLOAD PUSH2 0x1210 SWAP1 PUSH2 0x1CE7 JUMP JUMPDEST DUP1 ISZERO PUSH2 0x125B JUMPI DUP1 PUSH1 0x1F LT PUSH2 0x1232 JUMPI PUSH2 0x100 DUP1 DUP4 SLOAD DIV MUL DUP4 MSTORE SWAP2 PUSH1 0x20 ADD SWAP2 PUSH2 0x125B JUMP JUMPDEST DUP3 ADD SWAP2 SWAP1 PUSH0 MSTORE PUSH1 0x20 PUSH0 KECCAK256 SWAP1 JUMPDEST DUP2 SLOAD DUP2 MSTORE SWAP1 PUSH1 0x1 ADD SWAP1 PUSH1 0x20 ADD DUP1 DUP4 GT PUSH2 0x123E JUMPI DUP3 SWAP1 SUB PUSH1 0x1F AND DUP3 ADD SWAP2 JUMPDEST POP POP POP POP POP DUP2 MSTORE PUSH1 0x20 ADD PUSH1 0x7 DUP3 ADD PUSH0 SWAP1 SLOAD SWAP1 PUSH2 0x100 EXP SWAP1 DIV PUSH1 0xFF AND ISZERO ISZERO ISZERO ISZERO DUP2 MSTORE POP POP SWAP1 POP PUSH0 DUP2 PUSH0 ADD MLOAD MLOAD GT DUP2 PUSH1 0xE0 ADD MLOAD SWAP3 POP SWAP3 POP POP SWAP2 POP SWAP2 JUMP JUMPDEST PUSH0 DUP1 PUSH0 PUSH1 0x2 PUSH0 DUP6 PUSH20 0xFFFFFFFFFFFFFFFFFFFFFFFFFFFFFFFFFFFFFFFF AND PUSH20 0xFFFFFFFFFFFFFFFFFFFFFFFFFFFFFFFFFFFFFFFF AND DUP2 MSTORE PUSH1 0x20 ADD SWAP1 DUP2 MSTORE PUSH1 0x20 ADD PUSH0 KECCAK256 PUSH1 0x40 MLOAD DUP1 PUSH2 0x120 ADD PUSH1 0x40 MSTORE SWAP1 DUP2 PUSH0 DUP3 ADD DUP1 SLOAD PUSH2 0x12F1 SWAP1 PUSH2 0x1CE7 JUMP JUMPDEST DUP1 PUSH1 0x1F ADD PUSH1 0x20 DUP1 SWAP2 DIV MUL PUSH1 0x20 ADD PUSH1 0x40 MLOAD SWAP1 DUP2 ADD PUSH1 0x40 MSTORE DUP1 SWAP3 SWAP2 SWAP1 DUP2 DUP2 MSTORE PUSH1 0x20 ADD DUP3 DUP1 SLOAD PUSH2 0x131D SWAP1 PUSH2 0x1CE7 JUMP JUMPDEST DUP1 ISZERO PUSH2 0x1368 JUMPI DUP1 PUSH1 0x1F LT PUSH2 0x133F JUMPI PUSH2 0x100 DUP1 DUP4 SLOAD DIV MUL DUP4 MSTORE SWAP2 PUSH1 0x20 ADD SWAP2 PUSH2 0x1368 JUMP JUMPDEST DUP3 ADD SWAP2 SWAP1 PUSH0 MSTORE PUSH1 0x20 PUSH0 KECCAK256 SWAP1 JUMPDEST DUP2 SLOAD DUP2 MSTORE SWAP1 PUSH1 0x1 ADD SWAP1 PUSH1 0x20 ADD DUP1 DUP4 GT PUSH2 0x134B JUMPI DUP3 SWAP1 SUB PUSH1 0x1F AND DUP3 ADD SWAP2 JUMPDEST POP POP POP POP POP DUP2 MSTORE PUSH1 0x20 ADD PUSH1 0x1 DUP3 ADD DUP1 SLOAD PUSH2 0x1381 SWAP1 PUSH2 0x1CE7 JUMP JUMPDEST DUP1 PUSH1 0x1F ADD PUSH1 0x20 DUP1 SWAP2 DIV MUL PUSH1 0x20 ADD PUSH1 0x40 MLOAD SWAP1 DUP2 ADD PUSH1 0x40 MSTORE DUP1 SWAP3 SWAP2 SWAP1 DUP2 DUP2 MSTORE PUSH1 0x20 ADD DUP3 DUP1 SLOAD PUSH2 0x13AD SWAP1 PUSH2 0x1CE7 JUMP JUMPDEST DUP1 ISZERO PUSH2 0x13F8 JUMPI DUP1 PUSH1 0x1F LT PUSH2 0x13CF JUMPI PUSH2 0x100 DUP1 DUP4 SLOAD DIV MUL DUP4 MSTORE SWAP2 PUSH1 0x20 ADD SWAP2 PUSH2 0x13F8 JUMP JUMPDEST DUP3 ADD SWAP2 SWAP1 PUSH0 MSTORE PUSH1 0x20 PUSH0 KECCAK256 SWAP1 JUMPDEST DUP2 SLOAD DUP2 MSTORE SWAP1 PUSH1 0x1 ADD SWAP1 PUSH1 0x20 ADD DUP1 DUP4 GT PUSH2 0x13DB JUMPI DUP3 SWAP1 SUB PUSH1 0x1F AND DUP3 ADD SWAP2 JUMPDEST POP POP POP POP POP DUP2 MSTORE PUSH1 0x20 ADD PUSH1 0x2 DUP3 ADD DUP1 SLOAD PUSH2 0x1411 SWAP1 PUSH2 0x1CE7 JUMP JUMPDEST DUP1 PUSH1 0x1F ADD PUSH1 0x20 DUP1 SWAP2 DIV MUL PUSH1 0x20 ADD PUSH1 0x40 MLOAD SWAP1 DUP2 ADD PUSH1 0x40 MSTORE DUP1 SWAP3 SWAP2 SWAP1 DUP2 DUP2 MSTORE PUSH1 0x20 ADD DUP3 DUP1 SLOAD PUSH2 0x143D SWAP1 PUSH2 0x1CE7 JUMP JUMPDEST DUP1 ISZERO PUSH2 0x1488 JUMPI DUP1 PUSH1 0x1F LT PUSH2 0x145F JUMPI PUSH2 0x100 DUP1 DUP4 SLOAD DIV MUL DUP4 MSTORE SWAP2 PUSH1 0x20 ADD SWAP2 PUSH2 0x1488 JUMP JUMPDEST DUP3 ADD SWAP2 SWAP1 PUSH0 MSTORE PUSH1 0x20 PUSH0 KECCAK256 SWAP1 JUMPDEST DUP2 SLOAD DUP2 MSTORE SWAP1 PUSH1 0x1 ADD SWAP1 PUSH1 0x20 ADD DUP1 DUP4 GT PUSH2 0x146B JUMPI DUP3 SWAP1 SUB PUSH1 0x1F AND DUP3 ADD SWAP2 JUMPDEST POP POP POP POP POP DUP2 MSTORE PUSH1 0x20 ADD PUSH1 0x3 DUP3 ADD DUP1 SLOAD PUSH2 0x14A1 SWAP1 PUSH2 0x1CE7 JUMP JUMPDEST DUP1 PUSH1 0x1F ADD PUSH1 0x20 DUP1 SWAP2 DIV MUL PUSH1 0x20 ADD PUSH1 0x40 MLOAD SWAP1 DUP2 ADD PUSH1 0x40 MSTORE DUP1 SWAP3 SWAP2 SWAP1 DUP2 DUP2 MSTORE PUSH1 0x20 ADD DUP3 DUP1 SLOAD PUSH2 0x14CD SWAP1 PUSH2 0x1CE7 JUMP JUMPDEST DUP1 ISZERO PUSH2 0x1518 JUMPI DUP1 PUSH1 0x1F LT PUSH2 0x14EF JUMPI PUSH2 0x100 DUP1 DUP4 SLOAD DIV MUL DUP4 MSTORE SWAP2 PUSH1 0x20 ADD SWAP2 PUSH2 0x1518 JUMP JUMPDEST DUP3 ADD SWAP2 SWAP1 PUSH0 MSTORE PUSH1 0x20 PUSH0 KECCAK256 SWAP1 JUMPDEST DUP2 SLOAD DUP2 MSTORE SWAP1 PUSH1 0x1 ADD SWAP1 PUSH1 0x20 ADD DUP1 DUP4 GT PUSH2 0x14FB JUMPI DUP3 SWAP1 SUB PUSH1 0x1F AND DUP3 ADD SWAP2 JUMPDEST POP POP POP POP POP DUP2 MSTORE PUSH1 0x20 ADD PUSH1 0x4 DUP3 ADD DUP1 SLOAD PUSH2 0x1531 SWAP1 PUSH2 0x1CE7 JUMP JUMPDEST DUP1 PUSH1 0x1F ADD PUSH1 0x20 DUP1 SWAP2 DIV MUL PUSH1 0x20 ADD PUSH1 0x40 MLOAD SWAP1 DUP2 ADD PUSH1 0x40 MSTORE DUP1 SWAP3 SWAP2 SWAP1 DUP2 DUP2 MSTORE PUSH1 0x20 ADD DUP3 DUP1 SLOAD PUSH2 0x155D SWAP1 PUSH2 0x1CE7 JUMP JUMPDEST DUP1 ISZERO PUSH2 0x15A8 JUMPI DUP1 PUSH1 0x1F LT PUSH2 0x157F JUMPI PUSH2 0x100 DUP1 DUP4 SLOAD DIV MUL DUP4 MSTORE SWAP2 PUSH1 0x20 ADD SWAP2 PUSH2 0x15A8 JUMP JUMPDEST DUP3 ADD SWAP2 SWAP1 PUSH0 MSTORE PUSH1 0x20 PUSH0 KECCAK256 SWAP1 JUMPDEST DUP2 SLOAD DUP2 MSTORE SWAP1 PUSH1 0x1 ADD SWAP1 PUSH1 0x20 ADD DUP1 DUP4 GT PUSH2 0x158B JUMPI DUP3 SWAP1 SUB PUSH1 0x1F AND DUP3 ADD SWAP2 JUMPDEST POP POP POP POP POP DUP2 MSTORE PUSH1 0x20 ADD PUSH1 0x5 DUP3 ADD DUP1 SLOAD PUSH2 0x15C1 SWAP1 PUSH2 0x1CE7 JUMP JUMPDEST DUP1 PUSH1 0x1F ADD PUSH1 0x20 DUP1 SWAP2 DIV MUL PUSH1 0x20 ADD PUSH1 0x40 MLOAD SWAP1 DUP2 ADD PUSH1 0x40 MSTORE DUP1 SWAP3 SWAP2 SWAP1 DUP2 DUP2 MSTORE PUSH1 0x20 ADD DUP3 DUP1 SLOAD PUSH2 0x15ED SWAP1 PUSH2 0x1CE7 JUMP JUMPDEST DUP1 ISZERO PUSH2 0x1638 JUMPI DUP1 PUSH1 0x1F LT PUSH2 0x160F JUMPI PUSH2 0x100 DUP1 DUP4 SLOAD DIV MUL DUP4 MSTORE SWAP2 PUSH1 0x20 ADD SWAP2 PUSH2 0x1638 JUMP JUMPDEST DUP3 ADD SWAP2 SWAP1 PUSH0 MSTORE PUSH1 0x20 PUSH0 KECCAK256 SWAP1 JUMPDEST DUP2 SLOAD DUP2 MSTORE SWAP1 PUSH1 0x1 ADD SWAP1 PUSH1 0x20 ADD DUP1 DUP4 GT PUSH2 0x161B JUMPI DUP3 SWAP1 SUB PUSH1 0x1F AND DUP3 ADD SWAP2 JUMPDEST POP POP POP POP POP DUP2 MSTORE PUSH1 0x20 ADD PUSH1 0x6 DUP3 ADD DUP1 SLOAD PUSH2 0x1651 SWAP1 PUSH2 0x1CE7 JUMP JUMPDEST DUP1 PUSH1 0x1F ADD PUSH1 0x20 DUP1 SWAP2 DIV MUL PUSH1 0x20 ADD PUSH1 0x40 MLOAD SWAP1 DUP2 ADD PUSH1 0x40 MSTORE DUP1 SWAP3 SWAP2 SWAP1 DUP2 DUP2 MSTORE PUSH1 0x20 ADD DUP3 DUP1 SLOAD PUSH2 0x167D SWAP1 PUSH2 0x1CE7 JUMP JUMPDEST DUP1 ISZERO PUSH2 0x16C8 JUMPI DUP1 PUSH1 0x1F LT PUSH2 0x169F JUMPI PUSH2 0x100 DUP1 DUP4 SLOAD DIV MUL DUP4 MSTORE SWAP2 PUSH1 0x20 ADD SWAP2 PUSH2 0x16C8 JUMP JUMPDEST DUP3 ADD SWAP2 SWAP1 PUSH0 MSTORE PUSH1 0x20 PUSH0 KECCAK256 SWAP1 JUMPDEST DUP2 SLOAD DUP2 MSTORE SWAP1 PUSH1 0x1 ADD SWAP1 PUSH1 0x20 ADD DUP1 DUP4 GT PUSH2 0x16AB JUMPI DUP3 SWAP1 SUB PUSH1 0x1F AND DUP3 ADD SWAP2 JUMPDEST POP POP POP POP POP DUP2 MSTORE PUSH1 0x20 ADD PUSH1 0x7 DUP3 ADD DUP1 SLOAD PUSH2 0x16E1 SWAP1 PUSH2 0x1CE7 JUMP JUMPDEST DUP1 PUSH1 0x1F ADD PUSH1 0x20 DUP1 SWAP2 DIV MUL PUSH1 0x20 ADD PUSH1 0x40 MLOAD SWAP1 DUP2 ADD PUSH1 0x40 MSTORE DUP1 SWAP3 SWAP2 SWAP1 DUP2 DUP2 MSTORE PUSH1 0x20 ADD DUP3 DUP1 SLOAD PUSH2 0x170D SWAP1 PUSH2 0x1CE7 JUMP JUMPDEST DUP1 ISZERO PUSH2 0x1758 JUMPI DUP1 PUSH1 0x1F LT PUSH2 0x172F JUMPI PUSH2 0x100 DUP1 DUP4 SLOAD DIV MUL DUP4 MSTORE SWAP2 PUSH1 0x20 ADD SWAP2 PUSH2 0x1758 JUMP JUMPDEST DUP3 ADD SWAP2 SWAP1 PUSH0 MSTORE PUSH1 0x20 PUSH0 KECCAK256 SWAP1 JUMPDEST DUP2 SLOAD DUP2 MSTORE SWAP1 PUSH1 0x1 ADD SWAP1 PUSH1 0x20 ADD DUP1 DUP4 GT PUSH2 0x173B JUMPI DUP3 SWAP1 SUB PUSH1 0x1F AND DUP3 ADD SWAP2 JUMPDEST POP POP POP POP POP DUP2 MSTORE PUSH1 0x20 ADD PUSH1 0x8 DUP3 ADD PUSH0 SWAP1 SLOAD SWAP1 PUSH2 0x100 EXP SWAP1 DIV PUSH1 0xFF AND ISZERO ISZERO ISZERO ISZERO DUP2 MSTORE POP POP SWAP1 POP PUSH0 DUP2 PUSH0 ADD MLOAD MLOAD GT DUP2 PUSH2 0x100 ADD MLOAD SWAP3 POP SWAP3 POP POP SWAP2 POP SWAP2 JUMP JUMPDEST PUSH0 PUSH1 0x40 MLOAD SWAP1 POP SWAP1 JUMP JUMPDEST PUSH0 DUP1 REVERT JUMPDEST PUSH0 DUP1 REVERT JUMPDEST PUSH0 DUP1 REVERT JUMPDEST PUSH0 DUP1 REVERT JUMPDEST PUSH0 PUSH1 0x1F NOT PUSH1 0x1F DUP4 ADD AND SWAP1 POP SWAP2 SWAP1 POP JUMP JUMPDEST PUSH32 0x4E487B7100000000000000000000000000000000000000000000000000000000 PUSH0 MSTORE PUSH1 0x41 PUSH1 0x4 MSTORE PUSH1 0x24 PUSH0 REVERT JUMPDEST PUSH2 0x17F3 DUP3 PUSH2 0x17AD JUMP JUMPDEST DUP2 ADD DUP2 DUP2 LT PUSH8 0xFFFFFFFFFFFFFFFF DUP3 GT OR ISZERO PUSH2 0x1812 JUMPI PUSH2 0x1811 PUSH2 0x17BD JUMP JUMPDEST JUMPDEST DUP1 PUSH1 0x40 MSTORE POP POP POP JUMP JUMPDEST PUSH0 PUSH2 0x1824 PUSH2 0x1794 JUMP JUMPDEST SWAP1 POP PUSH2 0x1830 DUP3 DUP3 PUSH2 0x17EA JUMP JUMPDEST SWAP2 SWAP1 POP JUMP JUMPDEST PUSH0 PUSH8 0xFFFFFFFFFFFFFFFF DUP3 GT ISZERO PUSH2 0x184F JUMPI PUSH2 0x184E PUSH2 0x17BD JUMP JUMPDEST JUMPDEST PUSH2 0x1858 DUP3 PUSH2 0x17AD JUMP JUMPDEST SWAP1 POP PUSH1 0x20 DUP2 ADD SWAP1 POP SWAP2 SWAP1 POP JUMP JUMPDEST DUP3 DUP2 DUP4 CALLDATACOPY PUSH0 DUP4 DUP4 ADD MSTORE POP POP POP JUMP JUMPDEST PUSH0 PUSH2 0x1885 PUSH2 0x1880 DUP5 PUSH2 0x1835 JUMP JUMPDEST PUSH2 0x181B JUMP JUMPDEST SWAP1 POP DUP3 DUP2 MSTORE PUSH1 0x20 DUP2 ADD DUP5 DUP5 DUP5 ADD GT ISZERO PUSH2 0x18A1 JUMPI PUSH2 0x18A0 PUSH2 0x17A9 JUMP JUMPDEST JUMPDEST PUSH2 0x18AC DUP5 DUP3 DUP6 PUSH2 0x1865 JUMP JUMPDEST POP SWAP4 SWAP3 POP POP POP JUMP JUMPDEST PUSH0 DUP3 PUSH1 0x1F DUP4 ADD SLT PUSH2 0x18C8 JUMPI PUSH2 0x18C7 PUSH2 0x17A5 JUMP JUMPDEST JUMPDEST DUP2 CALLDATALOAD PUSH2 0x18D8 DUP5 DUP3 PUSH1 0x20 DUP7 ADD PUSH2 0x1873 JUMP JUMPDEST SWAP2 POP POP SWAP3 SWAP2 POP POP JUMP JUMPDEST PUSH0 DUP2 SWAP1 POP SWAP2 SWAP1 POP JUMP JUMPDEST PUSH2 0x18F3 DUP2 PUSH2 0x18E1 JUMP JUMPDEST DUP2 EQ PUSH2 0x18FD JUMPI PUSH0 DUP1 REVERT JUMPDEST POP JUMP JUMPDEST PUSH0 DUP2 CALLDATALOAD SWAP1 POP PUSH2 0x190E DUP2 PUSH2 0x18EA JUMP JUMPDEST SWAP3 SWAP2 POP POP JUMP JUMPDEST PUSH0 DUP1 PUSH0 DUP1 PUSH0 DUP1 PUSH0 PUSH1 0xE0 DUP9 DUP11 SUB SLT ISZERO PUSH2 0x192F JUMPI PUSH2 0x192E PUSH2 0x179D JUMP JUMPDEST JUMPDEST PUSH0 DUP9 ADD CALLDATALOAD PUSH8 0xFFFFFFFFFFFFFFFF DUP2 GT ISZERO PUSH2 0x194C JUMPI PUSH2 0x194B PUSH2 0x17A1 JUMP JUMPDEST JUMPDEST PUSH2 0x1958 DUP11 DUP3 DUP12 ADD PUSH2 0x18B4 JUMP JUMPDEST SWAP8 POP POP PUSH1 0x20 PUSH2 0x1969 DUP11 DUP3 DUP12 ADD PUSH2 0x1900 JUMP JUMPDEST SWAP7 POP POP PUSH1 0x40 DUP9 ADD CALLDATALOAD PUSH8 0xFFFFFFFFFFFFFFFF DUP2 GT ISZERO PUSH2 0x198A JUMPI PUSH2 0x1989 PUSH2 0x17A1 JUMP JUMPDEST JUMPDEST PUSH2 0x1996 DUP11 DUP3 DUP12 ADD PUSH2 0x18B4 JUMP JUMPDEST SWAP6 POP POP PUSH1 0x60 DUP9 ADD CALLDATALOAD PUSH8 0xFFFFFFFFFFFFFFFF DUP2 GT ISZERO PUSH2 0x19B7 JUMPI PUSH2 0x19B6 PUSH2 0x17A1 JUMP JUMPDEST JUMPDEST PUSH2 0x19C3 DUP11 DUP3 DUP12 ADD PUSH2 0x18B4 JUMP JUMPDEST SWAP5 POP POP PUSH1 0x80 DUP9 ADD CALLDATALOAD PUSH8 0xFFFFFFFFFFFFFFFF DUP2 GT ISZERO PUSH2 0x19E4 JUMPI PUSH2 0x19E3 PUSH2 0x17A1 JUMP JUMPDEST JUMPDEST PUSH2 0x19F0 DUP11 DUP3 DUP12 ADD PUSH2 0x18B4 JUMP JUMPDEST SWAP4 POP POP PUSH1 0xA0 DUP9 ADD CALLDATALOAD PUSH8 0xFFFFFFFFFFFFFFFF DUP2 GT ISZERO PUSH2 0x1A11 JUMPI PUSH2 0x1A10 PUSH2 0x17A1 JUMP JUMPDEST JUMPDEST PUSH2 0x1A1D DUP11 DUP3 DUP12 ADD PUSH2 0x18B4 JUMP JUMPDEST SWAP3 POP POP PUSH1 0xC0 DUP9 ADD CALLDATALOAD PUSH8 0xFFFFFFFFFFFFFFFF DUP2 GT ISZERO PUSH2 0x1A3E JUMPI PUSH2 0x1A3D PUSH2 0x17A1 JUMP JUMPDEST JUMPDEST PUSH2 0x1A4A DUP11 DUP3 DUP12 ADD PUSH2 0x18B4 JUMP JUMPDEST SWAP2 POP POP SWAP3 SWAP6 SWAP9 SWAP2 SWAP5 SWAP8 POP SWAP3 SWAP6 POP JUMP JUMPDEST PUSH0 PUSH20 0xFFFFFFFFFFFFFFFFFFFFFFFFFFFFFFFFFFFFFFFF DUP3 AND SWAP1 POP SWAP2 SWAP1 POP JUMP JUMPDEST PUSH0 PUSH2 0x1A82 DUP3 PUSH2 0x1A59 JUMP JUMPDEST SWAP1 POP SWAP2 SWAP1 POP JUMP JUMPDEST PUSH2 0x1A92 DUP2 PUSH2 0x1A78 JUMP JUMPDEST DUP2 EQ PUSH2 0x1A9C JUMPI PUSH0 DUP1 REVERT JUMPDEST POP JUMP JUMPDEST PUSH0 DUP2 CALLDATALOAD SWAP1 POP PUSH2 0x1AAD DUP2 PUSH2 0x1A89 JUMP JUMPDEST SWAP3 SWAP2 POP POP JUMP JUMPDEST PUSH0 PUSH1 0x20 DUP3 DUP5 SUB SLT ISZERO PUSH2 0x1AC8 JUMPI PUSH2 0x1AC7 PUSH2 0x179D JUMP JUMPDEST JUMPDEST PUSH0 PUSH2 0x1AD5 DUP5 DUP3 DUP6 ADD PUSH2 0x1A9F JUMP JUMPDEST SWAP2 POP POP SWAP3 SWAP2 POP POP JUMP JUMPDEST PUSH0 DUP1 PUSH0 DUP1 PUSH0 DUP1 PUSH0 DUP1 PUSH2 0x100 DUP10 DUP12 SUB SLT ISZERO PUSH2 0x1AFB JUMPI PUSH2 0x1AFA PUSH2 0x179D JUMP JUMPDEST JUMPDEST PUSH0 DUP10 ADD CALLDATALOAD PUSH8 0xFFFFFFFFFFFFFFFF DUP2 GT ISZERO PUSH2 0x1B18 JUMPI PUSH2 0x1B17 PUSH2 0x17A1 JUMP JUMPDEST JUMPDEST PUSH2 0x1B24 DUP12 DUP3 DUP13 ADD PUSH2 0x18B4 JUMP JUMPDEST SWAP9 POP POP PUSH1 0x20 DUP10 ADD CALLDATALOAD PUSH8 0xFFFFFFFFFFFFFFFF DUP2 GT ISZERO PUSH2 0x1B45 JUMPI PUSH2 0x1B44 PUSH2 0x17A1 JUMP JUMPDEST JUMPDEST PUSH2 0x1B51 DUP12 DUP3 DUP13 ADD PUSH2 0x18B4 JUMP JUMPDEST SWAP8 POP POP PUSH1 0x40 DUP10 ADD CALLDATALOAD PUSH8 0xFFFFFFFFFFFFFFFF DUP2 GT ISZERO PUSH2 0x1B72 JUMPI PUSH2 0x1B71 PUSH2 0x17A1 JUMP JUMPDEST JUMPDEST PUSH2 0x1B7E DUP12 DUP3 DUP13 ADD PUSH2 0x18B4 JUMP JUMPDEST SWAP7 POP POP PUSH1 0x60 DUP10 ADD CALLDATALOAD PUSH8 0xFFFFFFFFFFFFFFFF DUP2 GT ISZERO PUSH2 0x1B9F JUMPI PUSH2 0x1B9E PUSH2 0x17A1 JUMP JUMPDEST JUMPDEST PUSH2 0x1BAB DUP12 DUP3 DUP13 ADD PUSH2 0x18B4 JUMP JUMPDEST SWAP6 POP POP PUSH1 0x80 DUP10 ADD CALLDATALOAD PUSH8 0xFFFFFFFFFFFFFFFF DUP2 GT ISZERO PUSH2 0x1BCC JUMPI PUSH2 0x1BCB PUSH2 0x17A1 JUMP JUMPDEST JUMPDEST PUSH2 0x1BD8 DUP12 DUP3 DUP13 ADD PUSH2 0x18B4 JUMP JUMPDEST SWAP5 POP POP PUSH1 0xA0 DUP10 ADD CALLDATALOAD PUSH8 0xFFFFFFFFFFFFFFFF DUP2 GT ISZERO PUSH2 0x1BF9 JUMPI PUSH2 0x1BF8 PUSH2 0x17A1 JUMP JUMPDEST JUMPDEST PUSH2 0x1C05 DUP12 DUP3 DUP13 ADD PUSH2 0x18B4 JUMP JUMPDEST SWAP4 POP POP PUSH1 0xC0 DUP10 ADD CALLDATALOAD PUSH8 0xFFFFFFFFFFFFFFFF DUP2 GT ISZERO PUSH2 0x1C26 JUMPI PUSH2 0x1C25 PUSH2 0x17A1 JUMP JUMPDEST JUMPDEST PUSH2 0x1C32 DUP12 DUP3 DUP13 ADD PUSH2 0x18B4 JUMP JUMPDEST SWAP3 POP POP PUSH1 0xE0 DUP10 ADD CALLDATALOAD PUSH8 0xFFFFFFFFFFFFFFFF DUP2 GT ISZERO PUSH2 0x1C53 JUMPI PUSH2 0x1C52 PUSH2 0x17A1 JUMP JUMPDEST JUMPDEST PUSH2 0x1C5F DUP12 DUP3 DUP13 ADD PUSH2 0x18B4 JUMP JUMPDEST SWAP2 POP POP SWAP3 SWAP6 SWAP9 POP SWAP3 SWAP6 SWAP9 SWAP1 SWAP4 SWAP7 POP JUMP JUMPDEST PUSH0 DUP2 ISZERO ISZERO SWAP1 POP SWAP2 SWAP1 POP JUMP JUMPDEST PUSH2 0x1C83 DUP2 PUSH2 0x1C6F JUMP JUMPDEST DUP3 MSTORE POP POP JUMP JUMPDEST PUSH0 PUSH1 0x40 DUP3 ADD SWAP1 POP PUSH2 0x1C9C PUSH0 DUP4 ADD DUP6 PUSH2 0x1C7A JUMP JUMPDEST PUSH2 0x1CA9 PUSH1 0x20 DUP4 ADD DUP5 PUSH2 0x1C7A JUMP JUMPDEST SWAP4 SWAP3 POP POP POP JUMP JUMPDEST PUSH0 DUP2 MLOAD SWAP1 POP SWAP2 SWAP1 POP JUMP JUMPDEST PUSH32 0x4E487B7100000000000000000000000000000000000000000000000000000000 PUSH0 MSTORE PUSH1 0x22 PUSH1 0x4 MSTORE PUSH1 0x24 PUSH0 REVERT JUMPDEST PUSH0 PUSH1 0x2 DUP3 DIV SWAP1 POP PUSH1 0x1 DUP3 AND DUP1 PUSH2 0x1CFE JUMPI PUSH1 0x7F DUP3 AND SWAP2 POP JUMPDEST PUSH1 0x20 DUP3 LT DUP2 SUB PUSH2 0x1D11 JUMPI PUSH2 0x1D10 PUSH2 0x1CBA JUMP JUMPDEST JUMPDEST POP SWAP2 SWAP1 POP JUMP JUMPDEST PUSH0 DUP2 SWAP1 POP DUP2 PUSH0 MSTORE PUSH1 0x20 PUSH0 KECCAK256 SWAP1 POP SWAP2 SWAP1 POP JUMP JUMPDEST PUSH0 PUSH1 0x20 PUSH1 0x1F DUP4 ADD DIV SWAP1 POP SWAP2 SWAP1 POP JUMP JUMPDEST PUSH0 DUP3 DUP3 SHL SWAP1 POP SWAP3 SWAP2 POP POP JUMP JUMPDEST PUSH0 PUSH1 0x8 DUP4 MUL PUSH2 0x1D73 PUSH32 0xFFFFFFFFFFFFFFFFFFFFFFFFFFFFFFFFFFFFFFFFFFFFFFFFFFFFFFFFFFFFFFFF DUP3 PUSH2 0x1D38 JUMP JUMPDEST PUSH2 0x1D7D DUP7 DUP4 PUSH2 0x1D38 JUMP JUMPDEST SWAP6 POP DUP1 NOT DUP5 AND SWAP4 POP DUP1 DUP7 AND DUP5 OR SWAP3 POP POP POP SWAP4 SWAP3 POP POP POP JUMP JUMPDEST PUSH0 DUP2 SWAP1 POP SWAP2 SWAP1 POP JUMP JUMPDEST PUSH0 PUSH2 0x1DB8 PUSH2 0x1DB3 PUSH2 0x1DAE DUP5 PUSH2 0x18E1 JUMP JUMPDEST PUSH2 0x1D95 JUMP JUMPDEST PUSH2 0x18E1 JUMP JUMPDEST SWAP1 POP SWAP2 SWAP1 POP JUMP JUMPDEST PUSH0 DUP2 SWAP1 POP SWAP2 SWAP1 POP JUMP JUMPDEST PUSH2 0x1DD1 DUP4 PUSH2 0x1D9E JUMP JUMPDEST PUSH2 0x1DE5 PUSH2 0x1DDD DUP3 PUSH2 0x1DBF JUMP JUMPDEST DUP5 DUP5 SLOAD PUSH2 0x1D44 JUMP JUMPDEST DUP3 SSTORE POP POP POP POP JUMP JUMPDEST PUSH0 SWAP1 JUMP JUMPDEST PUSH2 0x1DF9 PUSH2 0x1DED JUMP JUMPDEST PUSH2 0x1E04 DUP2 DUP5 DUP5 PUSH2 0x1DC8 JUMP JUMPDEST POP POP POP JUMP JUMPDEST JUMPDEST DUP2 DUP2 LT ISZERO PUSH2 0x1E27 JUMPI PUSH2 0x1E1C PUSH0 DUP3 PUSH2 0x1DF1 JUMP JUMPDEST PUSH1 0x1 DUP2 ADD SWAP1 POP PUSH2 0x1E0A JUMP JUMPDEST POP POP JUMP JUMPDEST PUSH1 0x1F DUP3 GT ISZERO PUSH2 0x1E6C JUMPI PUSH2 0x1E3D DUP2 PUSH2 0x1D17 JUMP JUMPDEST PUSH2 0x1E46 DUP5 PUSH2 0x1D29 JUMP JUMPDEST DUP2 ADD PUSH1 0x20 DUP6 LT ISZERO PUSH2 0x1E55 JUMPI DUP2 SWAP1 POP JUMPDEST PUSH2 0x1E69 PUSH2 0x1E61 DUP6 PUSH2 0x1D29 JUMP JUMPDEST DUP4 ADD DUP3 PUSH2 0x1E09 JUMP JUMPDEST POP POP JUMPDEST POP POP POP JUMP JUMPDEST PUSH0 DUP3 DUP3 SHR SWAP1 POP SWAP3 SWAP2 POP POP JUMP JUMPDEST PUSH0 PUSH2 0x1E8C PUSH0 NOT DUP5 PUSH1 0x8 MUL PUSH2 0x1E71 JUMP JUMPDEST NOT DUP1 DUP4 AND SWAP2 POP POP SWAP3 SWAP2 POP POP JUMP JUMPDEST PUSH0 PUSH2 0x1EA4 DUP4 DUP4 PUSH2 0x1E7D JUMP JUMPDEST SWAP2 POP DUP3 PUSH1 0x2 MUL DUP3 OR SWAP1 POP SWAP3 SWAP2 POP POP JUMP JUMPDEST PUSH2 0x1EBD DUP3 PUSH2 0x1CB0 JUMP JUMPDEST PUSH8 0xFFFFFFFFFFFFFFFF DUP2 GT ISZERO PUSH2 0x1ED6 JUMPI PUSH2 0x1ED5 PUSH2 0x17BD JUMP JUMPDEST JUMPDEST PUSH2 0x1EE0 DUP3 SLOAD PUSH2 0x1CE7 JUMP JUMPDEST PUSH2 0x1EEB DUP3 DUP3 DUP6 PUSH2 0x1E2B JUMP JUMPDEST PUSH0 PUSH1 0x20 SWAP1 POP PUSH1 0x1F DUP4 GT PUSH1 0x1 DUP2 EQ PUSH2 0x1F1C JUMPI PUSH0 DUP5 ISZERO PUSH2 0x1F0A JUMPI DUP3 DUP8 ADD MLOAD SWAP1 POP JUMPDEST PUSH2 0x1F14 DUP6 DUP3 PUSH2 0x1E99 JUMP JUMPDEST DUP7 SSTORE POP PUSH2 0x1F7B JUMP JUMPDEST PUSH1 0x1F NOT DUP5 AND PUSH2 0x1F2A DUP7 PUSH2 0x1D17 JUMP JUMPDEST PUSH0 JUMPDEST DUP3 DUP2 LT ISZERO PUSH2 0x1F51 JUMPI DUP5 DUP10 ADD MLOAD DUP3 SSTORE PUSH1 0x1 DUP3 ADD SWAP2 POP PUSH1 0x20 DUP6 ADD SWAP5 POP PUSH1 0x20 DUP2 ADD SWAP1 POP PUSH2 0x1F2C JUMP JUMPDEST DUP7 DUP4 LT ISZERO PUSH2 0x1F6E JUMPI DUP5 DUP10 ADD MLOAD PUSH2 0x1F6A PUSH1 0x1F DUP10 AND DUP3 PUSH2 0x1E7D JUMP JUMPDEST DUP4 SSTORE POP JUMPDEST PUSH1 0x1 PUSH1 0x2 DUP9 MUL ADD DUP9 SSTORE POP POP POP JUMPDEST POP POP POP POP POP POP JUMP JUMPDEST PUSH0 DUP3 DUP3 MSTORE PUSH1 0x20 DUP3 ADD SWAP1 POP SWAP3 SWAP2 POP POP JUMP JUMPDEST DUP3 DUP2 DUP4 MCOPY PUSH0 DUP4 DUP4 ADD MSTORE POP POP POP JUMP JUMPDEST PUSH0 PUSH2 0x1FAB DUP3 PUSH2 0x1CB0 JUMP JUMPDEST PUSH2 0x1FB5 DUP2 DUP6 PUSH2 0x1F83 JUMP JUMPDEST SWAP4 POP PUSH2 0x1FC5 DUP2 DUP6 PUSH1 0x20 DUP7 ADD PUSH2 0x1F93 JUMP JUMPDEST PUSH2 0x1FCE DUP2 PUSH2 0x17AD JUMP JUMPDEST DUP5 ADD SWAP2 POP POP SWAP3 SWAP2 POP POP JUMP JUMPDEST PUSH0 PUSH1 0x20 DUP3 ADD SWAP1 POP DUP2 DUP2 SUB PUSH0 DUP4 ADD MSTORE PUSH2 0x1FF1 DUP2 DUP5 PUSH2 0x1FA1 JUMP JUMPDEST SWAP1 POP SWAP3 SWAP2 POP POP JUMP JUMPDEST PUSH32 0x4E6F742074686520636F6E7472616374206F776E657200000000000000000000 PUSH0 DUP3 ADD MSTORE POP JUMP JUMPDEST PUSH0 PUSH2 0x202D PUSH1 0x16 DUP4 PUSH2 0x1F83 JUMP JUMPDEST SWAP2 POP PUSH2 0x2038 DUP3 PUSH2 0x1FF9 JUMP JUMPDEST PUSH1 0x20 DUP3 ADD SWAP1 POP SWAP2 SWAP1 POP JUMP JUMPDEST PUSH0 PUSH1 0x20 DUP3 ADD SWAP1 POP DUP2 DUP2 SUB PUSH0 DUP4 ADD MSTORE PUSH2 0x205A DUP2 PUSH2 0x2021 JUMP JUMPDEST SWAP1 POP SWAP2 SWAP1 POP JUMP JUMPDEST PUSH32 0x4E6F7420617574686F72697A6564000000000000000000000000000000000000 PUSH0 DUP3 ADD MSTORE POP JUMP JUMPDEST PUSH0 PUSH2 0x2095 PUSH1 0xE DUP4 PUSH2 0x1F83 JUMP JUMPDEST SWAP2 POP PUSH2 0x20A0 DUP3 PUSH2 0x2061 JUMP JUMPDEST PUSH1 0x20 DUP3 ADD SWAP1 POP SWAP2 SWAP1 POP JUMP JUMPDEST PUSH0 PUSH1 0x20 DUP3 ADD SWAP1 POP DUP2 DUP2 SUB PUSH0 DUP4 ADD MSTORE PUSH2 0x20C2 DUP2 PUSH2 0x2089 JUMP JUMPDEST SWAP1 POP SWAP2 SWAP1 POP JUMP JUMPDEST PUSH32 0x506572736F6E206E6F7420726567697374657265640000000000000000000000 PUSH0 DUP3 ADD MSTORE POP JUMP JUMPDEST PUSH0 PUSH2 0x20FD PUSH1 0x15 DUP4 PUSH2 0x1F83 JUMP JUMPDEST SWAP2 POP PUSH2 0x2108 DUP3 PUSH2 0x20C9 JUMP JUMPDEST PUSH1 0x20 DUP3 ADD SWAP1 POP SWAP2 SWAP1 POP JUMP JUMPDEST PUSH0 PUSH1 0x20 DUP3 ADD SWAP1 POP DUP2 DUP2 SUB PUSH0 DUP4 ADD MSTORE PUSH2 0x212A DUP2 PUSH2 0x20F1 JUMP JUMPDEST SWAP1 POP SWAP2 SWAP1 POP JUMP JUMPDEST PUSH32 0x456E74697479206E6F7420726567697374657265640000000000000000000000 PUSH0 DUP3 ADD MSTORE POP JUMP JUMPDEST PUSH0 PUSH2 0x2165 PUSH1 0x15 DUP4 PUSH2 0x1F83 JUMP JUMPDEST SWAP2 POP PUSH2 0x2170 DUP3 PUSH2 0x2131 JUMP JUMPDEST PUSH1 0x20 DUP3 ADD SWAP1 POP SWAP2 SWAP1 POP JUMP JUMPDEST PUSH0 PUSH1 0x20 DUP3 ADD SWAP1 POP DUP2 DUP2 SUB PUSH0 DUP4 ADD MSTORE PUSH2 0x2192 DUP2 PUSH2 0x2159 JUMP JUMPDEST SWAP1 POP SWAP2 SWAP1 POP JUMP INVALID LOG2 PUSH5 0x6970667358 0x22 SLT KECCAK256 0x4E PUSH13 0x17B67BF8D793C66E702AD0A4E SELFBALANCE SWAP15 DUP11 0xAA DUP10 JUMP PUSH30 0x749A5507E9308C46AB6364736F6C634300081A0033000000000000000000 "
				},
				"gasEstimates": {
					"creation": {
						"codeDepositCost": "1731000",
						"executionCost": "26083",
						"totalCost": "1757083"
					},
					"external": {
						"grantPermission(address)": "28153",
						"isEntityRegistered(address)": "infinite",
						"isPersonRegistered(address)": "infinite",
						"registerEntity(string,string,string,string,string,string,string,string)": "infinite",
						"registerPerson(string,uint256,string,string,string,string,string)": "infinite",
						"revokeEntityVerification(address)": "31609",
						"revokePermission(address)": "26990",
						"revokePersonVerification(address)": "31565",
						"verifyEntity(address)": "32816",
						"verifyPerson(address)": "32772"
					}
				},
				"methodIdentifiers": {
					"grantPermission(address)": "2d8e3278",
					"isEntityRegistered(address)": "f7bde1da",
					"isPersonRegistered(address)": "cfd6c606",
					"registerEntity(string,string,string,string,string,string,string,string)": "59bf32d5",
					"registerPerson(string,uint256,string,string,string,string,string)": "22bed8d7",
					"revokeEntityVerification(address)": "b39a7c4e",
					"revokePermission(address)": "a3bf5b9a",
					"revokePersonVerification(address)": "9e8f4aec",
					"verifyEntity(address)": "828057ef",
					"verifyPerson(address)": "2faeb9fc"
				}
			},
			"storageLayout": {
				"storage": [
					{
						"astId": 3,
						"contract": "contracts/Register.sol:Register",
						"label": "owner",
						"offset": 0,
						"slot": "0",
						"type": "t_address"
					},
					{
						"astId": 44,
						"contract": "contracts/Register.sol:Register",
						"label": "persons",
						"offset": 0,
						"slot": "1",
						"type": "t_mapping(t_address,t_struct(Person)20_storage)"
					},
					{
						"astId": 49,
						"contract": "contracts/Register.sol:Register",
						"label": "entities",
						"offset": 0,
						"slot": "2",
						"type": "t_mapping(t_address,t_struct(Entity)39_storage)"
					},
					{
						"astId": 53,
						"contract": "contracts/Register.sol:Register",
						"label": "permissionedUsers",
						"offset": 0,
						"slot": "3",
						"type": "t_mapping(t_address,t_bool)"
					}
				],
				"types": {
					"t_address": {
						"encoding": "inplace",
						"label": "address",
						"numberOfBytes": "20"
					},
					"t_bool": {
						"encoding": "inplace",
						"label": "bool",
						"numberOfBytes": "1"
					},
					"t_mapping(t_address,t_bool)": {
						"encoding": "mapping",
						"key": "t_address",
						"label": "mapping(address => bool)",
						"numberOfBytes": "32",
						"value": "t_bool"
					},
					"t_mapping(t_address,t_struct(Entity)39_storage)": {
						"encoding": "mapping",
						"key": "t_address",
						"label": "mapping(address => struct Register.Entity)",
						"numberOfBytes": "32",
						"value": "t_struct(Entity)39_storage"
					},
					"t_mapping(t_address,t_struct(Person)20_storage)": {
						"encoding": "mapping",
						"key": "t_address",
						"label": "mapping(address => struct Register.Person)",
						"numberOfBytes": "32",
						"value": "t_struct(Person)20_storage"
					},
					"t_string_storage": {
						"encoding": "bytes",
						"label": "string",
						"numberOfBytes": "32"
					},
					"t_struct(Entity)39_storage": {
						"encoding": "inplace",
						"label": "struct Register.Entity",
						"members": [
							{
								"astId": 22,
								"contract": "contracts/Register.sol:Register",
								"label": "name",
								"offset": 0,
								"slot": "0",
								"type": "t_string_storage"
							},
							{
								"astId": 24,
								"contract": "contracts/Register.sol:Register",
								"label": "addressPhysical",
								"offset": 0,
								"slot": "1",
								"type": "t_string_storage"
							},
							{
								"astId": 26,
								"contract": "contracts/Register.sol:Register",
								"label": "responsiblePerson",
								"offset": 0,
								"slot": "2",
								"type": "t_string_storage"
							},
							{
								"astId": 28,
								"contract": "contracts/Register.sol:Register",
								"label": "phone",
								"offset": 0,
								"slot": "3",
								"type": "t_string_storage"
							},
							{
								"astId": 30,
								"contract": "contracts/Register.sol:Register",
								"label": "ciResponsible",
								"offset": 0,
								"slot": "4",
								"type": "t_string_storage"
							},
							{
								"astId": 32,
								"contract": "contracts/Register.sol:Register",
								"label": "photo",
								"offset": 0,
								"slot": "5",
								"type": "t_string_storage"
							},
							{
								"astId": 34,
								"contract": "contracts/Register.sol:Register",
								"label": "idCardPhoto",
								"offset": 0,
								"slot": "6",
								"type": "t_string_storage"
							},
							{
								"astId": 36,
								"contract": "contracts/Register.sol:Register",
								"label": "placePhoto",
								"offset": 0,
								"slot": "7",
								"type": "t_string_storage"
							},
							{
								"astId": 38,
								"contract": "contracts/Register.sol:Register",
								"label": "isVerified",
								"offset": 0,
								"slot": "8",
								"type": "t_bool"
							}
						],
						"numberOfBytes": "288"
					},
					"t_struct(Person)20_storage": {
						"encoding": "inplace",
						"label": "struct Register.Person",
						"members": [
							{
								"astId": 5,
								"contract": "contracts/Register.sol:Register",
								"label": "name",
								"offset": 0,
								"slot": "0",
								"type": "t_string_storage"
							},
							{
								"astId": 7,
								"contract": "contracts/Register.sol:Register",
								"label": "age",
								"offset": 0,
								"slot": "1",
								"type": "t_uint256"
							},
							{
								"astId": 9,
								"contract": "contracts/Register.sol:Register",
								"label": "addressPhysical",
								"offset": 0,
								"slot": "2",
								"type": "t_string_storage"
							},
							{
								"astId": 11,
								"contract": "contracts/Register.sol:Register",
								"label": "phone",
								"offset": 0,
								"slot": "3",
								"type": "t_string_storage"
							},
							{
								"astId": 13,
								"contract": "contracts/Register.sol:Register",
								"label": "ci",
								"offset": 0,
								"slot": "4",
								"type": "t_string_storage"
							},
							{
								"astId": 15,
								"contract": "contracts/Register.sol:Register",
								"label": "photo",
								"offset": 0,
								"slot": "5",
								"type": "t_string_storage"
							},
							{
								"astId": 17,
								"contract": "contracts/Register.sol:Register",
								"label": "idCardPhoto",
								"offset": 0,
								"slot": "6",
								"type": "t_string_storage"
							},
							{
								"astId": 19,
								"contract": "contracts/Register.sol:Register",
								"label": "isVerified",
								"offset": 0,
								"slot": "7",
								"type": "t_bool"
							}
						],
						"numberOfBytes": "256"
					},
					"t_uint256": {
						"encoding": "inplace",
						"label": "uint256",
						"numberOfBytes": "32"
					}
				}
			},
			"userdoc": {
				"kind": "user",
				"methods": {},
				"version": 1
			}
		}
	}
}