{
	"contracts/Canjear_flattened.sol": {
		"Canjear": {
			"abi": [
				{
					"inputs": [],
					"stateMutability": "nonpayable",
					"type": "constructor"
				},
				{
					"anonymous": false,
					"inputs": [
						{
							"indexed": true,
							"internalType": "uint256",
							"name": "itemId",
							"type": "uint256"
						},
						{
							"indexed": false,
							"internalType": "string",
							"name": "name",
							"type": "string"
						},
						{
							"indexed": false,
							"internalType": "uint256",
							"name": "stock",
							"type": "uint256"
						},
						{
							"indexed": false,
							"internalType": "uint256",
							"name": "cost",
							"type": "uint256"
						}
					],
					"name": "ItemAdded",
					"type": "event"
				},
				{
					"anonymous": false,
					"inputs": [
						{
							"indexed": true,
							"internalType": "uint256",
							"name": "itemId",
							"type": "uint256"
						},
						{
							"indexed": true,
							"internalType": "address",
							"name": "redeemer",
							"type": "address"
						},
						{
							"indexed": false,
							"internalType": "uint256",
							"name": "cost",
							"type": "uint256"
						}
					],
					"name": "ItemRedeemed",
					"type": "event"
				},
				{
					"inputs": [
						{
							"internalType": "string",
							"name": "_name",
							"type": "string"
						},
						{
							"internalType": "uint256",
							"name": "_stock",
							"type": "uint256"
						},
						{
							"internalType": "uint256",
							"name": "_cost",
							"type": "uint256"
						}
					],
					"name": "addItem",
					"outputs": [],
					"stateMutability": "nonpayable",
					"type": "function"
				},
				{
					"inputs": [
						{
							"internalType": "uint256",
							"name": "_itemId",
							"type": "uint256"
						}
					],
					"name": "getItem",
					"outputs": [
						{
							"internalType": "string",
							"name": "name",
							"type": "string"
						},
						{
							"internalType": "uint256",
							"name": "stock",
							"type": "uint256"
						},
						{
							"internalType": "uint256",
							"name": "cost",
							"type": "uint256"
						}
					],
					"stateMutability": "view",
					"type": "function"
				},
				{
					"inputs": [
						{
							"internalType": "uint256",
							"name": "_itemId",
							"type": "uint256"
						}
					],
					"name": "redeemItem",
					"outputs": [],
					"stateMutability": "nonpayable",
					"type": "function"
				}
			],
			"devdoc": {
				"kind": "dev",
				"methods": {},
				"version": 1
			},
			"evm": {
				"assembly": "    /* \"contracts/Canjear_flattened.sol\":26085:27670  contract Canjear {... */\n  mstore(0x40, 0x80)\n    /* \"contracts/Canjear_flattened.sol\":26293:26294  0 */\n  0x00\n    /* \"contracts/Canjear_flattened.sol\":26264:26294  uint256 private nextItemId = 0 */\n  0x02\n  sstore\n    /* \"contracts/Canjear_flattened.sol\":26630:26758  constructor() {... */\n  callvalue\n  dup1\n  iszero\n  tag_1\n  jumpi\n  0x00\n  dup1\n  revert\ntag_1:\n  pop\n    /* \"contracts/Canjear_flattened.sol\":26680:26722  0xE6e5aF029ed89Bf93D80Baea93BCBd9350dbFfb8 */\n  0xe6e5af029ed89bf93d80baea93bcbd9350dbffb8\n    /* \"contracts/Canjear_flattened.sol\":26654:26665  helPetToken */\n  0x00\n  dup1\n    /* \"contracts/Canjear_flattened.sol\":26654:26723  helPetToken = HelpetToken(0xE6e5aF029ed89Bf93D80Baea93BCBd9350dbFfb8) */\n  0x0100\n  exp\n  dup2\n  sload\n  dup2\n  0xffffffffffffffffffffffffffffffffffffffff\n  mul\n  not\n  and\n  swap1\n  dup4\n  0xffffffffffffffffffffffffffffffffffffffff\n  and\n  mul\n  or\n  swap1\n  sstore\n  pop\n    /* \"contracts/Canjear_flattened.sol\":26741:26751  msg.sender */\n  caller\n    /* \"contracts/Canjear_flattened.sol\":26733:26738  owner */\n  0x01\n  0x00\n    /* \"contracts/Canjear_flattened.sol\":26733:26751  owner = msg.sender */\n  0x0100\n  exp\n  dup2\n  sload\n  dup2\n  0xffffffffffffffffffffffffffffffffffffffff\n  mul\n  not\n  and\n  swap1\n  dup4\n  0xffffffffffffffffffffffffffffffffffffffff\n  and\n  mul\n  or\n  swap1\n  sstore\n  pop\n    /* \"contracts/Canjear_flattened.sol\":26085:27670  contract Canjear {... */\n  dataSize(sub_0)\n  dup1\n  dataOffset(sub_0)\n  0x00\n  codecopy\n  0x00\n  return\nstop\n\nsub_0: assembly {\n        /* \"contracts/Canjear_flattened.sol\":26085:27670  contract Canjear {... */\n      mstore(0x40, 0x80)\n      callvalue\n      dup1\n      iszero\n      tag_1\n      jumpi\n      0x00\n      dup1\n      revert\n    tag_1:\n      pop\n      jumpi(tag_2, lt(calldatasize, 0x04))\n      shr(0xe0, calldataload(0x00))\n      dup1\n      0x1c26dc23\n      eq\n      tag_3\n      jumpi\n      dup1\n      0x3129e773\n      eq\n      tag_4\n      jumpi\n      dup1\n      0xd5e6c333\n      eq\n      tag_5\n      jumpi\n    tag_2:\n      0x00\n      dup1\n      revert\n        /* \"contracts/Canjear_flattened.sol\":27076:27456  function redeemItem(uint256 _itemId) public {... */\n    tag_3:\n      tag_6\n      0x04\n      dup1\n      calldatasize\n      sub\n      dup2\n      add\n      swap1\n      tag_7\n      swap2\n      swap1\n      tag_8\n      jump\t// in\n    tag_7:\n      tag_9\n      jump\t// in\n    tag_6:\n      stop\n        /* \"contracts/Canjear_flattened.sol\":27462:27668  function getItem(uint256 _itemId) public view returns (string memory name, uint256 stock, uint256 cost) {... */\n    tag_4:\n      tag_10\n      0x04\n      dup1\n      calldatasize\n      sub\n      dup2\n      add\n      swap1\n      tag_11\n      swap2\n      swap1\n      tag_8\n      jump\t// in\n    tag_11:\n      tag_12\n      jump\t// in\n    tag_10:\n      mload(0x40)\n      tag_13\n      swap4\n      swap3\n      swap2\n      swap1\n      tag_14\n      jump\t// in\n    tag_13:\n      mload(0x40)\n      dup1\n      swap2\n      sub\n      swap1\n      return\n        /* \"contracts/Canjear_flattened.sol\":26764:27070  function addItem(string memory _name, uint256 _stock, uint256 _cost) public onlyOwner {... */\n    tag_5:\n      tag_15\n      0x04\n      dup1\n      calldatasize\n      sub\n      dup2\n      add\n      swap1\n      tag_16\n      swap2\n      swap1\n      tag_17\n      jump\t// in\n    tag_16:\n      tag_18\n      jump\t// in\n    tag_15:\n      stop\n        /* \"contracts/Canjear_flattened.sol\":27076:27456  function redeemItem(uint256 _itemId) public {... */\n    tag_9:\n        /* \"contracts/Canjear_flattened.sol\":27130:27147  Item storage item */\n      0x00\n        /* \"contracts/Canjear_flattened.sol\":27150:27155  items */\n      0x03\n        /* \"contracts/Canjear_flattened.sol\":27150:27164  items[_itemId] */\n      0x00\n        /* \"contracts/Canjear_flattened.sol\":27156:27163  _itemId */\n      dup4\n        /* \"contracts/Canjear_flattened.sol\":27150:27164  items[_itemId] */\n      dup2\n      mstore\n      0x20\n      add\n      swap1\n      dup2\n      mstore\n      0x20\n      add\n      0x00\n      keccak256\n        /* \"contracts/Canjear_flattened.sol\":27130:27164  Item storage item = items[_itemId] */\n      swap1\n      pop\n        /* \"contracts/Canjear_flattened.sol\":27195:27196  0 */\n      0x00\n        /* \"contracts/Canjear_flattened.sol\":27182:27186  item */\n      dup2\n        /* \"contracts/Canjear_flattened.sol\":27182:27192  item.stock */\n      0x01\n      add\n      sload\n        /* \"contracts/Canjear_flattened.sol\":27182:27196  item.stock > 0 */\n      gt\n        /* \"contracts/Canjear_flattened.sol\":27174:27218  require(item.stock > 0, \"Item out of stock\") */\n      tag_20\n      jumpi\n      mload(0x40)\n      0x08c379a000000000000000000000000000000000000000000000000000000000\n      dup2\n      mstore\n      0x04\n      add\n      tag_21\n      swap1\n      tag_22\n      jump\t// in\n    tag_21:\n      mload(0x40)\n      dup1\n      swap2\n      sub\n      swap1\n      revert\n    tag_20:\n        /* \"contracts/Canjear_flattened.sol\":27273:27277  item */\n      dup1\n        /* \"contracts/Canjear_flattened.sol\":27273:27282  item.cost */\n      0x02\n      add\n      sload\n        /* \"contracts/Canjear_flattened.sol\":27236:27247  helPetToken */\n      0x00\n      dup1\n      sload\n      swap1\n      0x0100\n      exp\n      swap1\n      div\n      0xffffffffffffffffffffffffffffffffffffffff\n      and\n        /* \"contracts/Canjear_flattened.sol\":27236:27257  helPetToken.balanceOf */\n      0xffffffffffffffffffffffffffffffffffffffff\n      and\n      0x70a08231\n        /* \"contracts/Canjear_flattened.sol\":27258:27268  msg.sender */\n      caller\n        /* \"contracts/Canjear_flattened.sol\":27236:27269  helPetToken.balanceOf(msg.sender) */\n      mload(0x40)\n      dup3\n      0xffffffff\n      and\n      0xe0\n      shl\n      dup2\n      mstore\n      0x04\n      add\n      tag_23\n      swap2\n      swap1\n      tag_24\n      jump\t// in\n    tag_23:\n      0x20\n      mload(0x40)\n      dup1\n      dup4\n      sub\n      dup2\n      dup7\n      gas\n      staticcall\n      iszero\n      dup1\n      iszero\n      tag_26\n      jumpi\n      returndatasize\n      0x00\n      dup1\n      returndatacopy\n      revert(0x00, returndatasize)\n    tag_26:\n      pop\n      pop\n      pop\n      pop\n      mload(0x40)\n      returndatasize\n      not(0x1f)\n      0x1f\n      dup3\n      add\n      and\n      dup3\n      add\n      dup1\n      0x40\n      mstore\n      pop\n      dup2\n      add\n      swap1\n      tag_27\n      swap2\n      swap1\n      tag_28\n      jump\t// in\n    tag_27:\n        /* \"contracts/Canjear_flattened.sol\":27236:27282  helPetToken.balanceOf(msg.sender) >= item.cost */\n      lt\n      iszero\n        /* \"contracts/Canjear_flattened.sol\":27228:27313  require(helPetToken.balanceOf(msg.sender) >= item.cost, \"Insufficient HelPet tokens\") */\n      tag_29\n      jumpi\n      mload(0x40)\n      0x08c379a000000000000000000000000000000000000000000000000000000000\n      dup2\n      mstore\n      0x04\n      add\n      tag_30\n      swap1\n      tag_31\n      jump\t// in\n    tag_30:\n      mload(0x40)\n      dup1\n      swap2\n      sub\n      swap1\n      revert\n    tag_29:\n        /* \"contracts/Canjear_flattened.sol\":27324:27335  helPetToken */\n      0x00\n      dup1\n      sload\n      swap1\n      0x0100\n      exp\n      swap1\n      div\n      0xffffffffffffffffffffffffffffffffffffffff\n      and\n        /* \"contracts/Canjear_flattened.sol\":27324:27340  helPetToken.burn */\n      0xffffffffffffffffffffffffffffffffffffffff\n      and\n      0x9dc29fac\n        /* \"contracts/Canjear_flattened.sol\":27341:27351  msg.sender */\n      caller\n        /* \"contracts/Canjear_flattened.sol\":27353:27357  item */\n      dup4\n        /* \"contracts/Canjear_flattened.sol\":27353:27362  item.cost */\n      0x02\n      add\n      sload\n        /* \"contracts/Canjear_flattened.sol\":27324:27363  helPetToken.burn(msg.sender, item.cost) */\n      mload(0x40)\n      dup4\n      0xffffffff\n      and\n      0xe0\n      shl\n      dup2\n      mstore\n      0x04\n      add\n      tag_32\n      swap3\n      swap2\n      swap1\n      tag_33\n      jump\t// in\n    tag_32:\n      0x00\n      mload(0x40)\n      dup1\n      dup4\n      sub\n      dup2\n      0x00\n      dup8\n      dup1\n      extcodesize\n      iszero\n      dup1\n      iszero\n      tag_34\n      jumpi\n      0x00\n      dup1\n      revert\n    tag_34:\n      pop\n      gas\n      call\n      iszero\n      dup1\n      iszero\n      tag_36\n      jumpi\n      returndatasize\n      0x00\n      dup1\n      returndatacopy\n      revert(0x00, returndatasize)\n    tag_36:\n      pop\n      pop\n      pop\n      pop\n        /* \"contracts/Canjear_flattened.sol\":27388:27389  1 */\n      0x01\n        /* \"contracts/Canjear_flattened.sol\":27374:27378  item */\n      dup2\n        /* \"contracts/Canjear_flattened.sol\":27374:27384  item.stock */\n      0x01\n      add\n      0x00\n        /* \"contracts/Canjear_flattened.sol\":27374:27389  item.stock -= 1 */\n      dup3\n      dup3\n      sload\n      tag_37\n      swap2\n      swap1\n      tag_38\n      jump\t// in\n    tag_37:\n      swap3\n      pop\n      pop\n      dup2\n      swap1\n      sstore\n      pop\n        /* \"contracts/Canjear_flattened.sol\":27427:27437  msg.sender */\n      caller\n        /* \"contracts/Canjear_flattened.sol\":27405:27449  ItemRedeemed(_itemId, msg.sender, item.cost) */\n      0xffffffffffffffffffffffffffffffffffffffff\n      and\n        /* \"contracts/Canjear_flattened.sol\":27418:27425  _itemId */\n      dup3\n        /* \"contracts/Canjear_flattened.sol\":27405:27449  ItemRedeemed(_itemId, msg.sender, item.cost) */\n      0x204872e2f38e4c26bc731e8258c7029825f7abd18f39192c2cee4618c8f8f37a\n        /* \"contracts/Canjear_flattened.sol\":27439:27443  item */\n      dup4\n        /* \"contracts/Canjear_flattened.sol\":27439:27448  item.cost */\n      0x02\n      add\n      sload\n        /* \"contracts/Canjear_flattened.sol\":27405:27449  ItemRedeemed(_itemId, msg.sender, item.cost) */\n      mload(0x40)\n      tag_39\n      swap2\n      swap1\n      tag_40\n      jump\t// in\n    tag_39:\n      mload(0x40)\n      dup1\n      swap2\n      sub\n      swap1\n      log3\n        /* \"contracts/Canjear_flattened.sol\":27120:27456  {... */\n      pop\n        /* \"contracts/Canjear_flattened.sol\":27076:27456  function redeemItem(uint256 _itemId) public {... */\n      pop\n      jump\t// out\n        /* \"contracts/Canjear_flattened.sol\":27462:27668  function getItem(uint256 _itemId) public view returns (string memory name, uint256 stock, uint256 cost) {... */\n    tag_12:\n        /* \"contracts/Canjear_flattened.sol\":27517:27535  string memory name */\n      0x60\n        /* \"contracts/Canjear_flattened.sol\":27537:27550  uint256 stock */\n      0x00\n        /* \"contracts/Canjear_flattened.sol\":27552:27564  uint256 cost */\n      dup1\n        /* \"contracts/Canjear_flattened.sol\":27576:27593  Item storage item */\n      0x00\n        /* \"contracts/Canjear_flattened.sol\":27596:27601  items */\n      0x03\n        /* \"contracts/Canjear_flattened.sol\":27596:27610  items[_itemId] */\n      0x00\n        /* \"contracts/Canjear_flattened.sol\":27602:27609  _itemId */\n      dup7\n        /* \"contracts/Canjear_flattened.sol\":27596:27610  items[_itemId] */\n      dup2\n      mstore\n      0x20\n      add\n      swap1\n      dup2\n      mstore\n      0x20\n      add\n      0x00\n      keccak256\n        /* \"contracts/Canjear_flattened.sol\":27576:27610  Item storage item = items[_itemId] */\n      swap1\n      pop\n        /* \"contracts/Canjear_flattened.sol\":27628:27632  item */\n      dup1\n        /* \"contracts/Canjear_flattened.sol\":27628:27637  item.name */\n      0x00\n      add\n        /* \"contracts/Canjear_flattened.sol\":27639:27643  item */\n      dup2\n        /* \"contracts/Canjear_flattened.sol\":27639:27649  item.stock */\n      0x01\n      add\n      sload\n        /* \"contracts/Canjear_flattened.sol\":27651:27655  item */\n      dup3\n        /* \"contracts/Canjear_flattened.sol\":27651:27660  item.cost */\n      0x02\n      add\n      sload\n        /* \"contracts/Canjear_flattened.sol\":27620:27661  return (item.name, item.stock, item.cost) */\n      dup3\n      dup1\n      sload\n      tag_42\n      swap1\n      tag_43\n      jump\t// in\n    tag_42:\n      dup1\n      0x1f\n      add\n      0x20\n      dup1\n      swap2\n      div\n      mul\n      0x20\n      add\n      mload(0x40)\n      swap1\n      dup2\n      add\n      0x40\n      mstore\n      dup1\n      swap3\n      swap2\n      swap1\n      dup2\n      dup2\n      mstore\n      0x20\n      add\n      dup3\n      dup1\n      sload\n      tag_44\n      swap1\n      tag_43\n      jump\t// in\n    tag_44:\n      dup1\n      iszero\n      tag_45\n      jumpi\n      dup1\n      0x1f\n      lt\n      tag_46\n      jumpi\n      0x0100\n      dup1\n      dup4\n      sload\n      div\n      mul\n      dup4\n      mstore\n      swap2\n      0x20\n      add\n      swap2\n      jump(tag_45)\n    tag_46:\n      dup3\n      add\n      swap2\n      swap1\n      0x00\n      mstore\n      keccak256(0x00, 0x20)\n      swap1\n    tag_47:\n      dup2\n      sload\n      dup2\n      mstore\n      swap1\n      0x01\n      add\n      swap1\n      0x20\n      add\n      dup1\n      dup4\n      gt\n      tag_47\n      jumpi\n      dup3\n      swap1\n      sub\n      0x1f\n      and\n      dup3\n      add\n      swap2\n    tag_45:\n      pop\n      pop\n      pop\n      pop\n      pop\n      swap3\n      pop\n      swap4\n      pop\n      swap4\n      pop\n      swap4\n      pop\n      pop\n        /* \"contracts/Canjear_flattened.sol\":27462:27668  function getItem(uint256 _itemId) public view returns (string memory name, uint256 stock, uint256 cost) {... */\n      swap2\n      swap4\n      swap1\n      swap3\n      pop\n      jump\t// out\n        /* \"contracts/Canjear_flattened.sol\":26764:27070  function addItem(string memory _name, uint256 _stock, uint256 _cost) public onlyOwner {... */\n    tag_18:\n        /* \"contracts/Canjear_flattened.sol\":26574:26579  owner */\n      0x01\n      0x00\n      swap1\n      sload\n      swap1\n      0x0100\n      exp\n      swap1\n      div\n      0xffffffffffffffffffffffffffffffffffffffff\n      and\n        /* \"contracts/Canjear_flattened.sol\":26560:26579  msg.sender == owner */\n      0xffffffffffffffffffffffffffffffffffffffff\n      and\n        /* \"contracts/Canjear_flattened.sol\":26560:26570  msg.sender */\n      caller\n        /* \"contracts/Canjear_flattened.sol\":26560:26579  msg.sender == owner */\n      0xffffffffffffffffffffffffffffffffffffffff\n      and\n      eq\n        /* \"contracts/Canjear_flattened.sol\":26552:26606  require(msg.sender == owner, \"Not the contract owner\") */\n      tag_49\n      jumpi\n      mload(0x40)\n      0x08c379a000000000000000000000000000000000000000000000000000000000\n      dup2\n      mstore\n      0x04\n      add\n      tag_50\n      swap1\n      tag_51\n      jump\t// in\n    tag_50:\n      mload(0x40)\n      dup1\n      swap2\n      sub\n      swap1\n      revert\n    tag_49:\n        /* \"contracts/Canjear_flattened.sol\":26860:26874  uint256 itemId */\n      0x00\n        /* \"contracts/Canjear_flattened.sol\":26877:26887  nextItemId */\n      0x02\n      0x00\n        /* \"contracts/Canjear_flattened.sol\":26877:26889  nextItemId++ */\n      dup2\n      sload\n      dup1\n      swap3\n      swap2\n      swap1\n      tag_53\n      swap1\n      tag_54\n      jump\t// in\n    tag_53:\n      swap2\n      swap1\n      pop\n      sstore\n        /* \"contracts/Canjear_flattened.sol\":26860:26889  uint256 itemId = nextItemId++ */\n      swap1\n      pop\n        /* \"contracts/Canjear_flattened.sol\":26915:27008  Item({... */\n      mload(0x40)\n      dup1\n      0x60\n      add\n      0x40\n      mstore\n      dup1\n        /* \"contracts/Canjear_flattened.sol\":26940:26945  _name */\n      dup6\n        /* \"contracts/Canjear_flattened.sol\":26915:27008  Item({... */\n      dup2\n      mstore\n      0x20\n      add\n        /* \"contracts/Canjear_flattened.sol\":26966:26972  _stock */\n      dup5\n        /* \"contracts/Canjear_flattened.sol\":26915:27008  Item({... */\n      dup2\n      mstore\n      0x20\n      add\n        /* \"contracts/Canjear_flattened.sol\":26992:26997  _cost */\n      dup4\n        /* \"contracts/Canjear_flattened.sol\":26915:27008  Item({... */\n      dup2\n      mstore\n      pop\n        /* \"contracts/Canjear_flattened.sol\":26899:26904  items */\n      0x03\n        /* \"contracts/Canjear_flattened.sol\":26899:26912  items[itemId] */\n      0x00\n        /* \"contracts/Canjear_flattened.sol\":26905:26911  itemId */\n      dup4\n        /* \"contracts/Canjear_flattened.sol\":26899:26912  items[itemId] */\n      dup2\n      mstore\n      0x20\n      add\n      swap1\n      dup2\n      mstore\n      0x20\n      add\n      0x00\n      keccak256\n        /* \"contracts/Canjear_flattened.sol\":26899:27008  items[itemId] = Item({... */\n      0x00\n      dup3\n      add\n      mload\n      dup2\n      0x00\n      add\n      swap1\n      dup2\n      tag_55\n      swap2\n      swap1\n      tag_56\n      jump\t// in\n    tag_55:\n      pop\n      0x20\n      dup3\n      add\n      mload\n      dup2\n      0x01\n      add\n      sstore\n      0x40\n      dup3\n      add\n      mload\n      dup2\n      0x02\n      add\n      sstore\n      swap1\n      pop\n      pop\n        /* \"contracts/Canjear_flattened.sol\":27034:27040  itemId */\n      dup1\n        /* \"contracts/Canjear_flattened.sol\":27024:27063  ItemAdded(itemId, _name, _stock, _cost) */\n      0x665e452eb624a7f9bf54abd5d404d4f4da7360a1e40698893fe2cc447a51af9c\n        /* \"contracts/Canjear_flattened.sol\":27042:27047  _name */\n      dup6\n        /* \"contracts/Canjear_flattened.sol\":27049:27055  _stock */\n      dup6\n        /* \"contracts/Canjear_flattened.sol\":27057:27062  _cost */\n      dup6\n        /* \"contracts/Canjear_flattened.sol\":27024:27063  ItemAdded(itemId, _name, _stock, _cost) */\n      mload(0x40)\n      tag_57\n      swap4\n      swap3\n      swap2\n      swap1\n      tag_14\n      jump\t// in\n    tag_57:\n      mload(0x40)\n      dup1\n      swap2\n      sub\n      swap1\n      log2\n        /* \"contracts/Canjear_flattened.sol\":26850:27070  {... */\n      pop\n        /* \"contracts/Canjear_flattened.sol\":26764:27070  function addItem(string memory _name, uint256 _stock, uint256 _cost) public onlyOwner {... */\n      pop\n      pop\n      pop\n      jump\t// out\n        /* \"#utility.yul\":7:82   */\n    tag_58:\n        /* \"#utility.yul\":40:46   */\n      0x00\n        /* \"#utility.yul\":73:75   */\n      0x40\n        /* \"#utility.yul\":67:76   */\n      mload\n        /* \"#utility.yul\":57:76   */\n      swap1\n      pop\n        /* \"#utility.yul\":7:82   */\n      swap1\n      jump\t// out\n        /* \"#utility.yul\":88:205   */\n    tag_59:\n        /* \"#utility.yul\":197:198   */\n      0x00\n        /* \"#utility.yul\":194:195   */\n      dup1\n        /* \"#utility.yul\":187:199   */\n      revert\n        /* \"#utility.yul\":211:328   */\n    tag_60:\n        /* \"#utility.yul\":320:321   */\n      0x00\n        /* \"#utility.yul\":317:318   */\n      dup1\n        /* \"#utility.yul\":310:322   */\n      revert\n        /* \"#utility.yul\":334:411   */\n    tag_61:\n        /* \"#utility.yul\":371:378   */\n      0x00\n        /* \"#utility.yul\":400:405   */\n      dup2\n        /* \"#utility.yul\":389:405   */\n      swap1\n      pop\n        /* \"#utility.yul\":334:411   */\n      swap2\n      swap1\n      pop\n      jump\t// out\n        /* \"#utility.yul\":417:539   */\n    tag_62:\n        /* \"#utility.yul\":490:514   */\n      tag_112\n        /* \"#utility.yul\":508:513   */\n      dup2\n        /* \"#utility.yul\":490:514   */\n      tag_61\n      jump\t// in\n    tag_112:\n        /* \"#utility.yul\":483:488   */\n      dup2\n        /* \"#utility.yul\":480:515   */\n      eq\n        /* \"#utility.yul\":470:533   */\n      tag_113\n      jumpi\n        /* \"#utility.yul\":529:530   */\n      0x00\n        /* \"#utility.yul\":526:527   */\n      dup1\n        /* \"#utility.yul\":519:531   */\n      revert\n        /* \"#utility.yul\":470:533   */\n    tag_113:\n        /* \"#utility.yul\":417:539   */\n      pop\n      jump\t// out\n        /* \"#utility.yul\":545:684   */\n    tag_63:\n        /* \"#utility.yul\":591:596   */\n      0x00\n        /* \"#utility.yul\":629:635   */\n      dup2\n        /* \"#utility.yul\":616:636   */\n      calldataload\n        /* \"#utility.yul\":607:636   */\n      swap1\n      pop\n        /* \"#utility.yul\":645:678   */\n      tag_115\n        /* \"#utility.yul\":672:677   */\n      dup2\n        /* \"#utility.yul\":645:678   */\n      tag_62\n      jump\t// in\n    tag_115:\n        /* \"#utility.yul\":545:684   */\n      swap3\n      swap2\n      pop\n      pop\n      jump\t// out\n        /* \"#utility.yul\":690:1019   */\n    tag_8:\n        /* \"#utility.yul\":749:755   */\n      0x00\n        /* \"#utility.yul\":798:800   */\n      0x20\n        /* \"#utility.yul\":786:795   */\n      dup3\n        /* \"#utility.yul\":777:784   */\n      dup5\n        /* \"#utility.yul\":773:796   */\n      sub\n        /* \"#utility.yul\":769:801   */\n      slt\n        /* \"#utility.yul\":766:885   */\n      iszero\n      tag_117\n      jumpi\n        /* \"#utility.yul\":804:883   */\n      tag_118\n      tag_59\n      jump\t// in\n    tag_118:\n        /* \"#utility.yul\":766:885   */\n    tag_117:\n        /* \"#utility.yul\":924:925   */\n      0x00\n        /* \"#utility.yul\":949:1002   */\n      tag_119\n        /* \"#utility.yul\":994:1001   */\n      dup5\n        /* \"#utility.yul\":985:991   */\n      dup3\n        /* \"#utility.yul\":974:983   */\n      dup6\n        /* \"#utility.yul\":970:992   */\n      add\n        /* \"#utility.yul\":949:1002   */\n      tag_63\n      jump\t// in\n    tag_119:\n        /* \"#utility.yul\":939:1002   */\n      swap2\n      pop\n        /* \"#utility.yul\":895:1012   */\n      pop\n        /* \"#utility.yul\":690:1019   */\n      swap3\n      swap2\n      pop\n      pop\n      jump\t// out\n        /* \"#utility.yul\":1025:1124   */\n    tag_64:\n        /* \"#utility.yul\":1077:1083   */\n      0x00\n        /* \"#utility.yul\":1111:1116   */\n      dup2\n        /* \"#utility.yul\":1105:1117   */\n      mload\n        /* \"#utility.yul\":1095:1117   */\n      swap1\n      pop\n        /* \"#utility.yul\":1025:1124   */\n      swap2\n      swap1\n      pop\n      jump\t// out\n        /* \"#utility.yul\":1130:1299   */\n    tag_65:\n        /* \"#utility.yul\":1214:1225   */\n      0x00\n        /* \"#utility.yul\":1248:1254   */\n      dup3\n        /* \"#utility.yul\":1243:1246   */\n      dup3\n        /* \"#utility.yul\":1236:1255   */\n      mstore\n        /* \"#utility.yul\":1288:1292   */\n      0x20\n        /* \"#utility.yul\":1283:1286   */\n      dup3\n        /* \"#utility.yul\":1279:1293   */\n      add\n        /* \"#utility.yul\":1264:1293   */\n      swap1\n      pop\n        /* \"#utility.yul\":1130:1299   */\n      swap3\n      swap2\n      pop\n      pop\n      jump\t// out\n        /* \"#utility.yul\":1305:1444   */\n    tag_66:\n        /* \"#utility.yul\":1394:1400   */\n      dup3\n        /* \"#utility.yul\":1389:1392   */\n      dup2\n        /* \"#utility.yul\":1384:1387   */\n      dup4\n        /* \"#utility.yul\":1378:1401   */\n      mcopy\n        /* \"#utility.yul\":1435:1436   */\n      0x00\n        /* \"#utility.yul\":1426:1432   */\n      dup4\n        /* \"#utility.yul\":1421:1424   */\n      dup4\n        /* \"#utility.yul\":1417:1433   */\n      add\n        /* \"#utility.yul\":1410:1437   */\n      mstore\n        /* \"#utility.yul\":1305:1444   */\n      pop\n      pop\n      pop\n      jump\t// out\n        /* \"#utility.yul\":1450:1552   */\n    tag_67:\n        /* \"#utility.yul\":1491:1497   */\n      0x00\n        /* \"#utility.yul\":1542:1544   */\n      0x1f\n        /* \"#utility.yul\":1538:1545   */\n      not\n        /* \"#utility.yul\":1533:1535   */\n      0x1f\n        /* \"#utility.yul\":1526:1531   */\n      dup4\n        /* \"#utility.yul\":1522:1536   */\n      add\n        /* \"#utility.yul\":1518:1546   */\n      and\n        /* \"#utility.yul\":1508:1546   */\n      swap1\n      pop\n        /* \"#utility.yul\":1450:1552   */\n      swap2\n      swap1\n      pop\n      jump\t// out\n        /* \"#utility.yul\":1558:1935   */\n    tag_68:\n        /* \"#utility.yul\":1646:1649   */\n      0x00\n        /* \"#utility.yul\":1674:1713   */\n      tag_125\n        /* \"#utility.yul\":1707:1712   */\n      dup3\n        /* \"#utility.yul\":1674:1713   */\n      tag_64\n      jump\t// in\n    tag_125:\n        /* \"#utility.yul\":1729:1800   */\n      tag_126\n        /* \"#utility.yul\":1793:1799   */\n      dup2\n        /* \"#utility.yul\":1788:1791   */\n      dup6\n        /* \"#utility.yul\":1729:1800   */\n      tag_65\n      jump\t// in\n    tag_126:\n        /* \"#utility.yul\":1722:1800   */\n      swap4\n      pop\n        /* \"#utility.yul\":1809:1874   */\n      tag_127\n        /* \"#utility.yul\":1867:1873   */\n      dup2\n        /* \"#utility.yul\":1862:1865   */\n      dup6\n        /* \"#utility.yul\":1855:1859   */\n      0x20\n        /* \"#utility.yul\":1848:1853   */\n      dup7\n        /* \"#utility.yul\":1844:1860   */\n      add\n        /* \"#utility.yul\":1809:1874   */\n      tag_66\n      jump\t// in\n    tag_127:\n        /* \"#utility.yul\":1899:1928   */\n      tag_128\n        /* \"#utility.yul\":1921:1927   */\n      dup2\n        /* \"#utility.yul\":1899:1928   */\n      tag_67\n      jump\t// in\n    tag_128:\n        /* \"#utility.yul\":1894:1897   */\n      dup5\n        /* \"#utility.yul\":1890:1929   */\n      add\n        /* \"#utility.yul\":1883:1929   */\n      swap2\n      pop\n        /* \"#utility.yul\":1650:1935   */\n      pop\n        /* \"#utility.yul\":1558:1935   */\n      swap3\n      swap2\n      pop\n      pop\n      jump\t// out\n        /* \"#utility.yul\":1941:2059   */\n    tag_69:\n        /* \"#utility.yul\":2028:2052   */\n      tag_130\n        /* \"#utility.yul\":2046:2051   */\n      dup2\n        /* \"#utility.yul\":2028:2052   */\n      tag_61\n      jump\t// in\n    tag_130:\n        /* \"#utility.yul\":2023:2026   */\n      dup3\n        /* \"#utility.yul\":2016:2053   */\n      mstore\n        /* \"#utility.yul\":1941:2059   */\n      pop\n      pop\n      jump\t// out\n        /* \"#utility.yul\":2065:2598   */\n    tag_14:\n        /* \"#utility.yul\":2234:2238   */\n      0x00\n        /* \"#utility.yul\":2272:2274   */\n      0x60\n        /* \"#utility.yul\":2261:2270   */\n      dup3\n        /* \"#utility.yul\":2257:2275   */\n      add\n        /* \"#utility.yul\":2249:2275   */\n      swap1\n      pop\n        /* \"#utility.yul\":2321:2330   */\n      dup2\n        /* \"#utility.yul\":2315:2319   */\n      dup2\n        /* \"#utility.yul\":2311:2331   */\n      sub\n        /* \"#utility.yul\":2307:2308   */\n      0x00\n        /* \"#utility.yul\":2296:2305   */\n      dup4\n        /* \"#utility.yul\":2292:2309   */\n      add\n        /* \"#utility.yul\":2285:2332   */\n      mstore\n        /* \"#utility.yul\":2349:2427   */\n      tag_132\n        /* \"#utility.yul\":2422:2426   */\n      dup2\n        /* \"#utility.yul\":2413:2419   */\n      dup7\n        /* \"#utility.yul\":2349:2427   */\n      tag_68\n      jump\t// in\n    tag_132:\n        /* \"#utility.yul\":2341:2427   */\n      swap1\n      pop\n        /* \"#utility.yul\":2437:2509   */\n      tag_133\n        /* \"#utility.yul\":2505:2507   */\n      0x20\n        /* \"#utility.yul\":2494:2503   */\n      dup4\n        /* \"#utility.yul\":2490:2508   */\n      add\n        /* \"#utility.yul\":2481:2487   */\n      dup6\n        /* \"#utility.yul\":2437:2509   */\n      tag_69\n      jump\t// in\n    tag_133:\n        /* \"#utility.yul\":2519:2591   */\n      tag_134\n        /* \"#utility.yul\":2587:2589   */\n      0x40\n        /* \"#utility.yul\":2576:2585   */\n      dup4\n        /* \"#utility.yul\":2572:2590   */\n      add\n        /* \"#utility.yul\":2563:2569   */\n      dup5\n        /* \"#utility.yul\":2519:2591   */\n      tag_69\n      jump\t// in\n    tag_134:\n        /* \"#utility.yul\":2065:2598   */\n      swap5\n      swap4\n      pop\n      pop\n      pop\n      pop\n      jump\t// out\n        /* \"#utility.yul\":2604:2721   */\n    tag_70:\n        /* \"#utility.yul\":2713:2714   */\n      0x00\n        /* \"#utility.yul\":2710:2711   */\n      dup1\n        /* \"#utility.yul\":2703:2715   */\n      revert\n        /* \"#utility.yul\":2727:2844   */\n    tag_71:\n        /* \"#utility.yul\":2836:2837   */\n      0x00\n        /* \"#utility.yul\":2833:2834   */\n      dup1\n        /* \"#utility.yul\":2826:2838   */\n      revert\n        /* \"#utility.yul\":2850:3030   */\n    tag_72:\n        /* \"#utility.yul\":2898:2975   */\n      0x4e487b7100000000000000000000000000000000000000000000000000000000\n        /* \"#utility.yul\":2895:2896   */\n      0x00\n        /* \"#utility.yul\":2888:2976   */\n      mstore\n        /* \"#utility.yul\":2995:2999   */\n      0x41\n        /* \"#utility.yul\":2992:2993   */\n      0x04\n        /* \"#utility.yul\":2985:3000   */\n      mstore\n        /* \"#utility.yul\":3019:3023   */\n      0x24\n        /* \"#utility.yul\":3016:3017   */\n      0x00\n        /* \"#utility.yul\":3009:3024   */\n      revert\n        /* \"#utility.yul\":3036:3317   */\n    tag_73:\n        /* \"#utility.yul\":3119:3146   */\n      tag_139\n        /* \"#utility.yul\":3141:3145   */\n      dup3\n        /* \"#utility.yul\":3119:3146   */\n      tag_67\n      jump\t// in\n    tag_139:\n        /* \"#utility.yul\":3111:3117   */\n      dup2\n        /* \"#utility.yul\":3107:3147   */\n      add\n        /* \"#utility.yul\":3249:3255   */\n      dup2\n        /* \"#utility.yul\":3237:3247   */\n      dup2\n        /* \"#utility.yul\":3234:3256   */\n      lt\n        /* \"#utility.yul\":3213:3231   */\n      0xffffffffffffffff\n        /* \"#utility.yul\":3201:3211   */\n      dup3\n        /* \"#utility.yul\":3198:3232   */\n      gt\n        /* \"#utility.yul\":3195:3257   */\n      or\n        /* \"#utility.yul\":3192:3280   */\n      iszero\n      tag_140\n      jumpi\n        /* \"#utility.yul\":3260:3278   */\n      tag_141\n      tag_72\n      jump\t// in\n    tag_141:\n        /* \"#utility.yul\":3192:3280   */\n    tag_140:\n        /* \"#utility.yul\":3300:3310   */\n      dup1\n        /* \"#utility.yul\":3296:3298   */\n      0x40\n        /* \"#utility.yul\":3289:3311   */\n      mstore\n        /* \"#utility.yul\":3079:3317   */\n      pop\n        /* \"#utility.yul\":3036:3317   */\n      pop\n      pop\n      jump\t// out\n        /* \"#utility.yul\":3323:3452   */\n    tag_74:\n        /* \"#utility.yul\":3357:3363   */\n      0x00\n        /* \"#utility.yul\":3384:3404   */\n      tag_143\n      tag_58\n      jump\t// in\n    tag_143:\n        /* \"#utility.yul\":3374:3404   */\n      swap1\n      pop\n        /* \"#utility.yul\":3413:3446   */\n      tag_144\n        /* \"#utility.yul\":3441:3445   */\n      dup3\n        /* \"#utility.yul\":3433:3439   */\n      dup3\n        /* \"#utility.yul\":3413:3446   */\n      tag_73\n      jump\t// in\n    tag_144:\n        /* \"#utility.yul\":3323:3452   */\n      swap2\n      swap1\n      pop\n      jump\t// out\n        /* \"#utility.yul\":3458:3766   */\n    tag_75:\n        /* \"#utility.yul\":3520:3524   */\n      0x00\n        /* \"#utility.yul\":3610:3628   */\n      0xffffffffffffffff\n        /* \"#utility.yul\":3602:3608   */\n      dup3\n        /* \"#utility.yul\":3599:3629   */\n      gt\n        /* \"#utility.yul\":3596:3652   */\n      iszero\n      tag_146\n      jumpi\n        /* \"#utility.yul\":3632:3650   */\n      tag_147\n      tag_72\n      jump\t// in\n    tag_147:\n        /* \"#utility.yul\":3596:3652   */\n    tag_146:\n        /* \"#utility.yul\":3670:3699   */\n      tag_148\n        /* \"#utility.yul\":3692:3698   */\n      dup3\n        /* \"#utility.yul\":3670:3699   */\n      tag_67\n      jump\t// in\n    tag_148:\n        /* \"#utility.yul\":3662:3699   */\n      swap1\n      pop\n        /* \"#utility.yul\":3754:3758   */\n      0x20\n        /* \"#utility.yul\":3748:3752   */\n      dup2\n        /* \"#utility.yul\":3744:3759   */\n      add\n        /* \"#utility.yul\":3736:3759   */\n      swap1\n      pop\n        /* \"#utility.yul\":3458:3766   */\n      swap2\n      swap1\n      pop\n      jump\t// out\n        /* \"#utility.yul\":3772:3920   */\n    tag_76:\n        /* \"#utility.yul\":3870:3876   */\n      dup3\n        /* \"#utility.yul\":3865:3868   */\n      dup2\n        /* \"#utility.yul\":3860:3863   */\n      dup4\n        /* \"#utility.yul\":3847:3877   */\n      calldatacopy\n        /* \"#utility.yul\":3911:3912   */\n      0x00\n        /* \"#utility.yul\":3902:3908   */\n      dup4\n        /* \"#utility.yul\":3897:3900   */\n      dup4\n        /* \"#utility.yul\":3893:3909   */\n      add\n        /* \"#utility.yul\":3886:3913   */\n      mstore\n        /* \"#utility.yul\":3772:3920   */\n      pop\n      pop\n      pop\n      jump\t// out\n        /* \"#utility.yul\":3926:4351   */\n    tag_77:\n        /* \"#utility.yul\":4004:4009   */\n      0x00\n        /* \"#utility.yul\":4029:4095   */\n      tag_151\n        /* \"#utility.yul\":4045:4094   */\n      tag_152\n        /* \"#utility.yul\":4087:4093   */\n      dup5\n        /* \"#utility.yul\":4045:4094   */\n      tag_75\n      jump\t// in\n    tag_152:\n        /* \"#utility.yul\":4029:4095   */\n      tag_74\n      jump\t// in\n    tag_151:\n        /* \"#utility.yul\":4020:4095   */\n      swap1\n      pop\n        /* \"#utility.yul\":4118:4124   */\n      dup3\n        /* \"#utility.yul\":4111:4116   */\n      dup2\n        /* \"#utility.yul\":4104:4125   */\n      mstore\n        /* \"#utility.yul\":4156:4160   */\n      0x20\n        /* \"#utility.yul\":4149:4154   */\n      dup2\n        /* \"#utility.yul\":4145:4161   */\n      add\n        /* \"#utility.yul\":4194:4197   */\n      dup5\n        /* \"#utility.yul\":4185:4191   */\n      dup5\n        /* \"#utility.yul\":4180:4183   */\n      dup5\n        /* \"#utility.yul\":4176:4192   */\n      add\n        /* \"#utility.yul\":4173:4198   */\n      gt\n        /* \"#utility.yul\":4170:4282   */\n      iszero\n      tag_153\n      jumpi\n        /* \"#utility.yul\":4201:4280   */\n      tag_154\n      tag_71\n      jump\t// in\n    tag_154:\n        /* \"#utility.yul\":4170:4282   */\n    tag_153:\n        /* \"#utility.yul\":4291:4345   */\n      tag_155\n        /* \"#utility.yul\":4338:4344   */\n      dup5\n        /* \"#utility.yul\":4333:4336   */\n      dup3\n        /* \"#utility.yul\":4328:4331   */\n      dup6\n        /* \"#utility.yul\":4291:4345   */\n      tag_76\n      jump\t// in\n    tag_155:\n        /* \"#utility.yul\":4010:4351   */\n      pop\n        /* \"#utility.yul\":3926:4351   */\n      swap4\n      swap3\n      pop\n      pop\n      pop\n      jump\t// out\n        /* \"#utility.yul\":4371:4711   */\n    tag_78:\n        /* \"#utility.yul\":4427:4432   */\n      0x00\n        /* \"#utility.yul\":4476:4479   */\n      dup3\n        /* \"#utility.yul\":4469:4473   */\n      0x1f\n        /* \"#utility.yul\":4461:4467   */\n      dup4\n        /* \"#utility.yul\":4457:4474   */\n      add\n        /* \"#utility.yul\":4453:4480   */\n      slt\n        /* \"#utility.yul\":4443:4565   */\n      tag_157\n      jumpi\n        /* \"#utility.yul\":4484:4563   */\n      tag_158\n      tag_70\n      jump\t// in\n    tag_158:\n        /* \"#utility.yul\":4443:4565   */\n    tag_157:\n        /* \"#utility.yul\":4601:4607   */\n      dup2\n        /* \"#utility.yul\":4588:4608   */\n      calldataload\n        /* \"#utility.yul\":4626:4705   */\n      tag_159\n        /* \"#utility.yul\":4701:4704   */\n      dup5\n        /* \"#utility.yul\":4693:4699   */\n      dup3\n        /* \"#utility.yul\":4686:4690   */\n      0x20\n        /* \"#utility.yul\":4678:4684   */\n      dup7\n        /* \"#utility.yul\":4674:4691   */\n      add\n        /* \"#utility.yul\":4626:4705   */\n      tag_77\n      jump\t// in\n    tag_159:\n        /* \"#utility.yul\":4617:4705   */\n      swap2\n      pop\n        /* \"#utility.yul\":4433:4711   */\n      pop\n        /* \"#utility.yul\":4371:4711   */\n      swap3\n      swap2\n      pop\n      pop\n      jump\t// out\n        /* \"#utility.yul\":4717:5516   */\n    tag_17:\n        /* \"#utility.yul\":4804:4810   */\n      0x00\n        /* \"#utility.yul\":4812:4818   */\n      dup1\n        /* \"#utility.yul\":4820:4826   */\n      0x00\n        /* \"#utility.yul\":4869:4871   */\n      0x60\n        /* \"#utility.yul\":4857:4866   */\n      dup5\n        /* \"#utility.yul\":4848:4855   */\n      dup7\n        /* \"#utility.yul\":4844:4867   */\n      sub\n        /* \"#utility.yul\":4840:4872   */\n      slt\n        /* \"#utility.yul\":4837:4956   */\n      iszero\n      tag_161\n      jumpi\n        /* \"#utility.yul\":4875:4954   */\n      tag_162\n      tag_59\n      jump\t// in\n    tag_162:\n        /* \"#utility.yul\":4837:4956   */\n    tag_161:\n        /* \"#utility.yul\":5023:5024   */\n      0x00\n        /* \"#utility.yul\":5012:5021   */\n      dup5\n        /* \"#utility.yul\":5008:5025   */\n      add\n        /* \"#utility.yul\":4995:5026   */\n      calldataload\n        /* \"#utility.yul\":5053:5071   */\n      0xffffffffffffffff\n        /* \"#utility.yul\":5045:5051   */\n      dup2\n        /* \"#utility.yul\":5042:5072   */\n      gt\n        /* \"#utility.yul\":5039:5156   */\n      iszero\n      tag_163\n      jumpi\n        /* \"#utility.yul\":5075:5154   */\n      tag_164\n      tag_60\n      jump\t// in\n    tag_164:\n        /* \"#utility.yul\":5039:5156   */\n    tag_163:\n        /* \"#utility.yul\":5180:5243   */\n      tag_165\n        /* \"#utility.yul\":5235:5242   */\n      dup7\n        /* \"#utility.yul\":5226:5232   */\n      dup3\n        /* \"#utility.yul\":5215:5224   */\n      dup8\n        /* \"#utility.yul\":5211:5233   */\n      add\n        /* \"#utility.yul\":5180:5243   */\n      tag_78\n      jump\t// in\n    tag_165:\n        /* \"#utility.yul\":5170:5243   */\n      swap4\n      pop\n        /* \"#utility.yul\":4966:5253   */\n      pop\n        /* \"#utility.yul\":5292:5294   */\n      0x20\n        /* \"#utility.yul\":5318:5371   */\n      tag_166\n        /* \"#utility.yul\":5363:5370   */\n      dup7\n        /* \"#utility.yul\":5354:5360   */\n      dup3\n        /* \"#utility.yul\":5343:5352   */\n      dup8\n        /* \"#utility.yul\":5339:5361   */\n      add\n        /* \"#utility.yul\":5318:5371   */\n      tag_63\n      jump\t// in\n    tag_166:\n        /* \"#utility.yul\":5308:5371   */\n      swap3\n      pop\n        /* \"#utility.yul\":5263:5381   */\n      pop\n        /* \"#utility.yul\":5420:5422   */\n      0x40\n        /* \"#utility.yul\":5446:5499   */\n      tag_167\n        /* \"#utility.yul\":5491:5498   */\n      dup7\n        /* \"#utility.yul\":5482:5488   */\n      dup3\n        /* \"#utility.yul\":5471:5480   */\n      dup8\n        /* \"#utility.yul\":5467:5489   */\n      add\n        /* \"#utility.yul\":5446:5499   */\n      tag_63\n      jump\t// in\n    tag_167:\n        /* \"#utility.yul\":5436:5499   */\n      swap2\n      pop\n        /* \"#utility.yul\":5391:5509   */\n      pop\n        /* \"#utility.yul\":4717:5516   */\n      swap3\n      pop\n      swap3\n      pop\n      swap3\n      jump\t// out\n        /* \"#utility.yul\":5522:5689   */\n    tag_79:\n        /* \"#utility.yul\":5662:5681   */\n      0x4974656d206f7574206f662073746f636b000000000000000000000000000000\n        /* \"#utility.yul\":5658:5659   */\n      0x00\n        /* \"#utility.yul\":5650:5656   */\n      dup3\n        /* \"#utility.yul\":5646:5660   */\n      add\n        /* \"#utility.yul\":5639:5682   */\n      mstore\n        /* \"#utility.yul\":5522:5689   */\n      pop\n      jump\t// out\n        /* \"#utility.yul\":5695:6061   */\n    tag_80:\n        /* \"#utility.yul\":5837:5840   */\n      0x00\n        /* \"#utility.yul\":5858:5925   */\n      tag_170\n        /* \"#utility.yul\":5922:5924   */\n      0x11\n        /* \"#utility.yul\":5917:5920   */\n      dup4\n        /* \"#utility.yul\":5858:5925   */\n      tag_65\n      jump\t// in\n    tag_170:\n        /* \"#utility.yul\":5851:5925   */\n      swap2\n      pop\n        /* \"#utility.yul\":5934:6027   */\n      tag_171\n        /* \"#utility.yul\":6023:6026   */\n      dup3\n        /* \"#utility.yul\":5934:6027   */\n      tag_79\n      jump\t// in\n    tag_171:\n        /* \"#utility.yul\":6052:6054   */\n      0x20\n        /* \"#utility.yul\":6047:6050   */\n      dup3\n        /* \"#utility.yul\":6043:6055   */\n      add\n        /* \"#utility.yul\":6036:6055   */\n      swap1\n      pop\n        /* \"#utility.yul\":5695:6061   */\n      swap2\n      swap1\n      pop\n      jump\t// out\n        /* \"#utility.yul\":6067:6486   */\n    tag_22:\n        /* \"#utility.yul\":6233:6237   */\n      0x00\n        /* \"#utility.yul\":6271:6273   */\n      0x20\n        /* \"#utility.yul\":6260:6269   */\n      dup3\n        /* \"#utility.yul\":6256:6274   */\n      add\n        /* \"#utility.yul\":6248:6274   */\n      swap1\n      pop\n        /* \"#utility.yul\":6320:6329   */\n      dup2\n        /* \"#utility.yul\":6314:6318   */\n      dup2\n        /* \"#utility.yul\":6310:6330   */\n      sub\n        /* \"#utility.yul\":6306:6307   */\n      0x00\n        /* \"#utility.yul\":6295:6304   */\n      dup4\n        /* \"#utility.yul\":6291:6308   */\n      add\n        /* \"#utility.yul\":6284:6331   */\n      mstore\n        /* \"#utility.yul\":6348:6479   */\n      tag_173\n        /* \"#utility.yul\":6474:6478   */\n      dup2\n        /* \"#utility.yul\":6348:6479   */\n      tag_80\n      jump\t// in\n    tag_173:\n        /* \"#utility.yul\":6340:6479   */\n      swap1\n      pop\n        /* \"#utility.yul\":6067:6486   */\n      swap2\n      swap1\n      pop\n      jump\t// out\n        /* \"#utility.yul\":6492:6618   */\n    tag_81:\n        /* \"#utility.yul\":6529:6536   */\n      0x00\n        /* \"#utility.yul\":6569:6611   */\n      0xffffffffffffffffffffffffffffffffffffffff\n        /* \"#utility.yul\":6562:6567   */\n      dup3\n        /* \"#utility.yul\":6558:6612   */\n      and\n        /* \"#utility.yul\":6547:6612   */\n      swap1\n      pop\n        /* \"#utility.yul\":6492:6618   */\n      swap2\n      swap1\n      pop\n      jump\t// out\n        /* \"#utility.yul\":6624:6720   */\n    tag_82:\n        /* \"#utility.yul\":6661:6668   */\n      0x00\n        /* \"#utility.yul\":6690:6714   */\n      tag_176\n        /* \"#utility.yul\":6708:6713   */\n      dup3\n        /* \"#utility.yul\":6690:6714   */\n      tag_81\n      jump\t// in\n    tag_176:\n        /* \"#utility.yul\":6679:6714   */\n      swap1\n      pop\n        /* \"#utility.yul\":6624:6720   */\n      swap2\n      swap1\n      pop\n      jump\t// out\n        /* \"#utility.yul\":6726:6844   */\n    tag_83:\n        /* \"#utility.yul\":6813:6837   */\n      tag_178\n        /* \"#utility.yul\":6831:6836   */\n      dup2\n        /* \"#utility.yul\":6813:6837   */\n      tag_82\n      jump\t// in\n    tag_178:\n        /* \"#utility.yul\":6808:6811   */\n      dup3\n        /* \"#utility.yul\":6801:6838   */\n      mstore\n        /* \"#utility.yul\":6726:6844   */\n      pop\n      pop\n      jump\t// out\n        /* \"#utility.yul\":6850:7072   */\n    tag_24:\n        /* \"#utility.yul\":6943:6947   */\n      0x00\n        /* \"#utility.yul\":6981:6983   */\n      0x20\n        /* \"#utility.yul\":6970:6979   */\n      dup3\n        /* \"#utility.yul\":6966:6984   */\n      add\n        /* \"#utility.yul\":6958:6984   */\n      swap1\n      pop\n        /* \"#utility.yul\":6994:7065   */\n      tag_180\n        /* \"#utility.yul\":7062:7063   */\n      0x00\n        /* \"#utility.yul\":7051:7060   */\n      dup4\n        /* \"#utility.yul\":7047:7064   */\n      add\n        /* \"#utility.yul\":7038:7044   */\n      dup5\n        /* \"#utility.yul\":6994:7065   */\n      tag_83\n      jump\t// in\n    tag_180:\n        /* \"#utility.yul\":6850:7072   */\n      swap3\n      swap2\n      pop\n      pop\n      jump\t// out\n        /* \"#utility.yul\":7078:7221   */\n    tag_84:\n        /* \"#utility.yul\":7135:7140   */\n      0x00\n        /* \"#utility.yul\":7166:7172   */\n      dup2\n        /* \"#utility.yul\":7160:7173   */\n      mload\n        /* \"#utility.yul\":7151:7173   */\n      swap1\n      pop\n        /* \"#utility.yul\":7182:7215   */\n      tag_182\n        /* \"#utility.yul\":7209:7214   */\n      dup2\n        /* \"#utility.yul\":7182:7215   */\n      tag_62\n      jump\t// in\n    tag_182:\n        /* \"#utility.yul\":7078:7221   */\n      swap3\n      swap2\n      pop\n      pop\n      jump\t// out\n        /* \"#utility.yul\":7227:7578   */\n    tag_28:\n        /* \"#utility.yul\":7297:7303   */\n      0x00\n        /* \"#utility.yul\":7346:7348   */\n      0x20\n        /* \"#utility.yul\":7334:7343   */\n      dup3\n        /* \"#utility.yul\":7325:7332   */\n      dup5\n        /* \"#utility.yul\":7321:7344   */\n      sub\n        /* \"#utility.yul\":7317:7349   */\n      slt\n        /* \"#utility.yul\":7314:7433   */\n      iszero\n      tag_184\n      jumpi\n        /* \"#utility.yul\":7352:7431   */\n      tag_185\n      tag_59\n      jump\t// in\n    tag_185:\n        /* \"#utility.yul\":7314:7433   */\n    tag_184:\n        /* \"#utility.yul\":7472:7473   */\n      0x00\n        /* \"#utility.yul\":7497:7561   */\n      tag_186\n        /* \"#utility.yul\":7553:7560   */\n      dup5\n        /* \"#utility.yul\":7544:7550   */\n      dup3\n        /* \"#utility.yul\":7533:7542   */\n      dup6\n        /* \"#utility.yul\":7529:7551   */\n      add\n        /* \"#utility.yul\":7497:7561   */\n      tag_84\n      jump\t// in\n    tag_186:\n        /* \"#utility.yul\":7487:7561   */\n      swap2\n      pop\n        /* \"#utility.yul\":7443:7571   */\n      pop\n        /* \"#utility.yul\":7227:7578   */\n      swap3\n      swap2\n      pop\n      pop\n      jump\t// out\n        /* \"#utility.yul\":7584:7760   */\n    tag_85:\n        /* \"#utility.yul\":7724:7752   */\n      0x496e73756666696369656e742048656c50657420746f6b656e73000000000000\n        /* \"#utility.yul\":7720:7721   */\n      0x00\n        /* \"#utility.yul\":7712:7718   */\n      dup3\n        /* \"#utility.yul\":7708:7722   */\n      add\n        /* \"#utility.yul\":7701:7753   */\n      mstore\n        /* \"#utility.yul\":7584:7760   */\n      pop\n      jump\t// out\n        /* \"#utility.yul\":7766:8132   */\n    tag_86:\n        /* \"#utility.yul\":7908:7911   */\n      0x00\n        /* \"#utility.yul\":7929:7996   */\n      tag_189\n        /* \"#utility.yul\":7993:7995   */\n      0x1a\n        /* \"#utility.yul\":7988:7991   */\n      dup4\n        /* \"#utility.yul\":7929:7996   */\n      tag_65\n      jump\t// in\n    tag_189:\n        /* \"#utility.yul\":7922:7996   */\n      swap2\n      pop\n        /* \"#utility.yul\":8005:8098   */\n      tag_190\n        /* \"#utility.yul\":8094:8097   */\n      dup3\n        /* \"#utility.yul\":8005:8098   */\n      tag_85\n      jump\t// in\n    tag_190:\n        /* \"#utility.yul\":8123:8125   */\n      0x20\n        /* \"#utility.yul\":8118:8121   */\n      dup3\n        /* \"#utility.yul\":8114:8126   */\n      add\n        /* \"#utility.yul\":8107:8126   */\n      swap1\n      pop\n        /* \"#utility.yul\":7766:8132   */\n      swap2\n      swap1\n      pop\n      jump\t// out\n        /* \"#utility.yul\":8138:8557   */\n    tag_31:\n        /* \"#utility.yul\":8304:8308   */\n      0x00\n        /* \"#utility.yul\":8342:8344   */\n      0x20\n        /* \"#utility.yul\":8331:8340   */\n      dup3\n        /* \"#utility.yul\":8327:8345   */\n      add\n        /* \"#utility.yul\":8319:8345   */\n      swap1\n      pop\n        /* \"#utility.yul\":8391:8400   */\n      dup2\n        /* \"#utility.yul\":8385:8389   */\n      dup2\n        /* \"#utility.yul\":8381:8401   */\n      sub\n        /* \"#utility.yul\":8377:8378   */\n      0x00\n        /* \"#utility.yul\":8366:8375   */\n      dup4\n        /* \"#utility.yul\":8362:8379   */\n      add\n        /* \"#utility.yul\":8355:8402   */\n      mstore\n        /* \"#utility.yul\":8419:8550   */\n      tag_192\n        /* \"#utility.yul\":8545:8549   */\n      dup2\n        /* \"#utility.yul\":8419:8550   */\n      tag_86\n      jump\t// in\n    tag_192:\n        /* \"#utility.yul\":8411:8550   */\n      swap1\n      pop\n        /* \"#utility.yul\":8138:8557   */\n      swap2\n      swap1\n      pop\n      jump\t// out\n        /* \"#utility.yul\":8563:8895   */\n    tag_33:\n        /* \"#utility.yul\":8684:8688   */\n      0x00\n        /* \"#utility.yul\":8722:8724   */\n      0x40\n        /* \"#utility.yul\":8711:8720   */\n      dup3\n        /* \"#utility.yul\":8707:8725   */\n      add\n        /* \"#utility.yul\":8699:8725   */\n      swap1\n      pop\n        /* \"#utility.yul\":8735:8806   */\n      tag_194\n        /* \"#utility.yul\":8803:8804   */\n      0x00\n        /* \"#utility.yul\":8792:8801   */\n      dup4\n        /* \"#utility.yul\":8788:8805   */\n      add\n        /* \"#utility.yul\":8779:8785   */\n      dup6\n        /* \"#utility.yul\":8735:8806   */\n      tag_83\n      jump\t// in\n    tag_194:\n        /* \"#utility.yul\":8816:8888   */\n      tag_195\n        /* \"#utility.yul\":8884:8886   */\n      0x20\n        /* \"#utility.yul\":8873:8882   */\n      dup4\n        /* \"#utility.yul\":8869:8887   */\n      add\n        /* \"#utility.yul\":8860:8866   */\n      dup5\n        /* \"#utility.yul\":8816:8888   */\n      tag_69\n      jump\t// in\n    tag_195:\n        /* \"#utility.yul\":8563:8895   */\n      swap4\n      swap3\n      pop\n      pop\n      pop\n      jump\t// out\n        /* \"#utility.yul\":8901:9081   */\n    tag_87:\n        /* \"#utility.yul\":8949:9026   */\n      0x4e487b7100000000000000000000000000000000000000000000000000000000\n        /* \"#utility.yul\":8946:8947   */\n      0x00\n        /* \"#utility.yul\":8939:9027   */\n      mstore\n        /* \"#utility.yul\":9046:9050   */\n      0x11\n        /* \"#utility.yul\":9043:9044   */\n      0x04\n        /* \"#utility.yul\":9036:9051   */\n      mstore\n        /* \"#utility.yul\":9070:9074   */\n      0x24\n        /* \"#utility.yul\":9067:9068   */\n      0x00\n        /* \"#utility.yul\":9060:9075   */\n      revert\n        /* \"#utility.yul\":9087:9281   */\n    tag_38:\n        /* \"#utility.yul\":9127:9131   */\n      0x00\n        /* \"#utility.yul\":9147:9167   */\n      tag_198\n        /* \"#utility.yul\":9165:9166   */\n      dup3\n        /* \"#utility.yul\":9147:9167   */\n      tag_61\n      jump\t// in\n    tag_198:\n        /* \"#utility.yul\":9142:9167   */\n      swap2\n      pop\n        /* \"#utility.yul\":9181:9201   */\n      tag_199\n        /* \"#utility.yul\":9199:9200   */\n      dup4\n        /* \"#utility.yul\":9181:9201   */\n      tag_61\n      jump\t// in\n    tag_199:\n        /* \"#utility.yul\":9176:9201   */\n      swap3\n      pop\n        /* \"#utility.yul\":9225:9226   */\n      dup3\n        /* \"#utility.yul\":9222:9223   */\n      dup3\n        /* \"#utility.yul\":9218:9227   */\n      sub\n        /* \"#utility.yul\":9210:9227   */\n      swap1\n      pop\n        /* \"#utility.yul\":9249:9250   */\n      dup2\n        /* \"#utility.yul\":9243:9247   */\n      dup2\n        /* \"#utility.yul\":9240:9251   */\n      gt\n        /* \"#utility.yul\":9237:9274   */\n      iszero\n      tag_200\n      jumpi\n        /* \"#utility.yul\":9254:9272   */\n      tag_201\n      tag_87\n      jump\t// in\n    tag_201:\n        /* \"#utility.yul\":9237:9274   */\n    tag_200:\n        /* \"#utility.yul\":9087:9281   */\n      swap3\n      swap2\n      pop\n      pop\n      jump\t// out\n        /* \"#utility.yul\":9287:9509   */\n    tag_40:\n        /* \"#utility.yul\":9380:9384   */\n      0x00\n        /* \"#utility.yul\":9418:9420   */\n      0x20\n        /* \"#utility.yul\":9407:9416   */\n      dup3\n        /* \"#utility.yul\":9403:9421   */\n      add\n        /* \"#utility.yul\":9395:9421   */\n      swap1\n      pop\n        /* \"#utility.yul\":9431:9502   */\n      tag_203\n        /* \"#utility.yul\":9499:9500   */\n      0x00\n        /* \"#utility.yul\":9488:9497   */\n      dup4\n        /* \"#utility.yul\":9484:9501   */\n      add\n        /* \"#utility.yul\":9475:9481   */\n      dup5\n        /* \"#utility.yul\":9431:9502   */\n      tag_69\n      jump\t// in\n    tag_203:\n        /* \"#utility.yul\":9287:9509   */\n      swap3\n      swap2\n      pop\n      pop\n      jump\t// out\n        /* \"#utility.yul\":9515:9695   */\n    tag_88:\n        /* \"#utility.yul\":9563:9640   */\n      0x4e487b7100000000000000000000000000000000000000000000000000000000\n        /* \"#utility.yul\":9560:9561   */\n      0x00\n        /* \"#utility.yul\":9553:9641   */\n      mstore\n        /* \"#utility.yul\":9660:9664   */\n      0x22\n        /* \"#utility.yul\":9657:9658   */\n      0x04\n        /* \"#utility.yul\":9650:9665   */\n      mstore\n        /* \"#utility.yul\":9684:9688   */\n      0x24\n        /* \"#utility.yul\":9681:9682   */\n      0x00\n        /* \"#utility.yul\":9674:9689   */\n      revert\n        /* \"#utility.yul\":9701:10021   */\n    tag_43:\n        /* \"#utility.yul\":9745:9751   */\n      0x00\n        /* \"#utility.yul\":9782:9783   */\n      0x02\n        /* \"#utility.yul\":9776:9780   */\n      dup3\n        /* \"#utility.yul\":9772:9784   */\n      div\n        /* \"#utility.yul\":9762:9784   */\n      swap1\n      pop\n        /* \"#utility.yul\":9829:9830   */\n      0x01\n        /* \"#utility.yul\":9823:9827   */\n      dup3\n        /* \"#utility.yul\":9819:9831   */\n      and\n        /* \"#utility.yul\":9850:9868   */\n      dup1\n        /* \"#utility.yul\":9840:9921   */\n      tag_206\n      jumpi\n        /* \"#utility.yul\":9906:9910   */\n      0x7f\n        /* \"#utility.yul\":9898:9904   */\n      dup3\n        /* \"#utility.yul\":9894:9911   */\n      and\n        /* \"#utility.yul\":9884:9911   */\n      swap2\n      pop\n        /* \"#utility.yul\":9840:9921   */\n    tag_206:\n        /* \"#utility.yul\":9968:9970   */\n      0x20\n        /* \"#utility.yul\":9960:9966   */\n      dup3\n        /* \"#utility.yul\":9957:9971   */\n      lt\n        /* \"#utility.yul\":9937:9955   */\n      dup2\n        /* \"#utility.yul\":9934:9972   */\n      sub\n        /* \"#utility.yul\":9931:10015   */\n      tag_207\n      jumpi\n        /* \"#utility.yul\":9987:10005   */\n      tag_208\n      tag_88\n      jump\t// in\n    tag_208:\n        /* \"#utility.yul\":9931:10015   */\n    tag_207:\n        /* \"#utility.yul\":9752:10021   */\n      pop\n        /* \"#utility.yul\":9701:10021   */\n      swap2\n      swap1\n      pop\n      jump\t// out\n        /* \"#utility.yul\":10027:10199   */\n    tag_89:\n        /* \"#utility.yul\":10167:10191   */\n      0x4e6f742074686520636f6e7472616374206f776e657200000000000000000000\n        /* \"#utility.yul\":10163:10164   */\n      0x00\n        /* \"#utility.yul\":10155:10161   */\n      dup3\n        /* \"#utility.yul\":10151:10165   */\n      add\n        /* \"#utility.yul\":10144:10192   */\n      mstore\n        /* \"#utility.yul\":10027:10199   */\n      pop\n      jump\t// out\n        /* \"#utility.yul\":10205:10571   */\n    tag_90:\n        /* \"#utility.yul\":10347:10350   */\n      0x00\n        /* \"#utility.yul\":10368:10435   */\n      tag_211\n        /* \"#utility.yul\":10432:10434   */\n      0x16\n        /* \"#utility.yul\":10427:10430   */\n      dup4\n        /* \"#utility.yul\":10368:10435   */\n      tag_65\n      jump\t// in\n    tag_211:\n        /* \"#utility.yul\":10361:10435   */\n      swap2\n      pop\n        /* \"#utility.yul\":10444:10537   */\n      tag_212\n        /* \"#utility.yul\":10533:10536   */\n      dup3\n        /* \"#utility.yul\":10444:10537   */\n      tag_89\n      jump\t// in\n    tag_212:\n        /* \"#utility.yul\":10562:10564   */\n      0x20\n        /* \"#utility.yul\":10557:10560   */\n      dup3\n        /* \"#utility.yul\":10553:10565   */\n      add\n        /* \"#utility.yul\":10546:10565   */\n      swap1\n      pop\n        /* \"#utility.yul\":10205:10571   */\n      swap2\n      swap1\n      pop\n      jump\t// out\n        /* \"#utility.yul\":10577:10996   */\n    tag_51:\n        /* \"#utility.yul\":10743:10747   */\n      0x00\n        /* \"#utility.yul\":10781:10783   */\n      0x20\n        /* \"#utility.yul\":10770:10779   */\n      dup3\n        /* \"#utility.yul\":10766:10784   */\n      add\n        /* \"#utility.yul\":10758:10784   */\n      swap1\n      pop\n        /* \"#utility.yul\":10830:10839   */\n      dup2\n        /* \"#utility.yul\":10824:10828   */\n      dup2\n        /* \"#utility.yul\":10820:10840   */\n      sub\n        /* \"#utility.yul\":10816:10817   */\n      0x00\n        /* \"#utility.yul\":10805:10814   */\n      dup4\n        /* \"#utility.yul\":10801:10818   */\n      add\n        /* \"#utility.yul\":10794:10841   */\n      mstore\n        /* \"#utility.yul\":10858:10989   */\n      tag_214\n        /* \"#utility.yul\":10984:10988   */\n      dup2\n        /* \"#utility.yul\":10858:10989   */\n      tag_90\n      jump\t// in\n    tag_214:\n        /* \"#utility.yul\":10850:10989   */\n      swap1\n      pop\n        /* \"#utility.yul\":10577:10996   */\n      swap2\n      swap1\n      pop\n      jump\t// out\n        /* \"#utility.yul\":11002:11235   */\n    tag_54:\n        /* \"#utility.yul\":11041:11044   */\n      0x00\n        /* \"#utility.yul\":11064:11088   */\n      tag_216\n        /* \"#utility.yul\":11082:11087   */\n      dup3\n        /* \"#utility.yul\":11064:11088   */\n      tag_61\n      jump\t// in\n    tag_216:\n        /* \"#utility.yul\":11055:11088   */\n      swap2\n      pop\n        /* \"#utility.yul\":11110:11176   */\n      0xffffffffffffffffffffffffffffffffffffffffffffffffffffffffffffffff\n        /* \"#utility.yul\":11103:11108   */\n      dup3\n        /* \"#utility.yul\":11100:11177   */\n      sub\n        /* \"#utility.yul\":11097:11200   */\n      tag_217\n      jumpi\n        /* \"#utility.yul\":11180:11198   */\n      tag_218\n      tag_87\n      jump\t// in\n    tag_218:\n        /* \"#utility.yul\":11097:11200   */\n    tag_217:\n        /* \"#utility.yul\":11227:11228   */\n      0x01\n        /* \"#utility.yul\":11220:11225   */\n      dup3\n        /* \"#utility.yul\":11216:11229   */\n      add\n        /* \"#utility.yul\":11209:11229   */\n      swap1\n      pop\n        /* \"#utility.yul\":11002:11235   */\n      swap2\n      swap1\n      pop\n      jump\t// out\n        /* \"#utility.yul\":11241:11382   */\n    tag_91:\n        /* \"#utility.yul\":11290:11294   */\n      0x00\n        /* \"#utility.yul\":11313:11316   */\n      dup2\n        /* \"#utility.yul\":11305:11316   */\n      swap1\n      pop\n        /* \"#utility.yul\":11336:11339   */\n      dup2\n        /* \"#utility.yul\":11333:11334   */\n      0x00\n        /* \"#utility.yul\":11326:11340   */\n      mstore\n        /* \"#utility.yul\":11370:11374   */\n      0x20\n        /* \"#utility.yul\":11367:11368   */\n      0x00\n        /* \"#utility.yul\":11357:11375   */\n      keccak256\n        /* \"#utility.yul\":11349:11375   */\n      swap1\n      pop\n        /* \"#utility.yul\":11241:11382   */\n      swap2\n      swap1\n      pop\n      jump\t// out\n        /* \"#utility.yul\":11388:11481   */\n    tag_92:\n        /* \"#utility.yul\":11425:11431   */\n      0x00\n        /* \"#utility.yul\":11472:11474   */\n      0x20\n        /* \"#utility.yul\":11467:11469   */\n      0x1f\n        /* \"#utility.yul\":11460:11465   */\n      dup4\n        /* \"#utility.yul\":11456:11470   */\n      add\n        /* \"#utility.yul\":11452:11475   */\n      div\n        /* \"#utility.yul\":11442:11475   */\n      swap1\n      pop\n        /* \"#utility.yul\":11388:11481   */\n      swap2\n      swap1\n      pop\n      jump\t// out\n        /* \"#utility.yul\":11487:11594   */\n    tag_93:\n        /* \"#utility.yul\":11531:11539   */\n      0x00\n        /* \"#utility.yul\":11581:11586   */\n      dup3\n        /* \"#utility.yul\":11575:11579   */\n      dup3\n        /* \"#utility.yul\":11571:11587   */\n      shl\n        /* \"#utility.yul\":11550:11587   */\n      swap1\n      pop\n        /* \"#utility.yul\":11487:11594   */\n      swap3\n      swap2\n      pop\n      pop\n      jump\t// out\n        /* \"#utility.yul\":11600:11993   */\n    tag_94:\n        /* \"#utility.yul\":11669:11675   */\n      0x00\n        /* \"#utility.yul\":11719:11720   */\n      0x08\n        /* \"#utility.yul\":11707:11717   */\n      dup4\n        /* \"#utility.yul\":11703:11721   */\n      mul\n        /* \"#utility.yul\":11742:11839   */\n      tag_223\n        /* \"#utility.yul\":11772:11838   */\n      0xffffffffffffffffffffffffffffffffffffffffffffffffffffffffffffffff\n        /* \"#utility.yul\":11761:11770   */\n      dup3\n        /* \"#utility.yul\":11742:11839   */\n      tag_93\n      jump\t// in\n    tag_223:\n        /* \"#utility.yul\":11860:11899   */\n      tag_224\n        /* \"#utility.yul\":11890:11898   */\n      dup7\n        /* \"#utility.yul\":11879:11888   */\n      dup4\n        /* \"#utility.yul\":11860:11899   */\n      tag_93\n      jump\t// in\n    tag_224:\n        /* \"#utility.yul\":11848:11899   */\n      swap6\n      pop\n        /* \"#utility.yul\":11932:11936   */\n      dup1\n        /* \"#utility.yul\":11928:11937   */\n      not\n        /* \"#utility.yul\":11921:11926   */\n      dup5\n        /* \"#utility.yul\":11917:11938   */\n      and\n        /* \"#utility.yul\":11908:11938   */\n      swap4\n      pop\n        /* \"#utility.yul\":11981:11985   */\n      dup1\n        /* \"#utility.yul\":11971:11979   */\n      dup7\n        /* \"#utility.yul\":11967:11986   */\n      and\n        /* \"#utility.yul\":11960:11965   */\n      dup5\n        /* \"#utility.yul\":11957:11987   */\n      or\n        /* \"#utility.yul\":11947:11987   */\n      swap3\n      pop\n        /* \"#utility.yul\":11676:11993   */\n      pop\n      pop\n        /* \"#utility.yul\":11600:11993   */\n      swap4\n      swap3\n      pop\n      pop\n      pop\n      jump\t// out\n        /* \"#utility.yul\":11999:12059   */\n    tag_95:\n        /* \"#utility.yul\":12027:12030   */\n      0x00\n        /* \"#utility.yul\":12048:12053   */\n      dup2\n        /* \"#utility.yul\":12041:12053   */\n      swap1\n      pop\n        /* \"#utility.yul\":11999:12059   */\n      swap2\n      swap1\n      pop\n      jump\t// out\n        /* \"#utility.yul\":12065:12207   */\n    tag_96:\n        /* \"#utility.yul\":12115:12124   */\n      0x00\n        /* \"#utility.yul\":12148:12201   */\n      tag_227\n        /* \"#utility.yul\":12166:12200   */\n      tag_228\n        /* \"#utility.yul\":12175:12199   */\n      tag_229\n        /* \"#utility.yul\":12193:12198   */\n      dup5\n        /* \"#utility.yul\":12175:12199   */\n      tag_61\n      jump\t// in\n    tag_229:\n        /* \"#utility.yul\":12166:12200   */\n      tag_95\n      jump\t// in\n    tag_228:\n        /* \"#utility.yul\":12148:12201   */\n      tag_61\n      jump\t// in\n    tag_227:\n        /* \"#utility.yul\":12135:12201   */\n      swap1\n      pop\n        /* \"#utility.yul\":12065:12207   */\n      swap2\n      swap1\n      pop\n      jump\t// out\n        /* \"#utility.yul\":12213:12288   */\n    tag_97:\n        /* \"#utility.yul\":12256:12259   */\n      0x00\n        /* \"#utility.yul\":12277:12282   */\n      dup2\n        /* \"#utility.yul\":12270:12282   */\n      swap1\n      pop\n        /* \"#utility.yul\":12213:12288   */\n      swap2\n      swap1\n      pop\n      jump\t// out\n        /* \"#utility.yul\":12294:12563   */\n    tag_98:\n        /* \"#utility.yul\":12404:12443   */\n      tag_232\n        /* \"#utility.yul\":12435:12442   */\n      dup4\n        /* \"#utility.yul\":12404:12443   */\n      tag_96\n      jump\t// in\n    tag_232:\n        /* \"#utility.yul\":12465:12556   */\n      tag_233\n        /* \"#utility.yul\":12514:12555   */\n      tag_234\n        /* \"#utility.yul\":12538:12554   */\n      dup3\n        /* \"#utility.yul\":12514:12555   */\n      tag_97\n      jump\t// in\n    tag_234:\n        /* \"#utility.yul\":12506:12512   */\n      dup5\n        /* \"#utility.yul\":12499:12503   */\n      dup5\n        /* \"#utility.yul\":12493:12504   */\n      sload\n        /* \"#utility.yul\":12465:12556   */\n      tag_94\n      jump\t// in\n    tag_233:\n        /* \"#utility.yul\":12459:12463   */\n      dup3\n        /* \"#utility.yul\":12452:12557   */\n      sstore\n        /* \"#utility.yul\":12370:12563   */\n      pop\n        /* \"#utility.yul\":12294:12563   */\n      pop\n      pop\n      pop\n      jump\t// out\n        /* \"#utility.yul\":12569:12642   */\n    tag_99:\n        /* \"#utility.yul\":12614:12617   */\n      0x00\n        /* \"#utility.yul\":12569:12642   */\n      swap1\n      jump\t// out\n        /* \"#utility.yul\":12648:12837   */\n    tag_100:\n        /* \"#utility.yul\":12725:12757   */\n      tag_237\n      tag_99\n      jump\t// in\n    tag_237:\n        /* \"#utility.yul\":12766:12831   */\n      tag_238\n        /* \"#utility.yul\":12824:12830   */\n      dup2\n        /* \"#utility.yul\":12816:12822   */\n      dup5\n        /* \"#utility.yul\":12810:12814   */\n      dup5\n        /* \"#utility.yul\":12766:12831   */\n      tag_98\n      jump\t// in\n    tag_238:\n        /* \"#utility.yul\":12701:12837   */\n      pop\n        /* \"#utility.yul\":12648:12837   */\n      pop\n      pop\n      jump\t// out\n        /* \"#utility.yul\":12843:13029   */\n    tag_101:\n        /* \"#utility.yul\":12903:13023   */\n    tag_240:\n        /* \"#utility.yul\":12920:12923   */\n      dup2\n        /* \"#utility.yul\":12913:12918   */\n      dup2\n        /* \"#utility.yul\":12910:12924   */\n      lt\n        /* \"#utility.yul\":12903:13023   */\n      iszero\n      tag_242\n      jumpi\n        /* \"#utility.yul\":12974:13013   */\n      tag_243\n        /* \"#utility.yul\":13011:13012   */\n      0x00\n        /* \"#utility.yul\":13004:13009   */\n      dup3\n        /* \"#utility.yul\":12974:13013   */\n      tag_100\n      jump\t// in\n    tag_243:\n        /* \"#utility.yul\":12947:12948   */\n      0x01\n        /* \"#utility.yul\":12940:12945   */\n      dup2\n        /* \"#utility.yul\":12936:12949   */\n      add\n        /* \"#utility.yul\":12927:12949   */\n      swap1\n      pop\n        /* \"#utility.yul\":12903:13023   */\n      jump(tag_240)\n    tag_242:\n        /* \"#utility.yul\":12843:13029   */\n      pop\n      pop\n      jump\t// out\n        /* \"#utility.yul\":13035:13578   */\n    tag_102:\n        /* \"#utility.yul\":13136:13138   */\n      0x1f\n        /* \"#utility.yul\":13131:13134   */\n      dup3\n        /* \"#utility.yul\":13128:13139   */\n      gt\n        /* \"#utility.yul\":13125:13571   */\n      iszero\n      tag_245\n      jumpi\n        /* \"#utility.yul\":13170:13208   */\n      tag_246\n        /* \"#utility.yul\":13202:13207   */\n      dup2\n        /* \"#utility.yul\":13170:13208   */\n      tag_91\n      jump\t// in\n    tag_246:\n        /* \"#utility.yul\":13254:13283   */\n      tag_247\n        /* \"#utility.yul\":13272:13282   */\n      dup5\n        /* \"#utility.yul\":13254:13283   */\n      tag_92\n      jump\t// in\n    tag_247:\n        /* \"#utility.yul\":13244:13252   */\n      dup2\n        /* \"#utility.yul\":13240:13284   */\n      add\n        /* \"#utility.yul\":13437:13439   */\n      0x20\n        /* \"#utility.yul\":13425:13435   */\n      dup6\n        /* \"#utility.yul\":13422:13440   */\n      lt\n        /* \"#utility.yul\":13419:13468   */\n      iszero\n      tag_248\n      jumpi\n        /* \"#utility.yul\":13458:13466   */\n      dup2\n        /* \"#utility.yul\":13443:13466   */\n      swap1\n      pop\n        /* \"#utility.yul\":13419:13468   */\n    tag_248:\n        /* \"#utility.yul\":13481:13561   */\n      tag_249\n        /* \"#utility.yul\":13537:13559   */\n      tag_250\n        /* \"#utility.yul\":13555:13558   */\n      dup6\n        /* \"#utility.yul\":13537:13559   */\n      tag_92\n      jump\t// in\n    tag_250:\n        /* \"#utility.yul\":13527:13535   */\n      dup4\n        /* \"#utility.yul\":13523:13560   */\n      add\n        /* \"#utility.yul\":13510:13521   */\n      dup3\n        /* \"#utility.yul\":13481:13561   */\n      tag_101\n      jump\t// in\n    tag_249:\n        /* \"#utility.yul\":13140:13571   */\n      pop\n      pop\n        /* \"#utility.yul\":13125:13571   */\n    tag_245:\n        /* \"#utility.yul\":13035:13578   */\n      pop\n      pop\n      pop\n      jump\t// out\n        /* \"#utility.yul\":13584:13701   */\n    tag_103:\n        /* \"#utility.yul\":13638:13646   */\n      0x00\n        /* \"#utility.yul\":13688:13693   */\n      dup3\n        /* \"#utility.yul\":13682:13686   */\n      dup3\n        /* \"#utility.yul\":13678:13694   */\n      shr\n        /* \"#utility.yul\":13657:13694   */\n      swap1\n      pop\n        /* \"#utility.yul\":13584:13701   */\n      swap3\n      swap2\n      pop\n      pop\n      jump\t// out\n        /* \"#utility.yul\":13707:13876   */\n    tag_104:\n        /* \"#utility.yul\":13751:13757   */\n      0x00\n        /* \"#utility.yul\":13784:13835   */\n      tag_253\n        /* \"#utility.yul\":13832:13833   */\n      0x00\n        /* \"#utility.yul\":13828:13834   */\n      not\n        /* \"#utility.yul\":13820:13825   */\n      dup5\n        /* \"#utility.yul\":13817:13818   */\n      0x08\n        /* \"#utility.yul\":13813:13826   */\n      mul\n        /* \"#utility.yul\":13784:13835   */\n      tag_103\n      jump\t// in\n    tag_253:\n        /* \"#utility.yul\":13780:13836   */\n      not\n        /* \"#utility.yul\":13865:13869   */\n      dup1\n        /* \"#utility.yul\":13859:13863   */\n      dup4\n        /* \"#utility.yul\":13855:13870   */\n      and\n        /* \"#utility.yul\":13845:13870   */\n      swap2\n      pop\n        /* \"#utility.yul\":13758:13876   */\n      pop\n        /* \"#utility.yul\":13707:13876   */\n      swap3\n      swap2\n      pop\n      pop\n      jump\t// out\n        /* \"#utility.yul\":13881:14176   */\n    tag_105:\n        /* \"#utility.yul\":13957:13961   */\n      0x00\n        /* \"#utility.yul\":14103:14132   */\n      tag_255\n        /* \"#utility.yul\":14128:14131   */\n      dup4\n        /* \"#utility.yul\":14122:14126   */\n      dup4\n        /* \"#utility.yul\":14103:14132   */\n      tag_104\n      jump\t// in\n    tag_255:\n        /* \"#utility.yul\":14095:14132   */\n      swap2\n      pop\n        /* \"#utility.yul\":14165:14168   */\n      dup3\n        /* \"#utility.yul\":14162:14163   */\n      0x02\n        /* \"#utility.yul\":14158:14169   */\n      mul\n        /* \"#utility.yul\":14152:14156   */\n      dup3\n        /* \"#utility.yul\":14149:14170   */\n      or\n        /* \"#utility.yul\":14141:14170   */\n      swap1\n      pop\n        /* \"#utility.yul\":13881:14176   */\n      swap3\n      swap2\n      pop\n      pop\n      jump\t// out\n        /* \"#utility.yul\":14181:15576   */\n    tag_56:\n        /* \"#utility.yul\":14298:14335   */\n      tag_257\n        /* \"#utility.yul\":14331:14334   */\n      dup3\n        /* \"#utility.yul\":14298:14335   */\n      tag_64\n      jump\t// in\n    tag_257:\n        /* \"#utility.yul\":14400:14418   */\n      0xffffffffffffffff\n        /* \"#utility.yul\":14392:14398   */\n      dup2\n        /* \"#utility.yul\":14389:14419   */\n      gt\n        /* \"#utility.yul\":14386:14442   */\n      iszero\n      tag_258\n      jumpi\n        /* \"#utility.yul\":14422:14440   */\n      tag_259\n      tag_72\n      jump\t// in\n    tag_259:\n        /* \"#utility.yul\":14386:14442   */\n    tag_258:\n        /* \"#utility.yul\":14466:14504   */\n      tag_260\n        /* \"#utility.yul\":14498:14502   */\n      dup3\n        /* \"#utility.yul\":14492:14503   */\n      sload\n        /* \"#utility.yul\":14466:14504   */\n      tag_43\n      jump\t// in\n    tag_260:\n        /* \"#utility.yul\":14551:14618   */\n      tag_261\n        /* \"#utility.yul\":14611:14617   */\n      dup3\n        /* \"#utility.yul\":14603:14609   */\n      dup3\n        /* \"#utility.yul\":14597:14601   */\n      dup6\n        /* \"#utility.yul\":14551:14618   */\n      tag_102\n      jump\t// in\n    tag_261:\n        /* \"#utility.yul\":14645:14646   */\n      0x00\n        /* \"#utility.yul\":14669:14673   */\n      0x20\n        /* \"#utility.yul\":14656:14673   */\n      swap1\n      pop\n        /* \"#utility.yul\":14701:14703   */\n      0x1f\n        /* \"#utility.yul\":14693:14699   */\n      dup4\n        /* \"#utility.yul\":14690:14704   */\n      gt\n        /* \"#utility.yul\":14718:14719   */\n      0x01\n        /* \"#utility.yul\":14713:15331   */\n      dup2\n      eq\n      tag_263\n      jumpi\n        /* \"#utility.yul\":15375:15376   */\n      0x00\n        /* \"#utility.yul\":15392:15398   */\n      dup5\n        /* \"#utility.yul\":15389:15466   */\n      iszero\n      tag_264\n      jumpi\n        /* \"#utility.yul\":15441:15450   */\n      dup3\n        /* \"#utility.yul\":15436:15439   */\n      dup8\n        /* \"#utility.yul\":15432:15451   */\n      add\n        /* \"#utility.yul\":15426:15452   */\n      mload\n        /* \"#utility.yul\":15417:15452   */\n      swap1\n      pop\n        /* \"#utility.yul\":15389:15466   */\n    tag_264:\n        /* \"#utility.yul\":15492:15559   */\n      tag_265\n        /* \"#utility.yul\":15552:15558   */\n      dup6\n        /* \"#utility.yul\":15545:15550   */\n      dup3\n        /* \"#utility.yul\":15492:15559   */\n      tag_105\n      jump\t// in\n    tag_265:\n        /* \"#utility.yul\":15486:15490   */\n      dup7\n        /* \"#utility.yul\":15479:15560   */\n      sstore\n        /* \"#utility.yul\":15348:15570   */\n      pop\n        /* \"#utility.yul\":14683:15570   */\n      jump(tag_262)\n        /* \"#utility.yul\":14713:15331   */\n    tag_263:\n        /* \"#utility.yul\":14765:14769   */\n      0x1f\n        /* \"#utility.yul\":14761:14770   */\n      not\n        /* \"#utility.yul\":14753:14759   */\n      dup5\n        /* \"#utility.yul\":14749:14771   */\n      and\n        /* \"#utility.yul\":14799:14836   */\n      tag_266\n        /* \"#utility.yul\":14831:14835   */\n      dup7\n        /* \"#utility.yul\":14799:14836   */\n      tag_91\n      jump\t// in\n    tag_266:\n        /* \"#utility.yul\":14858:14859   */\n      0x00\n        /* \"#utility.yul\":14872:15080   */\n    tag_267:\n        /* \"#utility.yul\":14886:14893   */\n      dup3\n        /* \"#utility.yul\":14883:14884   */\n      dup2\n        /* \"#utility.yul\":14880:14894   */\n      lt\n        /* \"#utility.yul\":14872:15080   */\n      iszero\n      tag_269\n      jumpi\n        /* \"#utility.yul\":14965:14974   */\n      dup5\n        /* \"#utility.yul\":14960:14963   */\n      dup10\n        /* \"#utility.yul\":14956:14975   */\n      add\n        /* \"#utility.yul\":14950:14976   */\n      mload\n        /* \"#utility.yul\":14942:14948   */\n      dup3\n        /* \"#utility.yul\":14935:14977   */\n      sstore\n        /* \"#utility.yul\":15016:15017   */\n      0x01\n        /* \"#utility.yul\":15008:15014   */\n      dup3\n        /* \"#utility.yul\":15004:15018   */\n      add\n        /* \"#utility.yul\":14994:15018   */\n      swap2\n      pop\n        /* \"#utility.yul\":15063:15065   */\n      0x20\n        /* \"#utility.yul\":15052:15061   */\n      dup6\n        /* \"#utility.yul\":15048:15066   */\n      add\n        /* \"#utility.yul\":15035:15066   */\n      swap5\n      pop\n        /* \"#utility.yul\":14909:14913   */\n      0x20\n        /* \"#utility.yul\":14906:14907   */\n      dup2\n        /* \"#utility.yul\":14902:14914   */\n      add\n        /* \"#utility.yul\":14897:14914   */\n      swap1\n      pop\n        /* \"#utility.yul\":14872:15080   */\n      jump(tag_267)\n    tag_269:\n        /* \"#utility.yul\":15108:15114   */\n      dup7\n        /* \"#utility.yul\":15099:15106   */\n      dup4\n        /* \"#utility.yul\":15096:15115   */\n      lt\n        /* \"#utility.yul\":15093:15272   */\n      iszero\n      tag_270\n      jumpi\n        /* \"#utility.yul\":15166:15175   */\n      dup5\n        /* \"#utility.yul\":15161:15164   */\n      dup10\n        /* \"#utility.yul\":15157:15176   */\n      add\n        /* \"#utility.yul\":15151:15177   */\n      mload\n        /* \"#utility.yul\":15209:15257   */\n      tag_271\n        /* \"#utility.yul\":15251:15255   */\n      0x1f\n        /* \"#utility.yul\":15243:15249   */\n      dup10\n        /* \"#utility.yul\":15239:15256   */\n      and\n        /* \"#utility.yul\":15228:15237   */\n      dup3\n        /* \"#utility.yul\":15209:15257   */\n      tag_104\n      jump\t// in\n    tag_271:\n        /* \"#utility.yul\":15201:15207   */\n      dup4\n        /* \"#utility.yul\":15194:15258   */\n      sstore\n        /* \"#utility.yul\":15116:15272   */\n      pop\n        /* \"#utility.yul\":15093:15272   */\n    tag_270:\n        /* \"#utility.yul\":15318:15319   */\n      0x01\n        /* \"#utility.yul\":15314:15315   */\n      0x02\n        /* \"#utility.yul\":15306:15312   */\n      dup9\n        /* \"#utility.yul\":15302:15316   */\n      mul\n        /* \"#utility.yul\":15298:15320   */\n      add\n        /* \"#utility.yul\":15292:15296   */\n      dup9\n        /* \"#utility.yul\":15285:15321   */\n      sstore\n        /* \"#utility.yul\":14720:15331   */\n      pop\n      pop\n      pop\n        /* \"#utility.yul\":14683:15570   */\n    tag_262:\n      pop\n        /* \"#utility.yul\":14273:15576   */\n      pop\n      pop\n      pop\n        /* \"#utility.yul\":14181:15576   */\n      pop\n      pop\n      jump\t// out\n\n    auxdata: 0xa2646970667358221220dddfd86b2fcf61e04ba1ddcede7b98a1c189cb3d8a62dc6103e0d85700b56b5664736f6c634300081a0033\n}\n",
				"bytecode": {
					"linkReferences": {},
					"object": "60806040525f6002553480156012575f80fd5b5073e6e5af029ed89bf93d80baea93bcbd9350dbffb85f806101000a81548173ffffffffffffffffffffffffffffffffffffffff021916908373ffffffffffffffffffffffffffffffffffffffff1602179055503360015f6101000a81548173ffffffffffffffffffffffffffffffffffffffff021916908373ffffffffffffffffffffffffffffffffffffffff160217905550610d56806100b35f395ff3fe608060405234801561000f575f80fd5b506004361061003f575f3560e01c80631c26dc23146100435780633129e7731461005f578063d5e6c33314610091575b5f80fd5b61005d60048036038101906100589190610523565b6100ad565b005b61007960048036038101906100749190610523565b6102e1565b604051610088939291906105cd565b60405180910390f35b6100ab60048036038101906100a69190610735565b61039e565b005b5f60035f8381526020019081526020015f2090505f816001015411610107576040517f08c379a00000000000000000000000000000000000000000000000000000000081526004016100fe906107eb565b60405180910390fd5b80600201545f8054906101000a900473ffffffffffffffffffffffffffffffffffffffff1673ffffffffffffffffffffffffffffffffffffffff166370a08231336040518263ffffffff1660e01b81526004016101649190610848565b602060405180830381865afa15801561017f573d5f803e3d5ffd5b505050506040513d601f19601f820116820180604052508101906101a39190610875565b10156101e4576040517f08c379a00000000000000000000000000000000000000000000000000000000081526004016101db906108ea565b60405180910390fd5b5f8054906101000a900473ffffffffffffffffffffffffffffffffffffffff1673ffffffffffffffffffffffffffffffffffffffff16639dc29fac3383600201546040518363ffffffff1660e01b8152600401610242929190610908565b5f604051808303815f87803b158015610259575f80fd5b505af115801561026b573d5f803e3d5ffd5b505050506001816001015f828254610283919061095c565b925050819055503373ffffffffffffffffffffffffffffffffffffffff16827f204872e2f38e4c26bc731e8258c7029825f7abd18f39192c2cee4618c8f8f37a83600201546040516102d5919061098f565b60405180910390a35050565b60605f805f60035f8681526020019081526020015f209050805f0181600101548260020154828054610312906109d5565b80601f016020809104026020016040519081016040528092919081815260200182805461033e906109d5565b80156103895780601f1061036057610100808354040283529160200191610389565b820191905f5260205f20905b81548152906001019060200180831161036c57829003601f168201915b50505050509250935093509350509193909250565b60015f9054906101000a900473ffffffffffffffffffffffffffffffffffffffff1673ffffffffffffffffffffffffffffffffffffffff163373ffffffffffffffffffffffffffffffffffffffff161461042d576040517f08c379a000000000000000000000000000000000000000000000000000000000815260040161042490610a4f565b60405180910390fd5b5f60025f81548092919061044090610a6d565b91905055905060405180606001604052808581526020018481526020018381525060035f8381526020019081526020015f205f820151815f0190816104859190610c51565b506020820151816001015560408201518160020155905050807f665e452eb624a7f9bf54abd5d404d4f4da7360a1e40698893fe2cc447a51af9c8585856040516104d1939291906105cd565b60405180910390a250505050565b5f604051905090565b5f80fd5b5f80fd5b5f819050919050565b610502816104f0565b811461050c575f80fd5b50565b5f8135905061051d816104f9565b92915050565b5f60208284031215610538576105376104e8565b5b5f6105458482850161050f565b91505092915050565b5f81519050919050565b5f82825260208201905092915050565b8281835e5f83830152505050565b5f601f19601f8301169050919050565b5f6105908261054e565b61059a8185610558565b93506105aa818560208601610568565b6105b381610576565b840191505092915050565b6105c7816104f0565b82525050565b5f6060820190508181035f8301526105e58186610586565b90506105f460208301856105be565b61060160408301846105be565b949350505050565b5f80fd5b5f80fd5b7f4e487b71000000000000000000000000000000000000000000000000000000005f52604160045260245ffd5b61064782610576565b810181811067ffffffffffffffff8211171561066657610665610611565b5b80604052505050565b5f6106786104df565b9050610684828261063e565b919050565b5f67ffffffffffffffff8211156106a3576106a2610611565b5b6106ac82610576565b9050602081019050919050565b828183375f83830152505050565b5f6106d96106d484610689565b61066f565b9050828152602081018484840111156106f5576106f461060d565b5b6107008482856106b9565b509392505050565b5f82601f83011261071c5761071b610609565b5b813561072c8482602086016106c7565b91505092915050565b5f805f6060848603121561074c5761074b6104e8565b5b5f84013567ffffffffffffffff811115610769576107686104ec565b5b61077586828701610708565b93505060206107868682870161050f565b92505060406107978682870161050f565b9150509250925092565b7f4974656d206f7574206f662073746f636b0000000000000000000000000000005f82015250565b5f6107d5601183610558565b91506107e0826107a1565b602082019050919050565b5f6020820190508181035f830152610802816107c9565b9050919050565b5f73ffffffffffffffffffffffffffffffffffffffff82169050919050565b5f61083282610809565b9050919050565b61084281610828565b82525050565b5f60208201905061085b5f830184610839565b92915050565b5f8151905061086f816104f9565b92915050565b5f6020828403121561088a576108896104e8565b5b5f61089784828501610861565b91505092915050565b7f496e73756666696369656e742048656c50657420746f6b656e730000000000005f82015250565b5f6108d4601a83610558565b91506108df826108a0565b602082019050919050565b5f6020820190508181035f830152610901816108c8565b9050919050565b5f60408201905061091b5f830185610839565b61092860208301846105be565b9392505050565b7f4e487b71000000000000000000000000000000000000000000000000000000005f52601160045260245ffd5b5f610966826104f0565b9150610971836104f0565b92508282039050818111156109895761098861092f565b5b92915050565b5f6020820190506109a25f8301846105be565b92915050565b7f4e487b71000000000000000000000000000000000000000000000000000000005f52602260045260245ffd5b5f60028204905060018216806109ec57607f821691505b6020821081036109ff576109fe6109a8565b5b50919050565b7f4e6f742074686520636f6e7472616374206f776e6572000000000000000000005f82015250565b5f610a39601683610558565b9150610a4482610a05565b602082019050919050565b5f6020820190508181035f830152610a6681610a2d565b9050919050565b5f610a77826104f0565b91507fffffffffffffffffffffffffffffffffffffffffffffffffffffffffffffffff8203610aa957610aa861092f565b5b600182019050919050565b5f819050815f5260205f209050919050565b5f6020601f8301049050919050565b5f82821b905092915050565b5f60088302610b107fffffffffffffffffffffffffffffffffffffffffffffffffffffffffffffffff82610ad5565b610b1a8683610ad5565b95508019841693508086168417925050509392505050565b5f819050919050565b5f610b55610b50610b4b846104f0565b610b32565b6104f0565b9050919050565b5f819050919050565b610b6e83610b3b565b610b82610b7a82610b5c565b848454610ae1565b825550505050565b5f90565b610b96610b8a565b610ba1818484610b65565b505050565b5b81811015610bc457610bb95f82610b8e565b600181019050610ba7565b5050565b601f821115610c0957610bda81610ab4565b610be384610ac6565b81016020851015610bf2578190505b610c06610bfe85610ac6565b830182610ba6565b50505b505050565b5f82821c905092915050565b5f610c295f1984600802610c0e565b1980831691505092915050565b5f610c418383610c1a565b9150826002028217905092915050565b610c5a8261054e565b67ffffffffffffffff811115610c7357610c72610611565b5b610c7d82546109d5565b610c88828285610bc8565b5f60209050601f831160018114610cb9575f8415610ca7578287015190505b610cb18582610c36565b865550610d18565b601f198416610cc786610ab4565b5f5b82811015610cee57848901518255600182019150602085019450602081019050610cc9565b86831015610d0b5784890151610d07601f891682610c1a565b8355505b6001600288020188555050505b50505050505056fea2646970667358221220dddfd86b2fcf61e04ba1ddcede7b98a1c189cb3d8a62dc6103e0d85700b56b5664736f6c634300081a0033",
					"opcodes": "PUSH1 0x80 PUSH1 0x40 MSTORE PUSH0 PUSH1 0x2 SSTORE CALLVALUE DUP1 ISZERO PUSH1 0x12 JUMPI PUSH0 DUP1 REVERT JUMPDEST POP PUSH20 0xE6E5AF029ED89BF93D80BAEA93BCBD9350DBFFB8 PUSH0 DUP1 PUSH2 0x100 EXP DUP2 SLOAD DUP2 PUSH20 0xFFFFFFFFFFFFFFFFFFFFFFFFFFFFFFFFFFFFFFFF MUL NOT AND SWAP1 DUP4 PUSH20 0xFFFFFFFFFFFFFFFFFFFFFFFFFFFFFFFFFFFFFFFF AND MUL OR SWAP1 SSTORE POP CALLER PUSH1 0x1 PUSH0 PUSH2 0x100 EXP DUP2 SLOAD DUP2 PUSH20 0xFFFFFFFFFFFFFFFFFFFFFFFFFFFFFFFFFFFFFFFF MUL NOT AND SWAP1 DUP4 PUSH20 0xFFFFFFFFFFFFFFFFFFFFFFFFFFFFFFFFFFFFFFFF AND MUL OR SWAP1 SSTORE POP PUSH2 0xD56 DUP1 PUSH2 0xB3 PUSH0 CODECOPY PUSH0 RETURN INVALID PUSH1 0x80 PUSH1 0x40 MSTORE CALLVALUE DUP1 ISZERO PUSH2 0xF JUMPI PUSH0 DUP1 REVERT JUMPDEST POP PUSH1 0x4 CALLDATASIZE LT PUSH2 0x3F JUMPI PUSH0 CALLDATALOAD PUSH1 0xE0 SHR DUP1 PUSH4 0x1C26DC23 EQ PUSH2 0x43 JUMPI DUP1 PUSH4 0x3129E773 EQ PUSH2 0x5F JUMPI DUP1 PUSH4 0xD5E6C333 EQ PUSH2 0x91 JUMPI JUMPDEST PUSH0 DUP1 REVERT JUMPDEST PUSH2 0x5D PUSH1 0x4 DUP1 CALLDATASIZE SUB DUP2 ADD SWAP1 PUSH2 0x58 SWAP2 SWAP1 PUSH2 0x523 JUMP JUMPDEST PUSH2 0xAD JUMP JUMPDEST STOP JUMPDEST PUSH2 0x79 PUSH1 0x4 DUP1 CALLDATASIZE SUB DUP2 ADD SWAP1 PUSH2 0x74 SWAP2 SWAP1 PUSH2 0x523 JUMP JUMPDEST PUSH2 0x2E1 JUMP JUMPDEST PUSH1 0x40 MLOAD PUSH2 0x88 SWAP4 SWAP3 SWAP2 SWAP1 PUSH2 0x5CD JUMP JUMPDEST PUSH1 0x40 MLOAD DUP1 SWAP2 SUB SWAP1 RETURN JUMPDEST PUSH2 0xAB PUSH1 0x4 DUP1 CALLDATASIZE SUB DUP2 ADD SWAP1 PUSH2 0xA6 SWAP2 SWAP1 PUSH2 0x735 JUMP JUMPDEST PUSH2 0x39E JUMP JUMPDEST STOP JUMPDEST PUSH0 PUSH1 0x3 PUSH0 DUP4 DUP2 MSTORE PUSH1 0x20 ADD SWAP1 DUP2 MSTORE PUSH1 0x20 ADD PUSH0 KECCAK256 SWAP1 POP PUSH0 DUP2 PUSH1 0x1 ADD SLOAD GT PUSH2 0x107 JUMPI PUSH1 0x40 MLOAD PUSH32 0x8C379A000000000000000000000000000000000000000000000000000000000 DUP2 MSTORE PUSH1 0x4 ADD PUSH2 0xFE SWAP1 PUSH2 0x7EB JUMP JUMPDEST PUSH1 0x40 MLOAD DUP1 SWAP2 SUB SWAP1 REVERT JUMPDEST DUP1 PUSH1 0x2 ADD SLOAD PUSH0 DUP1 SLOAD SWAP1 PUSH2 0x100 EXP SWAP1 DIV PUSH20 0xFFFFFFFFFFFFFFFFFFFFFFFFFFFFFFFFFFFFFFFF AND PUSH20 0xFFFFFFFFFFFFFFFFFFFFFFFFFFFFFFFFFFFFFFFF AND PUSH4 0x70A08231 CALLER PUSH1 0x40 MLOAD DUP3 PUSH4 0xFFFFFFFF AND PUSH1 0xE0 SHL DUP2 MSTORE PUSH1 0x4 ADD PUSH2 0x164 SWAP2 SWAP1 PUSH2 0x848 JUMP JUMPDEST PUSH1 0x20 PUSH1 0x40 MLOAD DUP1 DUP4 SUB DUP2 DUP7 GAS STATICCALL ISZERO DUP1 ISZERO PUSH2 0x17F JUMPI RETURNDATASIZE PUSH0 DUP1 RETURNDATACOPY RETURNDATASIZE PUSH0 REVERT JUMPDEST POP POP POP POP PUSH1 0x40 MLOAD RETURNDATASIZE PUSH1 0x1F NOT PUSH1 0x1F DUP3 ADD AND DUP3 ADD DUP1 PUSH1 0x40 MSTORE POP DUP2 ADD SWAP1 PUSH2 0x1A3 SWAP2 SWAP1 PUSH2 0x875 JUMP JUMPDEST LT ISZERO PUSH2 0x1E4 JUMPI PUSH1 0x40 MLOAD PUSH32 0x8C379A000000000000000000000000000000000000000000000000000000000 DUP2 MSTORE PUSH1 0x4 ADD PUSH2 0x1DB SWAP1 PUSH2 0x8EA JUMP JUMPDEST PUSH1 0x40 MLOAD DUP1 SWAP2 SUB SWAP1 REVERT JUMPDEST PUSH0 DUP1 SLOAD SWAP1 PUSH2 0x100 EXP SWAP1 DIV PUSH20 0xFFFFFFFFFFFFFFFFFFFFFFFFFFFFFFFFFFFFFFFF AND PUSH20 0xFFFFFFFFFFFFFFFFFFFFFFFFFFFFFFFFFFFFFFFF AND PUSH4 0x9DC29FAC CALLER DUP4 PUSH1 0x2 ADD SLOAD PUSH1 0x40 MLOAD DUP4 PUSH4 0xFFFFFFFF AND PUSH1 0xE0 SHL DUP2 MSTORE PUSH1 0x4 ADD PUSH2 0x242 SWAP3 SWAP2 SWAP1 PUSH2 0x908 JUMP JUMPDEST PUSH0 PUSH1 0x40 MLOAD DUP1 DUP4 SUB DUP2 PUSH0 DUP8 DUP1 EXTCODESIZE ISZERO DUP1 ISZERO PUSH2 0x259 JUMPI PUSH0 DUP1 REVERT JUMPDEST POP GAS CALL ISZERO DUP1 ISZERO PUSH2 0x26B JUMPI RETURNDATASIZE PUSH0 DUP1 RETURNDATACOPY RETURNDATASIZE PUSH0 REVERT JUMPDEST POP POP POP POP PUSH1 0x1 DUP2 PUSH1 0x1 ADD PUSH0 DUP3 DUP3 SLOAD PUSH2 0x283 SWAP2 SWAP1 PUSH2 0x95C JUMP JUMPDEST SWAP3 POP POP DUP2 SWAP1 SSTORE POP CALLER PUSH20 0xFFFFFFFFFFFFFFFFFFFFFFFFFFFFFFFFFFFFFFFF AND DUP3 PUSH32 0x204872E2F38E4C26BC731E8258C7029825F7ABD18F39192C2CEE4618C8F8F37A DUP4 PUSH1 0x2 ADD SLOAD PUSH1 0x40 MLOAD PUSH2 0x2D5 SWAP2 SWAP1 PUSH2 0x98F JUMP JUMPDEST PUSH1 0x40 MLOAD DUP1 SWAP2 SUB SWAP1 LOG3 POP POP JUMP JUMPDEST PUSH1 0x60 PUSH0 DUP1 PUSH0 PUSH1 0x3 PUSH0 DUP7 DUP2 MSTORE PUSH1 0x20 ADD SWAP1 DUP2 MSTORE PUSH1 0x20 ADD PUSH0 KECCAK256 SWAP1 POP DUP1 PUSH0 ADD DUP2 PUSH1 0x1 ADD SLOAD DUP3 PUSH1 0x2 ADD SLOAD DUP3 DUP1 SLOAD PUSH2 0x312 SWAP1 PUSH2 0x9D5 JUMP JUMPDEST DUP1 PUSH1 0x1F ADD PUSH1 0x20 DUP1 SWAP2 DIV MUL PUSH1 0x20 ADD PUSH1 0x40 MLOAD SWAP1 DUP2 ADD PUSH1 0x40 MSTORE DUP1 SWAP3 SWAP2 SWAP1 DUP2 DUP2 MSTORE PUSH1 0x20 ADD DUP3 DUP1 SLOAD PUSH2 0x33E SWAP1 PUSH2 0x9D5 JUMP JUMPDEST DUP1 ISZERO PUSH2 0x389 JUMPI DUP1 PUSH1 0x1F LT PUSH2 0x360 JUMPI PUSH2 0x100 DUP1 DUP4 SLOAD DIV MUL DUP4 MSTORE SWAP2 PUSH1 0x20 ADD SWAP2 PUSH2 0x389 JUMP JUMPDEST DUP3 ADD SWAP2 SWAP1 PUSH0 MSTORE PUSH1 0x20 PUSH0 KECCAK256 SWAP1 JUMPDEST DUP2 SLOAD DUP2 MSTORE SWAP1 PUSH1 0x1 ADD SWAP1 PUSH1 0x20 ADD DUP1 DUP4 GT PUSH2 0x36C JUMPI DUP3 SWAP1 SUB PUSH1 0x1F AND DUP3 ADD SWAP2 JUMPDEST POP POP POP POP POP SWAP3 POP SWAP4 POP SWAP4 POP SWAP4 POP POP SWAP2 SWAP4 SWAP1 SWAP3 POP JUMP JUMPDEST PUSH1 0x1 PUSH0 SWAP1 SLOAD SWAP1 PUSH2 0x100 EXP SWAP1 DIV PUSH20 0xFFFFFFFFFFFFFFFFFFFFFFFFFFFFFFFFFFFFFFFF AND PUSH20 0xFFFFFFFFFFFFFFFFFFFFFFFFFFFFFFFFFFFFFFFF AND CALLER PUSH20 0xFFFFFFFFFFFFFFFFFFFFFFFFFFFFFFFFFFFFFFFF AND EQ PUSH2 0x42D JUMPI PUSH1 0x40 MLOAD PUSH32 0x8C379A000000000000000000000000000000000000000000000000000000000 DUP2 MSTORE PUSH1 0x4 ADD PUSH2 0x424 SWAP1 PUSH2 0xA4F JUMP JUMPDEST PUSH1 0x40 MLOAD DUP1 SWAP2 SUB SWAP1 REVERT JUMPDEST PUSH0 PUSH1 0x2 PUSH0 DUP2 SLOAD DUP1 SWAP3 SWAP2 SWAP1 PUSH2 0x440 SWAP1 PUSH2 0xA6D JUMP JUMPDEST SWAP2 SWAP1 POP SSTORE SWAP1 POP PUSH1 0x40 MLOAD DUP1 PUSH1 0x60 ADD PUSH1 0x40 MSTORE DUP1 DUP6 DUP2 MSTORE PUSH1 0x20 ADD DUP5 DUP2 MSTORE PUSH1 0x20 ADD DUP4 DUP2 MSTORE POP PUSH1 0x3 PUSH0 DUP4 DUP2 MSTORE PUSH1 0x20 ADD SWAP1 DUP2 MSTORE PUSH1 0x20 ADD PUSH0 KECCAK256 PUSH0 DUP3 ADD MLOAD DUP2 PUSH0 ADD SWAP1 DUP2 PUSH2 0x485 SWAP2 SWAP1 PUSH2 0xC51 JUMP JUMPDEST POP PUSH1 0x20 DUP3 ADD MLOAD DUP2 PUSH1 0x1 ADD SSTORE PUSH1 0x40 DUP3 ADD MLOAD DUP2 PUSH1 0x2 ADD SSTORE SWAP1 POP POP DUP1 PUSH32 0x665E452EB624A7F9BF54ABD5D404D4F4DA7360A1E40698893FE2CC447A51AF9C DUP6 DUP6 DUP6 PUSH1 0x40 MLOAD PUSH2 0x4D1 SWAP4 SWAP3 SWAP2 SWAP1 PUSH2 0x5CD JUMP JUMPDEST PUSH1 0x40 MLOAD DUP1 SWAP2 SUB SWAP1 LOG2 POP POP POP POP JUMP JUMPDEST PUSH0 PUSH1 0x40 MLOAD SWAP1 POP SWAP1 JUMP JUMPDEST PUSH0 DUP1 REVERT JUMPDEST PUSH0 DUP1 REVERT JUMPDEST PUSH0 DUP2 SWAP1 POP SWAP2 SWAP1 POP JUMP JUMPDEST PUSH2 0x502 DUP2 PUSH2 0x4F0 JUMP JUMPDEST DUP2 EQ PUSH2 0x50C JUMPI PUSH0 DUP1 REVERT JUMPDEST POP JUMP JUMPDEST PUSH0 DUP2 CALLDATALOAD SWAP1 POP PUSH2 0x51D DUP2 PUSH2 0x4F9 JUMP JUMPDEST SWAP3 SWAP2 POP POP JUMP JUMPDEST PUSH0 PUSH1 0x20 DUP3 DUP5 SUB SLT ISZERO PUSH2 0x538 JUMPI PUSH2 0x537 PUSH2 0x4E8 JUMP JUMPDEST JUMPDEST PUSH0 PUSH2 0x545 DUP5 DUP3 DUP6 ADD PUSH2 0x50F JUMP JUMPDEST SWAP2 POP POP SWAP3 SWAP2 POP POP JUMP JUMPDEST PUSH0 DUP2 MLOAD SWAP1 POP SWAP2 SWAP1 POP JUMP JUMPDEST PUSH0 DUP3 DUP3 MSTORE PUSH1 0x20 DUP3 ADD SWAP1 POP SWAP3 SWAP2 POP POP JUMP JUMPDEST DUP3 DUP2 DUP4 MCOPY PUSH0 DUP4 DUP4 ADD MSTORE POP POP POP JUMP JUMPDEST PUSH0 PUSH1 0x1F NOT PUSH1 0x1F DUP4 ADD AND SWAP1 POP SWAP2 SWAP1 POP JUMP JUMPDEST PUSH0 PUSH2 0x590 DUP3 PUSH2 0x54E JUMP JUMPDEST PUSH2 0x59A DUP2 DUP6 PUSH2 0x558 JUMP JUMPDEST SWAP4 POP PUSH2 0x5AA DUP2 DUP6 PUSH1 0x20 DUP7 ADD PUSH2 0x568 JUMP JUMPDEST PUSH2 0x5B3 DUP2 PUSH2 0x576 JUMP JUMPDEST DUP5 ADD SWAP2 POP POP SWAP3 SWAP2 POP POP JUMP JUMPDEST PUSH2 0x5C7 DUP2 PUSH2 0x4F0 JUMP JUMPDEST DUP3 MSTORE POP POP JUMP JUMPDEST PUSH0 PUSH1 0x60 DUP3 ADD SWAP1 POP DUP2 DUP2 SUB PUSH0 DUP4 ADD MSTORE PUSH2 0x5E5 DUP2 DUP7 PUSH2 0x586 JUMP JUMPDEST SWAP1 POP PUSH2 0x5F4 PUSH1 0x20 DUP4 ADD DUP6 PUSH2 0x5BE JUMP JUMPDEST PUSH2 0x601 PUSH1 0x40 DUP4 ADD DUP5 PUSH2 0x5BE JUMP JUMPDEST SWAP5 SWAP4 POP POP POP POP JUMP JUMPDEST PUSH0 DUP1 REVERT JUMPDEST PUSH0 DUP1 REVERT JUMPDEST PUSH32 0x4E487B7100000000000000000000000000000000000000000000000000000000 PUSH0 MSTORE PUSH1 0x41 PUSH1 0x4 MSTORE PUSH1 0x24 PUSH0 REVERT JUMPDEST PUSH2 0x647 DUP3 PUSH2 0x576 JUMP JUMPDEST DUP2 ADD DUP2 DUP2 LT PUSH8 0xFFFFFFFFFFFFFFFF DUP3 GT OR ISZERO PUSH2 0x666 JUMPI PUSH2 0x665 PUSH2 0x611 JUMP JUMPDEST JUMPDEST DUP1 PUSH1 0x40 MSTORE POP POP POP JUMP JUMPDEST PUSH0 PUSH2 0x678 PUSH2 0x4DF JUMP JUMPDEST SWAP1 POP PUSH2 0x684 DUP3 DUP3 PUSH2 0x63E JUMP JUMPDEST SWAP2 SWAP1 POP JUMP JUMPDEST PUSH0 PUSH8 0xFFFFFFFFFFFFFFFF DUP3 GT ISZERO PUSH2 0x6A3 JUMPI PUSH2 0x6A2 PUSH2 0x611 JUMP JUMPDEST JUMPDEST PUSH2 0x6AC DUP3 PUSH2 0x576 JUMP JUMPDEST SWAP1 POP PUSH1 0x20 DUP2 ADD SWAP1 POP SWAP2 SWAP1 POP JUMP JUMPDEST DUP3 DUP2 DUP4 CALLDATACOPY PUSH0 DUP4 DUP4 ADD MSTORE POP POP POP JUMP JUMPDEST PUSH0 PUSH2 0x6D9 PUSH2 0x6D4 DUP5 PUSH2 0x689 JUMP JUMPDEST PUSH2 0x66F JUMP JUMPDEST SWAP1 POP DUP3 DUP2 MSTORE PUSH1 0x20 DUP2 ADD DUP5 DUP5 DUP5 ADD GT ISZERO PUSH2 0x6F5 JUMPI PUSH2 0x6F4 PUSH2 0x60D JUMP JUMPDEST JUMPDEST PUSH2 0x700 DUP5 DUP3 DUP6 PUSH2 0x6B9 JUMP JUMPDEST POP SWAP4 SWAP3 POP POP POP JUMP JUMPDEST PUSH0 DUP3 PUSH1 0x1F DUP4 ADD SLT PUSH2 0x71C JUMPI PUSH2 0x71B PUSH2 0x609 JUMP JUMPDEST JUMPDEST DUP2 CALLDATALOAD PUSH2 0x72C DUP5 DUP3 PUSH1 0x20 DUP7 ADD PUSH2 0x6C7 JUMP JUMPDEST SWAP2 POP POP SWAP3 SWAP2 POP POP JUMP JUMPDEST PUSH0 DUP1 PUSH0 PUSH1 0x60 DUP5 DUP7 SUB SLT ISZERO PUSH2 0x74C JUMPI PUSH2 0x74B PUSH2 0x4E8 JUMP JUMPDEST JUMPDEST PUSH0 DUP5 ADD CALLDATALOAD PUSH8 0xFFFFFFFFFFFFFFFF DUP2 GT ISZERO PUSH2 0x769 JUMPI PUSH2 0x768 PUSH2 0x4EC JUMP JUMPDEST JUMPDEST PUSH2 0x775 DUP7 DUP3 DUP8 ADD PUSH2 0x708 JUMP JUMPDEST SWAP4 POP POP PUSH1 0x20 PUSH2 0x786 DUP7 DUP3 DUP8 ADD PUSH2 0x50F JUMP JUMPDEST SWAP3 POP POP PUSH1 0x40 PUSH2 0x797 DUP7 DUP3 DUP8 ADD PUSH2 0x50F JUMP JUMPDEST SWAP2 POP POP SWAP3 POP SWAP3 POP SWAP3 JUMP JUMPDEST PUSH32 0x4974656D206F7574206F662073746F636B000000000000000000000000000000 PUSH0 DUP3 ADD MSTORE POP JUMP JUMPDEST PUSH0 PUSH2 0x7D5 PUSH1 0x11 DUP4 PUSH2 0x558 JUMP JUMPDEST SWAP2 POP PUSH2 0x7E0 DUP3 PUSH2 0x7A1 JUMP JUMPDEST PUSH1 0x20 DUP3 ADD SWAP1 POP SWAP2 SWAP1 POP JUMP JUMPDEST PUSH0 PUSH1 0x20 DUP3 ADD SWAP1 POP DUP2 DUP2 SUB PUSH0 DUP4 ADD MSTORE PUSH2 0x802 DUP2 PUSH2 0x7C9 JUMP JUMPDEST SWAP1 POP SWAP2 SWAP1 POP JUMP JUMPDEST PUSH0 PUSH20 0xFFFFFFFFFFFFFFFFFFFFFFFFFFFFFFFFFFFFFFFF DUP3 AND SWAP1 POP SWAP2 SWAP1 POP JUMP JUMPDEST PUSH0 PUSH2 0x832 DUP3 PUSH2 0x809 JUMP JUMPDEST SWAP1 POP SWAP2 SWAP1 POP JUMP JUMPDEST PUSH2 0x842 DUP2 PUSH2 0x828 JUMP JUMPDEST DUP3 MSTORE POP POP JUMP JUMPDEST PUSH0 PUSH1 0x20 DUP3 ADD SWAP1 POP PUSH2 0x85B PUSH0 DUP4 ADD DUP5 PUSH2 0x839 JUMP JUMPDEST SWAP3 SWAP2 POP POP JUMP JUMPDEST PUSH0 DUP2 MLOAD SWAP1 POP PUSH2 0x86F DUP2 PUSH2 0x4F9 JUMP JUMPDEST SWAP3 SWAP2 POP POP JUMP JUMPDEST PUSH0 PUSH1 0x20 DUP3 DUP5 SUB SLT ISZERO PUSH2 0x88A JUMPI PUSH2 0x889 PUSH2 0x4E8 JUMP JUMPDEST JUMPDEST PUSH0 PUSH2 0x897 DUP5 DUP3 DUP6 ADD PUSH2 0x861 JUMP JUMPDEST SWAP2 POP POP SWAP3 SWAP2 POP POP JUMP JUMPDEST PUSH32 0x496E73756666696369656E742048656C50657420746F6B656E73000000000000 PUSH0 DUP3 ADD MSTORE POP JUMP JUMPDEST PUSH0 PUSH2 0x8D4 PUSH1 0x1A DUP4 PUSH2 0x558 JUMP JUMPDEST SWAP2 POP PUSH2 0x8DF DUP3 PUSH2 0x8A0 JUMP JUMPDEST PUSH1 0x20 DUP3 ADD SWAP1 POP SWAP2 SWAP1 POP JUMP JUMPDEST PUSH0 PUSH1 0x20 DUP3 ADD SWAP1 POP DUP2 DUP2 SUB PUSH0 DUP4 ADD MSTORE PUSH2 0x901 DUP2 PUSH2 0x8C8 JUMP JUMPDEST SWAP1 POP SWAP2 SWAP1 POP JUMP JUMPDEST PUSH0 PUSH1 0x40 DUP3 ADD SWAP1 POP PUSH2 0x91B PUSH0 DUP4 ADD DUP6 PUSH2 0x839 JUMP JUMPDEST PUSH2 0x928 PUSH1 0x20 DUP4 ADD DUP5 PUSH2 0x5BE JUMP JUMPDEST SWAP4 SWAP3 POP POP POP JUMP JUMPDEST PUSH32 0x4E487B7100000000000000000000000000000000000000000000000000000000 PUSH0 MSTORE PUSH1 0x11 PUSH1 0x4 MSTORE PUSH1 0x24 PUSH0 REVERT JUMPDEST PUSH0 PUSH2 0x966 DUP3 PUSH2 0x4F0 JUMP JUMPDEST SWAP2 POP PUSH2 0x971 DUP4 PUSH2 0x4F0 JUMP JUMPDEST SWAP3 POP DUP3 DUP3 SUB SWAP1 POP DUP2 DUP2 GT ISZERO PUSH2 0x989 JUMPI PUSH2 0x988 PUSH2 0x92F JUMP JUMPDEST JUMPDEST SWAP3 SWAP2 POP POP JUMP JUMPDEST PUSH0 PUSH1 0x20 DUP3 ADD SWAP1 POP PUSH2 0x9A2 PUSH0 DUP4 ADD DUP5 PUSH2 0x5BE JUMP JUMPDEST SWAP3 SWAP2 POP POP JUMP JUMPDEST PUSH32 0x4E487B7100000000000000000000000000000000000000000000000000000000 PUSH0 MSTORE PUSH1 0x22 PUSH1 0x4 MSTORE PUSH1 0x24 PUSH0 REVERT JUMPDEST PUSH0 PUSH1 0x2 DUP3 DIV SWAP1 POP PUSH1 0x1 DUP3 AND DUP1 PUSH2 0x9EC JUMPI PUSH1 0x7F DUP3 AND SWAP2 POP JUMPDEST PUSH1 0x20 DUP3 LT DUP2 SUB PUSH2 0x9FF JUMPI PUSH2 0x9FE PUSH2 0x9A8 JUMP JUMPDEST JUMPDEST POP SWAP2 SWAP1 POP JUMP JUMPDEST PUSH32 0x4E6F742074686520636F6E7472616374206F776E657200000000000000000000 PUSH0 DUP3 ADD MSTORE POP JUMP JUMPDEST PUSH0 PUSH2 0xA39 PUSH1 0x16 DUP4 PUSH2 0x558 JUMP JUMPDEST SWAP2 POP PUSH2 0xA44 DUP3 PUSH2 0xA05 JUMP JUMPDEST PUSH1 0x20 DUP3 ADD SWAP1 POP SWAP2 SWAP1 POP JUMP JUMPDEST PUSH0 PUSH1 0x20 DUP3 ADD SWAP1 POP DUP2 DUP2 SUB PUSH0 DUP4 ADD MSTORE PUSH2 0xA66 DUP2 PUSH2 0xA2D JUMP JUMPDEST SWAP1 POP SWAP2 SWAP1 POP JUMP JUMPDEST PUSH0 PUSH2 0xA77 DUP3 PUSH2 0x4F0 JUMP JUMPDEST SWAP2 POP PUSH32 0xFFFFFFFFFFFFFFFFFFFFFFFFFFFFFFFFFFFFFFFFFFFFFFFFFFFFFFFFFFFFFFFF DUP3 SUB PUSH2 0xAA9 JUMPI PUSH2 0xAA8 PUSH2 0x92F JUMP JUMPDEST JUMPDEST PUSH1 0x1 DUP3 ADD SWAP1 POP SWAP2 SWAP1 POP JUMP JUMPDEST PUSH0 DUP2 SWAP1 POP DUP2 PUSH0 MSTORE PUSH1 0x20 PUSH0 KECCAK256 SWAP1 POP SWAP2 SWAP1 POP JUMP JUMPDEST PUSH0 PUSH1 0x20 PUSH1 0x1F DUP4 ADD DIV SWAP1 POP SWAP2 SWAP1 POP JUMP JUMPDEST PUSH0 DUP3 DUP3 SHL SWAP1 POP SWAP3 SWAP2 POP POP JUMP JUMPDEST PUSH0 PUSH1 0x8 DUP4 MUL PUSH2 0xB10 PUSH32 0xFFFFFFFFFFFFFFFFFFFFFFFFFFFFFFFFFFFFFFFFFFFFFFFFFFFFFFFFFFFFFFFF DUP3 PUSH2 0xAD5 JUMP JUMPDEST PUSH2 0xB1A DUP7 DUP4 PUSH2 0xAD5 JUMP JUMPDEST SWAP6 POP DUP1 NOT DUP5 AND SWAP4 POP DUP1 DUP7 AND DUP5 OR SWAP3 POP POP POP SWAP4 SWAP3 POP POP POP JUMP JUMPDEST PUSH0 DUP2 SWAP1 POP SWAP2 SWAP1 POP JUMP JUMPDEST PUSH0 PUSH2 0xB55 PUSH2 0xB50 PUSH2 0xB4B DUP5 PUSH2 0x4F0 JUMP JUMPDEST PUSH2 0xB32 JUMP JUMPDEST PUSH2 0x4F0 JUMP JUMPDEST SWAP1 POP SWAP2 SWAP1 POP JUMP JUMPDEST PUSH0 DUP2 SWAP1 POP SWAP2 SWAP1 POP JUMP JUMPDEST PUSH2 0xB6E DUP4 PUSH2 0xB3B JUMP JUMPDEST PUSH2 0xB82 PUSH2 0xB7A DUP3 PUSH2 0xB5C JUMP JUMPDEST DUP5 DUP5 SLOAD PUSH2 0xAE1 JUMP JUMPDEST DUP3 SSTORE POP POP POP POP JUMP JUMPDEST PUSH0 SWAP1 JUMP JUMPDEST PUSH2 0xB96 PUSH2 0xB8A JUMP JUMPDEST PUSH2 0xBA1 DUP2 DUP5 DUP5 PUSH2 0xB65 JUMP JUMPDEST POP POP POP JUMP JUMPDEST JUMPDEST DUP2 DUP2 LT ISZERO PUSH2 0xBC4 JUMPI PUSH2 0xBB9 PUSH0 DUP3 PUSH2 0xB8E JUMP JUMPDEST PUSH1 0x1 DUP2 ADD SWAP1 POP PUSH2 0xBA7 JUMP JUMPDEST POP POP JUMP JUMPDEST PUSH1 0x1F DUP3 GT ISZERO PUSH2 0xC09 JUMPI PUSH2 0xBDA DUP2 PUSH2 0xAB4 JUMP JUMPDEST PUSH2 0xBE3 DUP5 PUSH2 0xAC6 JUMP JUMPDEST DUP2 ADD PUSH1 0x20 DUP6 LT ISZERO PUSH2 0xBF2 JUMPI DUP2 SWAP1 POP JUMPDEST PUSH2 0xC06 PUSH2 0xBFE DUP6 PUSH2 0xAC6 JUMP JUMPDEST DUP4 ADD DUP3 PUSH2 0xBA6 JUMP JUMPDEST POP POP JUMPDEST POP POP POP JUMP JUMPDEST PUSH0 DUP3 DUP3 SHR SWAP1 POP SWAP3 SWAP2 POP POP JUMP JUMPDEST PUSH0 PUSH2 0xC29 PUSH0 NOT DUP5 PUSH1 0x8 MUL PUSH2 0xC0E JUMP JUMPDEST NOT DUP1 DUP4 AND SWAP2 POP POP SWAP3 SWAP2 POP POP JUMP JUMPDEST PUSH0 PUSH2 0xC41 DUP4 DUP4 PUSH2 0xC1A JUMP JUMPDEST SWAP2 POP DUP3 PUSH1 0x2 MUL DUP3 OR SWAP1 POP SWAP3 SWAP2 POP POP JUMP JUMPDEST PUSH2 0xC5A DUP3 PUSH2 0x54E JUMP JUMPDEST PUSH8 0xFFFFFFFFFFFFFFFF DUP2 GT ISZERO PUSH2 0xC73 JUMPI PUSH2 0xC72 PUSH2 0x611 JUMP JUMPDEST JUMPDEST PUSH2 0xC7D DUP3 SLOAD PUSH2 0x9D5 JUMP JUMPDEST PUSH2 0xC88 DUP3 DUP3 DUP6 PUSH2 0xBC8 JUMP JUMPDEST PUSH0 PUSH1 0x20 SWAP1 POP PUSH1 0x1F DUP4 GT PUSH1 0x1 DUP2 EQ PUSH2 0xCB9 JUMPI PUSH0 DUP5 ISZERO PUSH2 0xCA7 JUMPI DUP3 DUP8 ADD MLOAD SWAP1 POP JUMPDEST PUSH2 0xCB1 DUP6 DUP3 PUSH2 0xC36 JUMP JUMPDEST DUP7 SSTORE POP PUSH2 0xD18 JUMP JUMPDEST PUSH1 0x1F NOT DUP5 AND PUSH2 0xCC7 DUP7 PUSH2 0xAB4 JUMP JUMPDEST PUSH0 JUMPDEST DUP3 DUP2 LT ISZERO PUSH2 0xCEE JUMPI DUP5 DUP10 ADD MLOAD DUP3 SSTORE PUSH1 0x1 DUP3 ADD SWAP2 POP PUSH1 0x20 DUP6 ADD SWAP5 POP PUSH1 0x20 DUP2 ADD SWAP1 POP PUSH2 0xCC9 JUMP JUMPDEST DUP7 DUP4 LT ISZERO PUSH2 0xD0B JUMPI DUP5 DUP10 ADD MLOAD PUSH2 0xD07 PUSH1 0x1F DUP10 AND DUP3 PUSH2 0xC1A JUMP JUMPDEST DUP4 SSTORE POP JUMPDEST PUSH1 0x1 PUSH1 0x2 DUP9 MUL ADD DUP9 SSTORE POP POP POP JUMPDEST POP POP POP POP POP POP JUMP INVALID LOG2 PUSH5 0x6970667358 0x22 SLT KECCAK256 0xDD 0xDF 0xD8 PUSH12 0x2FCF61E04BA1DDCEDE7B98A1 0xC1 DUP10 0xCB RETURNDATASIZE DUP11 PUSH3 0xDC6103 0xE0 0xD8 JUMPI STOP 0xB5 PUSH12 0x5664736F6C634300081A0033 "
				},
				"gasEstimates": {
					"creation": {
						"codeDepositCost": "682800",
						"executionCost": "54249",
						"totalCost": "737049"
					},
					"external": {
						"addItem(string,uint256,uint256)": "infinite",
						"getItem(uint256)": "infinite",
						"redeemItem(uint256)": "infinite"
					}
				},
				"methodIdentifiers": {
					"addItem(string,uint256,uint256)": "d5e6c333",
					"getItem(uint256)": "3129e773",
					"redeemItem(uint256)": "1c26dc23"
				}
			},
			"storageLayout": {
				"storage": [
					{
						"astId": 1028,
						"contract": "contracts/Canjear_flattened.sol:Canjear",
						"label": "helPetToken",
						"offset": 0,
						"slot": "0",
						"type": "t_contract(HelpetToken)1024"
					},
					{
						"astId": 1030,
						"contract": "contracts/Canjear_flattened.sol:Canjear",
						"label": "owner",
						"offset": 0,
						"slot": "1",
						"type": "t_address"
					},
					{
						"astId": 1040,
						"contract": "contracts/Canjear_flattened.sol:Canjear",
						"label": "nextItemId",
						"offset": 0,
						"slot": "2",
						"type": "t_uint256"
					},
					{
						"astId": 1045,
						"contract": "contracts/Canjear_flattened.sol:Canjear",
						"label": "items",
						"offset": 0,
						"slot": "3",
						"type": "t_mapping(t_uint256,t_struct(Item)1037_storage)"
					}
				],
				"types": {
					"t_address": {
						"encoding": "inplace",
						"label": "address",
						"numberOfBytes": "20"
					},
					"t_contract(HelpetToken)1024": {
						"encoding": "inplace",
						"label": "contract HelpetToken",
						"numberOfBytes": "20"
					},
					"t_mapping(t_uint256,t_struct(Item)1037_storage)": {
						"encoding": "mapping",
						"key": "t_uint256",
						"label": "mapping(uint256 => struct Canjear.Item)",
						"numberOfBytes": "32",
						"value": "t_struct(Item)1037_storage"
					},
					"t_string_storage": {
						"encoding": "bytes",
						"label": "string",
						"numberOfBytes": "32"
					},
					"t_struct(Item)1037_storage": {
						"encoding": "inplace",
						"label": "struct Canjear.Item",
						"members": [
							{
								"astId": 1032,
								"contract": "contracts/Canjear_flattened.sol:Canjear",
								"label": "name",
								"offset": 0,
								"slot": "0",
								"type": "t_string_storage"
							},
							{
								"astId": 1034,
								"contract": "contracts/Canjear_flattened.sol:Canjear",
								"label": "stock",
								"offset": 0,
								"slot": "1",
								"type": "t_uint256"
							},
							{
								"astId": 1036,
								"contract": "contracts/Canjear_flattened.sol:Canjear",
								"label": "cost",
								"offset": 0,
								"slot": "2",
								"type": "t_uint256"
							}
						],
						"numberOfBytes": "96"
					},
					"t_uint256": {
						"encoding": "inplace",
						"label": "uint256",
						"numberOfBytes": "32"
					}
				}
			},
			"userdoc": {
				"kind": "user",
				"methods": {},
				"version": 1
			}
		}
	}
}